:020000040800F2
:10000000305C0020D50300085F3500087933000814
:100010005D350008A7200008413A000800000000F4
:1000200000000000000000000000000015030008B0
:10003000A92000080000000071030008053700082F
:10004000EF030008EF030008EF030008EF030008C8
:10005000EF030008EF030008EF030008EF030008B8
:10006000EF030008EF030008EF030008EF030008A8
:10007000EF030008EF030008EF030008EF03000898
:10008000EF030008EF030008EF030008EF03000888
:10009000EF030008EF030008EF030008EF03000878
:1000A000EF030008C5370008EF030008EF0300085E
:1000B000EF030008EF030008EF030008EF03000858
:1000C000EF030008EF030008EF030008EF03000848
:1000D000EF030008353A0008EF030008EF030008BB
:1000E000EF030008EF030008EF030008EF03000828
:1000F000EF030008EF030008EF030008EF03000818
:10010000EF030008EF030008EF030008EF03000807
:10011000EF030008EF030008EF030008EF030008F7
:10012000EF030008EF030008EF030008EF030008E7
:10013000EF030008EF030008EF030008EF030008D7
:10014000EF030008EF030008EF030008EF030008C7
:10015000EF030008EF030008EF030008EF030008B7
:10016000EF030008EF030008EF030008EF030008A7
:10017000EF030008EF030008EF0300080000000091
:10018000EF030008EF03000800F002F800F0B2F8F7
:100190000AA090E8000C82448344AAF10107DA45E2
:1001A00001D100F0A7F8AFF2090EBAE80F0013F082
:1001B000010F18BFFB1A43F00103184750940000C9
:1001C000709400000A444FF0000C10F8013B13F04B
:1001D000070408BF10F8014B1D1108BF10F8015BA0
:1001E000641E05D010F8016B641E01F8016BF9D193
:1001F00013F0080F1EBF10F8014BAD1C0C1B09D1EA
:100200006D1E58BF01F801CBFAD505E014F8016B5B
:1002100001F8016B6D1EF9D59142D6D370470000ED
:100220000023002400250026103A28BF78C1FBD8FF
:10023000520728BF30C148BF0B6070476E2900F0DD
:100240004285702900F08B82662908F0E0846529D8
:1002500008F0DD84672908F0DA84612908F0D98480
:1002600003681B0A28BF41F08001692900F0FC8166
:10027000642900F0F981752900F0F6816F2900F0FA
:100280004286782900F05782E92900F0DD85E429CB
:1002900000F0DA85F52900F0D785EF2900F03F86D8
:1002A000F82900F056820368DB0928BF41F080017D
:1002B000632900F04C85732900F05185E32901F092
:1002C0001982F32901F01E82002070471FB508F043
:1002D00099FC00F089FC04000020002108F066FC75
:1002E000401C60600020002108F076FCE0601FBD2B
:1002F00010B510BD01F02EFA1146FFF7E7FF04F02C
:1003000099FA01F0FFFA03B4FFF7F2FF03BC03F020
:10031000C7FB00002C4B19680868B0E8F04F80F369
:100320000988BFF36F8F4FF0000080F3118870478A
:100330000000000008480068006880F308884FF05B
:10034000000080F3148862B661B6BFF34F8FBFF32D
:100350006F8F00DF00BF00BF08ED00E0DFF80C008A
:10036000016841F470010160704700BF88ED00E052
:10037000EFF30980BFF36F8F134B1A681EF0100F55
:1003800008BF20ED108A20E9F04F106009B44FF04B
:10039000500080F31188BFF34F8FBFF36F8F07F0CA
:1003A00031FC4FF0000080F3118809BC196808681F
:1003B000B0E8F04F1EF0100F08BFB0EC108A80F3C9
:1003C0000988BFF36F8F704714000020EFF305809A
:1003D000704700000948804709480047FEE7FEE7EC
:1003E000FEE7FEE7FEE7FEE7FEE7FEE7FEE7FEE7E5
:1003F00004480549054A064B70470000B537000818
:100400008901000830560020305C00203058002060
:10041000305800207047000010B500F0E5FB001DCB
:1004200010BD00BF8987000053EA020C00F069800C
:100430002DE9F04B4FF00006002B1FBFB3FA83F5F8
:1004400003FA05F424FA05F65E4012BF1643B2FA29
:1004500082F502FA05F4C5F120051EBF22FA05FC5B
:1004600044EA0C04203556EA044C4FEA144418BF01
:10047000641C4FF000084FF00009904271EB030C30
:1004800039D3002919BFB1FA81F701FA07F6B0FA9A
:1004900080F700FA07F6C7F120071EBF20FA07FC15
:1004A00046EA0C062037B6FBF4FCA7EB0507103F25
:1004B00007F01F0BCBF120060CFA0BFB2CFA06F60B
:1004C00044BFB3460026202FA4BF5E464FF0000B6A
:1004D0005BEA060C08BF4FF0010B19EB0B09ABFBF5
:1004E000027C48EB0608C01B06FB02CC0BFB03CCCE
:1004F00071EB0C01C1E70B46024641464846BDE898
:10050000F08B13B54FF000004FF00001AFF3008007
:10051000BDE81C40704700007CB51D4616460C0027
:10052000009001D02044401E074B7B442A46694678
:100530000190304600F0E1FB05461CB10020694601
:1005400000F0EEFB28467CBDFD0700000FB4044917
:1005500010B503AA029800F007FC10BC5DF814FB6C
:10056000500100200FB41CB5084B06AA7B44694615
:100570000090059800F0C1FB04460020694600F099
:10058000CFFB20461CBC5DF814FB0000B107000047
:100590000FB47CB50C0009AA009001D02044401E85
:1005A000084B7B4469460190089800F0A6FB05467D
:1005B0001CB10020694600F0B3FB28467CBC5DF806
:1005C00014FB00008507000070B5044685690068CB
:1005D000C10601D5302600E02026C00707D070BD37
:1005E000D4E9012130469047206A401C20626D1EEC
:1005F000F6D570BD70B5044685690078C00707D18F
:1006000070BDD4E9012120209047206A401C20625F
:100610006D1EF6D570BD70B50C460546012A05D095
:100620002878800600D5EA69002302E0012305E06E
:100630005B1C934202D2E05C0028F9D1A869E6185D
:10064000C01AA861286A184428622846FFF7BCFF30
:1006500004E0D5E9012114F8010B9047B442F8D326
:100660002846FFF7C7FF70BD2DE9F041064600247C
:1006700010687529314616A510D000F0B9FA002887
:1006800002DA404213A507E031688A0701D512A5B6
:1006900002E0490704D511A5012401E000F0B1FAF8
:1006A00000210A2206F1240709E0B0FBF2FCB0FBAE
:1006B000F2F302FB1C00303078541846491C002825
:1006C000F3D123462A463046BDE8F04100F0A2BAF5
:1006D000000000002D0000002B00000020000000A2
:1006E000F0B40D460188090502D5214C7C4402E096
:1006F0001F4C7C440E34002100F1240608E002F077
:100700000F071209E75D42EA03721B097754491C7F
:1007100052EA0307F3D102780023120704D5702DA3
:1007200006D009B1022311342246F0BC00F072BA9F
:1007300001231034F8E770B504460D4621461068D1
:1007400000F05FFA024629462046BDE870400023CB
:10075000C6E7D21D22F00703D3E90023C0E70368F0
:10076000126843F0200303600823C3610023B7E746
:10077000708800002DE9F05F894604464FF0000ABA
:10078000DFF874B1FB44C0F820A02046E168884738
:10079000002874D0252806D0D4E901219047206A8A
:1007A000401C2062F1E700265F462046E16888474A
:1007B0002028054607DB312D05D2781910F8200CCA
:1007C00008B10643F1E7B00701D526F00406C4F8E6
:1007D0001CA00027C4F818A02A2D09D0284603F031
:1007E00058F938B304EB8708303DC8F8185019E0C1
:1007F00059F8041B204604EB87029161E1688847A1
:10080000012F054618D1E069002820DA26F02006DD
:100810001DE0D8F8180000EB800005EB40003038F0
:10082000C8F818002046E1688847054603F031F90A
:100830000028EED1012F0AD02E2D08D12046E168E4
:1008400088477F1C0546022F46F02006C4DBA069BE
:10085000002803DA404246F00106A061F00701D00B
:1008600026F010066C2D0BD0682D09D04C2D39D0F8
:100870006A2D35D0742D35D07A2D33D016E038E07E
:10088000E1682F4620468847B842054609D16C2FBB
:1008900026D04FF48060E16806432046884705462D
:1008A00004E06C2F1AD04FF4807006430DB3A5F10D
:1008B0004100192802D8203546F400664A462946E8
:1008C000204626604E46FFF7B9FC80B101280BD0C8
:1008D000F61D26F0070000F1080956E74020E4E77E
:1008E0008020D8E70020D6E706F104094DE7284626
:1008F00052E7206ABDE8F09F0088000010B5431C55
:1009000002E010F8011B71B18107FAD14FF00132FA
:1009100002C88C1A8C4314EAC211F9D0C01A0A0614
:1009200003D0C01E10BDC01A10BD0A0401D0801E25
:1009300010BD0902FCD0401E10BD40EA010370B595
:100940009B072ED14FF00136042A2AD308C810C9BC
:100950009D1B9D43121F15EAC61517D0D8B2E1B2F0
:10096000401A50EA056110D198B2A1B2401A50EA7B
:1009700005410AD123F07F4024F07F41401A50EA1C
:10098000052102D1180EA0EB146070BDA342DBD08C
:1009900018BA21BA884201D9012070BD4FF0FF304A
:1009A00070BD0AB9002070BD10F8013B11F8014B71
:1009B00063B1A3420AD1521E08D010F8013B11F8CE
:1009C000014B1BB1A34201D1521EEDD1181B70BDCA
:1009D000032A40F2308010F0030C00F0158011F86B
:1009E000013BBCF1020F624498BF11F801CB00F843
:1009F000013B38BF11F8013BA2F1040298BF00F897
:100A000001CB38BF00F8013B11F0030300F0258053
:100A1000083AC0F0088051F8043B083A51F804CB7A
:100A2000A0E80810F5E7121D5CBF51F8043B40F840
:100A3000043BAFF30080D20724BF11F8013B11F84B
:100A400001CB48BF11F8012B24BF00F8013B00F88F
:100A500001CB48BF00F8012B704710B5203AC0F019
:100A60000B80B1E81850203AA0E81850B1E81850AF
:100A7000A0E81850BFF4F5AF5FEA027C24BFB1E8EC
:100A80001850A0E8185044BF18C918C0BDE810405D
:100A90005FEA827C24BF51F8043B40F8043B08BF66
:100AA0007047D20728BF31F8023B48BF11F8012B2D
:100AB00028BF20F8023B48BF00F8012B704702F026
:100AC000FF0343EA032242EA024200F002B84FF079
:100AD00000020429C0F0128010F0030C00F01B800B
:100AE000CCF1040CBCF1020F18BF00F8012BA8BF19
:100AF00020F8022BA1EB0C0100F00DB85FEAC17CDD
:100B000024BF00F8012B00F8012B48BF00F8012B8F
:100B100070474FF0000200B51346944696462039C0
:100B200022BFA0E80C50A0E80C50B1F12001BFF4A6
:100B3000F7AF090728BFA0E80C5048BF0CC05DF80C
:100B400004EB890028BF40F8042B08BF704748BF5A
:100B500020F8022B11F0804F18BF00F8012B7047CE
:100B60004FF0013C50F8042B51F8043B9A4221D13C
:100B7000A2EB0C03934313EACC1317D150F8042BC8
:100B800051F8043B9A4215D1A2EB0C03934313EAAC
:100B9000CC130BD150F8042B51F8043B9A4209D1E5
:100BA000A2EB0C03934313EACC13DBD04FF000000D
:100BB000704700BFD01A01BAB1FA81F101F01801F3
:100BC00022FA01F0CB40C1F12001DBB2C0B2C01A61
:100BD0002CFA01F3D11A914311EAC311E6D17047FF
:100BE000704770477047704700487047F0550020C5
:100BF00009684A0501D540B27047C905FCD500B265
:100C0000704709684A0501D5C0B27047C905FCD5CF
:100C100080B270472DE9F0470D469946924604464A
:100C200000F124080168880604D5E06921F010016C
:100C3000216000E00120A84201DD471B00E0002701
:100C4000A1697A1902EB0900081AA0612078C00690
:100C500002D42046FFF7B8FC002608E0D4E90121C1
:100C60001AF806009047206A401C761C20624E4508
:100C7000F4DB2078C0060AD52046FFF7A5FC06E085
:100C8000D4E9012130209047206A401C2062381EA0
:100C9000A7F10107F4DC07E0D4E9012118F8050009
:100CA0009047206A401C2062281EA5F10105F3DC54
:100CB0002046FFF79FFC2078000602D50220BDE801
:100CC000F0870120FBE711680268006A530501D52F
:100CD00008700AE0D30501D5088006E0130603D5A5
:100CE000C217C1E9000200E008600120704700005F
:100CF00001694A1C02610878704700B58FB0CDE9E0
:100D000001310021059105497944CDE903101146CF
:100D10006846FFF72FFD0FB000BD0000E5FFFFFFA5
:100D20000A6802F8010B0A607047D1E900239A4271
:100D300002D2531C0B601070704710B5436913B199
:100D4000AFF3008001E0FFF766FC012010BD1278D0
:100D500000F124010A7000224A700122EDE71168B7
:100D60004FF0FF32E9E70000074B70B50D467B44BA
:100D7000FFF7C3FF0446284600F0C8FC10B14FF04F
:100D8000FF3070BD204670BDF73100002DE9FF5FD8
:100D900015468A460446DFF8AC80F8440027D8E9B7
:100DA00000103E46CDE9001010E03AF816106A46F1
:100DB00002A800F0AFFC411C07D02178890603D5BA
:100DC000E269391891420DD80744761C20788006D4
:100DD00002D5E069B84205DDAE42E6DB3AF816001E
:100DE0000028E2D1A069C01BA0612046FFF7ECFB00
:100DF000D8E90010CDE90010002017E03AF81810EB
:100E00006A4602A800F086FCB0F1FF3F81460BD095
:100E100000250DF1080B05E0D4E901211BF80500C0
:100E200090476D1C4D45F7D308F10100B042804654
:100E3000E4DB206A384420622046FFF7DBFBBDE894
:100E4000FF9F0000FE8100002DE9F0418046D21D89
:100E500022F007020025D2E90002F52915A614D0D8
:100E6000011E72F1000106DA0023D0EB030063EBF0
:100E7000020211A608E0D8F800108B0701D50FA6D2
:100E800002E0490701D50EA601251146002408F10C
:100E9000240704E000F052F830323A55641C50EA5E
:100EA0000102F7D12B46324621464046BDE8F041CB
:100EB000FFF7B0BE000000002D0000002B00000076
:100EC0002000000030B4002100F1240408E002F00A
:100ED0000705D208303542EA4372DB086554491CE5
:100EE00052EA0305F3D10468002310A2250707D5B1
:100EF000A40600D421B1C46901230DA2641EC461FB
:100F000030BCFFF787BE10B5044621461068FFF7D6
:100F100078FE02462046BDE810400023D2E7D21DED
:100F200022F00701D1E90023CCE700000000000017
:100F30003000000000487047D055002030B5B0F1B7
:100F40000A024FEA900E71F100034EEA817EB0EB87
:100F50000E0061EB91014FEA101E4EEA017E10EB8C
:100F60000E0041EB11114FEA102E4EEA016E10EB0C
:100F70000E0041EB11214FEA104E4EEA014E10EBEC
:100F80000E0041EB1141401841F100014FEAD00041
:100F900040EA41704FEAD10110EB80054FEA81042D
:100FA00044EA907444EB01046D1944EB0404521BB1
:100FB000A3414FF0000348BF0A3200D530BD401CAA
:100FC00041F1000130BD70472DE9FF4F0C461E4630
:100FD0004FF0FF378BB0D2E90001DDF860800A9056
:100FE0008A46C1F30A5505B93D46002108464FF02F
:100FF0000000BAF1000F00F4400005DA00EB8000B9
:101000004FF4400101EA50004FEA9059B9F1010F45
:1010100000DDB9460A9850EA4A000ED044F6105056
:10102000A5F2FF3545432F14B8F1000F1ED07542CD
:10103000291E1EDDC9F100021CE0B8F1010F4FF0BE
:10104000000001D0302103E0F24305E02154401CB0
:10105000B042FBDB30460022002121540B99C1F83D
:101060000880C1E900200FB0BDE8F08FBD1B6D1CEA
:10107000DEE74A4600DA694206A800F0D1FB06AB7B
:1010800093E8070003AB83E8070050460A9900F095
:1010900042FC8DE80700A0F500501F38009003982F
:1010A000002D0ADD42F21F014A460844002303A92D
:1010B0000390684600F0ABFE09E0A0F500504A46F8
:1010C0001F38002303A90390684600F0B5FE8DE8A1
:1010D00007000004000C03D04FF0FF30410800E08F
:1010E0001046B8F1000F03D00022009215461EE012
:1010F000751E05D4FFF722FF303262556D1EF9D5FB
:10110000B3460122084302D000227F1C04E020786D
:10111000302801D100227F1E002A099784D01DE0CB
:10112000112D07DAFFF70AFF303262556D1C50EAC5
:101130000102F5D1084302D00098C8B10EE00021A9
:10114000681E05E0235C625C63542254401E491C07
:101150008142F7DBAB46A81B401E0990002004F833
:101160000B000B98099AC0F80880C0E9002B7AE7B9
:1011700011264FF0000857E72DE9F04F8846044646
:10118000D21D22F0070191B0D1E90001CDE90A0199
:1011900002F057FC02460B98C00F01D02D2007E04B
:1011A0002068810701D52B2002E0202101EAC00040
:1011B000032A099001D0072A05DB03464146204651
:1011C00000F0EEFA0BE12078800601D5E06900E03E
:1011D0000620B8F1650F814606D0B8F1660F18D029
:1011E000B8F1670F70D131E00020B9F1110F009014
:1011F00001DB112301E009F101030AAA01A90CA8EE
:10120000FFF7E2FEDDE90C70002609F101058346D7
:1012100047E001204B4600904FF000470AAA01A981
:101220000CA8FFF7D1FEDDE90DB00C995D46002654
:1012300010B909F101000D18B9EB050003D4C0F194
:10124000FF3609F10105A5EB09002BE0B9F1010F0B
:1012500001DA4FF001090020B9F1110F0090484662
:1012600001DD112300E003460AAA01A90CA8FFF73B
:10127000ABFEDDE90C704D46002683462078000762
:101280000AD4AB4500DA5D4601A8012D04DD411901
:1012900011F8011C302907D04F4502DA17F1040F6D
:1012A00004DA012082460FE06D1EEEE7002F02DC1B
:1012B000ED1B3E4403E0781CA84200DD7D1CB81BFA
:1012C00000F1010A4FF000472078000703D4AA4537
:1012D00001DB4FF0FF3A0021B7F1004F0DF1430859
:1012E0008DF8431024D002202B23002F01DA7F42F7
:1012F0002D230A21021EA0F1010000DC5FB197FB43
:10130000F1FC97FBF1F201FB1C7C17460CF1300C51
:1013100008F801CDEEE7A8F1010003702188090566
:1013200001D5452100E06521A0F1010800F8011C6C
:1013300009980FA9A1EB0807FF1D00B10120411971
:1013400001EBEA70A1693844081A401EA0612078B8
:10135000C00602D42046FFF737F9099828B1D4E92E
:1013600001219047206A401C20622078C00622D5C7
:101370002046FFF729F91EE0002E04DBB34502DD0D
:1013800001A8805D00E03020D4E901219047206A67
:10139000401C2062761CAAF101005FEA000A0AD113
:1013A000FFF722FCC0680168405CD4E90121904746
:1013B000206A401C2062281EA5F10105DCDC07E044
:1013C000D4E9012118F8010B9047206A401C2062E3
:1013D000381EA7F10107F3DC2046FFF70BF90320C5
:1013E00011B041E62DE9F04F04460D46D21D22F022
:1013F000070089B0D0E900974846394602F021FB42
:101400000246F80F01D02D2307E02068810701D59F
:101410002B2302E0202101EAC0038DF820300BB11C
:10142000012000E00020032A824601D0072A04DBC5
:101430002946204600F0B4F93FE12078800601D427
:101440000D2500E0E569C7F30A560D2D49DA0021A4
:101450004FEA175B08464FF00000002F00F44000F1
:1014600007DA00EB80004FF4400100EBD07001EA96
:1014700060008115012901DD4FF0FF3100224FEAA4
:10148000850CBCF1180F06D31346ACF118004FF0D1
:101490008052C24003E04FF4801323FA0CF30CF1A6
:1014A0000C0CBCF1200F04D3ACF1200C09FA0CF0A9
:1014B00001E007FA0CF000294FF0004801DD18B9EF
:1014C0000FE00ED140450CD319EB02095F4121B961
:1014D000404502D19F4329EA0209BBEB175F00D0C8
:1014E000761C2088000502D57B48784402E07A48C3
:1014F0007844193808AA302302F80A30037C0AF12C
:101500000101002E0AF1020A53546A4602DC4FF030
:10151000300101E04FF031014FF001088DF800106B
:1015200002D0A6F2FF3603E059EA470100D06B4E25
:10153000002D02DC2178090704D54FF002082E2186
:101540008DF80110C44600210BE0C7F303433F01AF
:10155000C35C491C6D1E02F80830052908F101081A
:1015600001DA002DF1DC00210CE000EB1973491CBD
:101570001B786D1E082902F808304FEA091908F196
:10158000010801DA002DF0DC21688B0602D516E097
:10159000A8F10108E04505DD02EB080313F8013C62
:1015A000302BF5D0B8F1000F09DD02EB080313F87A
:1015B000013C2E2B03D1090701D4A8F10108002D0D
:1015C00005DD3E2102F808106D1E08F10108407C7F
:1015D000002E02F8080008F1010804DA2D207642F6
:1015E00002F8080002E02B2002F808000A214FF45C
:1015F0007A70864208F101080BDB96FBF0F330337A
:1016000002F8083096FBF0F308F1010800FB1366BE
:1016100001E0642E0CDB642096FBF0F3303302F81B
:10162000083096FBF0F308F1010800FB136601E0B7
:101630000A2E06DB96FBF1F0303002F8080008F1C4
:10164000010896FBF1F001FB1060303002F8080051
:10165000A16908F1010808EB050202EB0A00081A6B
:10166000A0612078C00602D42046FEF7ADFF216AB3
:1016700008AE01EB0A00206204E0D4E9012116F86B
:10168000010B9047BAF1010AF7D22078C00602D5C3
:101690002046FEF799FF6E4609E016F8010B3E283A
:1016A0000FD0D4E901219047206A401C2062B8F194
:1016B0000108F2D22046FEF79DFF09B00320BDE8E5
:1016C000F08F206A2844206203E0D4E90121302011
:1016D00090476D1EEBD3F8E7C97A000002FCFFFFCC
:1016E00010B5436913B1AFF3008001E0FFF74EFB83
:1016F000012010BD128800F1240182840022C284DE
:101700000122EDE711684FF0FF32E9E7007B00F0BE
:101710008000704770B516460C460546FEF77CFE05
:10172000036893F80101012806D0FF2C0FD8185D3B
:1017300068B101202C7070BDD3F8070132462146F4
:1017400003F2071303442846BDE8704018474FF0E2
:10175000FF3070BD7546FFF7EDFBAE4605006946EC
:10176000534620F00700854618B020B5FEF740FE2E
:10177000BDE820404FF000064FF000074FF0000892
:101780004FF0000B21F00701AC46ACE8C009ACE813
:10179000C009ACE8C009ACE8C0098D46704700003C
:1017A0002DE9F0411F46044603260168072A01F48B
:1017B000006004DB08B116A505E016A503E008B13A
:1017C00015A500E015A521F010002060A069C01E3D
:1017D000A0610FB1401EA0612046FEF7F5FE4FB19B
:1017E000D4E9012138469047206A401C2062C01C81
:1017F000206206E0206AFAE7D4E9012115F8010B1E
:101800009047761EF8D22046FEF7F4FEBDE8F08140
:101810004E414E006E616E00494E4600696E660094
:101820002DE9F047814616468AB0354878440DC800
:101830008DE80D0032487844801C03AC0DC884E864
:101840000D0041F69B300844372190FBF1F290FBEC
:10185000F1F5A5F1800501FB12041B3C02D56442A1
:10186000012000E00020DFF898A080460027FA441D
:10187000AAF1BE0A0EE0E0070AD03246684607EB3E
:10188000470101230AEB810100F0D6FA8DE8070039
:1018900064107F1C002CEED1194F7F44AE3F19E03D
:1018A000E80715D007EB04100DF1180A90E80E00B8
:1018B0008AE80E00C068F04201D1981908903246BB
:1018C000012306A903A800F0B7FA03AB83E80700D9
:1018D0006D10641C002DE3D14FF0010332466946C0
:1018E000B8F1000F03A802D000F091FA01E000F077
:1018F000A3FAC9E90001C9F808200AB0BDE8F087D9
:101900001878000010B50446AFF300802046BDE80B
:101910001040FEF7F8BC5FEA400C08BF91F0000FE2
:101920004FEA8C234FEAC12243EA51514FEA1C503F
:1019300018BF00F5F0404FEA300018BF41F00041F9
:101940005FEA6C5C00F02980BCF1FF3F08BF40F00B
:1019500080407047130C06BF12044FF0100C4FF07C
:10196000000C130E04BF12020CF1080C130F04BF7D
:1019700012010CF1040C930F04BF92000CF1020C45
:10198000D30F04BF52000CF1010C11464FF00002BE
:10199000A0F11F00A0EB0C00704711F0004F08BF32
:1019A000704731F000413FF4D5AF0B0C06BF09047E
:1019B0004FF0100C4FF0000C0B0E04BF09020CF19D
:1019C000080C0B0F04BF09010CF1040C8B0F04BFB2
:1019D00089000CF1020CCB0F04BF49000CF1010C83
:1019E000CCF12003A0EB0C0022FA03F302FA0CF274
:1019F00041EA030100F10100704720F07F4C80EACA
:101A0000030023F07F47ACEB070303F57C5300F0A2
:101A1000004003F1FF032DE980494FEA154B09B45B
:101A20004FEA144325EA0B4E24EA03480FF204263A
:101A300006EB132749083E785FEA320203FB06678C
:101A4000C7F5000707FB06F64FEA54374FEAD646BC
:101A500006F1020607FB066CCCF1005C4FEA1C475E
:101A60002CEA074C07FB06F40CFB06F504EB1546C5
:101A70004FEA961634BF00204FF000404FEAD137AE
:101A800006FB07FC4FEA1C4C0CFB0BF7D21B03FBBD
:101A90000CF761EB07010CFB0EF7B0EB074072EBA4
:101AA00017420CFB08F734BFA2EB0742B2EB074228
:101AB00061EB17414FEA0C444FEA910706FB07FC24
:101AC0004FEA1C4C0CFB0BF7B0EBC74072EB5732E4
:101AD00003FB0CF734BFA2EBC742B2EBC74261EB8A
:101AE00057310CFB0EF7B0EBC70072EB57720CFBD3
:101AF00008F734BFA2EBC702B2EBC70261EB577124
:101B0000039F4FEA816141EA921104EBCC044FEA52
:101B1000D1374FEA826206FB07FC42EA90124FEA95
:101B200080604FEA1C4C0CFB0BF7D21B03FB0CF73D
:101B300061EB07010CFB0EF7B0EB074072EB1742AD
:101B40000CFB08F734BFA2EB0742B2EB074261EB94
:101B500017414FEA8C554FEA910704EB9C2406FB92
:101B600007FC4FEA1C4C0CFB0BF7B0EBC74072EBC9
:101B7000573203FB0CF734BFA2EBC742B2EBC742AC
:101B800061EB57310CFB0EF7B0EBC70072EB5772ED
:101B90000CFB08F734BFA2EBC702B2EBC70261EB44
:101BA000577115EB4C254FEA816141EA92114FEADA
:101BB00082624FEAD13742EA901206FB07FC44F1F9
:101BC00000044FEA80604FEA1C4C0CFB0BF7D21B61
:101BD00003FB0CF761EB07010CFB0EF7B0EB0740C2
:101BE00072EB17420CFB08F734BFA2EB0742B2EBD3
:101BF000074261EB174115EB1C154FEA813141EAB1
:101C000092414FEA823242EA90424FEA80304FEAF4
:101C10000C7644F1000448EA03434EEA0B484FF0C7
:101C2000000EB2EB080C71EB030724BF6246394685
:101C30004EEB0E0E4FF0000B0018524149414BEB9A
:101C40000B0BB2EB080C71EB03077BF1000B24BF0D
:101C5000624639464EEB0E0E4FF0000B0018524113
:101C600049414BEB0B0BB2EB080C71EB03077BF11B
:101C7000000B24BF624639464EEB0E0E51EA0207B6
:101C800018BF46F0010616EB0E7655F1000254F12E
:101C9000000103D5BDE88901BDE80088BDE88901E0
:101CA000BDE80048B619524141EB0101A3F101031F
:101CB000704780807F7E7D7C7B7A797877767675B9
:101CC0007473727171706F6E6E6D6C6C6B6A6A6931
:101CD0006868676666656464636362616160605FCB
:101CE0005F5E5E5D5D5C5C5B5B5A5A595958585744
:101CF00057565655555554545353525252515150AC
:101D000050504F4F4F4E4E4D4D4D4C4C4C4B4B4BFE
:101D10004A4A4A4949494848484747474746464644
:101D2000454545444444444343434342424242417F
:101D30004141002B9C4630D477002BD01CB54FEA94
:101D4000370703B44FF010004FF01001BAF1000F45
:101D500006D0BCF1000FDCBF40F0080040F00801E5
:101D60004FF000000FBCBDE810400BF1010BBBF1C0
:101D7000010F08BF5FEA170722BF12F1010211F13C
:101D800001014FF0004143F1000300F0004043EA3D
:101D900000007047F9D35708D0E746EA064613F12A
:101DA000400F4FEA16461FDD13F1200FDFBF164329
:101DB0000A46002120335B42BED0C3F1200746EA29
:101DC000064602FA07F74FEA164646EA0706C3F147
:101DD000200722FA03F201FA07F721FA03F14FF084
:101DE000000342EA0702A7E746EA020646EA064679
:101DF0004FEA164646EA0106BCBF46EA0646360CDE
:101E00004FF000034FF000024FF0000194E72DE97E
:101E1000804C9A46934670B491E8380007C831EA7E
:101E2000400C48BF34EA430C03D5FFF7E6FDFFF74B
:101E300080FFF0BCBDE8008C2DE9804C9A469346AB
:101E400070B491E8380007C810F0804F08BF13F055
:101E5000804F03D100F005F8FFF76BFFF0BCBDE841
:101E6000008C20F07F4780EA030023F07F4C07EBD3
:101E70000C03A3F57C5300F00040A3F1FE0392F0A5
:101E8000000F00F0B38095F0000F00F077802DE98F
:101E900001494FEA11404FEA144621EA004800FB8D
:101EA00006FC24EA064708FB06F607FB08F800FBD9
:101EB00007F718EB06484CEB164C4FEA124B18EBA1
:101EC00007484FEA15464CEB174022EA0B4E0BFB36
:101ED00006FC25EA06470EFB06F607FB0EFE0BFB8B
:101EE00007F71EEB064E4CEB164C4FF000061EEBB0
:101EF000074E4CEB174B18EB0B0840F1000018EBAA
:101F00000E0B58EB000840F100008F1A4FF0000153
:101F10003CBFC943661B14BFB5EB040C00213CBF9A
:101F2000C943F61B4FEA17444EEA8E0E27EA0445D2
:101F30004FEA1C4704FB07622CEA074C05FB07F736
:101F40000CFB05F604FB0CFC16EB074642EB1742B4
:101F500016EB0C4642EB1C421BEB060658EB02024A
:101F6000414146EA9E0601D5BDE80189B6195241B4
:101F700041EB0101A3F10103BDE801894FEA1445DA
:101F80004FEA114724EA054621EA074C05FB07F40E
:101F900006FB07F70CFB06F105FB0CFC11EB0741F8
:101FA00044EB17444FEA124711EB0C4144EB1C443D
:101FB00022EA074C05FB07F206FB07F70CFB06F6C7
:101FC00005FB0CFC16EB074642EB174216EB0C46E2
:101FD00042EB1C456A1854F1000148BF7047B6191E
:101FE000524141EB0101A3F10103704795F0000F4D
:101FF00037D04FEA11424FEA144721EA024624EA59
:10200000074C02FB07F106FB07F70CFB06F402FB8B
:102010000CFC14EB074441EB17414FEA154714EB56
:102020000C4441EB1C4125EA074C02FB07F506FB7B
:1020300007F70CFB06F602FB0CFC16EB074645EB1C
:10204000174516EB0C4645EB1C42121951F10001E5
:1020500048BF7047B619524141EB0101A3F101039A
:1020600070474FEA14454FEA114724EA054621EA32
:10207000074C05FB07F106FB07F70CFB06F24FF0D8
:10208000000605FB0CFC12EB074241EB174112EB7B
:102090000C4251EB1C4148BF7047921841EB0101C3
:1020A000A3F101037047FEE7704772B6FEE7000038
:1020B0002DE9F84FDFF89C910022A9F1040B0327CA
:1020C0004FF00F0C09F1040AABF1040E01250B6867
:1020D00095402B40AB426ED10C7904F00304012CE7
:1020E00001D0022C15D18668540007FA04F826EABC
:1020F0000806D1F80C8008FA04F848EA0608C0F887
:1021000008804468AC430D79C5F30015954025431C
:1021100045600C79E443A40708D0C568540007FA69
:1021200004F6B5438E68A6402E43C6600C7904F0D1
:102130000304022C11D1D40800EB8406356A54073D
:10214000E40E0CFA04F825EA0805D1F8108008FA24
:1021500004F848EA0508C6F820800568540007FA24
:1021600004F6B5430E7906F00306A6402E4306603A
:102170004C6814F4403F66D0374C256845F48045E0
:102180002560246822F0030504F480440094334C55
:1021900005EB0408D8F808589407260F0CFA06F443
:1021A000A5432F4CA04201D1002424E02D4CA04295
:1021B00002D101241FE046E02B4CA04201D10224B1
:1021C00019E02A4CA04201D1032414E0284CA0427B
:1021D00001D104240FE0274CA04201D105240AE0DC
:1021E000254CA04201D1062405E0244CA04201D197
:1021F000072400E00824B4402C43C8F80848D9F864
:1022000000404D464E689C43F60200D51C432C60AE
:10221000DAF8004055464E689C43B60200D51C4390
:102220002C60DBF800405D464E689C43B60300D549
:102230001C432C60DEF8004075464E689C43F60354
:1022400000D51C432C60521C102AFFF43FAFBDE8A0
:10225000F88F0000083C0140443802400030014043
:10226000000002400004024000080240000C02404E
:10227000001002400014024000180240001C0240FE
:102280000069084000D001207047426921EA02033A
:102290000A4043EA0241816170470AB18161704797
:1022A0000904FBE701488068704700000400002033
:1022B0000248816802781144816070470400002060
:1022C0000B4810B5016841F400710160016841F4E8
:1022D00080610160016841F480710160032000F0B9
:1022E0008DF80F2000F006F800F03EF8002010BD39
:1022F000003C024010B5014688B00022192000F0D1
:102300005DF8192000F04CF813480024016841F4EE
:1023100000310160006805A900F4003006906846AD
:1023200000F018F900F04CF90C494000B0FBF1F155
:102330000C480B4A491E026040F2E732C0E9032410
:10234000C0E9011400F008FE10B1012008B010BD72
:10235000044800F02FFEF9E74438024040420F00E5
:10236000004401407C0200200C4882B0016841F426
:1023700080410160006800F4804000900748001F21
:10238000016841F0805101600068002200F0805037
:1023900000900F21901E02B000F010B844380240A7
:1023A000002809DB00F01F02012191404009800054
:1023B00000F1E020C0F8001170470000F0B40E4BAF
:1023C0001B68C3F30223C3F10704042C00D90424BF
:1023D0001D1D072D01D2002300E0DB1E012606FA99
:1023E00004F56D1E0D409D409E40761E164045EA48
:1023F0000601F0BC01F03DBB0CED00E0064A00F028
:10240000070110684FF6FF03184040EA0120034916
:1024100008431060704700000CED00E00000FA0572
:102420002DE9F0470D46040065D0DFF81491D9F886
:102430000000EFB200F00700A84207D289F8007050
:10244000D9F8000000F00700A84254D120683D4EA2
:10245000810712D5400703D5306840F4E050306062
:102460002078000703D5306840F460403060306861
:10247000A16820F0F000084330602078C0072DD01C
:10248000304960680839012812D0022813D0032887
:1024900011D00968890700292DDA316821F003017C
:1024A00001433160FFF7FEFE804641F2883A0EE0BC
:1024B00009688903EFE709688901ECE7FFF7F2FE95
:1024C000A0EB0801514502D90320BDE8F087306830
:1024D000616800F00C00B0EB810FEFD1D9F800106B
:1024E000484601F00701A94207D90770006800F0CB
:1024F0000700A84201D00120E7E72078400705D572
:102500003068E16820F4E05008433060207800072C
:1025100006D53068216920F4604040EAC10030608F
:1025200000F05EF83168084AC1F30311515CC840FD
:102530000649086006480068FFF7DCFE0020C4E793
:10254000003C024008380240658C00081000002062
:10255000080000200F2202600C4A136803F00303F6
:102560004360136803F0F0038360136803F4E053DF
:10257000C36012684FF4E05303EAD20202610448D8
:10258000006800F00700086070470000083802404B
:10259000003C024001480068704700001000002025
:1025A0000448054900680968044AC1F38221515C66
:1025B000C84070471000002008380240758C0008A1
:1025C0000448054900680968044AC1F34231515C76
:1025D000C84070471000002008380240758C000881
:1025E000154810B5006810F00C01144813D04310C2
:1025F00004290FD008290ED10F4C241F216801F0A7
:102600003F022168490207D52068C0F38810A0FB6B
:10261000030106E0184610BD2168C1F38811A1FB33
:1026200000010023FDF700FF2168C1F30141491CAF
:102630004900B0FBF1F010BD083802400024F4005E
:102640002DE9F84F040075D02078DFF838A3C007D3
:10265000AAF1040548D00AF104000168C1F3810120
:10266000012908D00068C0F3810002280AD1DAF8F5
:102670000000400206D52868800335D56068002830
:10268000E1D031E06068B0F5803F10D0B0F5A02F08
:10269000286810D020F480302860286820F480203A
:1026A00028606068A0B1FFF7FDFD06460CE02868D1
:1026B00040F48030F4E740F480202860F7E7FFF72B
:1026C000F1FD801B642871D828688003F7D50BE0E2
:1026D000FFF7E8FD064604E0FFF7E4FD801B6428F1
:1026E000F1D828688003F7D42078DFF89C9280071F
:1026F0004FF0000B3DD5A348001D016811F00C0FF1
:1027000008D00068C0F3810002280AD1DAF800007E
:10271000400206D42868800715D5E068012809D151
:1027200011E0E068B8B10120C9F80000FFF7BAFD78
:10273000064605E022E1FFF7B5FD801B0228C2D85E
:1027400028688007F7D52868216920F0F80040EA5A
:10275000C10028600DE0C9F800B0FFF7A3FD0646F0
:1027600004E0FFF79FFD801B02281FD82868800720
:10277000F7D42078000722D5824F844861697037EA
:1027800071B101210160FFF78DFD064604E0FFF7FE
:1027900089FD801B022809D838688007F7D50EE02C
:1027A000C0F800B0FFF77EFD064605E082E0FFF7C7
:1027B00079FD801B02287DD838688007F7D42078FF
:1027C000400765D56F484FF000083C300068C000F6
:1027D0000BD46C483C30016841F0805101600068C6
:1027E0004FF0010800F080500090694F3868C00534
:1027F0000FD4386840F480703860FFF753FD064608
:1028000004E0FFF74FFD801B022853D83868C0054D
:10281000F7D55C4FA0686C3701280FD005283868C1
:1028200010D020F001003860386820F004003860D3
:10283000A068B0B1FFF736FD06460EE0386840F0FC
:102840000100F4E740F004003860F7E7FFF72AFDE5
:10285000811B41F28830814263D838688007F5D502
:102860000DE0FFF71FFD064606E0FFF71BFD811B8D
:1028700041F28830814254D838688007F5D4B8F1E5
:10288000000F05D03F483C30016821F080510160C5
:10289000A069B8B33B49091D0968C1F38101022948
:1028A00046D00228584606D0C9F86000FFF7FAFC67
:1028B000044639E035E04F46C9F86000FFF7F2FC06
:1028C000064604E0FFF7EEFC801B022829D82868A2
:1028D0008001F7D4D4E907010843A16A2D4A4908C9
:1028E00002EB0141626A41EA8211084394F82C101C
:1028F00040EA0161CAF8001001203866FFF7D2FCF7
:10290000044605E03CE0FFF7CDFC001B022808D898
:1029100028688001F7D533E0FFF7C4FC001B0228CC
:1029200002D90320BDE8F88F28688001F4D427E09D
:102930000128F7D0DAF80000E26900F48001914242
:102940001CD1226A00F03F01914217D147F6C071B5
:10295000626A0140B1EB821F10D1A26A4FF0FF33CF
:1029600000F4403103EB5202B1EB024F06D194F870
:102970002C1000F07060B0EB016F01D00120D1E7A6
:102980000020CFE70438024000004742800E474253
:10299000007000400000FFFF70B5040009D0606ABD
:1029A000002540B125616561A56294F8510040B1F0
:1029B0000CE0012070BD6068B0F5827FF4D0E56165
:1029C000F2E784F85050204600F044F8022084F8E2
:1029D00051002068016821F040010160A088218930
:1029E00000F4827001F404410843A18901F40061FC
:1029F0000843217C01F002010843217D01F001011F
:102A00000843218B01F400710843217F01F0380154
:102A1000084394F8201001F080010843218D01F44F
:102A20000051084321680860A069042101EA1040B0
:102A300094F8241001F010010843216848602068D0
:102A4000C16921F40061C1616565012084F851000C
:102A5000002070BD10B586B0044614216846FEF70C
:102A600058F813492068884220D112480021026892
:102A700042F480520260006800F4805005900D48D6
:102A80001438026842F002020260006800F002009E
:102A90000590382000900220CDE901010320039029
:102AA0000520049069460448FFF702FB06B010BDFC
:102AB0000030014044380240000402402DE9F84F44
:102AC0000446406800261D46904689464FF0040B98
:102AD000B0F5827F01D1A06888B194F85000012838
:102AE00017D0012084F85000FFF7DCFB074694F86C
:102AF00051004FF0000A01280DD002267EE084F834
:102B000051B0009313460A46204600F036F9BDE85E
:102B1000F88F0220FBE7B9F1000F6ED0B8F1000F7B
:102B20006BD084F851B0C4F854A0C4F83890A4F81D
:102B30003C80A4F83E80C4F830A0A4F834A0A4F8E7
:102B400036A0C4F840A0C4F844A0A068B0F5004F77
:102B500009D12068016821F0400101602068016806
:102B600021F48041016020680168490603D40168AE
:102B700041F040010160E068B8B131E0206881684F
:102B8000C90709D0007BA16B0870A06B401CA06333
:102B9000E08F401EE08708E0FFF784FBC01BA842DF
:102BA00002D3681C01D031E07DB3E08F0028E5D16D
:102BB00019E020688168C90709D0C068A16B088046
:102BC000A06B801CA063E08F401EE08708E0FFF749
:102BD00069FBC01BA84202D3681C01D016E0A5B156
:102BE000E08F0028E5D13A462946204600F0B8FC9F
:102BF00008B120206065606D00B10126012084F8D5
:102C0000510084F850A0304681E7FFE70326F5E73E
:102C10002DE9F84F044690F8500000261D469046D6
:102C2000894601280ED04FF0010B84F850B0FFF711
:102C300039FB074694F851004146B246012804D0BA
:102C4000022694E00220BDE8F88FB9F1000F74D09D
:102C5000B8F1000F71D0032084F85100C4F854A0DB
:102C6000C4F83090A4F83480A4F83680C4F838A0B2
:102C7000A4F83CA0A4F83EA0C4F844A0C4F840A026
:102C8000A068B0F5004F09D12068026822F0400228
:102C900002602068026842F4804202602068026894
:102CA000520603D4026842F040020260E068B0F5C8
:102CB000006F606803D028B3012923D03FE008B13A
:102CC00001291BD1206B21680088C86006E02068BC
:102CD0008168890709D5216B0988C160206B801C38
:102CE0002063E08E401EE08608E0FFF7DBFAC01BA1
:102CF000A84202D3681C01D030E075B3E08E0028F2
:102D0000E5D11FE0206B21680078087306E0206899
:102D10008168890709D5216B09780173206B401CF4
:102D20002063E08E401EE08609E0FFF7BBFAC01B7F
:102D3000A84203D3681C02D010E017E06DB1E08E0A
:102D40000028E4D13A462946204600F037FC08B175
:102D500020206065A06818B106E0FFE7032606E0C2
:102D60002068C16880680090606D00B1012684F819
:102D700051B084F850A0304665E72DE9F84F04467D
:102D800090F8500001250A9E1F4692468B464FF050
:102D9000000801280ED0012084F85000FFF782FAC5
:102DA000814694F85100616801280CD0B1F5827F0A
:102DB00007D102E00220BDE8F88FA16809B9042814
:102DC00001D00220B6E0BBF1000F27D0BAF1000F0E
:102DD00024D01FB394F85100042802D0052084F8B1
:102DE000510000206065C4F838A0E787A787C4F8C1
:102DF00030B0E786A78620646064206801684906D1
:102E000003D4016841F040010160E068B0F5006F53
:102E1000606805D0E8B3012F43D079E0012089E054
:102E200008B1012F34D1206B21680088C860206B65
:102E3000801C2063E08E401EE08629E020688168C7
:102E400089070DD5E18E59B1012D09D1216B098872
:102E5000C160206B801C2063E08E401EE086002550
:102E600020688168C9070BD0E18F49B1C068A16BA8
:102E70000880A06B801CA063E08F401EE0870125C6
:102E8000FFF710FAA0EB0900B04201D3701C50D13B
:102E900000E006E0E08E0028D0D1E08F0028CDD100
:102EA0003CE0206B216800780873206B401C206395
:102EB000E08E401EE0862BE02068816889070DD5F2
:102EC000E18E59B1012D09D1216B09780173206B75
:102ED000401C2063E08E401EE0860025206881684B
:102EE000C9070BD0E18F49B1C068A16B0870A06B16
:102EF000401CA063E08F401EE0870125FFF7D2F958
:102F0000A0EB0900B04202D3701C01D011E086B1E1
:102F1000E08E0028D0D1E08F0028CDD14A4631463E
:102F2000204600F04BFB38B120204FF001086065CF
:102F300008E00320804605E0A06818B92068C16851
:102F400080680090012084F85100002084F850002F
:102F5000404630E77047704710B5040003D094F83E
:102F60003D0010B107E0012010BD002084F83C00B6
:102F7000204600F01EF8022084F83D00211D206844
:102F800000F026FC012084F8460084F83E0084F816
:102F90003F0084F8400084F8410084F8420084F83F
:102FA000430084F8440084F8450084F83D00002084
:102FB00010BD704790F83D10012901D001207047E5
:102FC000022180F83D100168CA6842F00102CA601F
:102FD00000681149884214D0B0F1804F11D00F49D8
:102FE00088420ED00E4988420BD00E49884208D044
:102FF0000D49884205D00D49884202D00C498842CB
:1030000004D1816801F00701062903D0016841F06D
:1030100001010160002070470000014000040040F1
:1030200000080040000C0040000401400040014046
:1030300000180040704770B50446006801694FF001
:103040000005C943890715D4C168C943890711D44C
:10305000E91E0161012020772068806980072046F1
:1030600002D0FFF7E7FF04E000F098F8204600F0F8
:1030700096F8257720680169C943490717D4C168C4
:10308000C943490713D46FF004010161022020777E
:103090002068806910F4407F204602D0FFF7CAFF05
:1030A00004E000F07BF8204600F079F825772068EE
:1030B0000169C943090716D4C168C943090712D475
:1030C0006FF008010161042020772068C069800743
:1030D000204602D0FFF7AEFF04E000F05FF8204684
:1030E00000F05DF8257720680169C943C90617D447
:1030F000C168C943C90613D46FF0100101610820EB
:1031000020772068C06910F4407F204602D0FFF786
:1031100091FF04E000F042F8204600F040F82577E7
:1031200020680169C943C90708D1C168C943C907F3
:1031300004D1891E0161204600F032F8206801693F
:10314000C943090609D4C168C943090605D46FF00B
:10315000800101612046FFF7FDFE20680169C94337
:10316000490609D4C168C943490605D46FF0400136
:103170000161204600F01EF820680169C9438906F4
:103180000BD4C168C943890607D46FF020010161DF
:103190002046BDE87040FFF7DEBE70BD7047704747
:1031A00000680349884201D1FFF782B870470000E8
:1031B00000440140704770B5040004D094F83D000D
:1031C000002510B106E0012070BD84F83C50204677
:1031D00000F022F8242084F83D002068C16821F422
:1031E0000051C160204600F063FB2068016921F4B2
:1031F000904101612068416921F02A014161206804
:10320000C16841F40051C1602564202084F83D006C
:1032100084F83E00002070BD10B586B0044614212D
:103220006846FDF776FC18492068884229D117487E
:103230000021026842F010020260006800F01000F5
:10324000059012481438026842F0010202600068DA
:1032500000F0010005904FF4C06000900220CDE91D
:103260000101032003900720049069460848FEF7F7
:103270001FFF002205212520FFF7A0F82520FFF7DA
:103280008FF806B010BD0000001001404438024025
:103290000000024038B50A4988420FD10068016831
:1032A00089060BD54068074C8DF8000004F130000A
:1032B000694604F06BF9216CA06C884738BD0000AA
:1032C00038020020FC0000202DE9F843044690F865
:1032D0003D001F4615460E4620284BD1C6B1BDB154
:1032E00094F83C00012845D0012084F83C004FF0C0
:1032F0000008C4F84080212084F83D00FEF7D2FF8A
:10330000A5848146E584A068B0F5805F03D004E021
:103310000120BDE8F883206920B13546002684F8F5
:103320003C800EE00025FAE78021204600F046FBB5
:10333000A0B9ADB115F8010B21684860E08C401EC2
:10334000E084E08C4B464FF0000200970028EBD160
:103350004FF04001204600F031FB30B10320D8E7A8
:1033600036F8020BC0F30800E6E7202084F83D00A1
:103370000020CEE70220CCE7FEE7000010B500F009
:10338000A5FF00231A4601210F4801F0CDFB0A21B9
:1033900001F006FC00210D4A084601F09FF80C4A96
:1033A0000021012001F09AF80A4A0121022001F0CF
:1033B00095F8094A0021094801F072FB08490860A4
:1033C000BDE8104004F012B911450008B9410008E9
:1033D000C5410008D5410008188C0008CD3600080A
:1033E000000000202DE9F04387B014216846FDF766
:1033F00090FB36480024016841F01001016001682B
:1034000001F010010591016841F0040101600168BB
:1034100001F004010591016841F08001016001683B
:1034200001F080010591016841F00101016001682E
:1034300001F001010591016841F00201016000689D
:10344000DFF88C9000F002000590002260214846D1
:10345000FEF723FF1F4F4FF4005600223146384637
:10346000FEF71BFFDFF87080002201214046FEF7C7
:1034700014FF602000900125CDE9015469464846BB
:103480000394FEF715FE0096CDE9015469463846CF
:103490000394FEF70DFE02200095CDE90140694638
:1034A0000E48FEF705FE0095CDE9015469464046F9
:1034B0000394FEF7FDFD03208DE831006946484680
:1034C000FEF7F6FD07B0BDE8F0830000303802409B
:1034D00000100240000802400004024000000240C8
:1034E0000F4810B50D4901604FF482714160002111
:1034F0008160C1604FF400720161C0E90512C161D1
:103500000162416281620A21C162FFF745FA002827
:1035100003D0BDE81040FEF7C8BD10BD003001402B
:10352000E00100200C4810B50A4901604FF4E13178
:103530004160002181600C22C160C0E904128161F8
:10354000C161FFF738FE002803D0BDE81040FEF748
:10355000ACBD10BD0010014038020020FEE7FEE7C0
:10356000F8B5044640684FF48273984221D1A068B0
:103570004FF48065B0F5004F01D0A8420AD1206811
:10358000066826F0400606606068984211D1A0687F
:10359000A8420ED000920B4600228021204600F067
:1035A00039F8002804D0606D40F0200060650320E9
:1035B000F8BD00920B4600220121EFE738B5044622
:1035C0001248134D4FF47A730068B0FBF5F058437E
:1035D00000906068B0F5827F0DD10B46009200220A
:1035E0008021204600F016F870B1606D40F0200098
:1035F0006065032038BD009830B1401E00902068FF
:103600008068C0430006F6D5002038BD10000020B9
:1036100000366E012DE9F8431E4691468846044661
:10362000089DFEF73FFE401B351AFEF73BFE07469E
:1036300025480068C0F3CB30684338E0701C37D0B1
:10364000FEF730FEC01BA84203D215B1009860B34C
:103650002CE02068416821F0E00141606068B0F52D
:10366000827F0BD1A068B0F5004F02D0B0F5806F1B
:1036700004D12068016821F040010160A06AB0F522
:10368000005F09D12068016821F4005101602068C1
:10369000016841F400510160012084F851000020CC
:1036A00084F850000320BDE8F8830025401E0090F8
:1036B0002068816838EA010004D000204845BDD167
:1036C0000020F0E70120F9E71000002000231A464F
:1036D00019460A4801F028FA094E04464FF47A7553
:1036E000284601F0F9F8002220213046FEF7D5FDEA
:1036F0001E21204601F054FAF2E70000C5750008CB
:103700000010024010B54FF0E020006905F02EF8DF
:10371000012803D0BDE8104004F054BB10BD0000E8
:1037200030B593B030216846FDF7F3F914210CA8A9
:10373000FDF7EFF91D480025016841F08051016057
:10374000006800F0805011901948016841F48041F0
:1037500001600068022400F4804011900120009074
:10376000000401908001CDE9064008200890A020C7
:10377000CDE9090404200B906846FEF761FF08B10B
:1037800072B6FEE70CA90F2081E831004FF4A0507B
:103790000F904FF48050109002210CA8FEF740FECD
:1037A000002801D072B6FEE713B030BD40380240A9
:1037B000007000400248016841F4700101607047E8
:1037C00088ED00E00148FFF736BC00007C020020D5
:1037D000F0B50268254D264E264FDFF89CC0274BDA
:1037E0004FF0804EA84209D0704507D0B04205D0B6
:1037F000B84203D0604501D0984203D122F0700452
:103800004A682243A8421BD0704519D0B04217D055
:10381000B84215D0604513D0984211D0184CA04240
:103820000ED0184CA0420BD0174CA04208D0174C19
:10383000A04205D0164CA04202D0164CA04203D1A3
:1038400022F44074CA6822434C6922F08002224369
:1038500002608A68C2620A688262A84201D0984205
:1038600001D10969016301214161F0BD00000140FE
:103870000004004000080040000C0040000401402B
:103880000040014000440140004801400018004051
:10389000001C00400020004010B501F0DBFE0028B5
:1038A00005D0D0E90012BDE810401046084710BD11
:1038B00070B5044600680169E26821F44051114383
:1038C0000161A1682069E269014360691043014315
:1038D0002068C26849F20C639A430A43C2602068B8
:1038E0004169A26921F44071114341613149206865
:1038F000884202D03049884202D1FEF761FE01E0E1
:10390000FEF74EFEE2690023192164253226B2F546
:10391000004F626828D0A0FB0101930F9200FCF7D2
:1039200083FD0146B0FBF5F06FF01802504301EB48
:10393000800006EB0010B0FBF5F000F0F002B1FBE8
:10394000F5F002EB0012B1FBF5F06FF018035843ED
:1039500001EB800006EB0010B0FBF5F000F00F006B
:1039600021681044886070BDA0FB010192185B4182
:10397000FCF75AFD0146B0FBF5F00201B1FBF5F092
:103980006FF01803584301EB800006EBC000B0FB5A
:10399000F5F000F0F80002EB4002B1FBF5F05843FF
:1039A00001EB800006EBC000B0FBF5F000F0070073
:1039B000D6E7000000100140001401402DE9F0415D
:1039C0001E46174688460446069D26E0681C24D0FD
:1039D00025B1FEF767FC801BA8421ED920680C3079
:1039E00050E8001F21F4D07140E80012002AF5D100
:1039F0002068143050E8001F21F0010140E8001257
:103A0000002AF5D1202084F83D0084F83E000020F3
:103A100084F83C000320BDE8F0812068016838EAA2
:103A2000010004D00020B842D0D00020F3E70120EC
:103A3000F9E700000148FFF72DBC00003802002024
:103A4000FEE703B401984100009850EAC12018BF76
:103A500004204A0D18BF40F0010040F2FF72B2EBA3
:103A6000515F08BF40F00200012808BF052002B0E6
:103A700070470907090E002804DB00F1E02080F8F8
:103A80000014704700F00F0000F1E02080F8141DD2
:103A9000704730380A2801D2012070470020704753
:103AA000704700002DE9FE4F824600F120081646BF
:103AB0000F46006931441C464FF00109814205D987
:103AC0003CA002F00FFA0520BDE8FE8FD8F80810E0
:103AD000404601B18847F8070CD0204639460123FB
:103AE0000090641C7F1C1A46504601F071F80500D6
:103AF00054D1761E0121504602F02AF805004DD11E
:103B0000AD208DF804000DF1040B34E0B9F1000F85
:103B100013D05D466A1C3946504600F0ADFE9AF857
:103B2000350008B1052200E004222078A854A91825
:103B3000607848704FF0000906E020788DF80500A5
:103B4000607801228DF80600002000900023D8F84C
:103B50000450404601A9921CA847050003D01FA0AD
:103B600002F0C0F91AE0504604F07EF8050015D1C5
:103B7000A41CB61EBF1C022EC8D20021504601F064
:103B8000E7FF05000AD1012E0CD101231A46394660
:103B90005046009401F01CF8050003D00021504667
:103BA00001F0D6FFD8F80C10404601B188472846EE
:103BB0008AE700004572726F723A20466C61736842
:103BC0002061646472657373206973206F7574205B
:103BD0006F6620626F756E642E0000004572726F12
:103BE000723A20466C61736820777269746520535D
:103BF000504920636F6D6D756E69636174652065F2
:103C000072726F722E00000070B50C46054602F00D
:103C100043FD6FF0010102F0E7FA23462A46BDE8B2
:103C20007040002100F08CBC10B5044602F034FD59
:103C30006FF0010102F0D8FAE1B2BDE8104000F0E7
:103C400053BD000070B50B4900EB800001EB00157F
:103C500005F13004204603F081FC002809D12046FC
:103C600003F068FC696C00788847204603F080FC0C
:103C7000F0E770BDFC00002010B50521001DB0FB71
:103C8000F1F4FEF787FC0349B0FBF1F04443641EF6
:103C9000FDD210BD40420F0010B5074A02EBC00430
:103CA00052F83000A188FEF7EBFAA179884201D1E1
:103CB000012010BD002010BDC08E000870B5054663
:103CC0000024E0B2FFF7E8FF2855641C032CF8DB62
:103CD00070BD000070B50D46064602F0E9F80446D6
:103CE0002A46314602F018F8216820B1BDE870403C
:103CF00004A0FCF72BBC2B463246BDE870400A48B6
:103D0000FCF724BC457261736520746865202573D7
:103D100020666C6173682064617461206661696CFF
:103D200065642E0D0A000000589300082DE9F0414B
:103D30000D46074602F0BCF80446194B2A463946A0
:103D400002F0EEF8002829D12B463A4615482168A2
:103D5000FCF7FCFB14A0FCF7F9FB0024DFF8408023
:103D60006E1E14E0200703D139191FA0FCF7EEFBEB
:103D700018F804101EA0FCF7E9FB2007B0F1704F03
:103D800001D0B44202D11CA0FCF7E0FB641CAC42A1
:103D9000E8D3BDE8F04118A0FCF7D8BBBDE8F0813E
:103DA000444F0020E09300084F6666736574202836
:103DB000682920303020303120303220303320301C
:103DC000342030352030362030372030382030391C
:103DD00020304120304220304320304420304520E4
:103DE00030460D0A000000005B253038585D200089
:103DF00025303258200000000D0A000030B587B091
:103E0000054602F055F804466B461822294602F092
:103E100087F8216820B10FA0FCF798FB07B030BDF0
:103E200018232A461448FCF791FBDDE9001213A081
:103E3000FCF78CFB00246D4628192146027A16A057
:103E4000FCF784FB641C102CF6DB17A0FCF77EFB50
:103E5000E4E7000057726974652074686520257373
:103E600020666C6173682064617461206661696CAE
:103E700065642E0D0A0000009C930008746D702E7E
:103E800061203D2025642C20746D702E62203D2021
:103E900025640D0A00000000746D702E635B2564BC
:103EA0005D203D20256420000D0A000073B5054605
:103EB00001F0FEFF044601AB0122294602F0DEF8C4
:103EC000216818B104A0FCF741FB7CBD01232A4600
:103ED0000A48FCF73BFB7CBD577269746520746827
:103EE0006520257320666C617368206461746120AD
:103EF0006661696C65642E0D0A0000009C930008E1
:103F000030B587B0054601F0D3FF044618220B49AF
:103F10006846FCF7A2FD6B4618222946204602F0AF
:103F2000ADF8216820B106A0FCF710FB07B030BD4A
:103F300018232A460B48FCF709FBF7E7A88E000870
:103F400057726974652074686520257320666C61FA
:103F500073682064617461206661696C65642E0D0C
:103F60000A0000009C93000808B50A238DF80000A1
:103F70000348012269460068FFF7A6F9002008BD42
:103F80004C010020FEB5044602F056F8002861D12D
:103F90002069002530B1A08A20B1A06910B1207F2E
:103FA00000283BD19F218DF8081003210091666AFB
:103FB00004F1200001AB012202A9B047060039D06C
:103FC00043A001F08FFF300044D1204601F0F4FF00
:103FD000E0B1A560206D2061B4F84800012833D01D
:103FE0000120A082606DA06194F858002077012024
:103FF00004EBC002516D31B1A3698B4203D9A161B9
:1040000092F858102177401C0428F1D32069E8B1B8
:10401000A08AD8B1A069C8B1207FB8B10021374AC1
:10402000237B084602EBC00636799E4213D152F834
:10403000301013E09DF8041021739DF80510617392
:104040009DF80610A173BEE70220CAE72CA001F07C
:1040500049FF0120FEBD401C1128E3D359B1A268DD
:1040600022B135A0236901F03DFF08E03DA022699F
:1040700001F038FF03E046A0216901F033FF20463C
:1040800001F0DAFC0028E5D1217D490702D50022A4
:1040900001210AE0217BC2290CD1617B202909D1B1
:1040A000A17B162906D100221146204601F0FCFF13
:1040B0000028CFD12169B1F1807F06D903B0204615
:1040C000BDE8F040012101F0FFBC84F83550FEBD91
:1040D0004572726F723A205265616420666C61733A
:1040E0006820646576696365204A454445432049F4
:1040F00044206572726F722E00000000D88E000896
:104100005761726E696E673A205468697320666CF5
:1041100061736820646576696365206973206E6FDA
:104120007420666F756E64206F72206E6F742073DA
:104130007570706F72742E0046696E642061202560
:104140007320257320666C61736820636869702E24
:104150002053697A6520697320256C642062797424
:1041600065732E0046696E64206120257320666C9D
:1041700061736820636869702E2053697A652069CD
:104180007320256C642062797465732E0000000032
:1041900046696E64206120666C617368206368699B
:1041A000702E2053697A6520697320256C64206223
:1041B000797465732E00000040210148FEF765B850
:1041C000001002404FF400510148FEF75EB80000B5
:1041D000000802404FF400510148FEF756B80000B5
:1041E000000802402DE9F041154D0F4600212970CD
:1041F0000121697005F10C061249D6F800C000EBE8
:10420000400001EB8004BCF1000F04D0A17A607A79
:1042100000233A46E04754F82720687818B112B1D5
:10422000A17A607A90477668002E07D0A17A607AEA
:104230002B783A46B446BDE8F0416047BDE8F081CE
:1042400054010020985300202DE9F05F82461D4F55
:1042500000200125387007F104087D70D8F800406F
:1042600091469B460E4614B100225046A047164880
:10427000CAEBCA0100EB8100797850F8264089B179
:1042800084B1012E0AD0B9F1000F01D03D7009E0D0
:10429000807D18B100F082F8012803DC3D7059469A
:1042A0005046A047D8F80440002C09D05B463A7825
:1042B00031465046A446BDE8F04F5DF804EB604738
:1042C000BDE8F09F540100204453002010B5542154
:1042D000064803F02DF905483021543003F028F941
:1042E000BDE810400821024803F022B944530020E1
:1042F0005801002000B5002200F00EF900B10122A3
:10430000104600BD2DE9F0410024884606462546AA
:1043100000F044F8204F02281AD104EB440007EBC8
:104320008003187A88B1587AB04205D1987AFFF79D
:10433000E1FF08B101250BE0987AB04204D1587A28
:10434000FFF7D8FF0028F5D115B9641C042CE4D37D
:10435000BDB104EB440057F8201019B907EB8000F9
:10436000406870B1B8F1000F13DC0023F0B20122F5
:104370001946FFF769FF2046BDE8F0410021FFF72D
:1043800031BFF0B24346BDE8F04100221146FFF7CD
:104390005BBFBDE8F08100009853002010B50024F9
:1043A0002346D8B2FFF7A6FF00B1641C5B1C032BA9
:1043B000F7DB204610BD000070B505460023C0B2F3
:1043C0001A460121FFF740FF0E4E002404EB440083
:1043D00006EB8003187A88B1587AA84203D1987AFC
:1043E000FFF788FF30B9987AA84207D1587AFFF7CB
:1043F00081FF18B101212046FFF7F4FE641C042C54
:10440000E4D370BD985300202DE9F8430746684671
:10441000FFF754FC0025DFF8C090E8462E46C5EBB8
:10442000C50209EB820418F9050094F918108842B6
:1044300006D0E17D394449B2E175142901DB2076CB
:10444000E675207E01280DD0E660E8B200F064F841
:10445000617E814226D0607678B1012813D002288F
:1044600020D117E0E06830B1C019E060EDD56FF001
:104470000040E060E9E71420FBE7A6826682284658
:10448000FFF79AFF0EE0A682668200212846FFF71A
:1044900039FF07E0A68200236682E8B21A460221AD
:1044A000FFF7D2FE607E022811D3B4F91010002964
:1044B0000DDDA08A384400B2A082884207DBA682C4
:1044C000608A401C01B261822846FFF71BFF6D1C09
:1044D000032DA4DBBDE8F8834453002010B4054C41
:1044E000C0EBC00304EB830343F8212010BC002180
:1044F00000F002B844530020C0EBC002034800EBB8
:104500008200018200218182418270474453002051
:104510000A20FFF779BF00000849C0EBC00001EB9B
:104520008000C068B0F5FA7F01DB022070470028E8
:1045300001DD012070470020704700004453002037
:104540002DE9FF4F83B01F0016464FF000047DD0C9
:104550000398401C04D0039841790498814275D394
:1045600042481346CDE9007041A2FF214848FCF7BC
:104570000FF803B2DDE90301454A00F029F926F0FE
:104580000F05B846701B40440F3020F00F09DFF8CC
:1045900000A14FF0200B62E00AEB04002A463DA187
:1045A000FBF7E0FF04440027E819B04203D306EB11
:1045B0000801884209D30AF804B0641C0AF804B060
:1045C000641C0AF804B0641C06E0EA5D0AEB04000F
:1045D00035A1FBF7C7FF04447F1C102FE4DB7C21CF
:1045E0000AF80410641C00270AF804B0641CE819D7
:1045F000B04203D306EB0801884202D30AF804B0A4
:104600000EE0EA5DA2F120005E2806D80AEB040065
:1046100027A1FBF7A7FF044403E02E210AF80410AA
:10462000641C7F1C102FE2DB0AF804B0641C7C21A0
:104630000AF80410641C0D210AF80410641C0A21F5
:104640000AF80410641C23B2114A00E00AE0DDE914
:10465000030100F0BDF80024A9F110091035B9F1EB
:10466000000F99D107B0BDE8F08F0000109300084B
:104670006D656D6F7279206F6620307825303878DF
:104680002C2073697A653A2025643A0D0A25730057
:10469000444E00201B5B33316D3078253038783A3A
:1046A000201B5B33396D000025303278200000007C
:1046B0002563000010B50B00044606D002466FF0DB
:1046C00001011846A36001F07BFD0649002051F866
:1046D000202022B1401C00B20528F8DB10BD41F8B3
:1046E000204010BD304E00200EB508B141710EBD06
:1046F0000A48852204A18DE807000121002308A2B1
:10470000881E00F04FF80EBD2E2E5C7368656C6C31
:104710005C6C6F675C6C6F672E630000D68D000861
:104720001B5B33316D45282564292025733A1B5BBB
:1047300033396D20226C6F67222061737365727448
:10474000206661696C65642061742066696C653AF5
:104750002025732C206C696E653A2025640D0A00B3
:1047600010B56FF0010101F03FFD00280ED0417936
:10477000062901D3002100E0491CCBB2437100217E
:10478000BDE8104002A2481E00F00CB810BD0000A9
:10479000736574206C6F67206C6576656C3A2025B4
:1047A000640D0A000FB470B50C46054607ABFF2137
:1047B0000648069AFBF7B0FE03B2044A2146284693
:1047C00000F006F870BC5DF814FB0000444E0020B9
:1047D0002DE9F0410D461F46411C0DD000281ED08A
:1047E000017900291BD04179A94218D30268BDE89C
:1047F000F04119460B4810470A4E0024143E56F863
:10480000240040B1017931B14179A94203D3026852
:10481000394604489047641C24B2052CEFDBBDE800
:10482000F0810000444E002000210148FFF742BF04
:104830009C000020FDF744FDFEF772FFFEF7D2FD5D
:10484000FEF770FEFEF74CFE012251030848FDF70B
:1048500024FD012240210748FDF71FFD01F02CFB3C
:1048600000F048F8FEF78AFD00F056F8FEE7000079
:10487000000802400010024030B590F835000D46A7
:1048800008B1042300E00323002007E0191ACC003C
:10489000083C25FA04F11154401CC0B29842F5D3EB
:1048A00030BD000010B500EB80040A4800EB041492
:1048B00004F130002264C4E9113121460123302281
:1048C00002F045FEE06C0068C16841F02001C16063
:1048D00010BD0000FC00002010B5EFF3058111B100
:1048E0006FF0050403E0002408B103F091F82046BE
:1048F00010BD0000EFF3058010B16FF005007047A8
:104900000448016811B14FF0FF3070470121016088
:10491000002070476400002010B5EFF3058010B14F
:104920006FF0050010BD08480168012902D04FF062
:10493000FF3010BD054A002182F8141D02210160DC
:1049400003F016F9002010BD640000200BE000E029
:10495000F8B50024221F561C0D46002803D0EFF3A3
:104960000581A1B10DB114461BE000216A460091FA
:1049700003F038FD012813D1009890B10A494FF097
:1049800080500860BFF34F8FBFF36F8F09E0294657
:1049900003F076FD012804D015B16FF0010400E0AA
:1049A00034462046F8BD000004ED00E0F8B514469A
:1049B0000E464FF00005EFF3058191BB88B38642A8
:1049C00042D86A1E44B1A1680029E16803D0502989
:1049D00003D3012201E001B90022511C34D0012887
:1049E00009D0012A27D0314603F002FA05002BD066
:1049F00034B3216825E0012A14D0032200210120CC
:104A000003F03EFA05001FD0002EF1D000231A4615
:104A1000194603F0CDFA0128EAD0284602F0AAFF91
:104A2000002511E003200090002211460120A36818
:104A300003F047FAE6E73146A26803F0F6F9D5E756
:104A40000021284602F084FF2846F8BD38B500242E
:104A5000E51E00280AD0EFF30581A9B100210091DD
:104A6000694603F0B6FB012815D102E06FF003049C
:104A700012E0009880B109494FF080500860BFF300
:104A80004F8FBFF36F8F07E000231A46194603F0DC
:104A90008FFA012800D02C46204638BD04ED00E0F6
:104AA0002DE9FF410B464FF00005EFF3058103951B
:104AB00049BB40B38026182100244AB3176807B1C8
:104AC0003C46976907B139464F1E382F02D21779F5
:104AD000FF0703D0002004B0BDE8F081576907B19B
:104AE000BE08D2F808C0BCF1000F0DD0D5685C2D0F
:104AF00018D312693AB137B18DE806103246214613
:104B000003F001FE03900DE0D7685FB912694AB95E
:104B100003AACDE90012B2B2214603F0C7FD012875
:104B200000D003950398D6E72DE9FC471C46904634
:104B3000894607464FF00006EFF3058058BB57B390
:104B4000082000F00DFD050025D0C5E90078B9F179
:104B5000000F12D00122114B002094B1216801B145
:104B60000846A16859B1E4682C2C11D3CDE9003175
:104B70002B46012103F0A0FF08E00022EBE7E168EB
:104B800031B900932B46012103F07CFF060002D1CE
:104B9000284602F06FFE3046BDE8FC8799380008D1
:104BA00008B5EFF3058313B16FF0050008BD50B1F0
:104BB00000230A460421009303F0C6FF012805D014
:104BC0006FF0020008BD6FF0030008BD002008BDB3
:104BD0002DE9F84F824600F1200915460F4600697D
:104BE0002944DDF828B01E464FF00008814205D95F
:104BF00033A001F077F90520BDE8F88FD9F8081047
:104C0000484600294ED088474CE00121504600F02C
:104C10009FFF5FEA000847D1334A0220394602F875
:104C2000010B5046FFF728FE9AF8350008B1052021
:104C300000E004208046B7FBF6F006FB107060B180
:104C4000B7FBF6F006FB1070301AA84209D2B7FB8A
:104C5000F6F006FB1070341A04E0B54201D9344670
:104C600000E02C4620482D1B27444044224659464C
:104C7000FBF7AEFE00200090D9F804C008EB040258
:104C8000484600231849E0475FEA000803D017A010
:104C900001F028F908E0504602F0E6FF5FEA00085C
:104CA00002D1A344002DB0D10021504600F050FFA6
:104CB000D9F80C10484601B1884740469CE70000EF
:104CC0004572726F723A20466C6173682061646449
:104CD00072657373206973206F7574206F6620622C
:104CE0006F756E642E000000C85400204572726F0C
:104CF000723A20466C61736820777269746520533C
:104D0000504920636F6D6D756E69636174652065D0
:104D100072726F722E00000010B50146024801F059
:104D2000EFFC002010BD0000984B0020FFF78EBE66
:104D30001CB5FDF7B7FA0549CDE9001004210023A1
:104D400003A2481FFFF72EFD1CBD00003C8C00088D
:104D50001B5B33346D44282564292025733A1B5B83
:104D600033396D207469636B203D2025640D0A0082
:104D70002DE9F041134E0F460446F5683068001DDA
:104D800002F0E8FC601C07D137B13168BDE8F041A2
:104D90000D48091D02F02EBD30682C44AC42446021
:104DA000316805D2B06BBDE8F041091D02F00ABDC3
:104DB000706B091D02F006FDB06A844200D2B46235
:104DC000BDE8F08114000020B40700202DE9F04177
:104DD000054602F01BFD2D4EB068401CB0603068E7
:104DE0002B4F10B1706930B32BE03560B0680128EB
:104DF00027D1002404EB840007EB800002F0D4FCF0
:104E0000641C382CF6D3234802F0CEFC2148143021
:104E100002F0CAFC1F48283002F0C6FC1D483C3096
:104E200002F0C2FC1B48503002F0BEFC194870630F
:104E30001430B06305E03068E96AC06A884200D87F
:104E40003560706A401C70626864E86A3169884243
:104E500000D9306100EB800007EB8000291D02F0D3
:104E6000C9FC02F0F3FC706900280CD03068E96AD4
:104E7000C06A884207D208494FF080500860BFF3EB
:104E80004F8FBFF36F8FBDE8F0810000140000204A
:104E9000040300206407002004ED00E038B502F0B0
:104EA000B5FC104C2068C8B90F4802F07DFC0E48D4
:104EB000143002F079FC0C48E060143020610A4B99
:104EC0000020F03B009003F1500210210A2002F074
:104ED000F8FF206010B105A102F03AFDBDE83840AE
:104EE00002F0B4BC50000020B8080020546D72518C
:104EF0000000000030B4026C0B46002A0BD0C168E1
:104F00001144C1608468A14201D30168C16030BC12
:104F10001846FBF75DBD30BC70472DE9F041856B4D
:104F2000174604460026026C82B1C7B1E068FBF761
:104F30004FFDE168206C091AE1602268914202D2BB
:104F4000A168081AE060022F16D017E02068A8B9FF
:104F5000A06803F083FC06460020A0600EE06068B5
:104F6000FBF736FD216C606808446060A1688842E8
:104F700004D32068606001E005B16D1E6D1CA5635F
:104F80003046BDE8F08110B5044690F8590058B19C
:104F900001280CD002280FD0502080F31188BFF3D5
:104FA0004F8FBFF36F8FFEE7206B02F063FC20464C
:104FB000BDE8104002F05EBC10BD000010484FF488
:104FC0007051420706D0C01D0D4920F00700411A5C
:104FD000C1F570510B4A00230144C2E900030839AE
:104FE000183A21F0070111604B600B600B1AC0E901
:104FF000001393604FF00040536050617047000011
:10500000980F002080000020134E144DA6F29C47FC
:105010004FF08058DFF8489011E002F0F7FBF0689D
:10502000C468201D02F096FBA868401EA86068684E
:10503000401E686002F00AFC2046FFF7A4FF686883
:105040000028EAD138680128F9D9C9F80080BFF3EF
:105050004F8FBFF36F8FF2E7A007002014000020EE
:1050600004ED00E0002807D00021816001600B46BC
:105070000A46C16002F09CBF704770B51D46049C93
:1050800049B12260C4E90F010121204602F04CFF22
:1050900084F84C5070BD2460F4E72DE9F05F0E46B3
:1050A000DDE90B941746834691009A460A9DA52296
:1050B000206BFBF704FD6FF00301206B01EB870110
:1050C000084420F00707780707D0502080F31188A4
:1050D000BFF34F8FBFF36F8FFEE74FF0000866B14D
:1050E00000202218315C82F83410315C11B1401C70
:1050F0001028F6D384F8438001E084F83480382DFA
:1051000000D33725E562C4E91358201D02F057FB90
:1051100004F1180002F053FB2461C5F13800646209
:10512000A061C4F8548084F85880524659463846E5
:1051300000F0A2FA2060B9F1000F01D0C9F80040D8
:10514000BDE8F09F2DE9F0471F46DDE908941646BB
:105150000D00804615D0002C11D0FFF79FFE04F102
:105160001801C4F8008081E8A002201D02F027FB8E
:10517000002E04D014F8280F40F004002070BDE881
:10518000F087502080F31188BFF34F8FBFF36F8FEC
:10519000FEE7000030B5114900E011460A6882427E
:1051A000FBD34B685C18844203D1406818444860C4
:1051B000084643681C18944209D1084C183C2468DE
:1051C000A24209D052681A4442600A68126802601A
:1051D000814200D0086030BD0460F9E78000002003
:1051E00070B5002441600B4D0061914206D8D11A80
:1051F0008269914206D2011D286907E09A4203D2D2
:10520000994201D3012403E0011DE86802F0DAFAB3
:10521000204670BD5000002010B5044602F0F6FA9A
:10522000A06B20B1002402F011FB204610BD012428
:10523000F9E7000030B587B03C4D6EE001980028DA
:1052400006DADDE90301029A90470198002864DB41
:10525000039C606910B1201D02F07CFA05A800F0E3
:10526000D7F8024601980A2857D2DFE800F0050572
:10527000052D334A05052D3394F8280040F0010030
:1052800084F828000298A169034601442046FFF7EC
:10529000A7FF68B3216A2046884794F82800400792
:1052A0003BD5002000900298A169002342181946BE
:1052B000204603F049FCD8B9502080F31188BFF391
:1052C0004F8FBFF36F8FFEE714F8280F20F0010017
:1052D000207022E094F8280040F0010084F82800B3
:1052E0000298A06128B1811813462046FFF778FF85
:1052F00013E0502080F31188BFF34F8FBFF36F8FFF
:10530000FEE794F82800810703D4204602F0B2FAA1
:1053100003E020F0010084F82800002201A9286899
:1053200002F0C4FF002889D107B030BD5000002032
:105330002DE9FC410F46054602F05CFC01A800F097
:1053400067F80446019818B103F03CFBBDE8FC8106
:10535000254EAFB130690068D0B30027291B3A460B
:10536000306802F033FB03F02DFB0028EED11F491B
:105370004FF080500860BFF34F8FBFF36F8FE5E7AA
:10538000A542EBD803F01EFBF0682746C068C4684E
:10539000201D02F0DFF994F82800410719D5A06913
:1053A0002B4641193A462046FFF71AFFA8B10020C4
:1053B0000346014600902A46204603F0C5FB60B92B
:1053C000502080F31188BFF34F8FBFF36F8FFEE73C
:1053D00007E020F0010084F82800216A2046884771
:1053E000B4E70127BAE700005000002004ED00E018
:1053F0000648416B096829B1416BC968C9684968A9
:10540000816270474FF0FF31FAE70000140000207E
:1054100070B5054603F0B8F9064E0446B0688442FC
:1054200003D200F009F8012000E0002028602046A7
:10543000B46070BD50000020F8B5194E20E0C0687F
:10544000C4680568201D02F085F9216A2046884756
:1054500094F82800400713D5A0692844A84206D92B
:1054600024616060211DF06802F0ACF908E00020C2
:105470000346014600902A46204603F065FB38B1FA
:10548000F06801680029DAD13169C6E90310F8BD76
:10549000502080F31188BFF34F8FBFF36F8FFEE76B
:1054A0005000002008484068401C4FF0500080F336
:1054B000118804D0BFF34F8FBFF36F8FFEE7BFF3A8
:1054C0004F8FBFF36F8FFEE788000020084CE06825
:1054D000016839B1002139B10020FFF729FFFFF73A
:1054E000A9FEF4E70121F6E7C0680068F5E70000CF
:1054F000500000202DE9F041044602F087F994F9AC
:10550000455004F1240609E0606A48B1304603F0D2
:1055100021FA08B102F0AAFA6D1E6DB2002DF3DC7B
:105520004FF0FF3684F8456002F090F902F06EF912
:1055300094F9445004F1100709E0206948B1384655
:1055400003F008FA08B102F091FA6D1E6DB2002D59
:10555000F3DC84F84460BDE8F04102F077B9000064
:105560002DE9F0410546002602F044FB324F386831
:1055700008B9FFF723FD786905424ED1C5B3083558
:1055800068070ED005F00700C0F108000544680761
:1055900007D0502080F31188BFF34F8FBFF36F8F78
:1055A000FEE72DB37868854237D82349183108467D
:1055B000046801E0214604466068A84202D22068DF
:1055C0000028F7D13868844227D00E682068086028
:1055D00060680836411B10290FD96019420708D0AE
:1055E000502080F31188BFF34F8FBFF36F8FFEE71A
:1055F00013E041606560FFF7CDFD61687868401A8F
:105600007860BA68904200D2B8607869014300209F
:10561000C4E90001F868401CF86003F0D3F9700792
:1056200007D0502080F31188BFF34F8FBFF36F8FE7
:10563000FEE73046BDE8F0816800002004490868B4
:1056400018B10868026D521C0265086870470000B6
:105650001400002010B5040006D002F0D7F8E46969
:1056600002F0F4F8204610BD502080F31188BFF3FB
:105670004F8FBFF36F8FFEE710B5031F4FF080749D
:105680001C601B1F21F001011960191F044B0B60E6
:1056900014390A60091F6FF0020244380A6010BD15
:1056A000A55400087CB50C46002108250091019105
:1056B0002B466A46294600F047F918B113A000F0BE
:1056C00011FC1EE09DF8000020709DF80120627022
:1056D0009DF80210A1709DF80300E0709DF806503F
:1056E000BDF80430012965F31F43636003D91548F1
:1056F00000F0F8FB05E0092805D20146124800F049
:10570000F1FB00207CBD01207CBD00004572726F62
:10571000723A2043616E27742072656164204A45A5
:1057200044454320626173696320666C617368203D
:10573000706172616D65746572206865616465721F
:105740002E00000070950008C4950008F0B589B0DF
:10575000054600F144044E6824216846FBF7D9F958
:1057600024236A463146284600F0EEF808B150A0DE
:105770005CE0401CC0B20928FBD39DF80100E07139
:105780009DF80000002100F003000127012803D04C
:10579000032803D054A049E0A77100E0A1719DF84F
:1057A0000000C0F38000F8B110B14FF48070A08009
:1057B0009DF80000C0F3C000C0B140B121729DF857
:1057C0000000C0F3001098B108B1062060729DF887
:1057D0000200C0F3410068B101280ED00228A17276
:1057E0000CD0E1724EA021E0A780E1E72772EEE73E
:1057F0005020EBE7A772E17201E0A772E7729DF813
:1058000006309DF804009DF807209DF805501B0404
:1058100040EA026043EA05231843D2090BD08AB15B
:1058200020F00040232809D94648E16000F05AFBE7
:10583000002009B0F0BD07EBD00002E0C01E07FA5F
:1058400000F0E060002001466D4605EB40031A7F42
:1058500042B107FA02F604EBC102491C16615B7FF4
:105860001375C9B2401CC0B20428EED3002304EB68
:10587000C3010869A0B1581C0FE004EBC002156910
:1058800055B10E69AE4207D991F814C00D61157D6E
:105890000D75166182F814C0401CC0B20428ECD308
:1058A0005B1CDBB2042BE2D327700120C1E70000B0
:1058B0005761726E696E673A2043616E2774207279
:1058C000656164204A4544454320626173696320F1
:1058D000666C61736820706172616D6574657220B9
:1058E0007461626C652E00004572726F723A2055C9
:1058F0006E69666F726D2034204B42206572617351
:105900006520737570706F7274656420696E666F60
:10591000726D6174696F6E206572726F722E000015
:105920004572726F723A20526561642061646472DC
:10593000657373206279746573206572726F72216A
:1059400000000000289500083EB50AA4D4E90054E0
:10595000CDE901540C0C8DF805400C0A8DF8064079
:1059600000938DF8071013460522446A01A92030E0
:10597000A0473EBD5A000000FF0000001CB50021FA
:1059800000F1440400910191217008236A46FFF759
:10599000DBFF18B112A000F0A5FA0FE09DF800009F
:1059A00053280BD19DF80100462807D19DF802002D
:1059B000442803D19DF80300502801D000201CBDCD
:1059C0009DF80400A0709DF805106170012904D9AC
:1059D000A2780BA000F086FAF0E701201CBD0000C1
:1059E0004572726F723A2043616E2774207265614E
:1059F000642053464450206865616465722E00003F
:105A00004572726F723A20546869732072657665C8
:105A10007273696F6E285625642E256429205346BB
:105A20004450206973206E6F7420737570706F72AC
:105A30007465642E000000002DE9FC41064600F16B
:105A40002004662000278DF80400009765683B4617
:105A5000012201A92046A847050005D00FA000F0AB
:105A600041FA2846BDE8FC81304602F0FDF8992055
:105A70008DF8050000970023656801220DF10501EE
:105A80002046A847040004D1304602F0EDF8040097
:105A900002D002A000F026FA2046E3E74572726FBA
:105AA000723A20466C61736820646576696365208C
:105AB0007265736574206661696C65642E00000010
:105AC0006420FEF7D9B800007CB50C4605460121DC
:105AD00000F03EF800281BD10CB1B72000E0E9200F
