:020000040800F2
:10000000D878002015040008E5660008915F000814
:10001000E16600085D250008499600080000000020
:1000200000000000000000000000000021030008A4
:1000300061250008000000007D03000867910008AA
:100040002F0400082F0400082F0400082F040008C4
:100050002F0400082F0400082F0400082F040008B4
:100060002F0400082F0400082F0400082F040008A4
:100070002F0400082F0400082F0400082F04000894
:100080002F0400082F0400082F0400082F04000884
:100090002F0400082F0400082F0400082F04000874
:1000A0002F040008499200082F0400082F040008BC
:1000B0002F0400082F0400082F0400082F04000854
:1000C0002F0400082F0400082F0400082F04000844
:1000D0002F040008299600082F0400082F040008A8
:1000E0002F0400082F0400082F0400082F04000824
:1000F0002F0400082F0400082F0400082F04000814
:100100002F0400082F0400082F0400082F04000803
:100110002F0400082F0400082F0400082F040008F3
:100120002F0400082F0400082F0400082F040008E3
:100130002F0400082F0400082F0400082F040008D3
:100140002F0400082F0400082F0400082F040008C3
:100150002F0400082F0400082F0400082F040008B3
:100160002F0400082F0400082F0400082F040008A3
:100170002F0400082F0400082F04000800000000CE
:100180002F0400082F04000800F002F800F0B8F86F
:100190000AA090E8000C82448344AAF10107DA45E2
:1001A00001D100F0ADF8AFF2090EBAE80F0013F07C
:1001B000010F18BFFB1A43F00103184770DE01005E
:1001C00090DE01000A444FF0000C10F8013B13F0E0
:1001D000070408BF10F8014B1D1108BF10F8015BA0
:1001E000641E05D010F8016B641E01F8016BF9D193
:1001F00013F0080F1EBF10F8014BAD1C0C1B09D1EA
:100200006D1E58BF01F801CBFAD505E014F8016B5B
:1002100001F8016B6D1EF9D59142D6D370470000ED
:100220000023002400250026103A28BF78C1FBD8FF
:10023000520728BF30C148BF0B6070476E2900F0DD
:100240000A87702900F06383662916F044846529C3
:1002500016F04184672916F03E84612916F03D842A
:1002600003681B0A28BF41F08001692900F09682CB
:10027000642900F09382752900F090826F2901F0C3
:10028000DA81782900F02F83E92900F0C382E4297C
:1002900000F0C082F52900F0BD82EF2901F0D7817E
:1002A000F82900F02E830368DB0928BF41F08001A4
:1002B000632901F02281732901F02781E32901F0EC
:1002C000B783F32901F0BC83002070471FB516F0F7
:1002D000FDFB9DE8030000F0CDFD00F0FCFB00F00D
:1002E000A9FD04000020002116F002F8401C606007
:1002F0000020002116F012F8E0601FBD10B510BDFF
:1003000001F03FFC1146FFF7E1FF0DF071FE01F037
:100310005DFC03B4FFF7F2FF03BC09F0CCFB000067
:100320002C4B19680868B0E8F04F80F30988BFF3D8
:100330006F8F4FF0000080F31188704700000000BD
:1003400008480068006880F308884FF0000080F3D8
:10035000148862B661B6BFF34F8FBFF36F8F00DFB3
:1003600000BF00BF08ED00E0DFF80C00016841F4B9
:1003700070010160704700BF88ED00E0EFF3098075
:10038000BFF36F8F134B1A681EF0100F08BF20EDDC
:10039000108A20E9F04F106009B44FF0500080F34C
:1003A0001188BFF34F8FBFF36F8F14F06FF94FF0C9
:1003B000000080F3118809BC19680868B0E8F04FA4
:1003C0001EF0100F08BFB0EC108A80F30988BFF34D
:1003D0006F8F7047E0000020EFF30580704700004A
:1003E0000B49D1F800C04A685CF8043B1068184417
:1003F00042F8040B8C4528BFA1F1DC0C8A4228BFCF
:10040000A1F1DC02C1F800C04A6020F00040704752
:100410006C7200200948804709480047FEE7FEE764
:10042000FEE7FEE7FEE7FEE7FEE7FEE7FEE7FEE7A4
:1004300004480549054A064B7047000035920008FC
:1004400089010008D8720020D8780020D8740020D4
:10045000D87400207047000010B500F0EBFC001DC0
:1004600010BD00BF8D5E010070B5064600F0DEFCD9
:10047000056806F10B0020F00704B4429CBF002081
:1004800070BD2B466A68BAB11068A04210D304F15F
:10049000080188423CBF5068586007D35168101962
:1004A00041601168091B016058601460101D70BD27
:1004B00013465268002AE7D12146284600F0C6FCC0
:1004C0000028DED170BD70B50446051F00F0AEFCFB
:1004D0000068002C14BF446870BD002C18BFAC42EB
:1004E0003CBF20466468F8D301680A18AA4218BFC6
:1004F000456003D12A680546114401602868411906
:10050000A1421CBF6C6070BD6168696021680844CD
:10051000286070BD53EA020C00F069802DE9F04BB1
:100520004FF00006002B1FBFB3FA83F503FA05F462
:1005300024FA05F65E4012BF1643B2FA82F502FABB
:1005400005F4C5F120051EBF22FA05FC44EA0C049F
:10055000203556EA044C4FEA144418BF641C4FF08F
:1005600000084FF00009904271EB030C39D30029C9
:1005700019BFB1FA81F701FA07F6B0FA80F700FA6D
:1005800007F6C7F120071EBF20FA07FC46EA0C0653
:100590002037B6FBF4FCA7EB0507103F07F01F0B55
:1005A000CBF120060CFA0BFB2CFA06F644BFB3463F
:1005B0000026202FA4BF5E464FF0000B5BEA060C1E
:1005C00008BF4FF0010B19EB0B09ABFB027C48EBAA
:1005D0000608C01B06FB02CC0BFB03CC71EB0C0125
:1005E000C1E70B46024641464846BDE8F08B13B5CD
:1005F0004FF000004FF00001AFF30080BDE81C4059
:10060000704710B54C1084EA530404D54042C1F140
:10061000000138BF491E1B4204D55242C3F10003FA
:1006200038BF5B1EFFF776FF14F0804F04D04042C6
:10063000C1F1000138BF491E14F0004F04D05242EE
:10064000C3F1000338BF5B1E10BD00007CB51D4622
:1006500016460C00009001D02044401E074B7B44FE
:100660002A4669460190304600F01DFF05461CB140
:100670000020694600F02AFF28467CBD750E000068
:100680000FB4044910B503AA029800F043FF10BC50
:100690005DF814FB180200200FB41CB5084B06AA25
:1006A0007B4469460090059800F0FDFE044600205A
:1006B000694600F00BFF20461CBC5DF814FB0000EF
:1006C000290E00000FB47CB50C0009AA009001D0DF
:1006D0002044401E084B7B4469460190089800F076
:1006E000E2FE05461CB10020694600F0EFFE2846F8
:1006F0007CBC5DF814FB0000FD0D000070B50446E5
:1007000085690068C10601D5302600E02026C007B3
:1007100007D070BDD4E9012130469047206A401CC3
:1007200020626D1EF6D570BD70B5044685690078EF
:10073000C00707D170BDD4E9012120209047206A6D
:10074000401C20626D1EF6D570BD70B50C46054686
:10075000012A05D02878800600D5EA69002302E046
:10076000012305E05B1C934202D2E05C0028F9D132
:10077000A869E618C01AA861286A184428622846A1
:10078000FFF7BCFF04E0D5E9012114F8010B904705
:10079000B442F8D32846FFF7C7FF70BD2DE9F041FA
:1007A0000646002410687529314616A510D000F0C1
:1007B000E7FB002802DA404213A507E031688A0708
:1007C00001D512A502E0490704D511A5012401E0D5
:1007D00000F0DFFB00210A2206F1240709E0B0FB4C
:1007E000F2FCB0FBF2F302FB1C00303078541846E8
:1007F000491C0028F3D123462A463046BDE8F04183
:1008000000F0D0BB000000002D0000002B00000015
:10081000200000002DE9F0418046D21D22F00702A1
:100820000025D2E90002F52915A614D0011E72F1A7
:10083000000106DA0023D0EB030063EB020211A6ED
:1008400008E0D8F800108B0701D50FA602E0490791
:1008500001D50EA601251146002408F1240704E065
:1008600000F03EFB30323A55641C50EA0102F7D1E9
:100870002B46324621464046BDE8F04100F092BB8F
:10088000000000002D0000002B00000020000000F0
:10089000F0B40D460188090502D5214C7C4402E0E4
:1008A0001F4C7C440E34002100F1240608E002F0C5
:1008B0000F071209E75D42EA03721B097754491CCE
:1008C00052EA0307F3D102780023120704D5702DF2
:1008D00006D009B1022311342246F0BC00F062BBFD
:1008E00001231034F8E770B504460D462146106820
:1008F00000F04FFB024629462046BDE87040002329
:10090000C6E7D21D22F00703D3E90023C0E703683E
:10091000126843F0200303600823C3610023B7E794
:1009200044CC01002DE9F05F894604464FF0000AEF
:10093000DFF874B1FB44C0F820A02046E168884786
:10094000002874D0252806D0D4E901219047206AD8
:10095000401C2062F1E700265F462046E168884798
:100960002028054607DB312D05D2781910F8200C18
:1009700008B10643F1E7B00701D526F00406C4F834
:100980001CA00027C4F818A02A2D09D0284609F079
:100990008BF838B304EB8708303DC8F8185019E0DD
:1009A00059F8041B204604EB87029161E1688847EF
:1009B000012F054618D1E069002820DA26F020062C
:1009C0001DE0D8F8180000EB800005EB400030383F
:1009D000C8F818002046E1688847054609F064F821
:1009E0000028EED1012F0AD02E2D08D12046E16833
:1009F00088477F1C0546022F46F02006C4DBA0690D
:100A0000002803DA404246F00106A061F00701D059
:100A100026F010066C2D0BD0682D09D04C2D39D046
:100A20006A2D35D0742D35D07A2D33D016E038E0CC
:100A3000E1682F4620468847B842054609D16C2F09
:100A400026D04FF48060E16806432046884705467B
:100A500004E06C2F1AD04FF4807006430DB3A5F15B
:100A60004100192802D8203546F400664A46294636
:100A7000204626604E46FFF7E1FB80B101280BD0EF
:100A8000F61D26F0070000F1080956E74020E4E7CC
:100A90008020D8E70020D6E706F104094DE7284674
:100AA00052E7206ABDE8F09FD4CB01000B4910B596
:100AB000A1F17C020A4CC2E93712372106E000EBB3
:100AC000104342F82130074B00FB03400B1EA1F1FD
:100AD0000101F4DC10BD0120E8E700000C720020E9
:100AE000E119D666CD0D010010B5431C02E010F8E7
:100AF000011B71B18107FAD14FF0013202C88C1A83
:100B00008C4314EAC211F9D0C01A0A0603D0C01EE1
:100B100010BDC01A10BD0A0401D0801E10BD09020C
:100B2000FCD0401E10BD40EA010370B59B072ED1DA
:100B30004FF00136042A2AD308C810C99D1B9D43D3
:100B4000121F15EAC61517D0D8B2E1B2401A50EA02
:100B5000056110D198B2A1B2401A50EA05410AD1FC
:100B600023F07F4024F07F41401A50EA052102D152
:100B7000180EA0EB146070BDA342DBD018BA21BAE6
:100B8000884201D9012070BD4FF0FF3070BD0AB915
:100B9000002070BD10F8013B11F8014B63B1A34276
:100BA0000AD1521E08D010F8013B11F8014B1BB1BD
:100BB000A34201D1521EEDD1181B70BD032A40F291
:100BC000308010F0030C00F0158011F8013BBCF1EF
:100BD000020F624498BF11F801CB00F8013B38BF07
:100BE00011F8013BA2F1040298BF00F801CB38BF15
:100BF00000F8013B11F0030300F02580083AC0F033
:100C0000088051F8043B083A51F804CBA0E80810DA
:100C1000F5E7121D5CBF51F8043B40F8043BAFF30D
:100C20000080D20724BF11F8013B11F801CB48BF67
:100C300011F8012B24BF00F8013B00F801CB48BF9D
:100C400000F8012B704710B5203AC0F00B80B1E8D6
:100C50001850203AA0E81850B1E81850A0E81850F1
:100C6000BFF4F5AF5FEA027C24BFB1E81850A0E8FA
:100C7000185044BF18C918C0BDE810405FEA827C14
:100C800024BF51F8043B40F8043B08BF7047D2072B
:100C900028BF31F8023B48BF11F8012B28BF20F8CC
:100CA000023B48BF00F8012B704702F0FF0343EA04
:100CB000032242EA024200F002B84FF00002042987
:100CC000C0F0128010F0030C00F01B80CCF1040C7B
:100CD000BCF1020F18BF00F8012BA8BF20F8022BAF
:100CE000A1EB0C0100F00DB85FEAC17C24BF00F855
:100CF000012B00F8012B48BF00F8012B70474FF083
:100D0000000200B5134694469646203922BFA0E85B
:100D10000C50A0E80C50B1F12001BFF4F7AF090767
:100D200028BFA0E80C5048BF0CC05DF804EB890058
:100D300028BF40F8042B08BF704748BF20F8022B9B
:100D400011F0804F18BF00F8012B704710B5044612
:100D500010F0030F08BF11F0030F40F015804FF0A3
:100D6000013E121FC0F20E8051F8043BA3EB0E0CA3
:100D70002CEA030C1CEACE1C08BF40F8043BF0D060
:100D8000A1F1040102F10402521E08DB11F8013B3B
:100D9000002B00F8013BF7D11146FFF78EFF2046EC
:100DA00010BD00004FF0013C50F8042B51F8043BFB
:100DB0009A4221D1A2EB0C03934313EACC1317D12F
:100DC00050F8042B51F8043B9A4215D1A2EB0C03C6
:100DD000934313EACC130BD150F8042B51F8043B86
:100DE0009A4209D1A2EB0C03934313EACC13DBD054
:100DF0004FF00000704700BFD01A01BAB1FA81F17C
:100E000001F0180122FA01F0CB40C1F12001DBB260
:100E1000C0B2C01A2CFA01F3D11A914311EAC311DE
:100E2000E6D1704770477047704770470048704779
:100E30007C72002000487047947200200048704780
:100E400074720020704770477047704738B5044689
:100E50000A4600206946AFF30080002808BF38BD6D
:100E600002460099204600F001FC012038BD012017
:100E700000F080BEF8B5AFF30080054600200C46B8
:100E8000102000BF0646A819A0420DD93246694677
:100E90000020AFF30080070008BF00F06BFE009851
:100EA000A04218BF0546C419FFF7C0FF05600746FA
:100EB000F01D20F007004619284600F00AF8B44259
:100EC00008BFF8BDA21B31463868BDE8F84000F005
:100ED000CDBB00210160C0E90110704710207047B0
:100EE00030B5B0F10A024FEA900E71F100034EEAFC
:100EF000817EB0EB0E0061EB91014FEA101E4EEACD
:100F0000017E10EB0E0041EB11114FEA102E4EEA5C
:100F1000016E10EB0E0041EB11214FEA104E4EEA2C
:100F2000014E10EB0E0041EB1141401841F1000160
:100F30004FEAD00040EA41704FEAD10110EB800542
:100F40004FEA810444EA907444EB01046D1944EBC8
:100F50000404521BA3414FF0000348BF0A3200D5DE
:100F600030BD401C41F1000130BD10B5FFF766FFF8
:100F7000006810BD10B50446FFF760FF046010BDA7
:100F800009684A0501D540B27047C905FCD500B2D1
:100F9000704709684A0501D5C0B27047C905FCD53C
:100FA00080B270472DE9F0470D46994692460446B7
:100FB00000F124080168880604D5E06921F01001D9
:100FC000216000E00120A84201DD471B00E000276E
:100FD000A1697A1902EB0900081AA0612078C006FD
:100FE00002D42046FFF78AFB002608E0D4E901215D
:100FF0001AF806009047206A401C761C20624E4575
:10100000F4DB2078C0060AD52046FFF777FB06E020
:10101000D4E9012130209047206A401C2062381E0C
:10102000A7F10107F4DC07E0D4E9012118F8050075
:101030009047206A401C2062281EA5F10105F3DCC0
:101040002046FFF771FB2078000602D50220BDE89C
:10105000F0870120FBE711680268006A530501D59B
:1010600008700AE0D30501D5088006E0130603D511
:10107000C217C1E9000200E0086001207047704714
:101080002DE9FF4F0C461E464FF0FF378BB0D2E9DB
:101090000001DDF860800A908A46C1F30A5505B95F
:1010A0003D46002108464FF00000BAF1000F00F461
:1010B000400005DA00EB80004FF4400101EA5000E7
:1010C0004FEA9059B9F1010F00DDB9460A9850EA8C
:1010D0004A000ED044F61050A5F2FF3545432F14B8
:1010E000B8F1000F1ED07542291E1EDDC9F10002A5
:1010F0001CE0B8F1010F4FF0000001D0302103E0F7
:10110000F24305E02154401CB042FBDB3046002294
:10111000002121540B99C1F80880C1E900200FB0CB
:10112000BDE8F08FBD1B6D1CDEE74A4600DA694260
:1011300006A800F089FC06AB93E8070003AB83E840
:10114000070050460A9900F090FD8DE80700A0F5D1
:1011500000501F3800900398002D0ADD42F21F0155
:101160004A460844002303A90390684600F0F9FFAB
:1011700009E0A0F500504A461F38002303A9039058
:10118000684601F003F88DE807000004000C03D066
:101190004FF0FF30410800E01046B8F1000F03D0D7
:1011A0000022009215461EE0751E05D4FFF798FE3A
:1011B000303262556D1EF9D5B3460122084302D084
:1011C00000227F1C04E02078302801D100227F1EFD
:1011D000002A099784D01DE0112D07DAFFF780FE61
:1011E000303262556D1C50EA0102F5D1084302D03D
:1011F0000098C8B10EE00021681E05E0235C625C27
:1012000063542254401E491C8142F7DBAB46A81BA5
:10121000401E0990002004F80B000B98099AC0F8B2
:101220000880C0E9002B7AE711264FF0000857E745
:101230002DE9F04F88460446D21D22F0070191B0F7
:10124000D1E90001CDE90A0108F01EFA02460B9827
:10125000C00F01D02D2007E02068810701D52B2089
:1012600002E0202101EAC000032A099001D0072AE8
:1012700005DB03464146204600F090FB0BE1207859
:10128000800601D5E06900E00620B8F1650F8146CF
:1012900006D0B8F1660F18D0B8F1670F70D131E001
:1012A0000020B9F1110F009001DB112301E009F1D9
:1012B00001030AAA01A90CA8FFF7E2FEDDE90C7000
:1012C000002609F10105834647E001204B460090C6
:1012D0004FF000470AAA01A90CA8FFF7D1FEDDE9EB
:1012E0000DB00C995D46002610B909F101000D18EA
:1012F000B9EB050003D4C0F1FF3609F10105A5EBF8
:1013000009002BE0B9F1010F01DA4FF001090020CB
:10131000B9F1110F0090484601DD112300E00346AA
:101320000AAA01A90CA8FFF7ABFEDDE90C704D4637
:1013300000268346207800070AD4AB4500DA5D46D4
:1013400001A8012D04DD411911F8011C302907D035
:101350004F4502DA17F1040F04DA012082460FE04C
:101360006D1EEEE7002F02DCED1B3E4403E0781C0F
:10137000A84200DD7D1CB81B00F1010A4FF00047B8
:101380002078000703D4AA4501DB4FF0FF3A002183
:10139000B7F1004F0DF143088DF8431024D002201F
:1013A0002B23002F01DA7F422D230A21021EA0F1F8
:1013B000010000DC5FB197FBF1FC97FBF1F201FB50
:1013C0001C7C17460CF1300C08F801CDEEE7A8F1B3
:1013D000010003702188090501D5452100E0652140
:1013E000A0F1010800F8011C09980FA9A1EB08075A
:1013F000FF1D00B10120411901EBEA70A1693844D9
:10140000081A401EA0612078C00602D42046FFF7CB
:1014100075F9099828B1D4E901219047206A401C48
:1014200020622078C00622D52046FFF767F91EE02B
:10143000002E04DBB34502DD01A8805D00E0302012
:10144000D4E901219047206A401C2062761CAAF151
:1014500001005FEA000A0AD1FFF7ECFCC0680168EE
:10146000405CD4E901219047206A401C2062281E7C
:10147000A5F10105DCDC07E0D4E9012118F8010B36
:101480009047206A401C2062381EA7F10107F3DC58
:101490002046FFF749F9032011B041E601694A1CD3
:1014A00002610878704700B58FB0CDE901310021A5
:1014B000059105497944CDE9031011466846FFF7C7
:1014C00031FA0FB000BD0000E5FFFFFF0A6802F827
:1014D000010B0A607047D1E900239A4202D2531CE3
:1014E0000B601070704710B5436913B1AFF3008003
:1014F00001E0FFF72AF9012010BD127800F1240164
:101500000A7000224A700122EDE711684FF0FF32A5
:10151000E9E70000074B70B50D467B44FFF7C3FFBA
:101520000446284600F002FB10B14FF0FF3070BDBA
:10153000204670BD0BB200002DE9FF5F15468A46BC
:101540000446DFF8AC80F8440027D8E900103E4696
:10155000CDE9001010E03AF816106A4602A800F033
:10156000E9FA411C07D02178890603D5E2693918C8
:1015700091420DD80744761C2078800602D5E06998
:10158000B84205DDAE42E6DB3AF816000028E2D1AB
:10159000A069C01BA0612046FFF7B0F8D8E9001091
:1015A000CDE90010002017E03AF818106A4602A8AA
:1015B00000F0C0FAB0F1FF3F81460BD000250DF1DD
:1015C000080B05E0D4E901211BF8050090476D1CCC
:1015D0004D45F7D308F10100B0428046E4DB206AB4
:1015E000384420622046FFF79FF8BDE8FF9F0000C7
:1015F000D6BF010030B4002100F1240408E002F05D
:101600000705D208303542EA4372DB086554491CAD
:1016100052EA0305F3D10468002310A2250707D579
:10162000A40600D421B1C46901230DA2641EC461C3
:1016300030BCFFF7B7BC10B5044621461068FFF771
:10164000A8FC02462046BDE810400023D2E7D21D88
:1016500022F00701D1E90023CCE7000000000000E0
:101660003000000000487047747200200346406854
:101670008C46002818BF88423CBF03464068F8D318
:1016800018681844884207D00CF1030020F00700C6
:10169000001D411A521A0146081D0A60FEF713BFC9
:1016A0002DE9F04F04460D46D21D22F0070089B007
:1016B000D0E900974846394607F0E6FF0246F80FA2
:1016C00001D02D2307E02068810701D52B2302E0FC
:1016D000202101EAC0038DF820300BB1012000E089
:1016E0000020032A824601D0072A04DB294620462F
:1016F00000F054F93FE12078800601D40D2500E088
:10170000E569C7F30A560D2D49DA00214FEA175B48
:1017100008464FF00000002F00F4400007DA00EB0D
:1017200080004FF4400100EBD07001EA60008115A9
:10173000012901DD4FF0FF3100224FEA850CBCF199
:10174000180F06D31346ACF118004FF08052C24078
:1017500003E04FF4801323FA0CF30CF10C0CBCF1F2
:10176000200F04D3ACF1200C09FA0CF001E007FAC9
:101770000CF000294FF0004801DD18B90FE00ED140
:1017800040450CD319EB02095F4121B9404502D114
:101790009F4329EA0209BBEB175F00D0761C208823
:1017A000000502D57B48784402E07A48784419382D
:1017B00008AA302302F80A30037C0AF10101002E46
:1017C0000AF1020A53546A4602DC4FF0300101E08C
:1017D0004FF031014FF001088DF8001002D0A6F251
:1017E000FF3603E059EA470100D06B4E002D02DCC2
:1017F0002178090704D54FF002082E218DF8011039
:10180000C44600210BE0C7F303433F01C35C491CFE
:101810006D1E02F80830052908F1010801DA002DD3
:10182000F1DC00210CE000EB1973491C1B786D1EE4
:10183000082902F808304FEA091908F1010801DA0D
:10184000002DF0DC21688B0602D516E0A8F1010816
:10185000E04505DD02EB080313F8013C302BF5D021
:10186000B8F1000F09DD02EB080313F8013C2E2B41
:1018700003D1090701D4A8F10108002D05DD3E219F
:1018800002F808106D1E08F10108407C002E02F8D5
:10189000080008F1010804DA2D20764202F8080059
:1018A00002E02B2002F808000A214FF47A708642E9
:1018B00008F101080BDB96FBF0F3303302F8083037
:1018C00096FBF0F308F1010800FB136601E0642EBB
:1018D0000CDB642096FBF0F3303302F8083096FB03
:1018E000F0F308F1010800FB136601E00A2E06DBA5
:1018F00096FBF1F0303002F8080008F1010896FB81
:10190000F1F001FB1060303002F80800A16908F125
:10191000010808EB050202EB0A00081AA061207812
:10192000C00602D42046FEF7E9FE216A08AE01EBAC
:101930000A00206204E0D4E9012116F8010B904767
:10194000BAF1010AF7D22078C00602D52046FEF788
:10195000D5FE6E4609E016F8010B3E280FD0D4E9FB
:1019600001219047206A401C2062B8F10108F2D2A0
:101970002046FEF7D9FE09B00320BDE8F08F206AAB
:101980002844206203E0D4E90121302090476D1EF5
:10199000EBD3F8E791BD010002FCFFFF2DE9F04118
:1019A0001F46044603260168072A01F4006004DB91
:1019B00008B116A505E016A503E008B115A500E0DD
:1019C00015A521F010002060A069C01EA0610FB114
:1019D000401EA0612046FEF791FE4FB1D4E90121DF
:1019E00038469047206A401C2062C01C206206E0F6
:1019F000206AFAE7D4E9012115F8010B9047761E19
:101A0000F8D22046FEF790FEBDE8F0814E414E0030
:101A10006E616E00494E4600696E660010B54369FE
:101A200013B1AFF3008001E0FFF786FD012010BD88
:101A3000128800F1240182840022C2840122EDE791
:101A400011684FF0FF32E9E72DE9F047814616466D
:101A50008AB0354878440DC88DE80D003248784486
:101A6000801C03AC0DC884E80D0041F69B3008448F
:101A7000372190FBF1F290FBF1F5A5F1800501FB18
:101A800012041B3C02D56442012000E00020DFF874
:101A900098A080460027FA44AAF1BE0A0EE0E007AB
:101AA0000AD03246684607EB470101230AEB810161
:101AB00000F06CFB8DE8070064107F1C002CEED159
:101AC000194F7F44AE3F19E0E80715D007EB04102B
:101AD0000DF1180A90E80E008AE80E00C068F04286
:101AE00001D1981908903246012306A903A800F0F5
:101AF0004DFB03AB83E807006D10641C002DE3D1A0
:101B00004FF0010332466946B8F1000F03A802D036
:101B100000F027FB01E000F039FBC9E90001C9F83A
:101B200008200AB0BDE8F08774BB0100007B00F01C
:101B30008000704770B516460C460546FEF78CFCD3
:101B4000036893F80101012806D0FF2C0FD8185D17
:101B500068B101202C7070BDD3F8070132462146D0
:101B600003F2071303442846BDE8704018474FF0BE
:101B7000FF3070BD10B500F037F8BDE8104000F040
:101B80002EB87546FFF76EFDAE4605006946534612
:101B900020F00700854618B020B5FEF749FCBDE8E7
:101BA00020404FF000064FF000074FF000084FF0C4
:101BB000000B21F00701AC46ACE8C009ACE8C00955
:101BC000ACE8C009ACE8C0098D46704710B50446C2
:101BD000AFF300802046BDE81040FEF79ABB002816
:101BE00001D007F068BF704710B5012805D000216B
:101BF00003A000F021F8012010BD09A1F8E70000C2
:101C000053494752544D454D3A204F7574206F66E5
:101C10002068656170206D656D6F7279000000004D
:101C20003A2048656170206D656D6F727920636F31
:101C3000727275707465640070B505460C460A20B2
:101C400000E06D1C07F039FF35B128780028F8D185
:101C500002E0641C07F031FF14B120780028F8D1AD
:101C6000BDE870400A2007F028BF5FEA400C08BFBB
:101C700091F0000F4FEA8C234FEAC12243EA515101
:101C80004FEA1C5018BF00F5F0404FEA300018BF73
:101C900041F000415FEA6C5C00F02980BCF1FF3F3D
:101CA00008BF40F080407047130C06BF12044FF08D
:101CB000100C4FF0000C130E04BF12020CF1080CB4
:101CC000130F04BF12010CF1040C930F04BF920018
:101CD0000CF1020CD30F04BF52000CF1010C1146A1
:101CE0004FF00002A0F11F00A0EB0C00704711F0B4
:101CF000004F08BF704731F000413FF4D5AF0B0CE7
:101D000006BF09044FF0100C4FF0000C0B0E04BF7F
:101D100009020CF1080C0B0F04BF09010CF1040CB3
:101D20008B0F04BF89000CF1020CCB0F04BF4900DC
:101D30000CF1010CCCF12003A0EB0C0022FA03F310
:101D400002FA0CF241EA030100F10100704720F0B1
:101D50007F4C80EA030023F07F47ACEB070303F5D9
:101D60007C5300F0004003F1FF032DE980494FEA66
:101D7000154B09B44FEA144325EA0B4E24EA0348F5
:101D80000FF2042606EB132749083E785FEA320279
:101D900003FB0667C7F5000707FB06F64FEA543753
:101DA0004FEAD64606F1020607FB066CCCF1005C52
:101DB0004FEA1C472CEA074C07FB06F40CFB06F520
:101DC00004EB15464FEA961634BF00204FF0004052
:101DD0004FEAD13706FB07FC4FEA1C4C0CFB0BF714
:101DE000D21B03FB0CF761EB07010CFB0EF7B0EB0A
:101DF000074072EB17420CFB08F734BFA2EB074217
:101E0000B2EB074261EB17414FEA0C444FEA9107EE
:101E100006FB07FC4FEA1C4C0CFB0BF7B0EBC74072
:101E200072EB573203FB0CF734BFA2EBC742B2EBA5
:101E3000C74261EB57310CFB0EF7B0EBC70072EBFA
:101E400057720CFB08F734BFA2EBC702B2EBC70214
:101E500061EB5771039F4FEA816141EA921104EBF4
:101E6000CC044FEAD1374FEA826206FB07FC42EA14
:101E700090124FEA80604FEA1C4C0CFB0BF7D21B10
:101E800003FB0CF761EB07010CFB0EF7B0EB07400F
:101E900072EB17420CFB08F734BFA2EB0742B2EB20
:101EA000074261EB17414FEA8C554FEA910704EB6B
:101EB0009C2406FB07FC4FEA1C4C0CFB0BF7B0EB19
:101EC000C74072EB573203FB0CF734BFA2EBC7429B
:101ED000B2EBC74261EB57310CFB0EF7B0EBC7001A
:101EE00072EB57720CFB08F734BFA2EBC702B2EBE0
:101EF000C70261EB577115EB4C254FEA816141EA4E
:101F000092114FEA82624FEAD13742EA901206FB01
:101F100007FC44F100044FEA80604FEA1C4C0CFBC4
:101F20000BF7D21B03FB0CF761EB07010CFB0EF761
:101F3000B0EB074072EB17420CFB08F734BFA2EB83
:101F40000742B2EB074261EB174115EB1C154FEA54
:101F5000813141EA92414FEA823242EA90424FEAAD
:101F600080304FEA0C7644F1000448EA03434EEA1D
:101F70000B484FF0000EB2EB080C71EB030724BFC7
:101F8000624639464EEB0E0E4FF0000B00185241E0
:101F900049414BEB0B0BB2EB080C71EB03077BF1E8
:101FA000000B24BF624639464EEB0E0E4FF0000B7D
:101FB0000018524149414BEB0B0BB2EB080C71EB93
:101FC00003077BF1000B24BF624639464EEB0E0E31
:101FD00051EA020718BF46F0010616EB0E7655F1DE
:101FE000000254F1000103D5BDE88901BDE8008875
:101FF000BDE88901BDE80048B619524141EB010135
:10200000A3F10103704780807F7E7D7C7B7A7978A5
:10201000777676757473727171706F6E6E6D6C6CAD
:102020006B6A6A696868676666656464636362614F
:102030006160605F5F5E5E5D5D5C5C5B5B5A5A59D0
:10204000595858575756565555555454535352523C
:102050005251515050504F4F4F4E4E4D4D4D4C4C94
:102060004C4B4B4B4A4A4A494949484848474747DD
:10207000474646464545454444444443434343421A
:10208000424242414141002B9C4630D477002BD044
:102090001CB54FEA370703B44FF010004FF01001A2
:1020A000BAF1000F06D0BCF1000FDCBF40F0080011
:1020B00040F008014FF000000FBCBDE810400BF1EC
:1020C000010BBBF1010F08BF5FEA170722BF12F136
:1020D000010211F101014FF0004143F1000300F052
:1020E000004043EA00007047F9D35708D0E746EABA
:1020F000064613F1400F4FEA16461FDD13F1200F7D
:10210000DFBF16430A46002120335B42BED0C3F135
:10211000200746EA064602FA07F74FEA164646EA5D
:102120000706C3F1200722FA03F201FA07F721FAA2
:1021300003F14FF0000342EA0702A7E746EA02066E
:1021400046EA06464FEA164646EA0106BCBF46EA9C
:102150000646360C4FF000034FF000024FF000012E
:1021600094E72DE9804C9A46934670B491E8380084
:1021700007C831EA400C48BF34EA430C03D5FFF7E7
:10218000E6FDFFF780FFF0BCBDE8008C2DE9804C38
:102190009A46934670B491E8380007C810F0804F13
:1021A00008BF13F0804F03D100F005F8FFF76BFF75
:1021B000F0BCBDE8008C20F07F4780EA030023F0EC
:1021C0007F4C07EB0C03A3F57C5300F00040A3F118
:1021D000FE0392F0000F00F0B38095F0000F00F0C6
:1021E00077802DE901494FEA11404FEA144621EA70
:1021F000004800FB06FC24EA064708FB06F607FB3E
:1022000008F800FB07F718EB06484CEB164C4FEAB2
:10221000124B18EB07484FEA15464CEB174022EAE1
:102220000B4E0BFB06FC25EA06470EFB06F607FBEA
:102230000EFE0BFB07F71EEB064E4CEB164C4FF059
:1022400000061EEB074E4CEB174B18EB0B0840F14A
:10225000000018EB0E0B58EB000840F100008F1A3D
:102260004FF000013CBFC943661B14BFB5EB040C23
:1022700000213CBFC943F61B4FEA17444EEA8E0EBD
:1022800027EA04454FEA1C4704FB07622CEA074C87
:1022900005FB07F70CFB05F604FB0CFC16EB0746E9
:1022A00042EB174216EB0C4642EB1C421BEB0606B8
:1022B00058EB0202414146EA9E0601D5BDE801897C
:1022C000B619524141EB0101A3F10103BDE80189B7
:1022D0004FEA14454FEA114724EA054621EA074C24
:1022E00005FB07F406FB07F70CFB06F105FB0CFCEE
:1022F00011EB074144EB17444FEA124711EB0C4135
:1023000044EB1C4422EA074C05FB07F206FB07F7E7
:102310000CFB06F605FB0CFC16EB074642EB1742DE
:1023200016EB0C4642EB1C456A1854F1000148BFFD
:102330007047B619524141EB0101A3F10103704707
:1023400095F0000F37D04FEA11424FEA144721EAC7
:10235000024624EA074C02FB07F106FB07F70CFBD9
:1023600006F402FB0CFC14EB074441EB17414FEA67
:10237000154714EB0C4441EB1C4125EA074C02FBCA
:1023800007F506FB07F70CFB06F602FB0CFC16EB49
:10239000074645EB174516EB0C4645EB1C42121958
:1023A00051F1000148BF7047B619524141EB01019C
:1023B000A3F1010370474FEA14454FEA114724EA9D
:1023C000054621EA074C05FB07F106FB07F70CFB66
:1023D00006F24FF0000605FB0CFC12EB074241EB46
:1023E000174112EB0C4251EB1C4148BF7047921849
:1023F00041EB0101A3F101037047000055494A6810
:1024000022F440324A604A6843681A434A600268CC
:10241000526822F4807203685A6002685368026945
:1024200043EA022203685A600268526822F040724E
:1024300003685A600268526883681A4303685A60E6
:102440000268926822F4006203689A6002689268E7
:10245000C3681A4303689A603F4B826A9A4218D055
:102460000268926822F0706203689A60026892685B
:10247000836A1A4303689A600268926822F04052A5
:1024800003689A6002689268C36A1A4303689A6094
:102490000BE00268926822F0706203689A6002683A
:1024A000926822F0405203689A600268926822F0B3
:1024B000020203689A6002689368027E43EA42025D
:1024C00003689A602022125CA2B10268526842F44A
:1024D000006203685A600268526822F4604203682E
:1024E0005A6002685368426A521E43EA42320368E5
:1024F0005A6005E00268526822F4006203685A607C
:102500000268D26A22F470020368DA620268D36A4F
:10251000828B521E43EA02520368DA6202689268B2
:1025200022F4007203689A600268936890F8302081
:1025300043EA422203689A600268926822F4806249
:1025400003689A6002689368426943EA82220368DA
:102550009A607047002301400100000F00BFFEE7B2
:10256000704703F0ADFD07E007F07EF808B103F017
:1025700019FE32200CF031F8F6E7000072B6CC22DA
:1025800002A107A0FEF77CF800BFFEE72E2E2F4326
:102590006F72652F5372632F6D61696E2E63000039
:1025A0006661696C2025732C2025730070B5034685
:1025B0001446084EF5180A46F51800BF41B1002030
:1025C00004E015F8016B02F8016B401CA042F8D33F
:1025D00070BD0000C89D010801467F2901D200207E
:1025E00000E00120704770B501464FF0FF30192917
:1025F00004D97F2902D2A1F120002EE0CAB2C1F392
:1026000007234AF2A014A14211D94AF6FF14A142AD
:102610000DD2A2F1A104A3F1A105C5EB051606EBAD
:10262000451504EB45045F2505EB440015E04BF22E
:10263000A004A14211D94FF2FF74A1420DD2A2F120
:10264000A104A3F1B005C5EB051606EB451504EB97
:10265000450440F2FB6505EB440070BD014800886D
:10266000704700005605002038B502460020009053
:1026700000BF92F83C00012801D1022038BD0120A2
:1026800082F83C0000BF0868092816D91068C068A5
:102690000C780A3C04EB44050724AC40A0431468C2
:1026A000E0600C780A3C04EB44048868A04014689D
:1026B000E46820431468E06013E0106800690C7857
:1026C00004EB44050724AC40A043146820610C7857
:1026D00004EB44048868A04014682469204314680B
:1026E00020614868072817D21068406B0C79641E77
:1026F00004EB84051F24AC40A04314686063088881
:1027000080B20C79641E04EB8404A0401468646BEE
:1027100020431468606331E048680D2817D21068C0
:10272000006B0C79E41F04EB84051F24AC40A0432C
:1027300014682063088880B20C79E41F04EB8404D9
:10274000A0401468246B20431468206316E01068CE
:10275000C06A0C790D3C04EB84051F24AC40A043F7
:102760001468E062088880B20C790D3C04EB8404A4
:10277000A0401468E46A20431468E062194B1A4CC4
:102780001068A04206D10868122803D1586840F4A6
:1027900080005860144C1068A0421CD108681028B2
:1027A00002D00868112816D1586840F4000058601B
:1027B000086810280FD10D4800680D4CB0FBF4F0EC
:1027C00000EB80004000009002E00098401E009066
:1027D00000980028F9D100BF002082F83C0000BF1B
:1027E00000BF4BE70023014000200140DC00002037
:1027F00040420F000146086C704701460868C06CF3
:102800007047000070B5044600250CB9012070BD6A
:102810001549A06A884200D000BF206C30B920461C
:1028200000F024F80020606484F83C00206C00F084
:10283000100088B9206C20F4885040F00200206419
:102840002046FFF7DBFD00206064206C20F00200D2
:1028500040F00100206400E0012500BF002084F862
:102860003C0000BF2846D2E70100000F10B586B03B
:102870000446142101A8FEF742FA1949206888424B
:102880002BD100BF002000901648006840F48070F3
:10289000144908600846006800F48070009000BF8A
:1028A00000BF00BF002000900E481438006840F0C0
:1028B00001000C49143908600846006800F0010066
:1028C000009000BF00BFE020019003200290002094
:1028D000039001A9044800F013FA06B010BD0000EF
:1028E00000200140443802400000024070B5044618
:1028F0000D4600262068806800F48060B0F5806F87
:1029000011D12068806800F48070B0F5807F0AD112
:10291000206C40F02000206400BF002084F83C00C0
:1029200000BF012070BD00F0FDFA064618E0681CEB
:10293000B0B125B100F0F6FA801BA84210D920688A
:10294000006800F0020002280AD0206C40F0040069
:10295000206400BF002084F83C0000BF0320E1E7B2
:102960002068006800F002000228E0D16FF0120039
:1029700021680860206C40F4007020642068806842
:1029800000F04050B8B9207EA8B92068C06A00F4B1
:10299000700020B12068806800F4806058B9206C15
:1029A00020F480702064206C00F4805018B9206CF2
:1029B00040F0010020640020B4E7000008B50146A3
:1029C0000020009000BF91F83C00012801D10220B6
:1029D00008BD012081F83C0000BF0868806800F055
:1029E0000100A0B90868806840F001000B68986099
:1029F0003F4800683F4BB0FBF3F000EB4000009015
:102A000002E00098401E009000980028F9D1086864
:102A1000806800F00100002860D0086C40F201637B
:102A2000984340F4807008640868406800F480604F
:102A300028B1086C20F4005040F480500864086C01
:102A400000F48050B0F5805F04D1486C20F006009F
:102A5000486401E00020486400BF002081F83C0089
:102A600000BF254A6FF022000B681860506800F024
:102A70001F0018BB214B0868984213D0204B0868F0
:102A8000984204D1101D006800F01F0050B11D4B8A
:102A9000086898422AD11848001D006800F01F00FD
:102AA000102823D20868806800F04050F0B9086808
:102AB000806840F080400B68986017E00F4B086812
:102AC000984213D10868806800F0405070B90868D7
:102AD000806840F080400B68986007E0086C40F028
:102AE00010000864486C40F00100486400206FE763
:102AF000DC00002040420F00002301400020014084
:102B00000021014000220140F0B5034600BF587982
:102B1000012801D10220F0BD0120587100BF022020
:102B200018711868046802F0100640F6FE70B04094
:102B30008443D1E9000640EA060502F0100005FAD8
:102B400000F00443186804601868006802F0100779
:102B5000C026BE40B0431E6830600120187100BF1F
:102B60000020587100BF00BFD5E710B504460CB96E
:102B7000012010BD207920B900206071204600F0AE
:102B800009F802202071002020610120207100201E
:102B9000EFE7000010B586B00446142101A8FEF747
:102BA000AEF81949206888422BD100BF0020009060
:102BB0001648006840F00050144908600846006854
:102BC00000F00050009000BF00BF00BF0020009048
:102BD0000E481038006840F001000C4910390860B8
:102BE0000846006800F00100009000BF00BF102000
:102BF0000190032002900020039001A9044800F0F6
:102C00007FF806B010BD000000740040403802405C
:102C10000000024038B50446002000902068009073
:102C200029B902F10800009D2844009004E002F157
:102C30001400009D2844009000980360002038BDD7
:102C400010B5024600BF5079012801D1022010BD05
:102C50000120507100BF022010711068006801F05F
:102C600010040123A34018431368186061B9106869
:102C7000006800F03C003C2816D11068406840F025
:102C80000100136858600FE01068006800F47013CA
:102C900001F010043C20A040834205D11068406838
:102CA00040F00200136858600120107100BF00203E
:102CB000507100BF00BFCAE710B502461068006837
:102CC00001F010040123A340984313681860012009
:102CD0001071002010BD000070B5044600F022F90C
:102CE00006462546681C10B104480078054400BF1C
:102CF00000F018F9801BA842FAD370BDD80000205C
:102D0000F8B502460B460025002400200021D6E03D
:102D1000012606FA01F51E6806EA0504AC4274D1E4
:102D20001E7906F00306012E04D01E7906F0030674
:102D3000022E13D190684F000326BE40B0434F00CF
:102D4000DE68BE4030439060506801268E40B0433C
:102D50001E79C6F300168E40304350601E7906F08F
:102D60000306032E09D0D0684F000326BE40B043AF
:102D70004F009E68BE403043D0601E7906F00306C7
:102D8000022E13D1CF0802F1200656F827004E0775
:102D9000F70E0F26BE40B0434F07FF0E1E69BE4020
:102DA0003043CF0802F1200646F8270010684F0094
:102DB0000326BE40B0431E7906F003064F00BE4016
:102DC000304310605E6806F44036002E76D000BFB7
:102DD000002600963C4E366846F480463A4F3E60E8
:102DE0003E46366806F48046009600BF00BF374E68
:102DF0008F0856F827008E07370F0F26BE40B043C6
:102E0000334EB24202D1002624E057E0314EB242A6
:102E100001D101261EE0304EB24201D1022619E056
:102E20002E4EB24201D1032614E02D4EB24201D102
:102E300004260FE02B4EB24201D105260AE02A4EAD
:102E4000B24201D1062605E0284EB24201D1072642
:102E500000E008268F073F0FBE4030431B4E8F080F
:102E600046F82700224E3068A0435E6806F48016BC
:102E700006B120431E4E3060361D3068A0435E68A8
:102E800006F4001606B12043194E361D3060184E68
:102E9000361F3068A0435E6806F4003606B1204352
:102EA000134E361F3060361F3068A0435E6806F44C
:102EB000803606B120430E4E083E3060491C102972
:102EC000FFF426AFF8BD0000443802400838014046
:102ED000000002400004024000080240000C0240D2
:102EE000001002400014024000180240001C024082
:102EF000083C0140024613690B400BB1012000E081
:102F00000020704710B5426921EA020302EA010479
:102F100043EA0443836110BD0AB1816101E00B04FF
:102F2000836170470148006870470000D0000020AE
:102F300070B504460CB9012070BD94F83D0028B965
:102F4000002084F83C00204600F0DAF8242084F8C1
:102F50003D002068006820F00100216808602068BA
:102F6000006840F40040216808602068006820F490
:102F700000402168086000F023FC05465C49606859
:102F8000884206D85B48854201D2012007E0002034
:102F900005E05948854201D2012000E000200128C7
:102FA00000D1C9E75548B5FBF0F62068406820F02D
:102FB0003F003043216848604D496068884201D82D
:102FC000701C07E04FF4967070434FF47A71B0FBB9
:102FD000F1F0401C2168096A21F03F010843216893
:102FE000086243496068884214D8681E61684900D5
:102FF000B0FBF1F0401CC0F30B00042801D2042008
:103000003DE0681E61684900B0FBF1F0401CC0F370
:103010000B0034E0A06838B9681E616801EB41011B
:10302000B0FBF1F0401C0AE0681E616801EBC102D0
:1030300002EB0111B0FBF1F0401C40F48040C0F302
:103040000B0008B901201AE0A06848B9681E616841
:1030500001EB4101B0FBF1F0401CC0F30B000CE0B0
:10306000681E616801EBC10202EB0111B0FBF1F0D7
:10307000401CC0F30B0040F4804040F40040216845
:10308000C9694CF6FF72914308432168C861D4E9CD
:10309000070108432168096821F0C001084321683D
:1030A0000860D4E9031008432168896848F2FF32B8
:1030B0009143084321688860D4E9050108432168E9
:1030C000C96821F0FF0108432168C86020680068D2
:1030D00040F001002168086000202064202084F86E
:1030E0003D000020206384F83E0000BF24E700007C
:1030F000A086010080841E0000093D0040420F00B0
:1031000010B586B00446142101A8FDF7F8FD444926
:10311000206888422FD100BF0020009041480068FD
:1031200040F002003F4908600846006800F00200D5
:10313000009000BF00BFC02001901220029000202C
:103140000390032004900420059001A93648FFF75E
:10315000D7FD00BF0020009032481030006840F4D6
:1031600000103049103108600846006800F4001073
:10317000009000BF51E02D49206888424DD100BF2A
:10318000002000902748006840F0040025490860AE
:103190000846006800F00400009000BF00BF00BFB8
:1031A000002000900846006840F0010008600846D2
:1031B000006800F00100009000BF00BF48150190BA
:1031C0001220029000200390032004900420059018
:1031D00001A91748FFF794FD4FF480700190122069
:1031E000029000200390032004900420059001A980
:1031F0001048FFF785FD00BF0020009009481030FF
:10320000006840F400000749103108600846006873
:1032100000F40000009000BF00BF06B010BD000029
:10322000005400403038024000040240005C00407E
:103230000008024000000240034800680349097882
:103240000844014908607047D0000020D8000020E1
:1032500010B50D48006840F400700B49086008463E
:10326000006840F4806008600846006840F48070A0
:103270000860032000F0C8F80F2000F007F800F005
:103280004BF8002010BD0000003C024070B588B033
:1032900004460025002600222146192000F076F879
:1032A000192000F063F800BF002001901648006864
:1032B00040F40030144908600846006800F400300B
:1032C000019000BF00BF02A903A800F051FA00F06E
:1032D00087FA45000D48B5FBF0F0461E0C480D4935
:1032E000086040F2E7310B48C1604660002101618F
:1032F000816001F057FA20B9064801F087FA08B05A
:1033000070BD0120FBE700004438024040420F003E
:10331000004401406409002008B500BF002000906F
:103320001148006840F480400F4908600846006872
:1033300000F48040009000BF00BF00BF002000905C
:10334000081F006840F08050091F086008460068A8
:1033500000F08050009000BF00BF00220F21901E9F
:1033600000F014F808BD0000443802400146084649
:10337000002809DB00F01F0301229A4043099B004B
:1033800003F1E023C3F8002100BF70472DE9F05F8F
:1033900080460D461646002706F08EF90746394648
:1033A0002A46334601F00700C0F1070ABAF1040FBC
:1033B00002D94FF0040A01E0C0F1070AD14600F13A
:1033C000040ABAF1070F02D24FF0000A01E0A0F19F
:1033D000030AD4464FF0010A0AFA09FAAAF1010ACF
:1033E0000AEA020A0AFA0CFA4FF0010B0BFA0CFB7C
:1033F000ABF1010B0BEA030B4AEA0B0421464046F2
:1034000006F062F9BDE8F09F00BF00F00702064B2E
:1034100019684FF6FF031940044B0B4343EA02219E
:10342000014B196000BF70470CED00E00000FA0589
:1034300008B501200349086203480068009000BFF6
:1034400008BD000000000E4200700040F8B50446C0
:1034500000250026207800F0010020B9207800F037
:10346000040004282FD100205B498866FFF75AFD2D
:10347000054606E0FFF756FD401B022801D9032050
:10348000F8BD56480068C0F3C0600028F2D16068FB
:103490008101207A41EA007050498431086001209E
:1034A0004D498866FFF73EFD054606E0FFF73AFD09
:1034B000401B022801D90320E2E748480068C0F316
:1034C000C0600028F2D0207800F0020002287DD1F0
:1034D00000BF0020009041484030006840F080501C
:1034E0003E49403108600846006800F08050009076
:1034F00000BF00BF3A48006840F480703849086057
:10350000FFF710FD054606E0FFF70CFD401B022803
:1035100001D90320B4E73248006800F48070002825
:10352000F2D02E487030006800F440764EB3A08987
:1035300000F44070B04224D028487030006820F475
:103540004076012027490860002008602348703039
:103550000660006800F0010098B1FFF7E3FC054643
:1035600008E0FFF7DFFC401B41F28831884201D9B7
:10357000032085E7194870300068C0F34000002838
:10358000EFD000BFA08900F44070B0F5407F0CD1AF
:1035900012480830006820F4F810134AE16811401E
:1035A00008430E490831086007E00C4808300068FD
:1035B00020F4F810094908310860084870300068A4
:1035C000A189C1F30B010843044900E002E0703116
:1035D000086000BF002053E7000047420038024067
:1035E00000700040400E4742FFFCFF0F70B50446DC
:1035F0000D460CB9012070BD5848006800F0070066
:10360000A84209D255490D700846006800F007002D
:10361000A84201D00120EEE7207800F00200022845
:103620001DD1207800F00400042805D14C48006822
:1036300040F4E0504A490860207800F0080008286B
:1036400005D14748006840F4604045490860444857
:10365000006820F0F000A168084341490860207824
:1036600000F00100A8B36068012807D13C48083881
:103670000068C0F34040B8B90120BCE76068022888
:1036800002D06068032807D1354808380068C0F3C5
:10369000406048B90120AEE7314808380068C0F3FF
:1036A000400008B90120A6E72D48006820F003007B
:1036B000616808432A490860FFF734FC064609E0C0
:1036C000FFF730FC801B41F28831884202D9032089
:1036D00091E707E02248006800F00C006168B0EB59
:1036E000810FEDD11D48006800F00700A84209D9FC
:1036F0001A490D700846006800F00700A84201D082
:10370000012078E7207800F00400042807D114484D
:10371000006820F4E050E16808431149086020780F
:1037200000F00800082808D10D48006820F4604027
:10373000216940EAC1000A49086000F061F80849BF
:103740000968C1F30311074A515CC8400649086083
:1037500006480068FFF79AFD00204CE7003C024055
:10376000083802407A6D0108DC000020D4000020F7
:103770000F2202600D4A126802F0030242600B4AF7
:10378000126802F0F0028260084A126802F4E05205
:10379000C260064A126802F46042D2080261044A1A
:1037A000126802F007020A60704700000838024001
:1037B000003C02400148006870470000DC00002027
:1037C00000B5FFF7F7FF04490968C1F38221034AF6
:1037D000515CC84000BD0000083802408A6D0108F5
:1037E00000B5FFF7E7FF04490968C1F34231034A16
:1037F000515CC84000BD0000083802408A6D0108D5
:103800002DE9F047002400250026A1462548006840
:1038100000F00C0020B1042805D008283AD105E0BA
:10382000DFF8849039E0DFF8849036E01D48001F0F
:10383000006800F03F041B48001F006800F480008F
:1038400078B11A481749091F0968C1F38811A0FB0C
:1038500001700146224600233846FCF75BFE054610
:103860000EE011480F49091F0968C1F38811A0FB38
:1038700001700146224600233846FCF74BFE054600
:103880000848001F0068C0F30140401C4600B5FB1B
:10389000F6F902E0DFF8109000BF00BF4846BDE82F
:1038A000F0870000083802400024F40000127A007B
:1038B000F8B504460CB90120F8BD207800F00100ED
:1038C000002874D0F948006800F00C0004280DD0DE
:1038D000F648006800F00C00082813D1F348001FD8
:1038E000006800F48000B0F5800F0BD1EF48083875
:1038F0000068C0F34040002859D06068002856D1C5
:103900000120D9E700BF6068B0F5803F08D1E748E3
:103910000838006840F48030E449083908601EE047
:103920006068B0F5A02F0DD1E0480838006840F479
:103930008020DE49083908600846006840F480307D
:1039400008600CE0D9480838006820F48030D74976
:10395000083908600846006820F48020086000BF2D
:10396000606890B1FFF7DEFA054606E0FFF7DAFA85
:10397000401B642801D903209EE7CC480838006822
:10398000C0F340400028F1D011E0FFF7CBFA054624
:1039900006E0FFF7C7FA401B642801D903208BE734
:1039A000C24808380068C0F340400028F1D12078B0
:1039B00000F0020002285FD1BC48006800F00C0053
:1039C00058B1BA48006800F00C0008281CD1B7486C
:1039D000001F006800F48000B0B9B44808380068DF
:1039E000C0F3400020B1E068012801D0012063E766
:1039F000AE480838006820F0F800216940EAC100AC
:103A0000AA490839086037E0E06800B30120A849F6
:103A10000860FFF787FA054606E0FFF783FA401BC8
:103A2000022801D9032047E7A04808380068C0F3FE
:103A300040000028F1D09D480838006820F0F800C8
:103A4000216940EAC10099490839086014E0002062
:103A500097490860FFF766FA054606E0FFF762FA45
:103A6000401B022801D9032026E790480838006847
:103A7000C0F340000028F1D1207800F008000828A9
:103A80002CD16069A8B101208A490860FFF74AFA81
:103A9000054606E0FFF746FA401B022801D903203D
:103AA0000AE782486C300068C0F340000028F1D07B
:103AB00014E000207F490860FFF734FA054606E06D
:103AC000FFF730FA401B022801D90320F4E67748BB
:103AD0006C300068C0F340000028F1D1207800F07D
:103AE0000400042870D1002770483830006800F0C6
:103AF000805090B900BF002000906C4838300068BA
:103B000040F080506949383108600846006800F08C
:103B10008050009000BF00BF01276748006800F494
:103B20008070B0B96448006840F4807062490860F1
:103B3000FFF7F8F9054606E0FFF7F4F9401B022805
:103B400001D90320B8E65C48006800F480700028C2
:103B5000F2D000BFA068012808D15448683000683E
:103B600040F001005149683108601DE0A068052857
:103B70000DD14E486830006840F004004B49683170
:103B800008600846006840F0010008600CE0474803
:103B90006830006820F00100444968310860084638
:103BA000006820F00400086000BFA068A8B1FFF71B
:103BB000B9F9054609E0FFF7B5F9401B41F2883134
:103BC000884202D9032077E626E03848683000684A
:103BD000C0F340000028EED013E0FFF7A3F905463C
:103BE00008E0FFF79FF9401B41F28831884201D974
:103BF000032061E62D4868300068C0F340000028CB
:103C0000EFD1012F07D129483830006820F08050CB
:103C100026493831086000BFA069002845D02348F4
:103C2000006800F00C0008285DD0A069022845D18A
:103C300000201F490866FFF775F9054606E0FFF703
:103C400071F9401B022801D9032035E617480838CE
:103C50000068C0F340600028F1D1D4E907010843AF
:103C6000616A40EA81110122A06AC2EB500041EA78
:103C700000412C20005D41EA00600C49091F0860EA
:103C800001200B490866FFF74DF9054606E0FFF7EE
:103C900049F9401B022801D903200DE603480838E2
:103CA0000068C0F340600028F1D049E008380240C5
:103CB00000004742800E474200700040002021492A
:103CC0000866FFF72FF9054606E0FFF72BF9401BC2
:103CD000022801D90320EFE51B480068C0F34060CB
:103CE0000028F2D12CE0A069012800D1E4E51648B3
:103CF000001D0668A069012820D006F48001E06953
:103D000081421BD106F03F01206A814216D147F65D
:103D1000C0703040616AB0EB811F0FD106F44031B2
:103D20000122A06AC2EB5000B1EB004F06D106F0B1
:103D300070612C20005DB1EB006F01D00120BBE56C
:103D40000020B9E500004742003802400246002347
:103D5000106800F1500303EB81031868704710B539
:103D60000023046804F1500303EB81031A6010BDC3
:103D700070B505460B4616460024286840680E4973
:103D800000EA0104200CD870C4F30420587004F039
:103D90003F009870C4F3423018705EB9D87803F0D1
:103DA00010FAD870587803F00CFA5870987803F02D
:103DB00008FA9870002070BD3FFFFF0070B5044600
:103DC0000B46164600252068806A58602068006906
:103DD000C0F30E009860206800680E4900EA0105F3
:103DE000C5F305401870C5F30620587005F07F0034
:103DF0009870A80DD8705EB9187803F0E2F91870C1
:103E0000587803F0DEF95870987803F0DAF9987072
:103E1000002070BD7F7F7F0070B5044601250CB97E
:103E2000012070BD607F20B900202077204600F07F
:103E300045F80220607700BFCA20216848625320FD
:103E40002168486200BF204603F0D4F90546EDB969
:103E50002068806818490840216888602169606886
:103E600008436169084321688968084321688860BC
:103E70002168E068086120680169208941EA004002
:103E800021680861204603F0DAF905466DB920681B
:103E9000006C20F48020216808642068006CA1690F
:103EA0000843216808640120607700BFFF20216873
:103EB000486200BF2846B4E7BFFF8FFF10B586B049
:103EC0000446002002900390049005901249206857
:103ED00088421ED100BF002001901048006840F0C9
:103EE00080500E4908600846006800F0805001903C
:103EF00000BF00BFFFF79CFA02200290C0010590AE
:103F000002A8FFF7A3FA08B1FEF738FB0120044925
:103F1000086006B010BD0000002800404038024094
:103F20003C0E47422DE9F04105460C4617464FF03E
:103F3000000800BF287F012802D10220BDE8F081DF
:103F40000120287700BF022068774FB9607800F021
:103F50001000102804D1607800F0EF000A30607083
:103F600087B9E07803F038F90304607803F034F996
:103F700043EA0023A07803F02FF90343207843EAB3
:103F8000403809E0E0780004617840EA0120A17837
:103F90000843217840EA413800BFCA2029684862B6
:103FA00053202968486200BF284603F023F90646DB
:103FB00046B90B4808EA000029684860284603F023
:103FC0003EF906460EB90120687700BFFF20296838
:103FD000486200BF00BF0020287700BF3046ADE731
:103FE0003FFFFF002DE9F04104460D4617464FF014
:103FF000000800BF207F012802D10220BDE8F08127
:104000000120207700BF02206077CFB92068806848
:1040100000F0400000B102E00020E87000BF287806
:1040200003F0DAF80304687803F0D6F843EA0023D3
:10403000A87803F0D1F80343E87843EA805812E007
:104040002068806800F0400000B102E00020E870C5
:1040500000BF28780004697840EA0120A978084365
:10406000E97840EA815800BFCA202168486253209D
:104070002168486200BF204603F0BCF80646B6B986
:10408000124808EA0000216808602068806820F46F
:10409000802021688860D5E9030108432168896888
:1040A000084321688860204603F0C9F806460EB927
:1040B0000120607700BFFF202168486200BF00BF79
:1040C0000020207700BF304698E700007F7F7F0008
:1040D00070B5044600252068C06820F0A000216863
:1040E000C860FEF71FFF054607E0FEF71BFF401BF9
:1040F000B0F57A7F01D9032070BD2068C06800F058
:1041000020000028F1D00020F6E710B504460CB9D5
:10411000012010BD606A38B96068B0F5827F00D1B7
:1041200005E00021E16102E00021216161610021DF
:10413000A16294F8510028B9002084F8500020466C
:1041400000F048F8022084F851002068006820F050
:10415000400021680860A08800F48270218901F481
:1041600004410843A18901F400610843217C01F066
:1041700002010843217D01F001010843218B01F474
:1041800000710843217F01F0380108432021095DB7
:1041900001F080010843218D01F40051084321689A
:1041A00008600421A06901EA104094F8241001F08D
:1041B00010010843216848602068C06920F400604D
:1041C0002168C86100206065012084F8510000204A
:1041D0009FE7000010B586B00446142101A8FCF743
:1041E0008EFD1B49206888422FD100BF002000901F
:1041F0001848006840F48050164908600846006876
:1042000000F48050009000BF00BF00BF002000906D
:1042100010481438006840F002000E491439086054
:104220000846006800F00200009000BF00BF382080
:1042300001900220029000200390032004900520AA
:10424000059001A90448FEF75BFD06B010BD000013
:104250000030014044380240000402402DE9F84398
:104260000446884616461D464FF000096068B0F5C2
:10427000827F0DD1A06858B9042084F851003346DC
:10428000424641462046009500F077F9BDE8F883A4
:1042900000BF94F85000012801D10220F6E7012068
:1042A00084F8500000BFFEF73DFE074694F8510029
:1042B000012802D04FF002097EE0B8F1000F00D0D3
:1042C00016B94FF0010977E0042084F8510000206E
:1042D0006065C4F83880A687E6872063A086E086FC
:1042E00020646064A068B0F5004F0BD120680068BE
:1042F00020F04000216808602068006820F48040B9
:10430000216808602068006800F04000402805D05F
:104310002068006840F0400021680860E068F8B953
:104320001AE02068806800F0010050B12068007B2E
:10433000A16B0870A06B401CA063E08F401EE0875B
:104340000AE0FEF7EFFDC01BA84201D3681C00B9CC
:1043500015B94FF003092FE0E08F0028E1D11EE0EE
:104360001AE02068806800F0010050B12068C06841
:10437000A16B0880A06B801CA063E08F401EE087CB
:104380000AE0FEF7CFFDC01BA84201D3681C00B9AC
:1043900015B94FF003090FE0E08F0028E1D13A464C
:1043A0002946204604F0B9FD08B120206065606D03
:1043B00008B14FF0010900BF012084F8510000BF8F
:1043C000002084F8500000BF48465FE72DE9F84F11
:1043D0000446884616461D464FF0000A00BF94F872
:1043E0005000012802D10220BDE8F88F012084F896
:1043F000500000BFFEF796FD0746B14694F8510005
:10440000012802D04FF0020AADE0B8F1000F00D051
:1044100016B94FF0010AA6E0032084F851000020ED
:104420006065C4F83080A686E686A063A087E08732
:1044300060642064A068B0F5004F0BD1206800686C
:1044400020F04000216808602068006840F4804047
:10445000216808602068006800F04000402805D00E
:104460002068006840F0400021680860E068B0F50E
:10447000006F2FD1606810B1B9F1010F09D1206B25
:1044800000882168C860206B801C2063E08E401E7D
:10449000E0861BE02068806800F0020002280AD154
:1044A000206B00882168C860206B801C2063E08E30
:1044B000401EE0860AE0FEF735FDC01BA84201D38E
:1044C000681C00B915B94FF0030A4CE0E08E0028D3
:1044D000E0D12EE0606810B1B9F1010F09D1206B75
:1044E000007821680873206B401C2063E08E401E1A
:1044F000E0861BE02068806800F0020002280AD1F4
:10450000206B007821680873206B401C2063E08ECC
:10451000401EE0860AE0FEF705FDC01BA84201D35D
:10452000681C00B915B94FF0030A1CE0E08E0028A2
:10453000E0D13A462946204604F03AFD08B1202051
:104540006065A06850B900BF002000902068C06876
:10455000009020688068009000BF00BF606D08B1C7
:104560004FF0010A00BF012084F8510000BF002075
:1045700084F8500000BF504636E72DE9FF5F04463F
:10458000884691461D460E9E012002900020019013
:1045900000BF94F85000012803D1022004B0BDE808
:1045A000F09F012084F8500000BFFEF7BBFC0746D7
:1045B00094F851B060680390AA46BBF1010F0BD08C
:1045C0000398B0F5827F04D1A06810B9BBF1040F45
:1045D00002D002200190DBE0B8F1000F03D0B9F166
:1045E000000F00D015B901200190D1E094F85100DE
:1045F000042802D0052084F8510000206065C4F82A
:104600003890E587A587C4F83080E586A5862064C4
:1046100060642068006800F04000402805D02068F1
:10462000006840F0400021680860E068B0F5006F65
:104630004AD1606810B1BAF1010F09D1206B00882E
:104640002168C860206B801C2063E08E401EE086DD
:1046500033E02068806800F00200022810D1E08E6C
:1046600070B1029801280BD1206B00882168C860C6
:10467000206B801C2063E08E401EE08600200290AC
:104680002068806800F0010068B1E08F58B12068B0
:10469000C068A16B0880A06B801CA063E08F401EE7
:1046A000E08701200290FEF73DFCC01BB04204D31E
:1046B000701C10B1032001906AE0E08E0028C8D180
:1046C000E08F0028C5D14AE0606810B1BAF1010F4F
:1046D00009D1206B007821680873206B401C20638F
:1046E000E08E401EE08634E02068806800F0020022
:1046F000022810D1E08E70B1029801280BD1206BF6
:10470000007821680873206B401C2063E08E401EF7
:10471000E086002002902068806800F0010068B107
:10472000E08F58B12068C068A16B0870A06B401C76
:10473000A063E08F401EE08701200290FEF7F2FBAD
:10474000C01BB04201D3701C00B916B90320019000
:104750001EE0E08E0028C7D1E08F0028C4D13A4681
:104760003146204604F024FC20B101200190202095
:1047700060650DE0A06850B900BF0020009020687F
:10478000C068009020688068009000BF00BF00BF34
:10479000012084F8510000BF002084F8500000BFC1
:1047A0000198FBE610B504460CB9012010BD94F841
:1047B0003D0028B9002084F83C00204600F025F890
:1047C000022084F83D00211D206804F04FFD0120E7
:1047D00084F8460000BF84F83E0001213F200155C7
:1047E000402001554120015500BF00BF012084F841
:1047F000420043200155442001554520015500BF8A
:10480000012084F83D000020D0E77047014691F870
:104810003D00012801D001207047022081F83D00B1
:104820000868C06840F001000B68D8601A4B08683F
:1048300098421BD00868B0F1804F17D0174B08681A
:10484000984213D0164B086898420FD0154B086851
:1048500098420BD0144B0868984207D0134B086855
:10486000984203D0124B086898420CD108688068BF
:1048700000F00702062A0CD00868006840F001002A
:104880000B68186005E00868006840F001000B68DC
:1048900018600020C0E70000000001400004004054
:1048A00000080040000C00400004014000400140AE
:1048B0000018004010B5044604492068884203D11E
:1048C000FEF7BAFC04F04AFD10BD000000440140B0
:1048D00010B504460CB9012010BDA06900B100E07C
:1048E00000BF94F83D0028B9002084F83C00204621
:1048F00000F028F8242084F83D002068C06820F4E7
:1049000000502168C860204604F02EFD2068006930
:1049100020F49040216808612068406920F02A0056
:10492000216848612068C06840F400502168C86070
:1049300000202064202084F83D0084F83E00002000
:10494000CAE7000010B586B00446142101A8FCF7A0
:10495000D6F91F492068884238D100BF0020009056
:104960001C48006840F010001A49086008460068BA
:1049700000F01000009000BF00BF00BF00200090BA
:1049800014481438006840F00100124914390860D6
:104990000846006800F00100009000BF00BF4FF41F
:1049A000C060019002200290002003900320049038
:1049B0000720059001A90848FEF7A2F90022052169
:1049C0002520FEF7E3FC2520FEF7D0FC06B010BD45
:1049D00000100140443802400000024010B5044677
:1049E000084884420CD12068006800F0200020288C
:1049F00006D120684068C1B2002005F037FC10BD28
:104A000000BFFCE7200900202DE9F84F04460E46C0
:104A1000174699464FF0000A94F83D0020285AD1D5
:104A200006B117B90120BDE8F88F00BF94F83C002B
:104A3000012801D10220F6E7012084F83C0000BFE4
:104A400000202064212084F83D00FEF76BFA8246A6
:104A5000A784E784A068B0F5805F04D1206910B90D
:104A60000025B04602E035464FF0000800BF0020A8
:104A700084F83C0000BF1BE0534600228021204602
:104A8000CDF8009004F086FD08B10320CBE745B9CE
:104A9000B8F80000C0F308002168486008F1020877
:104AA00003E02878216848606D1CE08C401EE0849B
:104AB000E08C0028E0D15346002240212046CDF86A
:104AC000009004F067FD08B10320ACE7202084F8D3
:104AD0003D000020A7E70220A5E700002DE9F041F6
:104AE00004460D460126002784B1B5F1FF3F05D0ED
:104AF0002946204600F0A2FF074601E0206807682B
:104B00000FB1A76004E06FF0010601E06FF001064D
:104B1000012E01D1024804603046BDE8F08100005A
:104B20005005002070B506460C461546002C04DBE7
:104B3000022D02D1002000F099FF012070BD3EB58A
:104B400004460D46606910B16069804709E00021A4
:104B50006068CDE9000102910A462046236802F010
:104B60005BFD2946204600F018F801203EBD70B5D7
:104B70000546012000230C4666680C2E01D1012653
:104B800000E0002616B96FF0010003E00E68012E68
:104B900000D1022302B1136070BD7FB504460E46FA
:104BA000002509E0012000902068421E2B460021CC
:104BB000204602F0ADFC6D1D6068A842F2DC4FF0AB
:104BC000FF30012114221E23CDE9002102900A4664
:104BD000204602F021FD0020012114221E23CDE9F0
:104BE000002102901622204602F016FD0120142218
:104BF000CDE900201E232B2201460290204602F020
:104C00000BFD4FF0FF30012114220523CDE90021D7
:104C100002900A462521204602F0FEFC00200121D8
:104C200014220523CDE900210290162225212046D9
:104C300002F0F2FC01201422CDE9002005232B22F2
:104C400025210290204602F0E7FC4FF0FF300121C1
:104C500009230A22CDE900103721204602F0BEFBCD
:104C60000020012109231F22CDE900103721204611
:104C700002F0B4FB01200090092334223721019077
:104C8000204602F0ABFB4FF0FF3001210422142339
:104C9000CDE90032CDE902101E230A464621204606
:104CA00002F021FD0020012104221423CDE900326D
:104CB000CDE902101E2316224621204602F013FDE4
:104CC000012004221423CDE90120009303901E2328
:104CD0002B224621204602F006FD4FF0FF30012135
:104CE00006221423CDE90032CDE902100A466921DB
:104CF000204602F0F8FC0020012106221423CDE911
:104D00000032CDE9021016226921204602F0EBFCA8
:104D1000012006221423CDE901202B2269210093D2
:104D20000390204602F0DFFC012004B070BD0000BB
:104D300010B586B0044674210C48FBF7E0FF002054
:104D400002900390206804906068059005200CF0A4
:104D50006FF9062006490023064ACDE9001002A992
:104D6000024803F066F9012006B010BD746C002003
:104D70007005002098BA010870B505460E46144625
:104D8000012C3BD12148C06A082835D2DFE800F069
:104D9000040A10161C22282E002140F2ED3000F0EB
:104DA000EDFE2AE0002140F2EA3000F0E7FE24E0C8
:104DB000002140F2EE3000F0E1FE1EE0002140F262
:104DC000EF3000F0DBFE18E0002140F2F33000F09D
:104DD000D5FE12E00EA14FF47B7000F0CFFE0CE088
:104DE000002140F2F13000F0C9FE06E0002140F25F
:104DF000F23000F0C3FE00E000BF04E0022C02D15C
:104E0000002000F033FE012070BD0000746C002013
:104E10005468697320697320612074657374206E0F
:104E20006F746963652E000070B504460D46034932
:104E3000204603F039F9012070BD0000746C002099
:104E40002DE9F05F81460C4615464FF0010AA04659
:104E50004FF0000BD8F804000C2801D1012000E02D
:104E6000002010B96FF0010A3AE02068012837D11C
:104E7000B8F80860C6F30B070D2F07D01B2F08D01A
:104E8000A7F23B1040B1022828D115E04FF0010BEA
:104E900025E04FF0020B22E01448C06A002806DD2E
:104EA0001248C06A411E1148103003F0AFF80F4994
:104EB000484603F0F9F812E00C48C16A806A401EC7
:104EC000814206DA0948C06A411C0848103003F0E4
:104ED0009DF80649484603F0E7F800E000BF00BF30
:104EE0000DB1C5F800B05046BDE8F09F746C0020CD
:104EF00070B504460D460349204603F0D5F801205D
:104F000070BD0000746C002010B586B0044600200F
:104F100002900390302004903C20059054210748D3
:104F2000FBF7EDFE0820064B064A02A90090034855
:104F300003F00CF9012006B010BD0000686A0020E3
:104F400084030020649E010870B505460E46144691
:104F5000022C02D1002000F089FD012070BD00006C
:104F60003EB504460D4600216068CDE9000102917E
:104F70000A462046236802F04FFB0349204603F00F
:104F800069F901203EBD0000686A00202DE9F04F5C
:104F900087B081460C4615464FF0010AA0464FF0F7
:104FA000000BD8F804000C2801D1012000E00020FB
:104FB00010B96FF0010A94E020680128FBD1B8F81D
:104FC0000860C6F30B070D2F08D01B2F2CD0A7F2BB
:104FD0003B10002855D002287DD166E04448454961
:104FE000096888421DD14348006803AAC16A414844
:104FF0000068103002F0EFFD3F483E490860042091
:105000003E4B3F4A03A900903B4803F09FF803AA98
:105010003949484603F0D2F836480168484603F05B
:1050200019F94FF0010B5BE03148324909688842B9
:1050300002D14FF0020B23E02E4800688068002860
:1050400019DD00212B480068C068CDE9000129481E
:105050000291006883682748006842682548006814
:105060000168484602F0D8FA0020224909688860A1
:105070001F48204908601F480168484603F0EAF8C5
:105080002EE01C480068C06A00280DDD1948006841
:10509000C06A411E17480068103002F0B7FF15487B
:1050A0000168484603F0D6F81AE012480068C16A61
:1050B00010480068806A401E81420FDA0D4800687F
:1050C000C06A411C0B480068103002F09FFF09487D
:1050D0000168484600E002E003F0BCF800E000BFD1
:1050E00000BF0DB1C5F800B0504607B0BDE8F08F65
:1050F000686A002044040020BC6A002004040020E8
:10510000649E010870B504460D46034801682046B8
:1051100003F0A0F8012070BD4404002010B504463F
:1051200041210748FBF7EBFD0548064908600020D0
:1051300048600831204603F007F9012010BD000047
:10514000286B0020106B002070B506460C461546F3
:10515000002C04DB022D02D1002000F087FC01208E
:1051600070BD000070B505460C462CB940220BA15D
:105170000E48FBF7EBFD08E0402221460B48FBF709
:10518000E5FD0020094981F840000023084A09494B
:10519000284603F0E5F8012070BD00004E6F205056
:1051A0006172616D657465722E000000286B0020CD
:1051B000CC9D0108106B0020F0B5064601200025AB
:1051C0000F68012F0CD10C462789C7F30B030D2B59
:1051D00002D01B2B03D100E000BF022500BF00BF9F
:1051E00002B11560F0BD000070B504460D46002305
:1051F000034A0449204603F0B3F8012070BD0000C3
:10520000CC9D0108106B002001460120054A10606A
:105210000B2050600868801E906048681238D0608B
:10522000012070478804002070B506460C461546DC
:10523000002C07DB022D05D1002003F093FF002096
:1052400000F014FC012070BD3EB504460D46154823
:1052500003F051F9002101226068CDE9012100909D
:105260000A462046236802F0D7F901200090206802
:10527000821E0A230121204602F04AF901200090F3
:105280006068C31F2068821E0121204602F040F999
:105290000449204603F0A6F9012003F063FF012032
:1052A0003EBD0000880400202DE9F74F82B00C4677
:1052B0001546012001904FF0000B2068012802D014
:1052C00002282ED115E0264670680C2801D1012055
:1052D00000E0002018B96FF00100019008E0B6F876
:1052E0000890C9F30B0ABAF11B0F01D14FF0020B62
:1052F00018E027463C4678680C2801D1012000E0E0
:10530000002018B96FF00100019009E0D7F808807B
:105310004146084803F034F90021029800F00CF8E7
:1053200000E000BF00BF0DB1C5F800B0019805B0A6
:10533000BDE8F08F8804002030B58DB004460D46DE
:105340000120059006902068801E07900820089094
:1053500000200390049003A905AB184ACDE9001082
:1053600017A1204603F01CFD2020194900900A696E
:105370004969491E52F8310004230A2209A902F0A2
:1053800061FB012005906068801F06902068801EE8
:1053900007900520089000200390049003A905AB16
:1053A0000C4ACDE9001009A9204603F0F9FC084990
:1053B000204603F017F901200DB030BD649E0108AE
:1053C0005265616C74696D65206772617068000078
:1053D00088040020489E010870B506460C46154614
:1053E000002C04DB022D02D1002000F03FFB012045
:1053F00070BD3EB504460D46606910B160698047D6
:1054000009E000216068CDE9000102910A462046CA
:10541000236802F001F92946204600F019F801201E
:105420003EBD70B50546012000230C4666680C2E73
:1054300001D1012600E0002616B96FF0010003E05B
:105440000E68012E00D1022302B1136070BD00006E
:1054500030B589B004460D46002003900490012029
:10546000059006903E2007902E488068401C0890CA
:10547000002003A905AB2B4ACDE900102AA1204644
:1054800003F08EFC08990698084406903E20079089
:1054900029488068401C0890002003A905AB264AD3
:1054A000CDE9001025A1204603F07AFC0899069862
:1054B000084406903E20079025488068401C0890CC
:1054C000012003A905AB224ACDE9001021A1204605
:1054D00003F066FC08990698084406903E20079061
:1054E0001B488068401C0890002003A905AB1C4A9B
:1054F000CDE900101BA1204603F052FC402005908E
:10550000012006903E20079008900020009005ABF7
:10551000134A19A10190204603F0BBFB012009B0FA
:1055200030BD0000489E0108312B322B382F342A21
:10553000353D313300000000649E010848656C6C05
:105540006F2053696D706C65204755492E0000002F
:10555000809E010857656C636F6D65210000000037
:10556000CC9D01084920646F6E2774206C696B65BF
:1055700020746869732E00004D756C74696C696ED7
:10558000652064656D6F2074657874207769746830
:105590002031322D706978656C20666F6E742E0034
:1055A00030B589B004460D460420059006900C20C5
:1055B000089000200390049084B320680838079076
:1055C000002101226068CDE9012100900A462046B1
:1055D000236802F021F84FF0FF3101226068001FBC
:1055E000CDE9012100902068031F022211462046C8
:1055F00002F012F8012011217C230A46CDE90010A7
:105600000321204601F099FF002003A905AB044ABD
:10561000CDE900102946204603F0C2FB09B030BD99
:10562000CC9D010810B590B0044600201A490860CE
:1056300001208DF83C006FF031000C9064200D903B
:1056400016480E900C2008901A20099020681838EF
:105650000A90124880680B9008A9114802F0D7FE02
:10566000104804900C2000902A20019020681838DF
:1056700002900C48806803900B48FBF735FA0590C0
:105680000A48069060210791074A6946084803F0D6
:10569000D4F9012010B010BD24050020649E01083B
:1056A000146C0020809E0108F8040020E89D010889
:1056B000386C002070B506460C461546002C07DBFA
:1056C000022D05D1052003490860002000F0CEF925
:1056D000012070BD2C05002030B587B004460D4672
:1056E0000C4802900C48006801900C480C49086076
:1056F000084601682046FFF753FF03A9204602F041
:1057000023FE0023074A01A9204602F029FE0120BA
:1057100007B030BDA4AC0108280500201105002009
:1057200020050020649E01082DE9FE4F80460C46AE
:1057300017464FF001094FF0000A9648006800280C
:1057400025DD2068012802D0032819D10FE0264664
:1057500034463089C0F30B05202D07D100208D4938
:1057600008600021404600F01FF9814600BF8948CB
:105770000068002805DD87480068401E85490860EC
:1057800001E10021404600F00FF98146FBE020686E
:105790000128F5D1264634463089C0F30B05B5F50E
:1057A0009D7F39D008DC092D0ED00D2D7ED01B2D0C
:1057B0002FD0202D7BD1DBE0A5F23B10E8B30128F0
:1057C00063D00228F6D173E073490968481C00EBE6
:1057D000D0714910A0EB41016F4A1160104600687A
:1057E00058B901226D49404602F020FE00232A22CA
:1057F0006B49404603F05CF90AE0002267494046E5
:1058000002F014FE01232A226549404603F050F9B4
:10581000B8E04FF0020AB5E05F48006801280BD1FC
:105820005F48006A411E5E4803F0EAF901232A221C
:105830005B49404603F03CF9A4E0FFE756480068A6
:10584000012809D1564803F0DDF801232A225449E2
:10585000404603F02DF917E05048006A401C4F49BC
:10586000496988420BDC4D48006A401C4B49096974
:10587000884204DB4948006A401C4849086201220A
:105880004649404602F0D2FD7CE0434800680128CA
:105890000BD14348006A411C414803F0B1F9012390
:1058A0002A223F49404603F003F96BE027E068E015
:1058B00039480068012809D1394803F082F80123EA
:1058C0002A223749404603F0F3F817E03348006ACC
:1058D000401E3249496988420BDC3048006A401E4C
:1058E0002E490969884204DB2C48006A401E2B4976
:1058F000086201222949404602F098FD42E026480C
:105900000068012833D12648806B26490860084684
:1059100001684046FFF744FE002101221F48C0688D
:10592000001DCDE9012100901C488068031D18224C
:105930000A21404601F070FE00221849404602F05C
:1059400075FD002101221648C068001DCDE9012126
:10595000009013488068031D28220A21404601F068
:105960005BFE01232A220E49404603F0A1F809E01C
:105970000020084908600021404600F015F88146E3
:1059800000E000BF00BF0FB1C7F800A04846BDE867
:10599000FE8F00002C05002024050020146C002040
:1059A000386C0020200500203EB504460D461F48F7
:1059B00001682046FFF7F4FD002101221C48C06861
:1059C000001DCDE90121009019488068031D1822AF
:1059D0000A21204601F020FE1648006808B901207F
:1059E00000E0002002461249204602F01FFD00217F
:1059F00001221148C068001DCDE9012100900E4828
:105A00008068031D28220A21204601F005FE09486E
:105A1000006808B1012000E0002003462A22064960
:105A2000204603F045F801203EBD0000200500207F
:105A3000146C002024050020386C002010B50246AC
:105A40000B46002000217AB10AE0146854F8214086
:105A500024689C4203D1146854F8210003E0491CD7
:105A600054688C42F1DC00BF10BD000070B50546E3
:105A7000012612480068E8B1104800688068846810
:105A800000200E4909688968886084B10B48006865
:105A90008460606880B16068406868B107490968DF
:105AA000C86861684A6829469047064604E06FF076
:105AB000010601E06FF00106304670BD5005002080
:105AC000F8B50546012600241948006860B3184857
:105AD0000068846824B1606810B16068C06810B95B
