:020000040800F2
:10000000F8640020DD030008EF4800081D450008E3
:10001000ED480008B1240008854E000800000000EB
:100020000000000000000000000000001D030008A8
:10003000B32400080000000079030008394B0008D1
:10004000F7030008F7030008F7030008F7030008A8
:10005000F7030008F7030008F7030008F703000898
:10006000F7030008F7030008F7030008F703000888
:10007000F7030008F7030008F7030008F703000878
:10008000F7030008F7030008F7030008F703000868
:10009000F7030008F7030008F7030008F703000858
:1000A000F7030008F94B0008F7030008F7030008FE
:1000B000F7030008F7030008F7030008F703000838
:1000C000F7030008F7030008F7030008F703000828
:1000D000F7030008794E0008F7030008F70300084B
:1000E000F7030008F7030008F7030008F703000808
:1000F000F7030008F7030008F7030008F7030008F8
:10010000F7030008F7030008F7030008F7030008E7
:10011000F7030008F7030008F7030008F7030008D7
:10012000F7030008F7030008F7030008F7030008C7
:10013000F7030008F7030008F7030008F7030008B7
:10014000F7030008F7030008F7030008F7030008A7
:10015000F7030008F7030008F7030008F703000897
:10016000F7030008F7030008F7030008F703000887
:10017000F7030008F7030008F70300080000000079
:10018000F7030008F703000800F002F800F0B6F8E3
:100190000AA090E8000C82448344AAF10107DA45E2
:1001A00001D100F0ABF8AFF2090EBAE80F0013F07E
:1001B000010F18BFFB1A43F0010318474C1B010045
:1001C0006C1B01000A444FF0000C10F8013B13F0C7
:1001D000070408BF10F8014B1D1108BF10F8015BA0
:1001E000641E05D010F8016B641E01F8016BF9D193
:1001F00013F0080F1EBF10F8014BAD1C0C1B09D1EA
:100200006D1E58BF01F801CBFAD505E014F8016B5B
:1002100001F8016B6D1EF9D59142D6D370470000ED
:100220000023002400250026103A28BF78C1FBD8FF
:10023000520728BF30C148BF0B6070476E2900F0DD
:10024000D086702900F04783662910F00E81652959
:1002500010F00B81672910F00881612910F00781E7
:1002600003681B0A28BF41F08001692900F07A82E7
:10027000642900F07782752900F074826F2901F0FB
:10028000A081782900F01383E92900F0A782E429EE
:1002900000F0A482F52900F0A182EF2901F09D81F0
:1002A000F82900F012830368DB0928BF41F08001C0
:1002B000632901F0E880732901F0ED80E32901F062
:1002C0007D83F32901F08283002070471FB510F071
:1002D000C7F89DE8030000F093FD00F071FD0400F5
:1002E000002000210FF0CEFC401C606000200021A7
:1002F0000FF0DEFCE0601FBD10B510BD01F00CFC7E
:100300001146FFF7E3FF09F03DF901F02AFC03B4C1
:10031000FFF7F2FF03BC05F09CF900002C4B1968B5
:100320000868B0E8F04F80F30988BFF36F8F4FF093
:10033000000080F311887047000000000848006842
:10034000006880F308884FF0000080F3148862B6DC
:1003500061B6BFF34F8FBFF36F8F00DF00BF00BFE9
:1003600008ED00E0DFF80C00016841F47001016065
:10037000704700BF88ED00E0EFF30980BFF36F8F97
:10038000134B1A681EF0100F08BF20ED108A20E9E9
:10039000F04F106009B44FF0500080F31188BFF3A4
:1003A0004F8FBFF36F8F0EF0A3F94FF0000080F373
:1003B000118809BC19680868B0E8F04F1EF0100FEA
:1003C00008BFB0EC108A80F30988BFF36F8F7047C5
:1003D00020000020EFF305807047000009488047A7
:1003E00009480047FEE7FEE7FEE7FEE7FEE7FEE717
:1003F000FEE7FEE7FEE7FEE704480549054A064B2F
:1004000070470000E94B000889010008F85E0020F1
:10041000F8640020F8600020F860002070470000B9
:1004200010B500F0CDFC001D10BD00BF59F8000054
:1004300070B5064600F0C0FC056806F10B0020F020
:100440000704B4429CBF002070BD2B466A68BAB155
:100450001068A04210D304F1080188423CBF5068E4
:10046000586007D35168101941601168091B016079
:1004700058601460101D70BD13465268002AE7D101
:100480002146284600F0A8FC0028DED170BD70B5DA
:100490000446051F00F090FC0068002C14BF44685F
:1004A00070BD002C18BFAC423CBF20466468F8D336
:1004B00001680A18AA4218BF456003D12A68054698
:1004C0001144016028684119A1421CBF6C6070BDD5
:1004D0006168696021680844286070BD53EA020CB5
:1004E00000F069802DE9F04B4FF00006002B1FBF94
:1004F000B3FA83F503FA05F424FA05F65E4012BF59
:100500001643B2FA82F502FA05F4C5F120051EBFC2
:1005100022FA05FC44EA0C04203556EA044C4FEA62
:10052000144418BF641C4FF000084FF000099042BB
:1005300071EB030C39D3002919BFB1FA81F701FA25
:1005400007F6B0FA80F700FA07F6C7F120071EBFDA
:1005500020FA07FC46EA0C062037B6FBF4FCA7EBB2
:100560000507103F07F01F0BCBF120060CFA0BFB21
:100570002CFA06F644BFB3460026202FA4BF5E46E1
:100580004FF0000B5BEA060C08BF4FF0010B19EBB4
:100590000B09ABFB027C48EB0608C01B06FB02CC38
:1005A0000BFB03CC71EB0C01C1E70B460246414645
:1005B0004846BDE8F08B13B54FF000004FF0000146
:1005C000AFF30080BDE81C40704710B54C1084EAC2
:1005D000530404D54042C1F1000138BF491E1B42FB
:1005E00004D55242C3F1000338BF5B1EFFF776FF0C
:1005F00014F0804F04D04042C1F1000138BF491EC1
:1006000014F0004F04D05242C3F1000338BF5B1E08
:1006100010BD00007CB51D4616460C00009001D0B0
:100620002044401E074B7B442A46694601903046D1
:1006300000F0FFFE05461CB10020694600F00CFFEB
:1006400028467CBD390E00000FB4044910B503AA3A
:10065000029800F025FF10BC5DF814FB5801002043
:100660000FB41CB5084B06AA7B4469460090059858
:1006700000F0DFFE04460020694600F0EDFE204653
:100680001CBC5DF814FB0000ED0D00000FB47CB540
:100690000C0009AA009001D02044401E084B7B4466
:1006A00069460190089800F0C4FE05461CB1002080
:1006B000694600F0D1FE28467CBC5DF814FB0000C2
:1006C000C10D000070B5044685690068C10601D5FA
:1006D000302600E02026C00707D070BDD4E90121F4
:1006E00030469047206A401C20626D1EF6D570BDD2
:1006F00070B5044685690078C00707D170BDD4E99C
:10070000012120209047206A401C20626D1EF6D5F2
:1007100070BD70B50C460546012A05D028788006C4
:1007200000D5EA69002302E0012305E05B1C934247
:1007300002D2E05C0028F9D1A869E618C01AA861C5
:10074000286A184428622846FFF7BCFF04E0D5E970
:10075000012114F8010B9047B442F8D32846FFF763
:10076000C7FF70BD2DE9F0410646002410687529C9
:10077000314616A510D000F0C9FB002802DA40422D
:1007800013A507E031688A0701D512A502E04907E1
:1007900004D511A5012401E000F0C1FB00210A22CB
:1007A00006F1240709E0B0FBF2FCB0FBF2F302FB18
:1007B0001C00303078541846491C0028F3D12346D9
:1007C0002A463046BDE8F04100F0B2BB0000000010
:1007D0002D0000002B000000200000002DE9F0415A
:1007E0008046D21D22F007020025D2E90002F52939
:1007F00015A614D0011E72F1000106DA0023D0EB19
:10080000030063EB020211A608E0D8F800108B0782
:1008100001D50FA602E0490701D50EA60125114614
:10082000002408F1240704E000F020FB30323A55A0
:10083000641C50EA0102F7D12B463246214640465D
:10084000BDE8F04100F074BB000000002D00000086
:100850002B00000020000000F0B40D4601880905BF
:1008600002D5214C7C4402E01F4C7C440E34002114
:1008700000F1240608E002F00F071209E75D42EAE2
:1008800003721B097754491C52EA0307F3D102781B
:100890000023120704D5702D06D009B102231134AC
:1008A0002246F0BC00F044BB01231034F8E770B5D9
:1008B00004460D462146106800F031FB02462946E9
:1008C0002046BDE870400023C6E7D21D22F0070392
:1008D000D3E90023C0E70368126843F020030360F4
:1008E0000823C3610023B7E7320A01002DE9F05F56
:1008F000894604464FF0000ADFF874B1FB44C0F8A3
:1009000020A02046E1688847002874D0252806D01A
:10091000D4E901219047206A401C2062F1E70026BB
:100920005F462046E16888472028054607DB312DD1
:1009300005D2781910F8200C08B10643F1E7B0078A
:1009400001D526F00406C4F81CA00027C4F818A09E
:100950002A2D09D0284604F075FE38B304EB870829
:10096000303DC8F8185019E059F8041B204604EB34
:1009700087029161E1688847012F054618D1E06937
:10098000002820DA26F020061DE0D8F8180000EB39
:10099000800005EB40003038C8F818002046E168B8
:1009A0008847054604F04EFE0028EED1012F0AD0FC
:1009B0002E2D08D12046E16888477F1C0546022F6E
:1009C00046F02006C4DBA069002803DA404246F066
:1009D0000106A061F00701D026F010066C2D0BD0A7
:1009E000682D09D04C2D39D06A2D35D0742D35D0D5
:1009F0007A2D33D016E038E0E1682F46204688474C
:100A0000B842054609D16C2F26D04FF48060E168CA
:100A1000064320468847054604E06C2F1AD04FF461
:100A2000807006430DB3A5F14100192802D8203586
:100A300046F400664A462946204626604E46FFF7A1
:100A4000FDFB80B101280BD0F61D26F0070000F158
:100A5000080956E74020E4E78020D8E70020D6E7E1
:100A600006F104094DE7284652E7206ABDE8F09FE9
:100A7000C209010010B5431C02E010F8011B71B15E
:100A80008107FAD14FF0013202C88C1A8C4314EA64
:100A9000C211F9D0C01A0A0603D0C01E10BDC01A78
:100AA00010BD0A0401D0801E10BD0902FCD0401EFA
:100AB00010BD40EA010370B59B072ED14FF00136FF
:100AC000042A2AD308C810C99D1B9D43121F15EA8A
:100AD000C61517D0D8B2E1B2401A50EA056110D15C
:100AE00098B2A1B2401A50EA05410AD123F07F40E2
:100AF00024F07F41401A50EA052102D1180EA0EBE4
:100B0000146070BDA342DBD018BA21BA884201D963
:100B1000012070BD4FF0FF3070BD0AB9002070BDDC
:100B200010F8013B11F8014B63B1A3420AD1521EE8
:100B300008D010F8013B11F8014B1BB1A34201D1C1
:100B4000521EEDD1181B70BD032A40F2308010F008
:100B5000030C00F0158011F8013BBCF1020F624458
:100B600098BF11F801CB00F8013B38BF11F8013BE9
:100B7000A2F1040298BF00F801CB38BF00F8013B96
:100B800011F0030300F02580083AC0F0088051F806
:100B9000043B083A51F804CBA0E80810F5E7121D11
:100BA0005CBF51F8043B40F8043BAFF30080D20730
:100BB00024BF11F8013B11F801CB48BF11F8012BFC
:100BC00024BF00F8013B00F801CB48BF00F8012B1F
:100BD000704710B5203AC0F00B80B1E81850203AA9
:100BE000A0E81850B1E81850A0E81850BFF4F5AFCD
:100BF0005FEA027C24BFB1E81850A0E8185044BF57
:100C000018C918C0BDE810405FEA827C24BF51F8C3
:100C1000043B40F8043B08BF7047D20728BF31F8B7
:100C2000023B48BF11F8012B28BF20F8023B48BF08
:100C300000F8012B704702F0FF0343EA032242EA67
:100C4000024200F002B84FF000020429C0F0128006
:100C500010F0030C00F01B80CCF1040CBCF1020F6F
:100C600018BF00F8012BA8BF20F8022BA1EB0C0144
:100C700000F00DB85FEAC17C24BF00F8012B00F83A
:100C8000012B48BF00F8012B70474FF0000200B560
:100C9000134694469646203922BFA0E80C50A0E89F
:100CA0000C50B1F12001BFF4F7AF090728BFA0E84D
:100CB0000C5048BF0CC05DF804EB890028BF40F819
:100CC000042B08BF704748BF20F8022B11F0804F5B
:100CD00018BF00F8012B704710B5044610F0030F41
:100CE00008BF11F0030F40F015804FF0013E121FB6
:100CF000C0F20E8051F8043BA3EB0E0C2CEA030C5F
:100D00001CEACE1C08BF40F8043BF0D0A1F104015E
:100D100002F10402521E08DB11F8013B002B00F81F
:100D2000013BF7D11146FFF78EFF204610BD0000B2
:100D30004FF0013C50F8042B51F8043B9A4221D16A
:100D4000A2EB0C03934313EACC1317D150F8042BF6
:100D500051F8043B9A4215D1A2EB0C03934313EADA
:100D6000CC130BD150F8042B51F8043B9A4209D113
:100D7000A2EB0C03934313EACC13DBD04FF000003B
:100D8000704700BFD01A01BAB1FA81F101F0180121
:100D900022FA01F0CB40C1F12001DBB2C0B2C01A8F
:100DA0002CFA01F3D11A914311EAC311E6D170472D
:100DB0007047704770477047004870479C5E00203E
:100DC00000487047B45E002000487047945E0020E1
:100DD000704770477047704738B504460A46002090
:100DE0006946AFF30080002808BF38BD024600996D
:100DF000204600F001FC012038BD012000F085BE36
:100E0000F8B5AFF30080054600200C46102000BF67
:100E10000646A819A0420DD9324669460020AFF314
:100E20000080070008BF00F070FE0098A04218BFC5
:100E30000546C419FFF7C0FF05600746F01D20F006
:100E400007004619284600F00AF8B44208BFF8BD6A
:100E5000A21B31463868BDE8F84000F0CDBB002148
:100E60000160C0E9011070471020704730B5B0F143
:100E70000A024FEA900E71F100034EEA817EB0EB58
:100E80000E0061EB91014FEA101E4EEA017E10EB5D
:100E90000E0041EB11114FEA102E4EEA016E10EBDD
:100EA0000E0041EB11214FEA104E4EEA014E10EBBD
:100EB0000E0041EB1141401841F100014FEAD00012
:100EC00040EA41704FEAD10110EB80054FEA8104FE
:100ED00044EA907444EB01046D1944EB0404521B82
:100EE000A3414FF0000348BF0A3200D530BD401C7B
:100EF00041F1000130BD10B5FFF766FF006810BD7D
:100F000010B50446FFF760FF046010BD09684A058C
:100F100001D540B27047C905FCD500B270470968D9
:100F20004A0501D5C0B27047C905FCD580B27047EB
:100F30002DE9F0470D4699469246044600F12408F3
:100F40000168880604D5E06921F01001216000E005
:100F50000120A84201DD471B00E00027A1697A19A2
:100F600002EB0900081AA0612078C00602D42046CE
:100F7000FFF7A8FB002608E0D4E901211AF80600D3
:100F80009047206A401C761C20624E45F4DB207896
:100F9000C0060AD52046FFF795FB06E0D4E90121FB
:100FA00030209047206A401C2062381EA7F10107BC
:100FB000F4DC07E0D4E9012118F805009047206A25
:100FC000401C2062281EA5F10105F3DC2046FFF736
:100FD0008FFB2078000602D50220BDE8F0870120B3
:100FE000FBE711680268006A530501D508700AE042
:100FF000D30501D5088006E0130603D5C217C1E961
:10100000000200E008600120704770472DE9FF4FA3
:101010000C461E464FF0FF378BB0D2E90001DDF8D9
:1010200060800A908A46C1F30A5505B93D46002101
:1010300008464FF00000BAF1000F00F4400005DA56
:1010400000EB80004FF4400101EA50004FEA905954
:10105000B9F1010F00DDB9460A9850EA4A000ED0F6
:1010600044F61050A5F2FF3545432F14B8F1000F98
:101070001ED07542291E1EDDC9F100021CE0B8F128
:10108000010F4FF0000001D0302103E0F24305E0F2
:101090002154401CB042FBDB304600220021215489
:1010A0000B99C1F80880C1E900200FB0BDE8F08FAE
:1010B000BD1B6D1CDEE74A4600DA694206A800F057
:1010C00089FC06AB93E8070003AB83E807005046B2
:1010D0000A9900F091FD8DE80700A0F500501F3837
:1010E00000900398002D0ADD42F21F014A46084491
:1010F000002303A90390684600F0FAFF09E0A0F579
:1011000000504A461F38002303A90390684601F0A7
:1011100004F88DE807000004000C03D04FF0FF3006
:10112000410800E01046B8F1000F03D00022009201
:1011300015461EE0751E05D4FFF798FE3032625545
:101140006D1EF9D5B3460122084302D000227F1C50
:1011500004E02078302801D100227F1E002A099760
:1011600084D01DE0112D07DAFFF780FE3032625582
:101170006D1C50EA0102F5D1084302D00098C8B1B5
:101180000EE00021681E05E0235C625C635422547B
:10119000401E491C8142F7DBAB46A81B401E09904C
:1011A000002004F80B000B98099AC0F80880C0E9E9
:1011B000002B7AE711264FF0000857E72DE9F04F92
:1011C00088460446D21D22F0070191B0D1E9000102
:1011D000CDE90A0103F057FE02460B98C00F01D07B
:1011E0002D2007E02068810701D52B2002E0202177
:1011F00001EAC000032A099001D0072A05DB034653
:101200004146204600F090FB0BE12078800601D596
:10121000E06900E00620B8F1650F814606D0B8F11C
:10122000660F18D0B8F1670F70D131E00020B9F126
:10123000110F009001DB112301E009F101030AAA5B
:1012400001A90CA8FFF7E2FEDDE90C70002609F108
:101250000105834647E001204B4600904FF00047D0
:101260000AAA01A90CA8FFF7D1FEDDE90DB00C997F
:101270005D46002610B909F101000D18B9EB050013
:1012800003D4C0F1FF3609F10105A5EB09002BE0FD
:10129000B9F1010F01DA4FF001090020B9F1110F86
:1012A0000090484601DD112300E003460AAA01A987
:1012B0000CA8FFF7ABFEDDE90C704D460026834617
:1012C000207800070AD4AB4500DA5D4601A8012D5D
:1012D00004DD411911F8011C302907D04F4502DA0D
:1012E00017F1040F04DA012082460FE06D1EEEE7CD
:1012F000002F02DCED1B3E4403E0781CA84200DD19
:101300007D1CB81B00F1010A4FF000472078000750
:1013100003D4AA4501DB4FF0FF3A0021B7F1004F9B
:101320000DF143088DF8431024D002202B23002F09
:1013300001DA7F422D230A21021EA0F1010000DC08
:101340005FB197FBF1FC97FBF1F201FB1C7C1746A8
:101350000CF1300C08F801CDEEE7A8F101000370A4
:101360002188090501D5452100E06521A0F101088A
:1013700000F8011C09980FA9A1EB0807FF1D00B197
:101380000120411901EBEA70A1693844081A401E96
:10139000A0612078C00602D42046FFF793F909988F
:1013A00028B1D4E901219047206A401C20622078AE
:1013B000C00622D52046FFF785F91EE0002E04DB8B
:1013C000B34502DD01A8805D00E03020D4E90121B1
:1013D0009047206A401C2062761CAAF101005FEA57
:1013E000000A0AD1FFF7ECFCC0680168405CD4E950
:1013F00001219047206A401C2062281EA5F10105AA
:10140000DCDC07E0D4E9012118F8010B9047206AE1
:10141000401C2062381EA7F10107F3DC2046FFF7CD
:1014200067F9032011B041E601694A1C026108789E
:10143000704700B58FB0CDE9013100210591054914
:101440007944CDE9031011466846FFF74FFA0FB013
:1014500000BD0000E5FFFFFF0A6802F8010B0A600B
:101460007047D1E900239A4202D2531C0B601070DE
:10147000704710B5436913B1AFF3008001E0FFF787
:1014800048F9012010BD127800F124010A700022F1
:101490004A700122EDE711684FF0FF32E9E70000E2
:1014A000074B70B50D467B44FFF7C3FF0446284643
:1014B00000F002FB10B14FF0FF3070BD204670BD50
:1014C000076F00002DE9FF5F15468A460446DFF8E6
:1014D000AC80F8440027D8E900103E46CDE9001062
:1014E00010E03AF816106A4602A800F0E9FA411C2A
:1014F00007D02178890603D5E269391891420DD8C1
:101500000744761C2078800602D5E069B84205DDE4
:10151000AE42E6DB3AF816000028E2D1A069C01B13
:10152000A0612046FFF7CEF8D8E90010CDE9001001
:10153000002017E03AF818106A4602A800F0C0FA36
:10154000B0F1FF3F81460BD000250DF1080B05E0FF
:10155000D4E901211BF8050090476D1C4D45F7D3D8
:1015600008F10100B0428046E4DB206A3844206282
:101570002046FFF7BDF8BDE8FF9F0000FEFD00001C
:1015800030B4002100F1240408E002F00705D2087D
:10159000303542EA4372DB086554491C52EA0305C0
:1015A000F3D10468002310A2250707D5A40600D4B0
:1015B00021B1C46901230DA2641EC46130BCFFF7D0
:1015C000B7BC10B5044621461068FFF7A8FC0246D8
:1015D0002046BDE810400023D2E7D21D22F00701CB
:1015E000D1E90023CCE7000000000000300000003B
:1015F00000487047945E0020034640688C460028EF
:1016000018BF88423CBF03464068F8D318681844A6
:10161000884207D00CF1030020F00700001D411A9A
:10162000521A0146081D0A60FEF731BF2DE9F04F3E
:1016300004460D46D21D22F0070089B0D0E900977C
:101640004846394603F01FFC0246F80F01D02D230F
:1016500007E02068810701D52B2302E0202101EA61
:10166000C0038DF820300BB1012000E00020032AD8
:10167000824601D0072A04DB2946204600F054F9AF
:101680003FE12078800601D40D2500E0E569C7F32D
:101690000A560D2D49DA00214FEA175B08464FF034
:1016A0000000002F00F4400007DA00EB80004FF448
:1016B000400100EBD07001EA60008115012901DDD5
:1016C0004FF0FF3100224FEA850CBCF1180F06D312
:1016D0001346ACF118004FF08052C24003E04FF4C3
:1016E000801323FA0CF30CF10C0CBCF1200F04D383
:1016F000ACF1200C09FA0CF001E007FA0CF000291B
:101700004FF0004801DD18B90FE00ED140450CD371
:1017100019EB02095F4121B9404502D19F4329EAF3
:101720000209BBEB175F00D0761C2088000502D5AC
:101730007B48784402E07A487844193808AA302374
:1017400002F80A30037C0AF10101002E0AF1020AB4
:1017500053546A4602DC4FF0300101E04FF0310192
:101760004FF001088DF8001002D0A6F2FF3603E01A
:1017700059EA470100D06B4E002D02DC21780907A1
:1017800004D54FF002082E218DF80110C446002127
:101790000BE0C7F303433F01C35C491C6D1E02F815
:1017A0000830052908F1010801DA002DF1DC0021DB
:1017B0000CE000EB1973491C1B786D1E082902F818
:1017C00008304FEA091908F1010801DA002DF0DCB0
:1017D00021688B0602D516E0A8F10108E04505DD79
:1017E00002EB080313F8013C302BF5D0B8F1000FE1
:1017F00009DD02EB080313F8013C2E2B03D1090786
:1018000001D4A8F10108002D05DD3E2102F80810E1
:101810006D1E08F10108407C002E02F8080008F156
:10182000010804DA2D20764202F8080002E02B209D
:1018300002F808000A214FF47A70864208F1010884
:101840000BDB96FBF0F3303302F8083096FBF0F335
:1018500008F1010800FB136601E0642E0CDB642034
:1018600096FBF0F3303302F8083096FBF0F308F102
:10187000010800FB136601E00A2E06DB96FBF1F07F
:10188000303002F8080008F1010896FBF1F001FB86
:101890001060303002F80800A16908F1010808EB77
:1018A000050202EB0A00081AA0612078C00602D4E3
:1018B0002046FEF707FF216A08AE01EB0A0020620E
:1018C00004E0D4E9012116F8010B9047BAF1010AAE
:1018D000F7D22078C00602D52046FEF7F3FE6E460A
:1018E00009E016F8010B3E280FD0D4E901219047FA
:1018F000206A401C2062B8F10108F2D22046FEF7AF
:10190000F7FE09B00320BDE8F08F206A284420626A
:1019100003E0D4E90121302090476D1EEBD3F8E7B6
:10192000B9FB000002FCFFFF2DE9F0411F46044611
:1019300003260168072A01F4006004DB08B116A53C
:1019400005E016A503E008B115A500E015A521F0F6
:1019500010002060A069C01EA0610FB1401EA061F0
:101960002046FEF7AFFE4FB1D4E90121384690473B
:10197000206A401C2062C01C206206E0206AFAE750
:10198000D4E9012115F8010B9047761EF8D22046C4
:10199000FEF7AEFEBDE8F0814E414E006E616E0076
:1019A000494E4600696E660010B5436913B1AFF346
:1019B000008001E0FFF786FD012010BD128800F1D4
:1019C000240182840022C2840122EDE711684FF0D5
:1019D000FF32E9E72DE9F047814616468AB03548DF
:1019E00078440DC88DE80D0032487844801C03AC63
:1019F0000DC884E80D0041F69B300844372190FB68
:101A0000F1F290FBF1F5A5F1800501FB12041B3CFE
:101A100002D56442012000E00020DFF898A0804653
:101A20000027FA44AAF1BE0A0EE0E0070AD03246C7
:101A3000684607EB470101230AEB810100F06DFBCB
:101A40008DE8070064107F1C002CEED1194F7F44F5
:101A5000AE3F19E0E80715D007EB04100DF1180AA6
:101A600090E80E008AE80E00C068F04201D1981993
:101A700008903246012306A903A800F04EFB03ABF1
:101A800083E807006D10641C002DE3D14FF00103C3
:101A900032466946B8F1000F03A802D000F028FBD7
:101AA00001E000F03AFBC9E90001C9F808200AB0DA
:101AB000BDE8F0879CF90000007B00F080007047D3
:101AC00070B516460C460546FEF7AAFC036893F867
:101AD0000101012806D0FF2C0FD8185D68B1012044
:101AE0002C7070BDD3F807013246214603F207136C
:101AF00003442846BDE8704018474FF0FF3070BDE2
:101B0000002801D003F0A5BD704710B500F04CF8D7
:101B1000BDE81040FFF7F4BF7546FFF769FDAE461C
:101B200005006946534620F00700854618B020B5E9
:101B3000FEF762FCBDE820404FF000064FF00007C2
:101B40004FF000084FF0000B21F00701AC46ACE865
:101B5000C009ACE8C009ACE8C009ACE8C0098D46D2
:101B6000704710B50446AFF300802046BDE8104032
:101B7000FEF7CDBB70B505460C460A2000E06D1C93
:101B800003F068FD35B128780028F8D102E0641C24
:101B900003F060FD14B120780028F8D1BDE8704052
:101BA0000A2003F057BD000010B5012805D0002120
:101BB00003A0FFF7DFFF012010BD09A1F8E7000037
:101BC00053494752544D454D3A204F7574206F6626
:101BD0002068656170206D656D6F7279000000008E
:101BE0003A2048656170206D656D6F727920636F72
:101BF00072727570746564005FEA400C08BF91F002
:101C0000000F4FEA8C234FEAC12243EA51514FEAB9
:101C10001C5018BF00F5F0404FEA300018BF41F0EB
:101C200000415FEA6C5C00F02980BCF1FF3F08BF17
:101C300040F080407047130C06BF12044FF0100CA8
:101C40004FF0000C130E04BF12020CF1080C130F1E
:101C500004BF12010CF1040C930F04BF92000CF1AD
:101C6000020CD30F04BF52000CF1010C11464FF0CF
:101C70000002A0F11F00A0EB0C00704711F0004F14
:101C800008BF704731F000413FF4D5AF0B0C06BFE1
:101C900009044FF0100C4FF0000C0B0E04BF0902AA
:101CA0000CF1080C0B0F04BF09010CF1040C8B0F95
:101CB00004BF89000CF1020CCB0F04BF49000CF1EA
:101CC000010CCCF12003A0EB0C0022FA03F302FA82
:101CD0000CF241EA030100F10100704720F07F4C53
:101CE00080EA030023F07F47ACEB070303F57C5346
:101CF00000F0004003F1FF032DE980494FEA154B46
:101D000009B44FEA144325EA0B4E24EA03480FF2C4
:101D1000042606EB132749083E785FEA320203FBEC
:101D20000667C7F5000707FB06F64FEA54374FEA88
:101D3000D64606F1020607FB066CCCF1005C4FEAC2
:101D40001C472CEA074C07FB06F40CFB06F504EBDA
:101D500015464FEA961634BF00204FF000404FEA78
:101D6000D13706FB07FC4FEA1C4C0CFB0BF7D21BD0
:101D700003FB0CF761EB07010CFB0EF7B0EB074020
:101D800072EB17420CFB08F734BFA2EB0742B2EB31
:101D9000074261EB17414FEA0C444FEA910706FBFB
:101DA00007FC4FEA1C4C0CFB0BF7B0EBC74072EB87
:101DB000573203FB0CF734BFA2EBC742B2EBC7426A
:101DC00061EB57310CFB0EF7B0EBC70072EB5772AB
:101DD0000CFB08F734BFA2EBC702B2EBC70261EB02
:101DE0005771039F4FEA816141EA921104EBCC04E1
:101DF0004FEAD1374FEA826206FB07FC42EA9012B3
:101E00004FEA80604FEA1C4C0CFB0BF7D21B03FB24
:101E10000CF761EB07010CFB0EF7B0EB074072EB20
:101E200017420CFB08F734BFA2EB0742B2EB0742A4
:101E300061EB17414FEA8C554FEA910704EB9C2464
:101E400006FB07FC4FEA1C4C0CFB0BF7B0EBC74042
:101E500072EB573203FB0CF734BFA2EBC742B2EB75
:101E6000C74261EB57310CFB0EF7B0EBC70072EBCA
:101E700057720CFB08F734BFA2EBC702B2EBC702E4
:101E800061EB577115EB4C254FEA816141EA9211E4
:101E90004FEA82624FEAD13742EA901206FB07FC12
:101EA00044F100044FEA80604FEA1C4C0CFB0BF736
:101EB000D21B03FB0CF761EB07010CFB0EF7B0EB39
:101EC000074072EB17420CFB08F734BFA2EB074246
:101ED000B2EB074261EB174115EB1C154FEA81315C
:101EE00041EA92414FEA823242EA90424FEA803020
:101EF0004FEA0C7644F1000448EA03434EEA0B48EB
:101F00004FF0000EB2EB080C71EB030724BF6246E2
:101F100039464EEB0E0E4FF0000B0018524149416E
:101F20004BEB0B0BB2EB080C71EB03077BF1000BD7
:101F300024BF624639464EEB0E0E4FF0000B0018E0
:101F4000524149414BEB0B0BB2EB080C71EB030711
:101F50007BF1000B24BF624639464EEB0E0E51EA70
:101F6000020718BF46F0010616EB0E7655F1000287
:101F700054F1000103D5BDE88901BDE80088BDE842
:101F80008901BDE80048B619524141EB0101A3F1B6
:101F90000103704780807F7E7D7C7B7A79787776BD
:101FA00076757473727171706F6E6E6D6C6C6B6A36
:101FB0006A696868676666656464636362616160D4
:101FC000605F5F5E5E5D5D5C5C5B5B5A5A59595851
:101FD00058575756565555555454535352525251BB
:101FE000515050504F4F4F4E4E4D4D4D4C4C4C4B11
:101FF0004B4B4A4A4A494949484848474747474658
:102000004646454545444444444343434342424293
:1020100042414141002B9C4630D477002BD01CB567
:102020004FEA370703B44FF010004FF01001BAF138
:10203000000F06D0BCF1000FDCBF40F0080040F0FC
:1020400008014FF000000FBCBDE810400BF1010B80
:10205000BBF1010F08BF5FEA170722BF12F10102AF
:1020600011F101014FF0004143F1000300F0004085
:1020700043EA00007047F9D35708D0E746EA06461E
:1020800013F1400F4FEA16461FDD13F1200FDFBF9B
:1020900016430A46002120335B42BED0C3F120071D
:1020A00046EA064602FA07F74FEA164646EA0706E8
:1020B000C3F1200722FA03F201FA07F721FA03F12C
:1020C0004FF0000342EA0702A7E746EA020646EAA3
:1020D00006464FEA164646EA0106BCBF46EA0646F1
:1020E000360C4FF000034FF000024FF0000194E770
:1020F0002DE9804C9A46934670B491E8380007C8A1
:1021000031EA400C48BF34EA430C03D5FFF7E6FD43
:10211000FFF780FFF0BCBDE8008C2DE9804C9A46AB
:10212000934670B491E8380007C810F0804F08BF9C
:1021300013F0804F03D100F005F8FFF76BFFF0BC00
:10214000BDE8008C20F07F4780EA030023F07F4C3D
:1021500007EB0C03A3F57C5300F00040A3F1FE0352
:1021600092F0000F00F0B38095F0000F00F0778040
:102170002DE901494FEA11404FEA144621EA00488F
:1021800000FB06FC24EA064708FB06F607FB08F8F6
:1021900000FB07F718EB06484CEB164C4FEA124BC6
:1021A00018EB07484FEA15464CEB174022EA0B4E56
:1021B0000BFB06FC25EA06470EFB06F607FB0EFEA8
:1021C0000BFB07F71EEB064E4CEB164C4FF00006D0
:1021D0001EEB074E4CEB174B18EB0B0840F10000C1
:1021E00018EB0E0B58EB000840F100008F1A4FF06F
:1021F00000013CBFC943661B14BFB5EB040C0021B2
:102200003CBFC943F61B4FEA17444EEA8E0E27EA3D
:1022100004454FEA1C4704FB07622CEA074C05FB08
:1022200007F70CFB05F604FB0CFC16EB074642EB2C
:10223000174216EB0C4642EB1C421BEB060658EB12
:102240000202414146EA9E0601D5BDE80189B61960
:10225000524141EB0101A3F10103BDE801894FEABD
:1022600014454FEA114724EA054621EA074C05FBCD
:1022700007F406FB07F70CFB06F105FB0CFC11EB62
:10228000074144EB17444FEA124711EB0C4144EB72
:102290001C4422EA074C05FB07F206FB07F70CFB80
:1022A00006F605FB0CFC16EB074642EB174216EB55
:1022B0000C4642EB1C456A1854F1000148BF7047B8
:1022C000B619524141EB0101A3F10103704795F0AA
:1022D000000F37D04FEA11424FEA144721EA024675
:1022E00024EA074C02FB07F106FB07F70CFB06F498
:1022F00002FB0CFC14EB074441EB17414FEA154776
:1023000014EB0C4441EB1C4125EA074C02FB07F59A
:1023100006FB07F70CFB06F602FB0CFC16EB074668
:1023200045EB174516EB0C4645EB1C42121951F1D3
:10233000000148BF7047B619524141EB0101A3F1BA
:10234000010370474FEA14454FEA114724EA054656
:1023500021EA074C05FB07F106FB07F70CFB06F229
:102360004FF0000605FB0CFC12EB074241EB174156
:1023700012EB0C4251EB1C4148BF7047921841EBE5
:102380000101A3F101037047464910B54A6822F4E0
:1023900040324A604A6843681A434A6001684A68A2
:1023A00022F480724A6001684A68036942EA0322A3
:1023B0004A6001684A6822F040724A6001684A68CF
:1023C00083681A434A6001688A6822F400628A605E
:1023D00001688A68C3681A438A60816A6FF0706214
:1023E000D14201688A6822F070628A6001688A6856
:1023F0000CD0836A1A438A6001688A6822F04052CE
:102400008A6001688A68C36A1A4301E022F0405278
:102410008A6001688A6822F002028A6001688A681C
:10242000037E42EA43028A6090F820100029016886
:102430004A680FD042F400624A6001684A6822F498
:1024400060424A6001684A68174C436A04EB4333B0
:102450001A4301E022F400624A600168CA6A22F469
:102460007002CA620168CA6A838B104C04EB035382
:102470001A43CA6201688A6822F400728A6001689D
:102480008A6890F8303042EA43228A6001688A689C
:1024900022F480628A6001688A68406942EA80208A
:1024A000886010BD0023014000E0FFFF0000F0FF46
:1024B000FEE7704772B6CA2202A107A0FEF7C4F871
:1024C000FEE700002E2E2F436F72652F5372632F8D
:1024D0006D61696E2E6300006661696C2025732C46
:1024E00020257300002229B101291AD002291BD00E
:1024F0004FF440720E490B6823F440730B600B6875
:1025000013430B600A6822F0F8020A600A6802238B
:1025100003EBC00002430A60086840F480300860A2
:1025200070474FF48072E5E74FF40072E2E7000075
:10253000103C02401348016889050FD5016821F459
:1025400000710160016841F400610160016821F4DB
:1025500000610160016841F4007101600168490592
:102560000FD5016821F480610160016841F4805158
:102570000160016821F480510160016841F48061CB
:1025800001607047003C024008490A6822F440722A
:102590000A600A6842F004020A600A684FF4803355
:1025A00043EA002002430A6070470000103C0240EA
:1025B000064A136823F440731360136813601368AA
:1025C00043F001031360017070470000103C0240AB
:1025D000094910B50C6824F440740C600C6844F48C
:1025E00040740C600C6844F001040C600260BFF39E
:1025F0006F8F436010BD0000103C0240074A136813
:1026000023F440731360136843F4807313601368FA
:1026100043F001031360018070470000103C02404A
:10262000074A136823F440731360136843F400737C
:102630001360136843F001031360016070470000EA
:10264000103C024017490868C206174805D5C26900
:1026500042F01002C26110220A600A68920605D593
:10266000C26942F00802C26120220A600A6852066A
:1026700005D5C26942F00402C26140220A600A68BC
:10268000120605D5C26942F00202C26180220A60C8
:102690000A68920705D5C26942F02002C261022091
:1026A000086070470C3C02406C04002070B5114972
:1026B00004460020C86100F04FFC05460E4E09E0BC
:1026C000601C07D024B100F047FC401BA04201D998
:1026D000032070BD3068C003F2D43068C00701D059
:1026E00001203060306810F0F200F2D0FFF7AAFF4E
:1026F000012070BD6C0400200C3C024078B5002421
:10270000009490F83C20012A19D0012280F83C2046
:102710000A6807250368092A13D9DE680A3A02EB1A
:1027200042029540AE43DE600A788B680A3A02EBBB
:10273000420293400268D5682B43D36010E0022028
:1027400078BD1E6902EB42029540AE431E610A78D5
:102750008B6802EB42029340026815692B431361B8
:102760004A681F25072A13D203685E6B521E02EBCC
:1027700082029540AE435E630A8893B20A79521E84
:1027800002EB820293400268556B2B43536327E0B0
:1027900003680D2A12D21E6BD21F02EB82029540F3
:1027A000AE431E630A8893B20A79D21F02EB8202FB
:1027B00093400268156B2B43136311E0DE6A0D3AF8
:1027C00002EB82029540AE43DE620A8893B20A7938
:1027D0000D3A02EB820293400268D56A2B43D36222
:1027E000164B0568144A9D4206D10D68122D03D17F
:1027F000556845F48005556005689D4218D10B6801
:10280000102B01D0112B13D1536843F400035360F4
:10281000096810290CD10A490A4A0968B1FBF2F18A
:1028200001EB8101490000E0491E00910029FBD124
:1028300080F83C40002078BD00230140002001408A
:102840001C00002040420F00006C70470068C06C04
:10285000704770B504004FF0000603D0206C0025CF
:1028600010B107E0012070BD204600F01DF865643E
:1028700084F83C50206CC00610D4206C20F48850A2
:1028800040F0020020642046FFF77EFD6564206C66
:1028900020F0020040F00100206400E0012684F8EE
:1028A0003C50304670BD000010B586B0044614217F
:1028B0006846FEF7EAF91149206888421CD11048A1
:1028C0000021026842F480720260006800F48070A7
:1028D00005900B481438026842F00102026000685B
:1028E00000F001000590E02000900320CDE90101F7
:1028F0006946044800F036FA06B010BD00200140D9
:1029000044380240000002402DE9F04104460068CE
:102910000D4681684FF0000749050BD58068C0055A
:1029200008D5206C40F02000206484F83C70012021
:10293000BDE8F08100F010FB064613E0681C11D0E2
:1029400025B100F009FB801BA8420BD92068006864
:10295000800707D4206C40F00400206484F83C70A9
:102960000320E5E7206800688007E7D521686FF05D
:1029700012000860206C40F40070206420688168B8
:1029800011F0405F13D1217E89B9C16A11F4700F33
:1029900002D0806840050AD4206C20F48070206446
:1029A000206CC00403D4206C40F00100206400209F
:1029B000BEE7000018B50022009290F83C100129F3
:1029C00007D0012180F83C1001688B68DB0702D03A
:1029D00011E0022018BD8B6843F001038B602E4983
:1029E0002E4B0968B1FBF3F101EB410100E0491EF8
:1029F00000910029FBD101688B68DB0742D0036C92
:102A000040F20164A34343F4807303644B685B05A5
:102A100005D5036C23F4005343F480530364036C23
:102A2000DB0404D5436C23F00603436400E04264F6
:102A300080F83C201A4A6FF022030B60516800684E
:102A4000CA06184906D0884224D1816811F0405F37
:102A500013D01FE08842F8D0134A904203D1D1F836
:102A60000423D206F1D0114A904213D1D1F80413B5
:102A700001F01F011029E8D30CE0816841F080418A
:102A8000816007E0016C41F010010164416C41F08C
:102A900001014164002018BD1C00002040420F00CD
:102AA000002301400020014000210140002201409C
:102AB00070B54379012B1CD00125457102230371A8
:102AC00003681E6802F0100240F6FE749440A643AC
:102AD000D1E900410C43944034431C6001680B6809
:102AE000C0249440A3430B60057100214171084646
:102AF00070BD022070BD70B5040003D020790025A0
:102B000010B105E0012070BD6571204600F008F8A5
:102B100002202071256101202071002070BD00007D
:102B200010B586B0044614216846FEF7AEF8114988
:102B3000206888421CD110480021026842F00052EF
:102B40000260006800F0005005900B4810380268E1
:102B500042F001020260006800F0010005901020C0
:102B600000900320CDE901016946044800F0FAF81D
:102B700006B010BD00740040403802400000024022
:102B800018B5046800940068104421B11430009016
:102B90000360002018BD0830F9E770B54279012ABA
:102BA0001ED0012444710222027103681D6801F0E5
:102BB000100204FA02F635431D600029016811D0A5
:102BC0000B6803F470153C2393409D4203D14A687F
:102BD00042F002024A60047100214171084670BD52
:102BE000022070BD0A68C2F383020F2AF3D14A683B
:102BF00042F00102EEE730B50268136801F01004FC
:102C0000012505FA04F18B4313600571002030BDE6
:102C10002DE9F047044622480E46017E01290AD0DC
:102C20000121804601764CF250394846FFF73EFDBF
:102C3000020003D02FE00220BDE8F0874FF0FF3004
:102C400030602068174F012801D0A5681CE0207C67
:102C50006168FFF799FC4846FFF728FD024638688F
:102C600020F00400386014E0217C2846FFF73AFC8D
:102C70004846FFF71BFD0200386820F0FA00386074
:102C800001D0356005E06D1CD4E902100844A8426B
:102C9000EAD8FFF74FFC002188F818101046CBE760
:102CA0006C040020103C02400348016841F00041E0
:102CB0000160002070470000103C02402DE9F04701
:102CC0001B4E05461446307E1F468946012808D013
:102CD000012030764CF250384046FFF7E7FC18B13F
:102CE00014E00220BDE8F0879DB1012D16D0022D21
:102CF00019D022463B464846FFF76AFC4046FFF79C
:102D0000D5FC0C490A6822F001020A6000213176E4
:102D1000E8E7E1B24846FFF74BFCEFE7A1B24846CF
:102D2000FFF76CFCEAE721464846FFF779FCE5E748
:102D30006C040020103C0240074900200A68002A69
:102D400009DA054A054B0C3A1360054B1360096814
:102D5000002900DA01207047103C0240230167453A
:102D6000AB89EFCD2DE9F84FDFF89C910022A9F156
:102D7000040B03274FF00F0C09F1040AABF1040E0A
:102D800001250B6895402B40AB426ED10C7904F0C5
:102D90000304012C01D0022C15D18668540007FAD7
:102DA00004F826EA0806D1F80C8008FA04F848EA84
:102DB0000608C0F808804468AC430D79C5F30015D7
:102DC0009540254345600C79E443A40708D0C568C5
:102DD000540007FA04F6B5438E68A6402E43C66039
:102DE0000C7904F00304022C11D1D40800EB840602
:102DF000356A5407E40E0CFA04F825EA0805D1F800
:102E0000108008FA04F848EA0508C6F8208005682A
:102E1000540007FA04F6B5430E7906F00306A640FF
:102E20002E4306604C6814F4403F66D0374C25684A
:102E300045F480452560246822F0030504F48044AD
:102E40000094334C05EB0408D8F808589407260F73
:102E50000CFA06F4A5432F4CA04201D1002424E033
:102E60002D4CA04202D101241FE046E02B4CA04291
:102E700001D1022419E02A4CA04201D1032414E01C
:102E8000284CA04201D104240FE0274CA04201D1DC
:102E900005240AE0254CA04201D1062405E0244C7B
:102EA000A04201D1072400E00824B4402C43C8F814
:102EB0000848D9F800404D464E689C43F60200D5BC
:102EC0001C432C60DAF8004055464E689C43B6021D
:102ED00000D51C432C60DBF800405D464E689C43E7
:102EE000B60300D51C432C60DEF8004075464E68E2
:102EF0009C43F60300D51C432C60521C102AFFF49F
:102F00003FAFBDE8F88F0000083C01404438024064
:102F1000003001400000024000040240000802406E
:102F2000000C024000100240001402400018024051
:102F3000001C02400069084000D00120704742692F
:102F400021EA02030A4043EA0241816170470AB163
:102F5000816170470904FBE7014880687047000001
:102F60001000002070B5040025D094F83D00002525
:102F700020B984F83C50204600F0B8F8242084F8AA
:102F80003D002068016821F00101016020680168AE
:102F900041F4004101602068016821F400410160B2
:102FA00000F0FAFA4D4B6168994201D84C4900E0B3
:102FB0004C49884201D2012070BD4B492268B0FBC8
:102FC000F1F1566826F03F060E43566062689A4259
:102FD00006D94FF4967251434FF47A72B1FBF2F175
:102FE0002268491C166A26F03F0631431162616867
:102FF000994210D84900401EB0FBF1F2521CC2F3B6
:103000000B02042A01D2042022E0B0FBF1F0401CA4
:10301000C0F30B001CE0A268F2B301EBC10303EBA9
:103020000116431EB3FBF6F35B1C43F480431B0500
:1030300049D092B301EBC10202EB0111401EB0FB7B
:10304000F1F0401CC0F30B0040F4804040F400401D
:103050002168CA694CF6FF739A431043C861D4E9EA
:10306000071001432068026822F0C002114301608A
:10307000D4E9030101432068826848F2FF339A4390
:1030800011438160D4E9051001432068C26822F031
:10309000FF021143C16001E00EE016E02068016804
:1030A00041F0010101602564202084F83D00256382
:1030B00084F83E50002070BD01EB4106431EB3FB77
:1030C000F6F35B1CB3E70120C2E701EB4101401EB0
:1030D000B0FBF1F0401CC0F30B00B7E7A086010085
:1030E00080841E0000093D0040420F0010B586B0EC
:1030F000044614216846FDF7C8FD1349206888423C
:1031000020D112480021026842F0020202600068E9
:1031100000F002000590C02000901220CDE90101CE
:10312000032003900420049069460948FFF71AFE23
:1031300006481030016841F400110160006800F495
:103140000010059006B010BD005400403038024019
:10315000000402400248816802781144816070478F
:10316000100000200B4810B5016841F400710160A7
:10317000016841F480610160016841F4807101607F
:10318000032000F08DF80F2000F006F800F03EF864
:10319000002010BD003C024010B5014688B000225E
:1031A000192000F05DF8192000F04CF813480024B5
:1031B000016841F400310160006805A900F40030A5
:1031C0000690684600F0C2F900F0F6F90C4940009C
:1031D000B0FBF1F10C480B4A491E026040F2E732A5
:1031E000C0E90324C0E9011401F03EF810B1012048
:1031F00008B010BD044801F065F8F9E74438024012
:1032000040420F0000440140240400200C4882B0DA
:10321000016841F480410160006800F48040009042
:103220000748001F016841F08051016000680022DA
:1032300000F0805000900F21901E02B000F010B8F6
:1032400044380240002809DB00F01F0201219140B0
:103250004009800000F1E020C0F800117047000034
:10326000F0B40E4B1B68C3F30223C3F10704042C14
:1032700000D904241D1D072D01D2002300E0DB1E10
:10328000012606FA04F56D1E0D409D409E40761EF7
:10329000164045EA0601F0BC01F00DBE0CED00E061
:1032A000064A00F0070110684FF6FF03184040EA95
:1032B0000120034908431060704700000CED00E056
:1032C0000000FA05034908B50120086202480068B9
:1032D000009008BD00000E42007000402DE9F84348
:1032E000044600684FF00109C1074FF0000501D105
:1032F000400726D5DFF80C81C8F86850FFF72CFE90
:103300000646414F04E0FFF727FE801B022857D8EE
:1033100038680001F7D46068217A800140EA0170C2
:10332000394984310860C8F86890FFF715FE0646F1
:1033300004E0FFF711FE801B022841D83868000125
:10334000F7D52078800752D52F484030016841F0EA
:103350008051016000682D4F00F080500090386867
:1033600040F480703860FFF7F7FD064604E0FFF791
:10337000F3FD801B022823D83868C005F7D5224EFC
:103380007036306810F4407020D0A18901F440718B
:1033900081421BD030681E4920F44070C1F8009073
:1033A0000D6030603068C00710D0FFF7D5FD0546CE
:1033B00041F2883707E0FFF7CFFD401BB84202D942
:1033C0000320BDE8F88330688007F4D5E0680E4933
:1033D000C0F301220831032A0BD0086820F4F8104A
:1033E00008603068A189C1F30B01084330600020F8
:1033F000E7E70A68074B22F4F812184002430A6014
:10340000EFE7000000004742003802400070004033
:10341000400E4742FFFCFF0F2DE9F0470D46040028
:1034200065D0DFF81491D9F80000EFB200F0070082
:10343000A84207D289F80070D9F8000000F0070010
:10344000A84254D120683D4E810712D5400703D5CC
:10345000306840F4E05030602078000703D53068D1
:1034600040F4604030603068A16820F0F00008430C
:1034700030602078C0072DD03049606808390128B5
:1034800012D0022813D0032811D009688907002917
:103490002DDA316821F0030101433160FFF75CFD53
:1034A000804641F2883A0EE009688903EFE709682F
:1034B0008901ECE7FFF750FDA0EB0801514502D967
:1034C0000320BDE8F0873068616800F00C00B0EBC5
:1034D000810FEFD1D9F80010484601F00701A94249
:1034E00007D90770006800F00700A84201D001204A
:1034F000E7E72078400705D53068E16820F4E05020
:10350000084330602078000706D53068216920F430
:10351000604040EAC100306000F05EF83168084A5F
:10352000C1F30311515CC8400649086006480068B1
:10353000FFF732FE0020C4E7003C0240083802409A
:10354000660601081C000020140000200F22026003
:103550000C4A136803F003034360136803F0F0039D
:103560008360136803F4E053C36012684FF4E053C0
:1035700003EAD20202610448006800F00700086014
:103580007047000008380240003C024001480068D3
:10359000704700001C0000200448054900680968C5
:1035A000044AC1F38221515CC84070471C000020CE
:1035B0000838024076060108044805490068096891
:1035C000044AC1F34231515CC84070471C000020DE
:1035D0000838024076060108154810B5006810F05A
:1035E0000C01144813D0431004290FD008290ED120
:1035F0000F4C241F216801F03F022168490207D5C2
:103600002068C0F38810A0FB030106E0184610BD37
:103610002168C1F38811A1FB00010023FCF75EFFC4
:103620002168C1F30141491C4900B0FBF1F010BD14
:10363000083802400024F4002DE9F84F040075D04A
:103640002078DFF838A3C007AAF1040548D00AF1B2
:1036500004000168C1F38101012908D00068C0F3AA
:10366000810002280AD1DAF80000400206D5286855
:10367000800335D560680028E1D031E06068B0F59E
:10368000803F10D0B0F5A02F286810D020F48030F3
:103690002860286820F4802028606068A0B1FFF7C7
:1036A0005BFC06460CE0286840F48030F4E740F408
:1036B00080202860F7E7FFF74FFC801B642871D853
:1036C00028688003F7D50BE0FFF746FC064604E0C8
:1036D000FFF742FC801B6428F1D828688003F7D4E8
:1036E0002078DFF89C9280074FF0000B3DD5A3486F
:1036F000001D016811F00C0F08D00068C0F38100B4
:1037000002280AD1DAF80000400206D428688007AF
:1037100015D5E068012809D111E0E068B8B10120B1
:10372000C9F80000FFF718FC064605E022E1FFF7A4
:1037300013FC801B0228C2D828688007F7D52868A8
:10374000216920F0F80040EAC10028600DE0C9F8C6
:1037500000B0FFF701FC064604E0FFF7FDFB801B0D
:1037600002281FD828688007F7D42078000722D5C0
:10377000824F84486169703771B101210160FFF7A0
:10378000EBFB064604E0FFF7E7FB801B022809D8A5
:1037900038688007F7D50EE0C0F800B0FFF7DCFB13
:1037A000064605E082E0FFF7D7FB801B02287DD8A4
:1037B00038688007F7D42078400765D56F484FF008
:1037C00000083C300068C0000BD46C483C300168F5
:1037D00041F08051016000684FF0010800F0805016
:1037E0000090694F3868C0050FD4386840F4807085
:1037F0003860FFF7B1FB064604E0FFF7ADFB801B26
:10380000022853D83868C005F7D55C4FA0686C37DC
:1038100001280FD00528386810D020F0010038604A
:10382000386820F004003860A068B0B1FFF794FB5E
:1038300006460EE0386840F00100F4E740F004006E
:103840003860F7E7FFF788FB811B41F2883081423F
:1038500063D838688007F5D50DE0FFF77DFB064695
:1038600006E0FFF779FB811B41F28830814254D892
:1038700038688007F5D4B8F1000F05D03F483C30D8
:10388000016821F080510160A069B8B33B49091D6E
:103890000968C1F38101022946D00228584606D0A2
:1038A000C9F86000FFF758FB044639E035E04F46A1
:1038B000C9F86000FFF750FB064604E0FFF74CFB39
:1038C000801B022829D828688001F7D4D4E9070191
:1038D0000843A16A2D4A490802EB0141626A41EAA4
:1038E0008211084394F82C1040EA0161CAF80010D4
:1038F00001203866FFF730FB044605E03CE0FFF7A7
:103900002BFB001B022808D828688001F7D533E07C
:10391000FFF722FB001B022802D90320BDE8F88F25
:1039200028688001F4D427E00128F7D0DAF80000F5
:10393000E26900F4800191421CD1226A00F03F014B
:10394000914217D147F6C071626A0140B1EB821F04
:1039500010D1A26A4FF0FF3300F4403103EB520262
:10396000B1EB024F06D194F82C1000F07060B0EB70
:10397000016F01D00120D1E70020CFE704380240D9
:1039800000004742800E4742007000400000FFFFE9
:103990000068503050F8210070470068503040F8FF
:1039A0002120704710B500680B4641680D48014062
:1039B000080CD870C1F304245C7001F03F049C70C3
:1039C000C1F34231197052B900F092FFD8705878A3
:1039D00000F08EFF5870987800F08AFF98700020F1
:1039E00010BD00003FFFFF0010B50B460168896A5B
:1039F000596001680969C1F30E01996000680168A6
:103A00000D480140C1F305401870C1F306245C70F5
:103A100001F07F049C70890DD97052B900F068FFE5
:103A20001870587800F064FF5870987800F060FFC4
:103A30009870002010BD00007F7F7F0010B504004B
:103A400002D0607F10B106E0012010BD0020207779
:103A5000204600F039F8022060772168CA204862C9
:103A6000216853204862204600F057FF30BB206891
:103A70008168144A1140816020688168626811433E
:103A8000D4E904231A43114381602168E068086186
:103A900020680169228941EA02410161204600F063
:103AA0005FFF58B921680A6C22F480220A642168F9
:103AB0000A6CA3691A430A64012161772268FF2115
:103AC000516210BDBFFF8FFF00B585B0002100918E
:103AD00001910291039100680E49884217D10E4866
:103AE000016841F080510160006800F0805004904E
:103AF000FFF7E8FB02200090C00103906846FFF743
:103B0000EDFB08B1FEF7D6FC04490120086005B0C2
:103B100000BD000000280040403802403C0E4742F3
:103B200070B50446007F0B46012819D00126267780
:103B300002206077B2B19878D97840EA0145587888
:103B40001978000240EA413005432168CA204862E2
:103B5000216853204862204600F0DFFED0B122E009
:103B6000022070BD5878C10603D500F0EF000A307E
:103B70005870D87800F0C5FE0204587800F0C1FEF5
:103B800042EA0022987800F0BCFE0243187842EA2C
:103B90004035DAE70748054020684560204600F0D8
:103BA000DFFE00B966772268FF215162002121778C
:103BB00070BD00003FFFFF002DE9F0410446007F8B
:103BC0000D46012823D04FF0010884F81C80022004
:103BD00060772068002780684FEA4060D2B10028F3
:103BE00000DBEF70A878297840EA01466878E97828
:103BF000000240EA815006432168CA2048622168D9
:103C000053204862204600F088FEB8B12CE0022024
:103C1000BDE8F081002800DBEF70287800F071FE2D
:103C20000204687800F06DFE42EA0022A87800F0F5
:103C300068FE0243E87842EA8056DDE70D48064018
:103C4000206806602068816821F480218160D5E9C0
:103C5000031001432068826811438160204600F010
:103C60007FFE08B984F81D802268FF215162277702
:103C7000CEE700007F7F7F0070B505460068C16811
:103C800021F0A001C160FFF767F904464FF47A768E
:103C900006E0FFF761F9001BB04201D9032070BDB7
:103CA0002868C0688006F4D5002070BD70B5040097
:103CB00009D0606A002540B125616561A56294F86C
:103CC000510040B10CE0012070BD6068B0F5827F0A
:103CD000F4D0E561F2E784F85050204600F044F853
:103CE000022084F851002068016821F04001016041
:103CF000A088218900F4827001F404410843A1895D
:103D000001F400610843217C01F002010843217D98
:103D100001F001010843218B01F400710843217F68
:103D200001F03801084394F8201001F080010843A5
:103D3000218D01F40051084321680860A069042125
:103D400001EA104094F8241001F0100108432168A2
:103D500048602068C16921F40061C1616565012086
:103D600084F85100002070BD10B586B004461421BF
:103D70006846FCF78AFF13492068884220D1124820
:103D80000021026842F480520260006800F4805012
:103D900005900D481438026842F002020260006883
:103DA00000F002000590382000900220CDE90101CA
:103DB000032003900520049069460448FEF7D2FFD3
:103DC00006B010BD003001404438024000040240FB
:103DD0002DE9F84F0446406800261D469046894666
:103DE0004FF0040BB0F5827F01D1A06888B194F840
:103DF0005000012817D0012084F85000FFF7ACF8DC
:103E0000074694F851004FF0000A01280DD0022611
:103E10007EE084F851B0009313460A46204600F035
:103E200036F9BDE8F88F0220FBE7B9F1000F6ED03C
:103E3000B8F1000F6BD084F851B0C4F854A0C4F8A6
:103E40003890A4F83C80A4F83E80C4F830A0A4F8D0
:103E500034A0A4F836A0C4F840A0C4F844A0A068D8
:103E6000B0F5004F09D12068016821F040010160E0
:103E70002068016821F480410160206801684906DA
:103E800003D4016841F040010160E068B8B131E05D
:103E900020688168C90709D0007BA16B0870A06BFE
:103EA000401CA063E08F401EE08708E0FFF754F855
:103EB000C01BA84202D3681C01D031E07DB3E08F63
:103EC0000028E5D119E020688168C90709D0C068D9
:103ED000A16B0880A06B801CA063E08F401EE08770
:103EE00008E0FFF739F8C01BA84202D3681C01D0D4
:103EF00016E0A5B1E08F0028E5D13A4629462046D4
:103F000000F043FD08B120206065606D00B101261E
:103F1000012084F8510084F850A0304681E7FFE783
:103F20000326F5E72DE9F84F044690F850000026E7
:103F30001D469046894601280ED04FF0010B84F8AB
:103F400050B0FFF709F8074694F851004146B246D1
:103F5000012804D0022694E00220BDE8F88FB9F1D0
:103F6000000F74D0B8F1000F71D0032084F8510015
:103F7000C4F854A0C4F83090A4F83480A4F8368073
:103F8000C4F838A0A4F83CA0A4F83EA0C4F844A00B
:103F9000C4F840A0A068B0F5004F09D120680268BD
:103FA00022F0400202602068026842F4804202600F
:103FB00020680268520603D4026842F040020260A0
:103FC000E068B0F5006F606803D028B3012923D002
:103FD0003FE008B101291BD1206B21680088C8602F
:103FE00006E020688168890709D5216B0988C160CE
:103FF000206B801C2063E08E401EE08608E0FEF708
:10400000ABFFC01BA84202D3681C01D030E075B3DF
:10401000E08E0028E5D11FE0206B2168007808734E
:1040200006E020688168890709D5216B097801734A
:10403000206B401C2063E08E401EE08609E0FEF706
:104040008BFFC01BA84203D3681C02D010E017E00E
:104050006DB1E08E0028E4D13A462946204600F0B2
:10406000C3FC08B120206065A06818B106E0FFE736
:10407000032606E02068C16880680090606D00B18A
:10408000012684F851B084F850A0304665E72DE948
:10409000F84F044690F8500001250A9E1F469246AC
:1040A0008B464FF0000801280ED0012084F8500004
:1040B000FEF752FF814694F85100616801280CD048
:1040C000B1F5827F07D102E00220BDE8F88FA16838
:1040D00009B9042801D00220B6E0BBF1000F27D0B7
:1040E000BAF1000F24D01FB394F85100042802D075
:1040F000052084F8510000206065C4F838A0E787E7
:10410000A787C4F830B0E786A7862064606420687B
:104110000168490603D4016841F040010160E0688C
:10412000B0F5006F606805D0E8B3012F43D079E0A7
:10413000012089E008B1012F34D1206B216800886B
:10414000C860206B801C2063E08E401EE08629E062
:104150002068816889070DD5E18E59B1012D09D1FB
:10416000216B0988C160206B801C2063E08E401E9B
:10417000E086002520688168C9070BD0E18F49B12E
:10418000C068A16B0880A06B801CA063E08F401EFC
:10419000E0870125FEF7E0FEA0EB0900B04201D365
:1041A000701C50D100E006E0E08E0028D0D1E08FF6
:1041B0000028CDD13CE0206B216800780873206B8B
:1041C000401C2063E08E401EE0862BE02068816862
:1041D00089070DD5E18E59B1012D09D1216B0978DF
:1041E0000173206B401C2063E08E401EE08600259A
:1041F00020688168C9070BD0E18F49B1C068A16B05
:104200000870A06B401CA063E08F401EE087012572
:10421000FEF7A2FEA0EB0900B04202D3701C01D051
:1042200011E086B1E08E0028D0D1E08F0028CDD1FA
:104230004A463146204600F0D7FB38B120204FF0E7
:104240000108606508E00320804605E0A06818B911
:104250002068C16880680090012084F85100002027
:1042600084F85000404630E710B5040003D094F8BD
:104270003D0010B107E0012010BD002084F83C0093
:10428000204600F01EF8022084F83D00211D206821
:1042900000F0C0FC012084F8460084F83E0084F859
:1042A0003F0084F8400084F8410084F8420084F81C
:1042B000430084F8440084F8450084F83D00002061
:1042C00010BD704790F83D10012901D001207047C2
:1042D000022180F83D100168CA6842F00102CA60FC
:1042E00000681149884214D0B0F1804F11D00F49B5
:1042F00088420ED00E4988420BD00E49884208D021
:104300000D49884205D00D49884202D00C498842A7
:1043100004D1816801F00701062903D0016841F04A
:1043200001010160002070470000014000040040CE
:1043300000080040000C0040000401400040014023
:104340000018004000680349884201D1FEF702BF0F
:10435000704700000044014070B5040004D094F898
:104360003D00002510B106E0012070BD84F83C50EE
:10437000204600F023F8242084F83D002068C1681E
:1043800021F40051C160204600F0B4FC20680169AE
:1043900021F4904101612068416921F02A014161C5
:1043A0002068C16841F40051C1602564202084F870
:1043B0003D0084F83E00002070BD000010B586B0BE
:1043C000044614216846FCF760FC184920688842BE
:1043D00029D117480021026842F0100202600068EB
:1043E00000F01000059012481438026842F00102F3
:1043F0000260006800F0010005904FF4C06000907A
:104400000220CDE9010103200390072004906946B2
:104410000848FEF7A7FC002205212520FEF720FF13
:104420002520FEF70FFF06B010BD00000010014070
:10443000443802400000024038B50A4988420FD192
:104440000068016889060BD54068074C8DF80000AC
:1044500004F13000694609F09DF8216CA06C884792
:1044600038BD0000E0030020040100202DE9F843DE
:10447000044690F83D001F4615460E4620284BD1B5
:10448000C6B1BDB194F83C00012845D0012084F8A4
:104490003C004FF00008C4F84080212084F83D0023
:1044A000FEF75AFDA5848146E584A068B0F5805FDB
:1044B00003D004E00120BDE8F883206920B135462F
:1044C000002684F83C800EE00025FAE78021204693
:1044D00000F096FCA0B9ADB115F8010B2168486059
:1044E000E08C401EE084E08C4B464FF000020097C9
:1044F0000028EBD14FF04001204600F081FC30B1A4
:104500000320D8E736F8020BC0F30800E6E72020C6
:1045100084F83D000020CEE70220CCE7FEE7000053
:104520007FB5002414480094019402941149039427
:10453000C0E9001484600461047680F820400F49CB
:10454000C0E90A140125C561C46080F830404561A6
:10455000FEF77FF908B1FDF7ADFF0520CDE90005B5
:10456000694602940448FEF7C9F8002801D0FDF717
:10457000A1FF7FBD00200140A40200200100000F28
:104580001CB500240C4900940A48019408600846B0
:10459000FEF7B1FA08B1FDF78DFF009400226946DD
:1045A00005480194FEF784FA002801D0FDF782FF48
:1045B0001CBD000000740040EC02002010B504F0A7
:1045C000CFFA07F0B9FC03F0C3FB09F017FD4FF475
:1045D0000051194801F002FF184C4021204601F01B
:1045E000FDFE2021204601F0F9FE0021144A084674
:1045F00004F0BEFB134A0021012004F0B9FB124A6B
:104600000121022004F0B4FB00231A4601210F48C7
:1046100005F092FB0A2105F0CBFB0D4A00210D4865
:1046200005F045FB0C49486008F0F2FF08F0E0FF98
:10463000BDE8104008F0CCBF000802400010024066
:10464000D18900080D8A0008498A0008A58D000854
:104650007C040108F94A0008000000202DE9F04719
:1046600086B014216846FCF710FB37480024016827
:1046700041F010010160016801F01001059101682D
:1046800041F004010160016801F004010591016835
:1046900041F080010160016801F08001059101682D
:1046A00041F001010160016801F00101059101681B
:1046B00041F0020101600068DFF890A000F0020004
:1046C0000590002260215046FEF741FCDFF8808013
:1046D0004FF40056002231464046FEF738FCDFF822
:1046E000749040F60107002239464846FEF72FFC39
:1046F000602000900125CDE901546946504603949D
:10470000FEF730FB0096CDE901546946404603941C
:10471000FEF728FB02200095CDE9014069460E48CE
:10472000FEF720FB0097CDE9015469464846039403
:10473000FEF718FB03208DE8310069465046FEF76E
:1047400011FB06B0BDE8F08730380240001002408F
:104750000008024000040240000002400D4810B56D
:104760000B4901600C49416000214FF48042816097
:10477000C0E9031241618161C1610162FEF7F2FB90
:10478000002803D0BDE81040FDF794BE10BD000026
:104790000054004000030020801A060030B587B0A6
:1047A00014216846FCF771FA2F4800242D4905941E
:1047B000C0E900147F218160FF21C0E90314446136
:1047C0008461FFF73BF908B1FDF774FE012126482B
:1047D000FFF7DEF845F25105A84241D00D208DF8D3
:1047E00000000A208DF801008DF8020003940022D9
:1047F00069461D480494FFF7DFF908B1FDF75AFE3A
:1048000003208DF8140006208DF815000C208DF87B
:10481000160018208DF81700002205A91248FFF78E
:104820007FF908B1FDF746FE104C05982A46206036
:1048300001210D48FFF7B1F8E27802210A48FFF79D
:10484000ACF8627803210848FFF7A7F8A2780421A2
:104850000548FFF7A2F8227805210348FFF79DF8E5
:1048600007B030BD00280040680300200800002089
:104870000F4810B50D4901604FF48271416000216D
:104880008160C1604FF400720161C0E90512C1612D
:104890000162416281620A21C162FFF707FA0028C2
:1048A00003D0BDE81040FDF705BE10BD003001404B
:1048B000880300200C4810B50A4901604FF4E1312B
:1048C0004160002181600C22C160C0E90412816155
:1048D000C161FFF741FD002803D0BDE81040FDF79E
:1048E000E9BD10BD00100140E0030020FEE7FEE737
:1048F000010901EB810100F00F0000EB4100C0B2A3
:104900007047002103E0491C0A38C9B2C0B20A2826
:10491000F9D2090740EA116070472DE9F0410546D8
:1049200000680024C168490617D4C16841F08001BD
:10493000C160FEF711FB06464FF47A78042706E0C3
:10494000FEF70AFB801B404501D96F7701242868D8
:10495000C068400601D4002CF2D02046BDE8F081AA
:1049600070B5044600680025C16821F08001C1606F
:1049700020688068800606D42046FFF77DF910B1D4
:10498000042060770125284670BDF8B504464068CC
:104990004FF48273984221D1A0684FF48065B0F53E
:1049A000004F01D0A8420AD12068066826F04006D0
:1049B00006606068984211D1A068A8420ED00092AB
:1049C0000B4600228021204600F03AF8002804D04F
:1049D000606D40F0200060650320F8BD00920B463A
:1049E00000220121EFE7000038B504461248134DBC
:1049F0004FF47A730068B0FBF5F05843009060689C
:104A0000B0F5827F0DD10B46009200228021204616
:104A100000F016F870B1606D40F020006065032072
:104A200038BD009830B1401E009020688068C043B7
:104A30000006F6D5002038BD1C00002000366E01AF
:104A40002DE9F8431E46914688460446089DFEF728
:104A500083FA401B351AFEF77FFA0746254800689F
:104A6000C0F3CB30684338E0701C37D0FEF774FADF
:104A7000C01BA84203D215B1009860B32CE0206897
:104A8000416821F0E00141606068B0F5827F0BD1A0
:104A9000A068B0F5004F02D0B0F5806F04D1206857
:104AA000016821F040010160A06AB0F5005F09D102
:104AB0002068016821F4005101602068016841F418
:104AC00000510160012084F85100002084F850005A
:104AD0000320BDE8F8830025401E0090206881680F
:104AE00038EA010004D000204845BDD10020F0E79D
:104AF0000120F9E71C00002000231A4619460B4844
:104B000005F01AF90A4C0B4F05464FF40066206871
:104B10004FF47A71484304F0D3FE3146384601F031
:104B20005DFC3221284605F043F9F0E7BDD90008C5
:104B3000000000200004024010B54FF0E0200069A2
:104B40000AF026FE012803D0BDE810400AF05AB84A
:104B500010BD000030B593B030216846FCF795F8E1
:104B600014210CA8FCF791F81D480025016841F0BC
:104B700080510160006800F0805011901948016870
:104B800041F4804101600068022400F480401190EB
:104B9000052000904FF480300190012002908005A4
:104BA000CDE9064008200890A020CDE909040420A2
:104BB0000B906846FEF740FD70B90CA90F2081E804
:104BC00031004FF4A0500F90E002109002210CA889
:104BD000FEF722FC002801D0FDF76CFC13B030BDBD
:104BE00040380240007000400248016841F4700102
:104BF0000160704788ED00E0054800680169C9431D
:104C0000C90704D1891E01610148FFF79BBB7047AA
:104C100024040020F0B50268254D264E264FDFF80B
:104C20009CC0274B4FF0804EA84209D0704507D05A
:104C3000B04205D0B84203D0604501D0984203D1BC
:104C400022F070044A682243A8421BD0704519D054
:104C5000B04217D0B84215D0604513D0984211D059
:104C6000184CA0420ED0184CA0420BD0174CA042BA
:104C700008D0174CA04205D0164CA04202D0164CCA
:104C8000A04203D122F44074CA6822434C6922F046
:104C90008002224302608A68C2620A688262A84275
:104CA00001D0984201D10969016301214161F0BD40
:104CB000000001400004004000080040000C0040DB
:104CC0000004014000400140004401400048014010
:104CD00000180040001C00400020004010B505F006
:104CE00085FE002805D0D0E90012BDE8104010462E
:104CF000084710BD70B5044600680169E26821F4F8
:104D0000405111430161A1682069E2690143606972
:104D1000104301432068C26849F20C639A430A4376
:104D2000C26020684169A26921F440711143416168
:104D300031492068884202D03049884202D1FEF7CA
:104D40003BFC01E0FEF728FCE26900231921642501
:104D50003226B2F5004F626828D0A0FB0101930F04
:104D60009200FBF7BBFB0146B0FBF5F06FF01802B9
:104D7000504301EB800006EB0010B0FBF5F000F0B3
:104D8000F002B1FBF5F002EB0012B1FBF5F06FF0B1
:104D90001803584301EB800006EB0010B0FBF5F060
:104DA00000F00F0021681044886070BDA0FB010175
:104DB00092185B41FBF792FB0146B0FBF5F0020154
:104DC000B1FBF5F06FF01803584301EB800006EBE0
:104DD000C000B0FBF5F000F0F80002EB4002B1FBC0
:104DE000F5F0584301EB800006EBC000B0FBF5F096
:104DF00000F00700D6E70000001001400014014059
:104E00002DE9F0411E46174688460446069D26E0D9
:104E1000681C24D025B1FEF79FF8801BA8421ED93C
:104E200020680C3050E8001F21F4D07140E80012D7
:104E3000002AF5D12068143050E8001F21F001014C
:104E400040E80012002AF5D1202084F83D0084F8C3
:104E50003E00002084F83C000320BDE8F08120687B
:104E6000016838EA010004D00020B842D0D0002008
:104E7000F3E70120F9E700000148FFF7DDBA000081
:104E8000E0030020FEE703B401984100009850EAD7
:104E9000C12018BF04204A0D18BF40F0010040F2A5
:104EA000FF72B2EB515F08BF40F00200012808BF5B
:104EB000052002B070470907090E002804DB00F145
:104EC000E02080F80014704700F00F0000F1E020AF
:104ED00080F8141D704700B52DED048BB0EE409A9C
:104EE000F0EE609A83B051EC190B0BF0EDF941EC48
:104EF000180B18EE100A18EE901A8DED008B002892
:104F000018BF0120084320F00040C0F17F6000F18D
:104F1000E040C00F14D019EE101A19EE900A8DED72
:104F2000009B002918BF0121084320F00040C0F178
:104F30007F6000F1E040C00F04BF0120FBF7E0FFFD
:104F4000B0EE480A03B0F0EE680ABDEC048B00BD79
:104F50002DE9F04F89B0174683460C460025894657
:104F6000EA461BE004F12008B84501D2202600E003
:104F70003E1B33466A462146584600F027F800207B
:104F8000514608E0FF2D04D00A5CFF2A01D104EB52
:104F900000090D5C401CB042F4D34446BC42E1D34E
:104FA000FF2D03D0384609B0BDE8F08F4846FAE738
:104FB00010B5437D00240BB1012010BD806801F0C5
:104FC0008BFC002800DA0124204610BD70B5457D19
:104FD00000240DB1022070BD806801F079FD002829
:104FE00000DA0224204670BD70B5457D00240DB165
:104FF000022070BD806801F023FE002800DA03243F
:10500000204670BD10B50022491E0C4604E021F078
:105010006043C35C13B1521C491EF8D2A01A10BDE4
:1050200070B504000498154606D0B1B1002D25D006
:10503000227D002A7ED132E04FA0FBF705FB51A074
:10504000FBF702FB1A2250A155A0FBF7FDFA574AC5
:1050500057A158A0FBF7F8FAFEE747A0FBF7F4FAD0
:1050600048A0FBF7F1FA1B2247A14DA0FBF7ECFA91
:105070004E4A58A14FA0FBF7E7FAFEE73EA0FBF728
:10508000E3FA40A0FBF7E0FA1C223FA144A0FBF7A3
:10509000DBFA464A51A147A0FBF7D6FAFEE72160AA
:1050A00023712062607D08B1206935E001F096FB34
:1050B000284601F0BFFCA06000281DD01C3001F084
:1050C000B9FAE168006A002922D0B1FBF0F200FBD6
:1050D000121000281DD028A0FBF7B6FA29A0FBF774
:1050E000B3FA442228A12EA0FBF7AEFA2F4A3DA125
:1050F00030A0FBF7A9FAFEE71FA0FBF7A5FA21A055
:10510000FBF7A2FA29463FA0FBF79EFA042070BDE8
:10511000E060A068806B2061E168B0FBF1F201FB08
:10512000120292B114A0FBF78FFA16A0FBF78CFACB
:105130004C2200E01EE014A119A0FBF785FA1B4ADF
:1051400039A11CA0FBF780FAFEE7B0FBF1F00228C2
:1051500010D209A0FBF778FA0AA0FBF775FA4E22E5
:1051600009A10FA0FBF770FA104A38A111A0FBF7B4
:105170006BFAFEE7002070BD5B466C6173684442C9
:105180005D000000200000002E2E5C466C617368FC
:1051900044425C7372635C6664622E6300000000CC
:1051A0002825733A2564292000000000900B01088F
:1051B000646200002825732920686173206173737D
:1051C000657274206661696C656420617420257362
:1051D0002E0A00006E616D65000000007061746849
:1051E0000000000064622D3E7365635F73697A6539
:1051F000202520626C6F636B5F73697A65203D3D8B
:10520000203000004572726F723A205061727469EA
:1052100074696F6E2028257329206E6F7420666F65
:10522000756E642E0A00000064622D3E6D61785F29
:1052300073697A6520252064622D3E7365635F7310
:10524000697A65203D3D20300000000064622D3EFB
:105250006D61785F73697A65202F2064622D3E73DB
:1052600065635F73697A65203E3D2032000000006F
:1052700070B50D00044613D0A07D00282AD117A0D8
:10528000FBF7E2F918A0FBF7DFF920792268002884
:1052900021D016A12B46BDE8704016A0FBF7D4B96B
:1052A0001F4C012505752078002813D10BA0FBF7B2
:1052B000CBF90DA0FBF7C8F91AA11CA0FBF7C4F9A4
:1052C00006A0FBF7C1F908A0FBF7BEF92048FBF7E1
:1052D000BBF9257070BD1FA1DCE700005B466C6167
:1052E000736844425D0000002000000054534442B3
:1052F000000000004572726F723A20257320282545
:10530000732920697320696E697469616C697A65B3
:10531000206661696C20282564292E0A000000009F
:1053200058020020312E322E30000000466C61738E
:105330006844422056257320697320696E69746938
:10534000616C697A6520737563636573732E0A00F7
:10535000281801084B56444200000000F0B5A1B0E7
:105360000026044601201F9684F82D002548374664
:10537000CDE900401FAB324619A90296204606F03F
:1053800045FAA07D18B11F9808B1022632E0D4E991
:105390000310B0FBF1F01F9988420CD11AA0FBF763
:1053A00053F91DA02168FBF74FF91DA0FBF74CF93D
:1053B000204602F009F8A16909B12046884725482E
:1053C0002346CDE90070002219A91846029706F07D
:1053D0001DFA214D2246002303A91046009503F033
:1053E000F9FC94F82C0018B1204602F0F5FFF1E723
:1053F00084F82D70E16909B12046884721B0304614
:10540000F0BD0000C15B00085B466C6173684442FC
:105410005D5B6B765D0000005B25735D2000000026
:10542000416C6C20736563746F722068656164659C
:105430007220697320696E636F72726563742E20C7
:1054400053657420697420746F2064656661756C9F
:10545000742E0A0091590008B159000870B51C4615
:1054600015000DD04FF0FF3202EBC402D3082A46DC
:10547000FFF7ACFD21462846BDE87040FFF7C2BDEE
:1054800008A0FBF7E1F80CA0FBF7DEF8A4220BA1C3
:1054900011A0FBF7D9F8134A13A117A0FBF7D4F812
:1054A000FEE700005B466C61736844425D5B7574A7
:1054B000696C735D00000000200000002E2E5C4629
:1054C0006C61736844425C7372635C6664625F75AE
:1054D00074696C732E6300002825733A25642920B3
:1054E000000000004A1001087374617475735F74E2
:1054F00061626C65000000002825732920686173D3
:1055000020617373657274206661696C65642061E3
:10551000742025732E0A000070B506464FF0FF3444
:1055200004EBC1001546C108FF223046FBF783FBA0
:1055300015B16C1E00203055204670BDF8B51446DC
:10554000DDE906260D4607469A4210D319A0FBF75F
:105550007BF81DA0FBF778F88D221CA122A0FBF799
:1055600073F8244A24A12BA0FBF76EF8FEE76CB178
:1055700019462046FFF7D0FF411C18D022182918E1
:10558000012338460096FFF72FFDF8BD09A0FBF771
:105590005BF80DA0FBF758F88E220CA112A0FBF7C8
:1055A00053F8144A23A11BA0FBF74EF8FEE7002096
:1055B000F8BD00005B466C61736844425D5B7574C6
:1055C000696C735D00000000200000002E2E5C4618
:1055D0006C61736844425C7372635C6664625F759D
:1055E00074696C732E6300002825733A25642920A2
:1055F00000000000381001087374617475735F69EE
:105600006E646578203C207374617475735F6E7589
:105610006D00000028257329206861732061737371
:10562000657274206661696C6564206174202573FD
:105630002E0A00007374617475735F7461626C6527
:105640000000000030380A2801D2012070470020F5
:1056500070477047704700002DE9FE4F824600F109
:10566000200816460F46006931441C464FF00109D8
:10567000814205D93CA006F075FC0520BDE8FE8FEF
:10568000D8F80810404601B18847F8070CD02046EA
:10569000394601230090641C7F1C1A46504604F0D2
:1056A0009FFB050054D1761E0121504606F082FA78
:1056B00005004DD1AD208DF804000DF1040B34E050
:1056C000B9F1000F13D05D466A1C3946504603F00D
:1056D00072FF9AF8350008B1052200E00422207814
:1056E000A854A918607848704FF0000906E02078A7
:1056F0008DF80500607801228DF8060000200090EA
:105700000023D8F80450404601A9921CA847050080
:1057100003D01FA006F026FC1AE0504609F01AF844
:10572000050015D1A41CB61EBF1C022EC8D2002134
:10573000504606F03FFA05000AD1012E0CD1012394
:105740001A4639465046009404F04AFB050003D03F
:105750000021504606F02EFAD8F80C10404601B150
:10576000884728468AE700004572726F723A2046E1
:105770006C6173682061646472657373206973205F
:105780006F7574206F6620626F756E642E00000066
:105790004572726F723A20466C6173682077726945
:1057A00074652053504920636F6D6D756E69636138
:1057B0007465206572726F722E0000001FB5052897
:1057C00003D0062801D0072800D1009001200190C5
:1057D000029069460348FCF791FF002801D0FCF7CE
:1057E00069FE1FBDA402002070B50C46054606F0F8
:1057F00097FF6FF0010106F038FD23462A46BDE809
:105800007040002103F044BD10B5044606F088FF47
:105810006FF0010106F029FDE1B2BDE8104003F090
:105820000BBE2DE9FC4115460E4607461C460121DC
:10583000FF2201A8FBF7FFF90020009023462A462B
:1058400031463846FFF7D0FBBDE8FC812DE9F04139
:105850008AB0044600254FF0FF300395089008A851
:10586000CDE90620CDE904548846214804A9CDE9B4
:10587000001003AB2A4602954146204605F0C6FFBC
:105880001C4F0498012640B1CDE9005705AB022218
:1058900041462046029605F0B9FF0398002823D020
:1058A0000899491C20D1012802D894F82C0048B14D
:1058B000CDE9005705AB012241462046029605F08E
:1058C000A5FF11E00CA0FAF7BFFE0FA02168FAF7C0
:1058D000BBFE4FF452720EA114A0FAF7B5FE16A04B
:1058E000FAF7B2FE84F82C6008980AB0BDE8F0819F
:1058F000CFB80008655900085B466C617368444284
:105900005D5B6B765D0000005B25735D2000000031
:105910002E2E5C466C61736844425C7372635C66F5
:1059200064625F6B7664622E630000002825733A20
:1059300025642920000000005472696767657220A1
:105940006120474320636865636B206166746572FC
:1059500020616C6C6F63204B56206661696C6564D6
:105960002E0A0000027862B102694B689A4208D997
:105970008278012A07D0022A03D10A6892F82C20E3
:105980000AB10020704789684069086001207047AB
:1059900010B502460846117839B19178032904D12F
:1059A000012180F82C1002F017FD002010BD00002E
:1059B0007FB50D460446417800F11006007809B124
:1059C000032806D0012838D0002949D0022841D028
:1059D00046E024A0FAF738FE26A02968FAF734FE3C
:1059E000A17832462548FAF72FFE2146284603F0D3
:1059F00011FE00281BA010D0FAF726FE1DA0296872
:105A0000FAF722FE40F2C3521DA124A0FAF71CFEB1
:105A10002548A168FAF718FE19E0FAF715FE15A057
:105A20002968FAF711FE40F2C15215A11BA0FAF73E
:105A30000BFE1EA0FAF708FE12E001210520CDE9B9
:105A40000001062302AA2846216DFFF777FD0120F9
:105A500004B070BDA27831462846236D08F04CF999
:105A60000020F5E75B466C61736844425D5B6B76D2
:105A70005D0000005B25735D200000000019010837
:105A80002E2E5C466C61736844425C7372635C6684
:105A900064625F6B7664622E630000002825733AAF
:105AA0002564292000000000981901085265636FE1
:105AB0007665727920746865204B56207375636330
:105AC00065737366756C2E0A000000002DE9F047BF
:105AD000894680460024DFF874A032E008EB841683
