:020000040800F2
:10000000B8540020D5030008DB2E0008B12D0008ED
:10001000D92E00086F2000085132000800000000AF
:1000200000000000000000000000000015030008B0
:10003000C12000080000000071030008152F00080F
:10004000EF030008EF030008EF030008EF030008C8
:10005000EF030008EF030008EF030008EF030008B8
:10006000EF030008EF030008EF030008EF030008A8
:10007000EF030008EF030008EF030008EF03000898
:10008000EF030008EF030008EF030008EF03000888
:10009000EF030008EF030008EF030008EF03000878
:1000A000EF030008D52F0008EF030008EF03000856
:1000B000EF030008EF030008EF030008EF03000858
:1000C000EF030008EF030008EF030008EF03000848
:1000D000EF03000845320008EF030008EF030008B3
:1000E000EF030008EF030008EF030008EF03000828
:1000F000EF030008EF030008EF030008EF03000818
:10010000EF030008EF030008EF030008EF03000807
:10011000EF030008EF030008EF030008EF030008F7
:10012000EF030008EF030008EF030008EF030008E7
:10013000EF030008EF030008EF030008EF030008D7
:10014000EF030008EF030008EF030008EF030008C7
:10015000EF030008EF030008EF030008EF030008B7
:10016000EF030008EF030008EF030008EF030008A7
:10017000EF030008EF030008EF0300080000000091
:10018000EF030008EF03000800F002F800F0B2F8F7
:100190000AA090E8000C82448344AAF10107DA45E2
:1001A00001D100F0A7F8AFF2090EBAE80F0013F082
:1001B000010F18BFFB1A43F00103184748710000F4
:1001C000687100000A444FF0000C10F8013B13F076
:1001D000070408BF10F8014B1D1108BF10F8015BA0
:1001E000641E05D010F8016B641E01F8016BF9D193
:1001F00013F0080F1EBF10F8014BAD1C0C1B09D1EA
:100200006D1E58BF01F801CBFAD505E014F8016B5B
:1002100001F8016B6D1EF9D59142D6D370470000ED
:100220000023002400250026103A28BF78C1FBD8FF
:10023000520728BF30C148BF0B6070476E2900F0DD
:10024000E684702900F07D82662906F066856529BE
:1002500006F06385672906F06085612906F05F85F1
:1002600003681B0A28BF41F08001692900F0EE8174
:10027000642900F0EB81752900F0E8816F2900F016
:10028000D485782900F04982E92900F06F85E429B6
:1002900000F06C85F52900F06985EF2900F0D18523
:1002A000F82900F048820368DB0928BF41F080018B
:1002B000632900F0F084732900F0F584E32901F04C
:1002C0000182F32901F00682002070471FB506F075
:1002D0001FFD00F02DFC04000020002106F0ECFCC6
:1002E000401C60600020002106F0FCFCE0601FBDA7
:1002F00010B510BD01F012FA1146FFF7E7FF03F049
:10030000B7F901F0E3FA03B4FFF7F2FF03BC00F022
:1003100009FC00002C4B19680868B0E8F04F80F326
:100320000988BFF36F8F4FF0000080F3118870478A
:100330000000000008480068006880F308884FF05B
:10034000000080F3148862B661B6BFF34F8FBFF32D
:100350006F8F00DF00BF00BF08ED00E0DFF80C008A
:10036000016841F470010160704700BF88ED00E052
:10037000EFF30980BFF36F8F134B1A681EF0100F55
:1003800008BF20ED108A20E9F04F106009B44FF04B
:10039000500080F31188BFF34F8FBFF36F8F05F0CC
:1003A000EBFC4FF0000080F3118809BC1968086865
:1003B000B0E8F04F1EF0100F08BFB0EC108A80F3C9
:1003C0000988BFF36F8F704714000020EFF305809A
:1003D000704700000948804709480047FEE7FEE7EC
:1003E000FEE7FEE7FEE7FEE7FEE7FEE7FEE7FEE7E5
:1003F00004480549054A064B70470000C52F000810
:1004000089010008B84E0020B8540020B8500020E0
:10041000B850002010B500F08BFB001D10BD00BFD0
:100420009968000053EA020C00F069802DE9F04B56
:100430004FF00006002B1FBFB3FA83F503FA05F453
:1004400024FA05F65E4012BF1643B2FA82F502FAAC
:1004500005F4C5F120051EBF22FA05FC44EA0C0490
:10046000203556EA044C4FEA144418BF641C4FF080
:1004700000084FF00009904271EB030C39D30029BA
:1004800019BFB1FA81F701FA07F6B0FA80F700FA5E
:1004900007F6C7F120071EBF20FA07FC46EA0C0644
:1004A0002037B6FBF4FCA7EB0507103F07F01F0B46
:1004B000CBF120060CFA0BFB2CFA06F644BFB34630
:1004C0000026202FA4BF5E464FF0000B5BEA060C0F
:1004D00008BF4FF0010B19EB0B09ABFB027C48EB9B
:1004E0000608C01B06FB02CC0BFB03CC71EB0C0116
:1004F000C1E70B46024641464846BDE8F08B13B5BE
:100500004FF000004FF00001AFF30080BDE81C4049
:10051000704700007CB51D4616460C00009001D0C7
:100520002044401E074B7B442A46694601903046D2
:1005300000F087FB05461CB10020694600F094FBE3
:1005400028467CBD490700000FB41CB5084B06AA1D
:100550007B4469460090059800F073FB0446002038
:10056000694600F081FB20461CBC5DF814FB0000CE
:10057000150700000FB47CB50C0009AA009001D04B
:100580002044401E084B7B4469460190089800F0C7
:1005900058FB05461CB10020694600F065FB284663
:1005A0007CBC5DF814FB0000E906000070B5044651
:1005B00085690068C10601D5302600E02026C00705
:1005C00007D070BDD4E9012130469047206A401C15
:1005D00020626D1EF6D570BD70B504468569007841
:1005E000C00707D170BDD4E9012120209047206ABF
:1005F000401C20626D1EF6D570BD70B50C460546D8
:10060000012A05D02878800600D5EA69002302E097
:10061000012305E05B1C934202D2E05C0028F9D183
:10062000A869E618C01AA861286A184428622846F2
:10063000FFF7BCFF04E0D5E9012114F8010B904756
:10064000B442F8D32846FFF7C7FF70BD2DE9F0414B
:100650000646002410687529314616A510D000F012
:100660006BFA002802DA404213A507E031688A07D6
:1006700001D512A502E0490704D511A5012401E026
:1006800000F063FA00210A2206F1240709E0B0FB1A
:10069000F2FCB0FBF2F302FB1C0030307854184639
:1006A000491C0028F3D123462A463046BDE8F041D4
:1006B00000F054BA000000002D0000002B000000E4
:1006C00020000000F0B40D460188090502D5214C38
:1006D0007C4402E01F4C7C440E34002100F12406CF
:1006E00008E002F00F071209E75D42EA03721B09F6
:1006F0007754491C52EA0307F3D10278002312070A
:1007000004D5702D06D009B1022311342246F0BC65
:1007100000F024BA01231034F8E770B504460D4602
:100720002146106800F011FA024629462046BDE82D
:1007300070400023C6E7D21D22F00703D3E900234F
:10074000C0E70368126843F0200303600823C36115
:100750000023B7E7386800002DE9F05F89460446BA
:100760004FF0000ADFF874B1FB44C0F820A0204627
:10077000E1688847002874D0252806D0D4E90121F3
:100780009047206A401C2062F1E700265F46204621
:10079000E16888472028054607DB312D05D2781906
:1007A00010F8200C08B10643F1E7B00701D526F098
:1007B0000406C4F81CA00027C4F818A02A2D09D0EC
:1007C000284602F06EFD38B304EB8708303DC8F8C8
:1007D000185019E059F8041B204604EB8702916178
:1007E000E1688847012F054618D1E069002820DA22
:1007F00026F020061DE0D8F8180000EB800005EB7D
:1008000040003038C8F818002046E168884705469F
:1008100002F047FD0028EED1012F0AD02E2D08D17D
:100820002046E16888477F1C0546022F46F02006D7
:10083000C4DBA069002803DA404246F00106A0614B
:10084000F00701D026F010066C2D0BD0682D09D0D2
:100850004C2D39D06A2D35D0742D35D07A2D33D02A
:1008600016E038E0E1682F4620468847B842054642
:1008700009D16C2F26D04FF48060E16806432046F2
:100880008847054604E06C2F1AD04FF48070064369
:100890000DB3A5F14100192802D8203546F40066B1
:1008A0004A462946204626604E46FFF7C7FC80B1DF
:1008B00001280BD0F61D26F0070000F1080956E7C5
:1008C0004020E4E78020D8E70020D6E706F10409BD
:1008D0004DE7284652E7206ABDE8F09FC867000050
:1008E00010B5431C02E010F8011B71B18107FAD169
:1008F0004FF0013202C88C1A8C4314EAC211F9D0AD
:10090000C01A0A0603D0C01E10BDC01A10BD0A04CA
:1009100001D0801E10BD0902FCD0401E10BD40EA6F
:10092000010370B59B072ED14FF00136042A2AD35C
:1009300008C810C99D1B9D43121F15EAC61517D084
:10094000D8B2E1B2401A50EA056110D198B2A1B212
:10095000401A50EA05410AD123F07F4024F07F413C
:10096000401A50EA052102D1180EA0EB146070BDA8
:10097000A342DBD018BA21BA884201D9012070BD48
:100980004FF0FF3070BD0AB9002070BD10F8013B78
:1009900011F8014B63B1A3420AD1521E08D010F8DE
:1009A000013B11F8014B1BB1A34201D1521EEDD105
:1009B000181B70BD032A40F2308010F0030C00F0C9
:1009C000158011F8013BBCF1020F624498BF11F889
:1009D00001CB00F8013B38BF11F8013BA2F1040242
:1009E00098BF00F801CB38BF00F8013B11F00303BA
:1009F00000F03282083AC0F0088051F8043B083A0F
:100A000051F804CBA0E80810F5E7121D5CBF51F8BF
:100A1000043B40F8043BAFF30080D20724BF11F839
:100A2000013B11F801CB48BF11F8012B24BF00F89E
:100A3000013B00F801CB48BF00F8012B704702F0E2
:100A4000FF0343EA032242EA024200F039BA4FF0C0
:100A5000000200B5134694469646203922BFA0E80E
:100A60000C50A0E80C50B1F12001BFF4F7AF09071A
:100A700028BFA0E80C5048BF0CC05DF804EB89000B
:100A800028BF40F8042B08BF704748BF20F8022B4E
:100A900011F0804F18BF00F8012B70474FF0013C58
:100AA00050F8042B51F8043B9A4221D1A2EB0C03DD
:100AB000934313EACC1317D150F8042B51F8043B9D
:100AC0009A4215D1A2EB0C03934313EACC130BD13A
:100AD00050F8042B51F8043B9A4209D1A2EB0C03C5
:100AE000934313EACC13DBD04FF00000704700BFF4
:100AF000D01A01BAB1FA81F101F0180122FA01F01D
:100B0000CB40C1F12001DBB2C0B2C01A2CFA01F314
:100B1000D11A914311EAC311E6D17047704770476B
:100B20007047000001491820ABBEFEE72600020016
:100B300000487047784E002009684A0501D540B248
:100B40007047C905FCD500B2704709684A0501D550
:100B5000C0B27047C905FCD580B270472DE9F04797
:100B60000D4699469246044600F12408016888061D
:100B700004D5E06921F01001216000E00120A842C5
:100B800001DD471B00E00027A1697A1902EB09008B
:100B9000081AA0612078C00602D42046FFF706FD9F
:100BA000002608E0D4E901211AF806009047206ADF
:100BB000401C761C20624E45F4DB2078C0060AD526
:100BC0002046FFF7F3FC06E0D4E9012130209047EE
:100BD000206A401C2062381EA7F10107F4DC07E000
:100BE000D4E9012118F805009047206A401C2062D2
:100BF000281EA5F10105F3DC2046FFF7EDFC207867
:100C0000000602D50220BDE8F0870120FBE711684D
:100C10000268006A530501D508700AE0D30501D5C2
:100C2000088006E0130603D5C217C1E9000200E000
:100C3000086001207047000001694A1C02610878C1
:100C4000704700B58FB0CDE901310021059105490C
:100C50007944CDE9031011466846FFF77DFD0FB0DA
:100C600000BD0000E5FFFFFF0A6802F8010B0A6003
:100C70007047D1E900239A4202D2531C0B601070D6
:100C8000704710B5436913B1AFF3008001E0FFF77F
:100C9000B4FC012010BD127800F124010A7000227A
:100CA0004A700122EDE711684FF0FF32E9E70000DA
:100CB0002DE9FF5F15468A460446DFF8AC80F8440C
:100CC0000027D8E900103E46CDE9001010E03AF8C0
:100CD00016106A4602A800F001FD411C07D02178D9
:100CE000890603D5E269391891420DD80744761C6C
:100CF0002078800602D5E069B84205DDAE42E6DB29
:100D00003AF816000028E2D1A069C01BA061204675
:100D1000FFF74CFCD8E90010CDE90010002017E0E7
:100D20003AF818106A4602A800F0D8FCB0F1FF3F6C
:100D300081460BD000250DF1080B05E0D4E9012117
:100D40001BF8050090476D1C4D45F7D308F10100D5
:100D5000B0428046E4DB206A384420622046FFF738
:100D60003BFCBDE8FF9F0000866200002DE9F041DA
:100D70008046D21D22F007020025D2E90002F529A3
:100D800015A614D0011E72F1000106DA0023D0EB83
:100D9000030063EB020211A608E0D8F800108B07ED
:100DA00001D50FA602E0490701D50EA6012511467F
:100DB000002408F1240704E000F0A7F830323A5587
:100DC000641C50EA0102F7D12B46324621464046C8
:100DD000BDE8F041FFF7C2BE000000002D0000009A
:100DE0002B0000002000000030B4002100F124049A
:100DF00008E002F00705D208303542EA4372DB080A
:100E00006554491C52EA0305F3D10468002310A27B
:100E1000250707D5A40600D421B1C46901230DA27A
:100E2000641EC46130BCFFF799BE10B5044621466C
:100E30001068FFF78AFE02462046BDE810400023F6
:100E4000D2E7D21D22F00701D1E90023CCE7000050
:100E5000000000003000000010B5203AC0F00B8008
:100E6000B1E81850203AA0E81850B1E81850A0E8AE
:100E70001850BFF4F5AF5FEA027C24BFB1E8185008
:100E8000A0E8185044BF18C918C0BDE810405FEA78
:100E9000827C24BF51F8043B40F8043B08BF7047F4
:100EA000D20728BF31F8023B48BF11F8012B28BFF9
:100EB00020F8023B48BF00F8012B70474FF00002BA
:100EC0000429C0F0128010F0030C3FF4C2ADCCF145
:100ED000040CBCF1020F18BF00F8012BA8BF20F8CA
:100EE000022BA1EB0C01FFF7B4BD5FEAC17C24BF6C
:100EF00000F8012B00F8012B48BF00F8012B7047C8
:100F000000487047584E0020704730B5B0F10A02D3
:100F10004FEA900E71F100034EEA817EB0EB0E00B5
:100F200061EB91014FEA101E4EEA017E10EB0E00BC
:100F300041EB11114FEA102E4EEA016E10EB0E003C
:100F400041EB11214FEA104E4EEA014E10EB0E001C
:100F500041EB1141401841F100014FEAD00040EA55
:100F600041704FEAD10110EB80054FEA810444EA59
:100F7000907444EB01046D1944EB0404521BA3412B
:100F80004FF0000348BF0A3200D530BD401C41F18C
:100F9000000130BD70472DE9FF4F0C461E464FF053
:100FA000FF378BB0D2E90001DDF860800A908A46F5
:100FB000C1F30A5505B93D46002108464FF000002F
:100FC000BAF1000F00F4400005DA00EB80004FF4A6
:100FD000400101EA50004FEA9059B9F1010F00DDDC
:100FE000B9460A9850EA4A000ED044F61050A5F2CD
:100FF000FF3545432F14B8F1000F1ED07542291E4E
:101000001EDDC9F100021CE0B8F1010F4FF0000035
:1010100001D0302103E0F24305E02154401CB042EE
:10102000FBDB30460022002121540B99C1F80880D7
:10103000C1E900200FB0BDE8F08FBD1B6D1CDEE7DD
:101040004A4600DA694206A800F0CEFB06AB93E8F8
:10105000070003AB83E8070050460A9900F03FFC05
:101060008DE80700A0F500501F3800900398002D70
:101070000ADD42F21F014A460844002303A90390F7
:10108000684600F0A8FE09E0A0F500504A461F3867
:10109000002303A90390684600F0B2FE8DE8070024
:1010A0000004000C03D04FF0FF30410800E0104670
:1010B000B8F1000F03D00022009215461EE0751E05
:1010C00005D4FFF722FF303262556D1EF9D5B346C5
:1010D0000122084302D000227F1C04E0207830283F
:1010E00001D100227F1E002A099784D01DE0112D16
:1010F00007DAFFF70AFF303262556D1C50EA010231
:10110000F5D1084302D00098C8B10EE00021681E56
:1011100005E0235C625C63542254401E491C8142FA
:10112000F7DBAB46A81B401E0990002004F80B001B
:101130000B98099AC0F80880C0E9002B7AE71126BD
:101140004FF0000857E72DE9F04F88460446D21DBE
:1011500022F0070191B0D1E90001CDE90A0102F0C6
:1011600078F802460B98C00F01D02D2007E02068C8
:10117000810701D52B2002E0202101EAC000032ACB
:10118000099001D0072A05DB03464146204600F0BE
:10119000EBFA0BE12078800601D5E06900E006203B
:1011A000B8F1650F814606D0B8F1660F18D0B8F1D6
:1011B000670F70D131E00020B9F1110F009001DB11
:1011C000112301E009F101030AAA01A90CA8FFF704
:1011D000E2FEDDE90C70002609F10105834647E0D7
:1011E00001204B4600904FF000470AAA01A90CA825
:1011F000FFF7D1FEDDE90DB00C995D46002610B970
:1012000009F101000D18B9EB050003D4C0F1FF3658
:1012100009F10105A5EB09002BE0B9F1010F01DA95
:101220004FF001090020B9F1110F0090484601DD8F
:10123000112300E003460AAA01A90CA8FFF7ABFEA0
:10124000DDE90C704D4600268346207800070AD45D
:10125000AB4500DA5D4601A8012D04DD411911F806
:10126000011C302907D04F4502DA17F1040F04DAC8
:10127000012082460FE06D1EEEE7002F02DCED1B21
:101280003E4403E0781CA84200DD7D1CB81B00F141
:10129000010A4FF000472078000703D4AA4501DB7C
:1012A0004FF0FF3A0021B7F1004F0DF143088DF8E0
:1012B000431024D002202B23002F01DA7F422D235C
:1012C0000A21021EA0F1010000DC5FB197FBF1FCD6
:1012D00097FBF1F201FB1C7C17460CF1300C08F86F
:1012E00001CDEEE7A8F1010003702188090501D5C1
:1012F000452100E06521A0F1010800F8011C0998D2
:101300000FA9A1EB0807FF1D00B10120411901EB56
:10131000EA70A1693844081A401EA0612078C0060E
:1013200002D42046FFF742F9099828B1D4E90121F7
:101330009047206A401C20622078C00622D52046B3
:10134000FFF734F91EE0002E04DBB34502DD01A8EF
:10135000805D00E03020D4E901219047206A401CE4
:101360002062761CAAF101005FEA000A0AD1FFF7A9
:10137000DFFBC0680168405CD4E901219047206A26
:10138000401C2062281EA5F10105DCDC07E0D4E941
:10139000012118F8010B9047206A401C2062381E7A
:1013A000A7F10107F3DC2046FFF716F9032011B07F
:1013B00041E600002DE9F04F04460D46D21D22F013
:1013C000070089B0D0E900974846394601F041FF4F
:1013D0000246F80F01D02D2307E02068810701D5D0
:1013E0002B2302E0202101EAC0038DF820300BB14D
:1013F000012000E00020032A824601D0072A04DBF6
:101400002946204600F0B0F93FE12078800601D45B
:101410000D2500E0E569C7F30A560D2D49DA0021D4
:101420004FEA175B08464FF00000002F00F4400021
:1014300007DA00EB80004FF4400100EBD07001EAC6
:1014400060008115012901DD4FF0FF3100224FEAD4
:10145000850CBCF1180F06D31346ACF118004FF001
:101460008052C24003E04FF4801323FA0CF30CF1D6
:101470000C0CBCF1200F04D3ACF1200C09FA0CF0D9
:1014800001E007FA0CF000294FF0004801DD18B91F
:101490000FE00ED140450CD319EB02095F4121B991
:1014A000404502D19F4329EA0209BBEB175F00D0F8
:1014B000761C2088000502D57B48784402E07A48F3
:1014C0007844193808AA302302F80A30037C0AF15C
:1014D0000101002E0AF1020A53546A4602DC4FF061
:1014E000300101E04FF031014FF001088DF800109C
:1014F00002D0A6F2FF3603E059EA470100D06B4E56
:10150000002D02DC2178090704D54FF002082E21B6
:101510008DF80110C44600210BE0C7F303433F01DF
:10152000C35C491C6D1E02F80830052908F101084A
:1015300001DA002DF1DC00210CE000EB1973491CED
:101540001B786D1E082902F808304FEA091908F1C6
:10155000010801DA002DF0DC21688B0602D516E0C7
:10156000A8F10108E04505DD02EB080313F8013C92
:10157000302BF5D0B8F1000F09DD02EB080313F8AA
:10158000013C2E2B03D1090701D4A8F10108002D3D
:1015900005DD3E2102F808106D1E08F10108407CAF
:1015A000002E02F8080008F1010804DA2D20764226
:1015B00002F8080002E02B2002F808000A214FF48C
:1015C0007A70864208F101080BDB96FBF0F33033AA
:1015D00002F8083096FBF0F308F1010800FB1366EF
:1015E00001E0642E0CDB642096FBF0F3303302F84C
:1015F000083096FBF0F308F1010800FB136601E0E8
:101600000A2E06DB96FBF1F0303002F8080008F1F4
:10161000010896FBF1F001FB1060303002F8080081
:10162000A16908F1010808EB050202EB0A00081A9B
:10163000A0612078C00602D42046FEF7B7FF216AD9
:1016400008AE01EB0A00206204E0D4E9012116F89B
:10165000010B9047BAF1010AF7D22078C00602D5F3
:101660002046FEF7A3FF6E4609E016F8010B3E2860
:101670000FD0D4E901219047206A401C2062B8F1C4
:101680000108F2D22046FEF7A7FF09B00320BDE80B
:10169000F08F206A2844206203E0D4E90121302041
:1016A00090476D1EEBD3F8E7A55A000002FCFFFF40
:1016B00010B5436913B1AFF3008001E0FFF7F8FA0A
:1016C000012010BD128800F1240182840022C2840E
:1016D0000122EDE711684FF0FF32E9E770B51646D9
:1016E0000C460546FEF796FE036893F801010128B3
:1016F00006D0FF2C0FD8185D68B101202C7070BD8A
:10170000D3F807013246214603F207130344284663
:10171000BDE8704018474FF0FF3070BD7546FFF7C9
:10172000EFFBAE4605006946534620F007008546AC
:1017300018B020B5FEF75CFEBDE820404FF0000673
:101740004FF000074FF000084FF0000B21F00701A9
:10175000AC46ACE8C009ACE8C009ACE8C009ACE8EC
:10176000C0098D46704700002DE9F0411F46044630
:1017700003260168072A01F4006004DB08B116A5FE
:1017800005E016A503E008B115A500E015A521F0B8
:1017900010002060A069C01EA0610FB1401EA061B2
:1017A0002046FEF703FF4FB1D4E9012138469047A8
:1017B000206A401C2062C01C206206E0206AFAE712
:1017C000D4E9012115F8010B9047761EF8D2204686
:1017D000FEF702FFBDE8F0814E414E006E616E00E3
:1017E000494E4600696E66002DE9F047814616466F
:1017F0008AB0354878440DC88DE80D0032487844E9
:10180000801C03AC0DC884E80D0041F69B300844F1
:10181000372190FBF1F290FBF1F5A5F1800501FB7A
:1018200012041B3C02D56442012000E00020DFF8D6
:1018300098A080460027FA44AAF1BE0A0EE0E0070D
:101840000AD03246684607EB470101230AEB8101C3
:1018500000F0D6FA8DE8070064107F1C002CEED152
:10186000194F7F44AE3F19E0E80715D007EB04108D
:101870000DF1180A90E80E008AE80E00C068F042E8
:1018800001D1981908903246012306A903A800F057
:10189000B7FA03AB83E807006D10641C002DE3D199
:1018A0004FF0010332466946B8F1000F03A802D099
:1018B00000F091FA01E000F0A3FAC9E90001C9F8CB
:1018C00008200AB0BDE8F087FC57000010B50446B8
:1018D000AFF300802046BDE81040FEF714BD5FEA7C
:1018E000400C08BF91F0000F4FEA8C234FEAC12251
:1018F00043EA51514FEA1C5018BF00F5F0404FEA3F
:10190000300018BF41F000415FEA6C5C00F02980B4
:10191000BCF1FF3F08BF40F080407047130C06BF8A
:1019200012044FF0100C4FF0000C130E04BF120203
:101930000CF1080C130F04BF12010CF1040C930FEF
:1019400004BF92000CF1020CD30F04BF52000CF143
:10195000010C11464FF00002A0F11F00A0EB0C009B
:10196000704711F0004F08BF704731F000413FF45D
:10197000D5AF0B0C06BF09044FF0100C4FF0000C54
:101980000B0E04BF09020CF1080C0B0F04BF090178
:101990000CF1040C8B0F04BF89000CF1020CCB0F6F
:1019A00004BF49000CF1010CCCF12003A0EB0C00AA
:1019B00022FA03F302FA0CF241EA030100F10100FA
:1019C000704720F07F4C80EA030023F07F47ACEBA8
:1019D000070303F57C5300F0004003F1FF032DE9FA
:1019E00080494FEA154B09B44FEA144325EA0B4EE0
:1019F00024EA03480FF2042606EB132749083E7831
:101A00005FEA320203FB0667C7F5000707FB06F62D
:101A10004FEA54374FEAD64606F1020607FB066C3A
:101A2000CCF1005C4FEA1C472CEA074C07FB06F49C
:101A30000CFB06F504EB15464FEA961634BF002062
:101A40004FF000404FEAD13706FB07FC4FEA1C4C31
:101A50000CFB0BF7D21B03FB0CF761EB07010CFB34
:101A60000EF7B0EB074072EB17420CFB08F734BFE0
:101A7000A2EB0742B2EB074261EB17414FEA0C447D
:101A80004FEA910706FB07FC4FEA1C4C0CFB0BF7D7
:101A9000B0EBC74072EB573203FB0CF734BFA2EB3D
:101AA000C742B2EBC74261EB57310CFB0EF7B0EB0C
:101AB000C70072EB57720CFB08F734BFA2EBC702EA
:101AC000B2EBC70261EB5771039F4FEA816141EAB4
:101AD000921104EBCC044FEAD1374FEA826206FB45
:101AE00007FC42EA90124FEA80604FEA1C4C0CFB64
:101AF0000BF7D21B03FB0CF761EB07010CFB0EF796
:101B0000B0EB074072EB17420CFB08F734BFA2EBB7
:101B10000742B2EB074261EB17414FEA8C554FEA9F
:101B2000910704EB9C2406FB07FC4FEA1C4C0CFBC2
:101B30000BF7B0EBC74072EB573203FB0CF734BF27
:101B4000A2EBC742B2EBC74261EB57310CFB0EF779
:101B5000B0EBC70072EB57720CFB08F734BFA2EB77
:101B6000C702B2EBC70261EB577115EB4C254FEA88
:101B7000816141EA92114FEA82624FEAD13742EA2B
:101B8000901206FB07FC44F100044FEA80604FEA24
:101B90001C4C0CFB0BF7D21B03FB0CF761EB070192
:101BA0000CFB0EF7B0EB074072EB17420CFB08F78B
:101BB00034BFA2EB0742B2EB074261EB174115EBD2
:101BC0001C154FEA813141EA92414FEA823242EAE2
:101BD00090424FEA80304FEA0C7644F1000448EA24
:101BE00003434EEA0B484FF0000EB2EB080C71EBCA
:101BF000030724BF624639464EEB0E0E4FF0000B32
:101C00000018524149414BEB0B0BB2EB080C71EB46
:101C100003077BF1000B24BF624639464EEB0E0EE4
:101C20004FF0000B0018524149414BEB0B0BB2EB4C
:101C3000080C71EB03077BF1000B24BF62463946A9
:101C40004EEB0E0E51EA020718BF46F0010616EBE6
:101C50000E7655F1000254F1000103D5BDE889016B
:101C6000BDE80088BDE88901BDE80048B6195241C9
:101C700041EB0101A3F10103704780807F7E7D7CF1
:101C80007B7A7978777676757473727171706F6E0E
:101C90006E6D6C6C6B6A6A696868676666656464B9
:101CA000636362616160605F5F5E5E5D5D5C5C5B43
:101CB0005B5A5A59595858575756565555555454B2
:101CC000535352525251515050504F4F4F4E4E4D10
:101CD0004D4D4C4C4C4B4B4B4A4A4A49494948485C
:101CE000484747474746464645454544444444439C
:101CF00043434342424242414141002B9C4630D43F
:101D000077002BD01CB54FEA370703B44FF0100013
:101D10004FF01001BAF1000F06D0BCF1000FDCBF8C
:101D200040F0080040F008014FF000000FBCBDE893
:101D300010400BF1010BBBF1010F08BF5FEA170761
:101D400022BF12F1010211F101014FF0004143F1F4
:101D5000000300F0004043EA00007047F9D3570841
:101D6000D0E746EA064613F1400F4FEA16461FDD5C
:101D700013F1200FDFBF16430A46002120335B42D8
:101D8000BED0C3F1200746EA064602FA07F74FEA3B
:101D9000164646EA0706C3F1200722FA03F201FAC3
:101DA00007F721FA03F14FF0000342EA0702A7E721
:101DB00046EA020646EA06464FEA164646EA0106A3
:101DC000BCBF46EA0646360C4FF000034FF0000257
:101DD0004FF0000194E72DE9804C9A46934670B489
:101DE00091E8380007C831EA400C48BF34EA430C98
:101DF00003D5FFF7E6FDFFF780FFF0BCBDE8008CE0
:101E00002DE9804C9A46934670B491E8380007C893
:101E100010F0804F08BF13F0804F03D100F005F899
:101E2000FFF76BFFF0BCBDE8008C20F07F4780EA35
:101E3000030023F07F4C07EB0C03A3F57C5300F069
:101E40000040A3F1FE0392F0000F00F0B38095F084
:101E5000000F00F077802DE901494FEA11404FEA69
:101E6000144621EA004800FB06FC24EA064708FB6A
:101E700006F607FB08F800FB07F718EB06484CEBE3
:101E8000164C4FEA124B18EB07484FEA15464CEB3D
:101E9000174022EA0B4E0BFB06FC25EA06470EFB19
:101EA00006F607FB0EFE0BFB07F71EEB064E4CEB90
:101EB000164C4FF000061EEB074E4CEB174B18EB81
:101EC0000B0840F1000018EB0E0B58EB000840F136
:101ED00000008F1A4FF000013CBFC943661B14BFBE
:101EE000B5EB040C00213CBFC943F61B4FEA174475
:101EF0004EEA8E0E27EA04454FEA1C4704FB0762B0
:101F00002CEA074C05FB07F70CFB05F604FB0CFC61
:101F100016EB074642EB174216EB0C4642EB1C420F
:101F20001BEB060658EB0202414146EA9E0601D52C
:101F3000BDE80189B619524141EB0101A3F101034A
:101F4000BDE801894FEA14454FEA114724EA0546E6
:101F500021EA074C05FB07F406FB07F70CFB06F12B
:101F600005FB0CFC11EB074144EB17444FEA124709
:101F700011EB0C4144EB1C4422EA074C05FB07F231
:101F800006FB07F70CFB06F605FB0CFC16EB0746F9
:101F900042EB174216EB0C4642EB1C456A1854F113
:101FA000000148BF7047B619524141EB0101A3F14E
:101FB0000103704795F0000F37D04FEA11424FEA06
:101FC000144721EA024624EA074C02FB07F106FB0C
:101FD00007F70CFB06F402FB0CFC14EB074441EB87
:101FE00017414FEA154714EB0C4441EB1C4125EA1D
:101FF000074C02FB07F506FB07F70CFB06F602FB96
:102000000CFC16EB074645EB174516EB0C4645EB6B
:102010001C42121951F1000148BF7047B6195241D4
:1020200041EB0101A3F1010370474FEA14454FEA68
:10203000114724EA054621EA074C05FB07F106FB98
:1020400007F70CFB06F24FF0000605FB0CFC12EB49
:10205000074241EB174112EB0C4251EB1C4148BFC8
:102060007047921841EB0101A3F101037047FEE7AD
:1020700008B5044801210090002303A2881E01F046
:10208000AFFA08BDF16E00081B5B33316D452825A2
:1020900064292025733A1B5B33396D2070635F75AB
:1020A0006172745F73656D6170686F7265206372D1
:1020B000656174206661696C65640D0A000000004A
:1020C000704772B6FEE700002DE9F84FDFF89C91EB
:1020D0000022A9F1040B03274FF00F0C09F1040AA9
:1020E000ABF1040E01250B6895402B40AB426ED13D
:1020F0000C7904F00304012C01D0022C15D1866860
:10210000540007FA04F826EA0806D1F80C8008FA09
:1021100004F848EA0608C0F808804468AC430D7922
:10212000C5F300159540254345600C79E443A407A9
:1021300008D0C568540007FA04F6B5438E68A64077
:102140002E43C6600C7904F00304022C11D1D4088C
:1021500000EB8406356A5407E40E0CFA04F825EA0D
:102160000805D1F8108008FA04F848EA0508C6F80E
:1021700020800568540007FA04F6B5430E7906F08E
:102180000306A6402E4306604C6814F4403F66D018
:10219000374C256845F480452560246822F0030506
:1021A00004F480440094334C05EB0408D8F8085834
:1021B0009407260F0CFA06F4A5432F4CA04201D138
:1021C000002424E02D4CA04202D101241FE046E06F
:1021D0002B4CA04201D1022419E02A4CA04201D18B
:1021E000032414E0284CA04201D104240FE0274C22
:1021F000A04201D105240AE0254CA04201D10624C9
:1022000005E0244CA04201D1072400E00824B4409A
:102210002C43C8F80848D9F800404D464E689C4306
:10222000F60200D51C432C60DAF8004055464E6893
:102230009C43B60200D51C432C60DBF800405D4691
:102240004E689C43B60300D51C432C60DEF800406A
:1022500075464E689C43F60300D51C432C60521C07
:10226000102AFFF43FAFBDE8F88F0000083C0140A2
:1022700044380240003001400000024000040240A7
:1022800000080240000C024000100240001402400E
:1022900000180240001C02400AB181617047090425
:1022A000FBE7000001488068704700000400002040
:1022B0000248816802781144816070470400002060
:1022C0000B4810B5016841F400710160016841F4E8
:1022D00080610160016841F480710160032000F0B9
:1022E0008DF80F2000F006F800F03EF8002010BD39
:1022F000003C024010B5014688B00022192000F0D1
:102300005DF8192000F04CF813480024016841F4EE
:1023100000310160006805A900F4003006906846AD
:1023200000F018F900F046F90C494000B0FBF1F15B
:102330000C480B4A491E026040F2E732C0E9032410
:10234000C0E9011400F024FB10B1012008B010BD59
:10235000044800F04BFBF9E74438024040420F00CC
:1023600000440140900100200C4882B0016841F413
:1023700080410160006800F4804000900748001F21
:10238000016841F0805101600068002200F0805037
:1023900000900F21901E02B000F010B844380240A7
:1023A000002809DB00F01F02012191404009800054
:1023B00000F1E020C0F8001170470000F0B40E4BAF
:1023C0001B68C3F30223C3F10704042C00D90424BF
:1023D0001D1D072D01D2002300E0DB1E012606FA99
:1023E00004F56D1E0D409D409E40761E164045EA48
:1023F0000601F0BC00F045BF0CED00E0064A00F01D
:10240000070110684FF6FF03184040EA0120034916
:1024100008431060704700000CED00E00000FA0572
:102420002DE9F0470D46040065D0DFF81491D9F886
:102430000000EFB200F00700A84207D289F8007050
:10244000D9F8000000F00700A84254D120683D4EA2
:10245000810712D5400703D5306840F4E050306062
:102460002078000703D5306840F460403060306861
:10247000A16820F0F000084330602078C0072DD01C
:10248000304960680839012812D0022813D0032887
:1024900011D00968890700292DDA316821F003017C
:1024A00001433160FFF7FEFE804641F2883A0EE0BC
:1024B00009688903EFE709688901ECE7FFF7F2FE95
:1024C000A0EB0801514502D90320BDE8F087306830
:1024D000616800F00C00B0EB810FEFD1D9F800106B
:1024E000484601F00701A94207D90770006800F0CB
:1024F0000700A84201D00120E7E72078400705D572
:102500003068E16820F4E05008433060207800072C
:1025100006D53068216920F4604040EAC10030608F
:1025200000F058F83168084AC1F30311515CC84003
:102530000649086006480068FFF7DCFE0020C4E793
:10254000003C024008380240486D0008100000209E
:10255000080000200F2202600C4A136803F00303F6
:102560004360136803F0F0038360136803F4E053DF
:10257000C36012684FF4E05303EAD20202610448D8
:10258000006800F00700086070470000083802404B
:10259000003C02400448054900680968044AC1F348
:1025A0008221515CC840704710000020083802406A
:1025B000586D00080448054900680968044AC1F3D9
:1025C0004231515CC840704710000020083802407A
:1025D000586D0008154810B5006810F00C0114483B
:1025E00013D0431004290FD008290ED10F4C241FFB
:1025F000216801F03F022168490207D52068C0F335
:102600008810A0FB030106E0184610BD2168C1F345
:102610008811A1FB00010023FDF704FF2168C1F32D
:102620000141491C4900B0FBF1F010BD08380240DF
:102630000024F4002DE9F84F040075D02078DFF86D
:1026400038A3C007AAF1040548D00AF104000168C4
:10265000C1F38101012908D00068C0F3810002287C
:102660000AD1DAF80000400206D52868800335D583
:1026700060680028E1D031E06068B0F5803F10D09C
:10268000B0F5A02F286810D020F48030286028688A
:1026900020F4802028606068A0B1FFF703FE0646A2
:1026A0000CE0286840F48030F4E740F48020286093
:1026B000F7E7FFF7F7FD801B642871D828688003CF
:1026C000F7D50BE0FFF7EEFD064604E0FFF7EAFD65
:1026D000801B6428F1D828688003F7D42078DFF8BD
:1026E0009C9280074FF0000B3DD5A348001D016868
:1026F00011F00C0F08D00068C0F3810002280AD145
:10270000DAF80000400206D42868800715D5E06892
:10271000012809D111E0E068B8B10120C9F8000032
:10272000FFF7C0FD064605E022E1FFF7BBFD801B79
:102730000228C2D828688007F7D52868216920F0C8
:10274000F80040EAC10028600DE0C9F800B0FFF7CA
:10275000A9FD064604E0FFF7A5FD801B02281FD84F
:1027600028688007F7D42078000722D5824F844854
:102770006169703771B101210160FFF793FD064671
:1027800004E0FFF78FFD801B022809D83868800716
:10279000F7D50EE0C0F800B0FFF784FD064605E06F
:1027A00082E0FFF77FFD801B02287DD83868800714
:1027B000F7D42078400765D56F484FF000083C30CB
:1027C0000068C0000BD46C483C30016841F0805177
:1027D000016000684FF0010800F080500090694FE0
:1027E0003868C0050FD4386840F480703860FFF74F
:1027F00059FD064604E0FFF755FD801B022853D81B
:102800003868C005F7D55C4FA0686C3701280FD039
:102810000528386810D020F001003860386820F0B2
:1028200004003860A068B0B1FFF73CFD06460EE03A
:10283000386840F00100F4E740F004003860F7E742
:10284000FFF730FD811B41F28830814263D8386840
:102850008007F5D50DE0FFF725FD064606E0FFF7FA
:1028600021FD811B41F28830814254D838688007AD
:10287000F5D4B8F1000F05D03F483C30016821F095
:1028800080510160A069B8B33B49091D0968C1F3D3
:102890008101022946D00228584606D0C9F86000B6
:1028A000FFF700FD044639E035E04F46C9F8600007
:1028B000FFF7F8FC064604E0FFF7F4FC801B022853
:1028C00029D828688001F7D4D4E907010843A16A10
:1028D0002D4A490802EB0141626A41EA821108432C
:1028E00094F82C1040EA0161CAF800100120386603
:1028F000FFF7D8FC044605E03CE0FFF7D3FC001BE3
:10290000022808D828688001F7D533E0FFF7CAFC11
:10291000001B022802D90320BDE8F88F2868800137
:10292000F4D427E00128F7D0DAF80000E26900F4D7
:10293000800191421CD1226A00F03F01914217D1DF
:1029400047F6C071626A0140B1EB821F10D1A26AE2
:102950004FF0FF3300F4403103EB5202B1EB024F72
:1029600006D194F82C1000F07060B0EB016F01D02C
:102970000120D1E70020CFE70438024000004742A1
:10298000800E4742007000400000FFFF7047704714
:1029900010B5040003D094F83D0010B107E0012009
:1029A00010BD002084F83C00204600F01EF80220F4
:1029B00084F83D00211D206800F012FB012084F8FE
:1029C000460084F83E0084F83F0084F8400084F814
:1029D000410084F8420084F8430084F8440084F8FD
:1029E000450084F83D00002010BD704790F83D1070
:1029F000012901D001207047022180F83D100168B3
:102A0000CA6842F00102CA6000681149884214D0C5
:102A1000B0F1804F11D00F4988420ED00E49884244
:102A20000BD00E49884208D00D49884205D00D4987
:102A3000884202D00C49884204D1816801F0070124
:102A4000062903D0016841F00101016000207047B0
:102A5000000001400004004000080040000C00405D
:102A6000000401400040014000180040704770B56C
:102A70000446006801694FF00005C943890715D471
:102A8000C168C943890711D4E91E0161012020777B
:102A9000206880698007204602D0FFF7E7FF04E046
:102AA00000F098F8204600F096F825772068016934
:102AB000C943490717D4C168C943490713D46FF004
:102AC00004010161022020772068806910F4407FB2
:102AD000204602D0FFF7CAFF04E000F07BF8204652
:102AE00000F079F8257720680169C943090716D4F1
:102AF000C168C943090712D46FF0080101610420BD
:102B000020772068C0698007204602D0FFF7AEFF1B
:102B100004E000F05FF8204600F05DF825772068BB
:102B20000169C943C90617D4C168C943C90613D48A
:102B30006FF010010161082020772068C06910F44F
:102B4000407F204602D0FFF791FF04E000F042F8FA
:102B5000204600F040F8257720680169C943C9077D
:102B600008D1C168C943C90704D1891E0161204643
:102B700000F032F820680169C943090609D4C16828
:102B8000C943090605D46FF0800101612046FFF7B3
:102B9000FDFE20680169C943490609D4C168C943DB
:102BA000490605D46FF040010161204600F01EF88F
:102BB00020680169C94389060BD4C168C9438906E5
:102BC00007D46FF0200101612046BDE87040FFF797
:102BD000DEBE70BD7047704700680349884201D16E
:102BE000FFF766BB7047000000440140704770B5B6
:102BF000040004D094F83D00002510B106E0012047
:102C000070BD84F83C50204600F022F8242084F85F
:102C10003D002068C16821F40051C160204600F0E9
:102C20004FFA2068016921F49041016120684169EF
:102C300021F02A0141612068C16841F40051C1605E
:102C40002564202084F83D0084F83E00002070BDFB
:102C500010B586B0044614216846FDF7F8FE184901
:102C60002068884229D117480021026842F01002EA
:102C70000260006800F010000590124814380268E5
:102C800042F001020260006800F0010005904FF47C
:102C9000C06000900220CDE90101032003900720CD
:102CA000049069460848FFF70FFA00220521252005
:102CB000FFF784FB2520FFF773FB06B010BD000073
:102CC00000100140443802400000024038B50A4973
:102CD00088420FD10068016889060BD54068074C0F
:102CE0008DF8000004F13000694602F009FD216C06
:102CF000A06C884738BD00004C010020FC0000207B
:102D00002DE9F843044690F83D001F4615460E464F
:102D100020284BD1C6B1BDB194F83C00012845D064
:102D2000012084F83C004FF00008C4F840802120C6
:102D300084F83D00FFF7B6FAA5848146E584A068D3
:102D4000B0F5805F03D004E00120BDE8F88320697E
:102D500020B13546002684F83C800EE00025FAE7D5
:102D60008021204600F032FAA0B9ADB115F8010B70
:102D700021684860E08C401EE084E08C4B464FF0B8
:102D8000000200970028EBD14FF04001204600F0F0
:102D90001DFA30B10320D8E736F8020BC0F3080063
:102DA000E6E7202084F83D000020CEE70220CCE7B3
:102DB000FEE7000010B5054A0021054800F074FD4B
:102DC00004490860BDE8104002F0CABC246D000848
:102DD000DD2E0008000000202DE9F04186B014210E
:102DE0006846FDF734FE2A480024016841F01001CE
:102DF0000160016801F010010591016841F00401D2
:102E00000160016801F004010591016841F0800151
:102E10000160016801F080010591016841F0010144
:102E200001600068DFF86C8000F00100059000226E
:102E300060214046FFF730FA174F4FF4005600224A
:102E400031463846FFF728FA602000900125CDE989
:102E50000154694640460394FFF736F90096CDE9E0
:102E60000154694638460394FFF72EF90220009575
:102E7000CDE9014069460948FFF726F903208DE8AE
:102E8000310069464046FFF71FF906B0BDE8F08102
:102E900030380240001002400008024000000240AA
:102EA0000C4810B50A4901604FF4E131416000213E
:102EB00081600C22C160C0E904128161C161FFF729
:102EC00096FE002803D0BDE81040FFF7FAB810BD09
:102ED000001001404C010020FEE7FEE700231A46E7
:102EE00019460A4800F024FD094E04464FF47A754D
:102EF000284600F0F5FB002220213046FFF7CCF9F0
:102F00000F21204600F050FDF2E70000395700087D
:102F10000010024010B54FF0E020006903F0ACFC57
:102F2000012803D0BDE8104002F0D2BF10BD000060
:102F300030B593B030216846FDF789FD14210CA807
:102F4000FDF785FD1D480025016841F080510160B5
:102F5000006800F0805011901948016841F48041E8
:102F600001600068022400F480401190012000906C
:102F7000000401908001CDE9064008200890A020BF
:102F8000CDE9090404200B906846FFF753FB08B114
:102F900072B6FEE70CA90F2081E831004FF4A05073
:102FA0000F904FF48050109002210CA8FFF738FAD0
:102FB000002801D072B6FEE713B030BD40380240A1
:102FC000007000400248016841F4700101607047E0
:102FD00088ED00E00148FFF74ABD000090010020A5
:102FE000F0B50268254D264E264FDFF89CC0274BD2
:102FF0004FF0804EA84209D0704507D0B04205D0AE
:10300000B84203D0604501D0984203D122F0700449
:103010004A682243A8421BD0704519D0B04217D04D
:10302000B84215D0604513D0984211D0184CA04238
:103030000ED0184CA0420BD0174CA04208D0174C11
:10304000A04205D0164CA04202D0164CA04203D19B
:1030500022F44074CA6822434C6922F08002224361
:1030600002608A68C2620A688262A84201D09842FD
:1030700001D10969016301214161F0BD00000140F6
:103080000004004000080040000C00400004014023
:103090000040014000440140004801400018004049
:1030A000001C00400020004010B501F013F900287A
:1030B00005D0D0E90012BDE810401046084710BD09
:1030C00070B5044600680169E26821F4405111437B
:1030D0000161A1682069E26901436069104301430D
:1030E0002068C26849F20C639A430A43C2602068B0
:1030F0004169A26921F4407111434161314920685D
:10310000884202D03049884202D1FFF753FA01E0E9
:10311000FFF740FAE2690023192164253226B2F54F
:10312000004F626828D0A0FB0101930F9200FDF7C9
:1031300079F90146B0FBF5F06FF01802504301EB4E
:10314000800006EB0010B0FBF5F000F0F002B1FBE0
:10315000F5F002EB0012B1FBF5F06FF018035843E5
:1031600001EB800006EB0010B0FBF5F000F00F0063
:1031700021681044886070BDA0FB010192185B417A
:10318000FDF750F90146B0FBF5F00201B1FBF5F097
:103190006FF01803584301EB800006EBC000B0FB52
:1031A000F5F000F0F80002EB4002B1FBF5F05843F7
:1031B00001EB800006EBC000B0FBF5F000F007006B
:1031C000D6E7000000100140001401402DE9F04155
:1031D0001E46174688460446069D26E0681C24D0F5
:1031E00025B1FFF75FF8801BA8421ED920680C307C
:1031F00050E8001F21F4D07140E80012002AF5D1F8
:103200002068143050E8001F21F0010140E800124E
:10321000002AF5D1202084F83D0084F83E000020EB
:1032200084F83C000320BDE8F0812068016838EA9A
:10323000010004D00020B842D0D00020F3E70120E4
:10324000F9E700000148FFF741BD00004C010020F4
:10325000FEE703B401984100009850EAC12018BF6E
:1032600004204A0D18BF40F0010040F2FF72B2EB9B
:10327000515F08BF40F00200012808BF052002B0DE
:1032800070470907090E002804DB00F1E02080F8F0
:103290000014704700F00F0000F1E02080F8141DCA
:1032A000704730380A2801D201207047002070474B
:1032B00070B50C46054601F0EDFA6FF0010101F022
:1032C00091F823462A46BDE87040002100F056B828
:1032D00010B5044601F0DEFA6FF0010101F082F84A
:1032E000E1B2BDE8104000F01DB9000070B50B4917
:1032F00000EB800001EB001505F13004204602F0E0
:10330000E7F9002809D1204602F0CEF9696C00786F
:103310008847204602F0E6F9F0E770BDFC00002087
:103320001FB5064BCDE90212CDE900300321002381
:1033300003A2081F00F054F91FBD0000026F00082F
:103340001B5B33326D49282564292025733A1B5BAA
:1033500033396D20696E70757420696E743A20255A
:10336000642C20636861723A2025632C2073747288
:10337000696E673A2025730D0A0D0A002DE9FF4F8B
:1033800083B01F0016464FF000047DD00398401C08
:1033900004D0039841790498814275D3424813467A
:1033A000CDE9007041A2FF214848FDF7E3F803B2E0
:1033B000DDE90301454A00F029F926F00F05B8467A
:1033C000701B40440F3020F00F09DFF800A14FF0D0
:1033D000200B62E00AEB04002A463DA1FDF7B4F899
:1033E00004440027E819B04203D306EB08018842E1
:1033F00009D30AF804B0641C0AF804B0641C0AF883
:1034000004B0641C06E0EA5D0AEB040035A1FDF798
:103410009BF804447F1C102FE4DB7C210AF8041085
:10342000641C00270AF804B0641CE819B04203D3F6
:1034300006EB0801884202D30AF804B00EE0EA5D08
:10344000A2F120005E2806D80AEB040027A1FDF7B0
:103450007BF8044403E02E210AF80410641C7F1C4E
:10346000102FE2DB0AF804B0641C7C210AF8041077
:10347000641C0D210AF80410641C0A210AF80410C7
:10348000641C23B2114A00E00AE0DDE9030100F008
:10349000BDF80024A9F110091035B9F1000F99D138
:1034A00007B0BDE8F08F0000BC7200086D656D6F5D
:1034B0007279206F66203078253038782C20736937
:1034C0007A653A2025643A0D0A257300584D00208C
:1034D0001B5B33316D3078253038783A201B5B33F5
:1034E000396D00002530327820000000256300008F
:1034F00010B50B00044606D002466FF001011846D5
:10350000A36000F05BFF0649002051F8202022B1A3
:10351000401C00B20528F8DB10BD41F8204010BD6A
:10352000444D00200EB508B141710EBD0A488522F8
:1035300004A18DE807000121002308A2881E00F0E5
:103540004FF80EBD2E2E5C7368656C6C5C6C6F67FB
:103550005C6C6F672E630000B96E00081B5B333133
:103560006D45282564292025733A1B5B33396D206E
:10357000226C6F67222061737365727420666169C3
:103580006C65642061742066696C653A2025732C33
:10359000206C696E653A2025640D0A0010B56FF045
:1035A000010100F01FFF00280ED04179062901D348
:1035B000002100E0491CCBB243710021BDE810405E
:1035C00002A2481E00F00CB810BD00007365742004
:1035D0006C6F67206C6576656C3A2025640D0A0077
:1035E0000FB470B50C46054607ABFF210648069A96
:1035F000FCF790FF03B2044A2146284600F006F883
:1036000070BC5DF814FB0000584D00202DE9F0411E
:103610000D461F46411C0DD000281ED001790029FF
:103620001BD04179A94218D30268BDE8F041194680
:103630000B4810470A4E0024143E56F8240040B1AF
:10364000017931B14179A94203D30268394604486E
:103650009047641C24B2052CEFDBBDE8F08100002C
:10366000584D002000210148FFF742BF9C00002078
:10367000FEF726FEFFF75CFCFFF7AEFBFFF710FC42
:10368000012251030748FEF707FE012240210648A8
:10369000FEF702FE00F032F8FFF78CFB00F040F876
:1036A000FEE70000000802400010024010B500EBE9
:1036B00080040A4800EB041404F130002264C4E9D9
:1036C000113121460123302201F0FBFFE06C00683C
:1036D000C16841F02001C16010BD0000FC00002065
:1036E00010B5EFF3058111B16FF0050403E000247C
:1036F00008B102F047FA204610BD0000EFF3058044
:1037000010B16FF0050070470448016811B14FF027
:10371000FF307047012101600020704764000020E5
:1037200010B5EFF3058010B16FF0050010BD08482B
:103730000168012902D04FF0FF3010BD054A002179
:1037400082F8141D0221016002F0CCFA002010BDA5
:10375000640000200BE000E0F8B50024221F561C96
:103760000D46002803D0EFF30581A1B10DB1144639
:103770001BE000216A46009102F0BAFE012813D135
:10378000009890B10A494FF080500860BFF34F8F06
:10379000BFF36F8F09E0294602F0F8FE012804D03C
:1037A00015B16FF0010400E034462046F8BD00007A
:1037B00004ED00E0F8B514460E464FF00005EFF3B7
:1037C000058191BB88B3864242D86A1E44B1A16884
:1037D0000029E16803D0502903D3012201E001B997
:1037E0000022511C34D0012809D0012A27D03146AB
:1037F00002F084FB05002BD034B3216825E0012AB8
:1038000014D003220021012002F0C0FB05001FD0CC
:10381000002EF1D000231A46194602F04FFC012871
:10382000EAD0284602F060F9002511E0032000905C
:10383000002211460120A36802F0C9FBE6E73146E9
:10384000A26802F078FBD5E70021284602F03AF999
:103850002846F8BD38B50024E51E00280AD0EFF34D
:103860000581A9B100210091694602F038FD0128C7
:1038700015D102E06FF0030412E0009880B109490D
:103880004FF080500860BFF34F8FBFF36F8F07E09A
:1038900000231A46194602F011FC012800D02C46DC
:1038A000204638BD04ED00E02DE9FF410B464FF006
:1038B0000005EFF30581039549BB40B3802618212D
:1038C00000244AB3176807B13C46976907B13946E7
:1038D0004F1E382F02D21779FF0703D0002004B003
:1038E000BDE8F081576907B1BE08D2F808C0BCF145
:1038F000000F0DD0D5685C2D18D312693AB137B1DD
:103900008DE806103246214602F083FF03900DE059
:10391000D7685FB912694AB903AACDE90012B2B2F9
:10392000214602F049FF012800D003950398D6E70D
:103930002DE9FC471C469046894607464FF0000695
:10394000EFF3058058BB57B3082000F049FC050091
:1039500025D0C5E90078B9F1000F12D00122114B32
:10396000002094B1216801B10846A16859B1E4680A
:103970002C2C11D3CDE900312B46012103F022F983
:1039800008E00022EBE7E16831B900932B46012102
:1039900003F0FEF8060002D1284602F025F8304672
:1039A000BDE8FC87A930000808B5EFF3058313B123
:1039B0006FF0050008BD50B100230A4604210093B2
:1039C00003F048F9012805D06FF0020008BD6FF040
:1039D000030008BD002008BD10B50146024800F0F4
:1039E0008DFF002010BD0000AC4A0020FFF732BF61
:1039F0002DE9F041134E0F460446F5683068001D6E
:103A000001F062FF601C07D137B13168BDE8F041B9
:103A10000D48091D01F0A8BF30682C44AC42446039
:103A2000316805D2B06BBDE8F041091D01F084BFDB
:103A3000706B091D01F080FFB06A844200D2B4624D
:103A4000BDE8F08114000020C80600202DE9F041F7
:103A5000054601F095FF2D4EB068401CB0603068FF
:103A60002B4F10B1706930B32BE03560B06801287E
:103A700027D1002404EB840007EB800001F04EFF07
:103A8000641C382CF6D3234801F048FF2148143039
:103A900001F044FF1F48283001F040FF1D483C3032
:103AA00001F03CFF1B48503001F038FF19487063AB
:103AB0001430B06305E03068E96AC06A884200D813
:103AC0003560706A401C70626864E86A31698842D7
:103AD00000D9306100EB800007EB8000291D01F068
:103AE00043FF01F06DFF706900280CD03068E96A6F
:103AF000C06A884207D208494FF080500860BFF37F
:103B00004F8FBFF36F8FBDE8F081000014000020DD
:103B1000180200207806002004ED00E038B501F01E
:103B20002FFF104C2068C8B90F4801F0F7FE0E486F
:103B3000143001F0F3FE0C48E060143020610A4BB1
:103B40000020F03B009003F1500210210A2002F007
:103B50003EFA206010B105A101F0B4FFBDE8384085
:103B600001F02EBF50000020CC070020546D725190
:103B70000000000030B4026C0B46002A0BD0C16874
:103B80001144C1608468A14201D30168C16030BCA6
:103B90001846FCF70FBF30BC70472DE9F041856B2C
:103BA000174604460026026C82B1C7B1E068FCF7F4
:103BB00001FFE168206C091AE1602268914202D29B
:103BC000A168081AE060022F16D017E02068A8B993
:103BD000A06802F0C9FE06460020A0600EE0606802
:103BE000FCF7E8FE216C606808446060A1688842C8
:103BF00004D32068606001E005B16D1E6D1CA563F3
:103C00003046BDE8F08110B5044690F8590058B12F
:103C100001280CD002280FD0502080F31188BFF368
:103C20004F8FBFF36F8FFEE7206B01F0DDFE204664
:103C3000BDE8104001F0D8BE10BD000010484FF4A0
:103C40007051420706D0C01D0D4920F00700411AEF
:103C5000C1F570510B4A00230144C2E90003083941
:103C6000183A21F0070111604B600B600B1AC0E994
:103C7000001393604FF000405360506170470000A4
:103C8000AC0E002080000020134E144DA6F29C477D
:103C90004FF08058DFF8489011E001F071FEF068B5
:103CA000C468201D01F010FEA868401EA860686866
:103CB000401E686001F084FE2046FFF7A4FF68689C
:103CC0000028EAD138680128F9D9C9F80080BFF383
:103CD0004F8FBFF36F8FF2E7B4060020140000206F
:103CE00004ED00E0002807D00021816001600B4650
:103CF0000A46C16002F0E2B9704770B51D46049CE7
:103D000049B12260C4E90F010121204602F092F975
:103D100084F84C5070BD2460F4E72DE9F05F0E4646
:103D2000DDE90B941746834691009A460A9DA52229
:103D3000206BFCF784FE6FF00301206B01EB870121
:103D4000084420F00707780707D0502080F3118837
:103D5000BFF34F8FBFF36F8FFEE74FF0000866B1E0
:103D600000202218315C82F83410315C11B1401C03
:103D70001028F6D384F8438001E084F83480382D8D
:103D800000D33725E562C4E91358201D01F0D1FDA9
:103D900004F1180001F0CDFD2461C5F13800646222
:103DA000A061C4F8548084F8588052465946384679
:103DB00000F0A2FA2060B9F1000F01D0C9F800406C
:103DC000BDE8F09F2DE9F0471F46DDE9089416464F
:103DD0000D00804615D0002C11D0FFF79FFE04F196
:103DE0001801C4F8008081E8A002201D01F0A1FDA7
:103DF000002E04D014F8280F40F004002070BDE815
:103E0000F087502080F31188BFF34F8FBFF36F8F7F
:103E1000FEE7000030B5114900E011460A68824211
:103E2000FBD34B685C18844203D140681844486057
:103E3000084643681C18944209D1084C183C246871
:103E4000A24209D052681A4442600A6812680260AD
:103E5000814200D0086030BD0460F9E78000002096
:103E600070B5002441600B4D0061914206D8D11A13
:103E70008269914206D2011D286907E09A4203D265
:103E8000994201D3012403E0011DE86801F054FDCB
:103E9000204670BD5000002010B5044601F070FDB2
:103EA000A06B20B1002401F08BFD204610BD012441
:103EB000F9E7000030B587B03C4D6EE0019800286E
:103EC00006DADDE90301029A90470198002864DBD5
:103ED000039C606910B1201D01F0F6FC05A800F0FC
:103EE000D7F8024601980A2857D2DFE800F0050506
:103EF000052D334A05052D3394F8280040F00100C4
:103F000084F828000298A169034601442046FFF77F
:103F1000A7FF68B3216A2046884794F82800400725
:103F20003BD5002000900298A16900234218194651
:103F3000204602F08FFED8B9502080F31188BFF3DD
:103F40004F8FBFF36F8FFEE714F8280F20F00100AA
:103F5000207022E094F8280040F0010084F8280046
:103F60000298A06128B1811813462046FFF778FF18
:103F700013E0502080F31188BFF34F8FBFF36F8F92
:103F8000FEE794F82800810703D4204601F02CFDB9
:103F900003E020F0010084F82800002201A928682D
:103FA00002F00AFA002889D107B030BD5000002085
:103FB0002DE9FC410F46054601F0D6FE01A800F0B0
:103FC00067F80446019818B102F082FDBDE8FC8153
:103FD000254EAFB130690068D0B30027291B3A469F
:103FE000306801F0ADFD02F073FD0028EED11F49ED
:103FF0004FF080500860BFF34F8FBFF36F8FE5E73E
:10400000A542EBD802F064FDF0682746C068C4689A
:10401000201D01F059FC94F82800410719D5A0692A
:104020002B4641193A462046FFF71AFFA8B1002057
:104030000346014600902A46204602F00BFE60B976
:10404000502080F31188BFF34F8FBFF36F8FFEE7CF
:1040500007E020F0010084F82800216A2046884704
:10406000B4E70127BAE700005000002004ED00E0AB
:104070000648416B096829B1416BC968C96849683C
:10408000816270474FF0FF31FAE700001400002012
:1040900070B5054602F0FEFB064E0446B068844249
:1040A00003D200F009F8012000E00020286020463B
:1040B000B46070BD50000020F8B5194E20E0C06813
:1040C000C4680568201D01F0FFFB216A204688476F
:1040D00094F82800400713D5A0692844A84206D9BF
:1040E00024616060211DF06801F026FC08E00020DA
:1040F0000346014600902A46204602F0ABFD38B147
:10410000F06801680029DAD13169C6E90310F8BD09
:10411000502080F31188BFF34F8FBFF36F8FFEE7FE
:104120005000002008484068401C4FF0500080F3C9
:10413000118804D0BFF34F8FBFF36F8FFEE7BFF33B
:104140004F8FBFF36F8FFEE788000020084CE068B8
:10415000016839B1002139B10020FFF729FFFFF7CD
:10416000A9FEF4E70121F6E7C0680068F5E7000062
:10417000500000202DE9F041044601F001FC94F9C3
:10418000455004F1240609E0606A48B1304602F067
:1041900067FC08B101F024FD6D1E6DB2002DF3DC4B
:1041A0004FF0FF3684F8456001F00AFC01F0E8FBAF
:1041B00094F9445004F1100709E0206948B13846E9
:1041C00002F04EFC08B101F00BFD6D1E6DB2002D2A
:1041D000F3DC84F84460BDE8F04101F0F1BB00007D
:1041E0002DE9F0410546002601F0BEFD324F38684A
:1041F00008B9FFF723FD786905424ED1C5B30835EC
:1042000068070ED005F00700C0F1080005446807F4
:1042100007D0502080F31188BFF34F8FBFF36F8F0B
:10422000FEE72DB37868854237D823491831084610
:10423000046801E0214604466068A84202D2206872
:104240000028F7D13868844227D00E6820680860BB
:1042500060680836411B10290FD96019420708D041
:10426000502080F31188BFF34F8FBFF36F8FFEE7AD
:1042700013E041606560FFF7CDFD61687868401A22
:104280007860BA68904200D2B86078690143002033
:10429000C4E90001F868401CF86002F019FC7007DE
:1042A00007D0502080F31188BFF34F8FBFF36F8F7B
:1042B000FEE73046BDE8F081680000200449086848
:1042C00018B10868026D521C02650868704700004A
:1042D0001400002010B5040006D001F051FBE46981
:1042E00001F06EFB204610BD502080F31188BFF313
:1042F0004F8FBFF36F8FFEE710B5031F4FF0807431
:104300001C601B1F21F001011960191F044B0B6079
:1043100014390A60091F6FF0020244380A6010BDA8
:1043200025410008012100F06EB80A784AB14B78A7
:1043300003F00F03082B04D003685BB11B781A420B
:1043400008D090F86400C00702D14878C00601D5B3
:10435000002070474FF0FF307047000010B500F0AC
:1043600099FA002805D00349896BBDE8104001F097
:1043700089B910BDA8000020F8B50546008A698AF1
:10438000401A04B2202607E08DF80060EA6E012191
:1043900068469047641E24B2002CF5DC297C284630
:1043A000BDE8F84000F09AB810B500F073FA0028A4
:1043B00003D0BDE8104000F07DBC10BD2DE9F041F8
:1043C0000446C56816460F460C20FFF709FF30B1BA
:1043D0000760C0E90165E0600020BDE8F0814FF0B2
:1043E000FF30FAE7002805D0C06805E002688A427D
:1043F00001D14068704780680028F7D170474FF0BE
:10440000FF31AFF30080F8B50446481C03D0002309
:10441000628A12B103E00123FAE701295CD0208A05
:10442000824201D14D1C57D00025824201D1012981
:1044300001D0184613E0521E401E628280B22082D4
:1044400061690D542046BDE8F840012100F046B8EE
:1044500062691144421E465C401C8E5400B2228A9E
:10446000618A521A8242F3DC208A401E208208268A
:1044700043B9608A401E60828DF80060E26E0121BF
:1044800068469047218A60694554B4F9125009E0A2
:1044900060690121405D8DF80000E26E684690473A
:1044A0006D1C2DB2208AA842F2DC20208DF800007D
:1044B000E26E012168469047208A618A401A401CBA
:1044C00005B207E08DF80060E26E01216846904772
:1044D0006D1E2DB2002DF5DCF8BD000070B50C4648
:1044E000054603E003A1284601F0CCF8641EE4B2BF
:1044F000F8D270BD082008004FF0FF3100F084BAF8
:1045000010B5044600F006F82046BDE81040012131
:1045100001F04AB870B50446008A002835D06169B8
:1045200000261E4D0E5494F86400C00721D020468A
:1045300000F0B6FA204600F0DBFC66822682608F2F
:10454000002822D016A1204601F09CF80023204626
:10455000E26DA16900F073FD010004D02046BDE8C2
:10456000704000F010BD2046A969BDE8704001F020
:1045700089B8206881686069FCF790FA30B1696B8E
:10458000204601F07FF82682668270BD94F86400B0
:1045900040F0010084F864002968F1E7A8000020D9
:1045A0000D0A0000411C00200A785C2A01D0104648
:1045B000704749786E290FD004DC3029F8D0622981
:1045C00004D105E0722905D0742907D00846704748
:1045D000082070470D2070470A2070470920704757
:1045E000F0B50746002239780A2601241046134602
:1045F0002D2900D1541E611C08D00021394400250A
:1046000091F800C0BCF1300F02D01CE00121F5E7A9
:104610004D78782D07D0582D05D0622D05D0422D2C
:1046200003D002250FE003250DE001250BE091F8F2
:1046300000C0BCF12E0F06D191F801C0BCF1000FF3
:1046400001D0042504E011F801CBBCF1000FEED13C
:10465000012D08D0022D03D0032D06D1102603E032
:104660000826012201E0022602223A44611C02D0FF
:1046700000210A441FE00121FBE72E2905D0A1F10A
:104680003007092F03D8F9B20FE0012312E0A1F19E
:104690006107052F01D8573904E0A1F14107052F23
:1046A00002D83739C9B200E0002100FB061003EB45
:1046B00083014B00521C11780029DED1042D13D147
:1046C00093B100EE100AB8EE401A00EE103AB8EEC0
:1046D000400AC1EE000A00EE104AB8EEC00A20EE11
:1046E000800A10EE100AF0BD6043F0BD2DE9F041E4
:1046F0000446087827280AD02D2803D0A0F13002DC
:10470000092A0CD8BDE8F0410846FFF769BF4A788E
:10471000002AF3D0BDE8F0410846FFF743BF002769
:10472000242807D0002816D000260D460C46222843
:1047300013D01DE04A78002AF6D000232046491CF9
:10474000E26D00F07CFC010004D02046BDE8F041A1
:1047500000F0B4B83846BDE8F0816C1C254607E08F
:104760005C280BD022280FD0A855761CB6B2641C4A
:1047700020780028F4D1AF552846ECE7601EFFF7FB
:1047800011FFA855641CF0E7AF55EEE72DE9F0479F
:104790008CB00D46824698461746202103A8FCF7A8
:1047A00056F9A8787E1E00F00F00B04201DD0746E2
:1047B00000E07F1E00240DF10C0908E008EB8400E6
:1047C00041685046FFF792FF49F82400641CB44248
:1047D000F4DB082F3CD2DFE807F004090D12181EA5
:1047E0002630A86880470CB0BDE8F087A968039818
:1047F0008847F8E7DDE90301AA689047F3E703ABD0
:1048000093E80700AB689847EDE703AC94E80F0026
:10481000AC68A047E7E7079803AC009094E80F0066
:10482000AC68A047DFE7DDE9070103ACCDE9000193
:1048300094E80F00AC68A047D5E707AB03AC93E85A
:1048400007008DE8070094E80F00AC68A047CAE7AE
:104850004FF0FF30C7E7C0687047000000B5002187
:104860000B4B30225A54491CC9B20929FAD341785A
:1048700001F00F01012903D9072901D9082901D81D
:10488000406800BD4068024900F0FBFD004800BDE3
:10489000384D0020084A002052F8201031B191F81C
:1048A0006410890702D552F820007047401C00B2FE
:1048B0000528F1DB00207047244D00204A780020B5
:1048C00002F00F02921E062A06D2DFE802F003066B
:1048D0000A0D0D0F8868006870478868B0F90000FD
:1048E00070478868007870478868704788684168B2
:1048F00009B1006808470020704700002DE9F05F0B
:104900005FEA0108044666D0216F20468847E06BC5
:1049100018254FF0000910F47F4F03D000256FF0E9
:10492000FF000AE010F47F0F02D008252B4804E0B6
:10493000000E03D010254FF07F4081460026B3467D
:10494000D4F85CA02FE00AEB0617787800F00F008F
:10495000092826D139462046FFF7E7FC08BB7868CE
:10496000E26B00EA090191421BD1FF2303FA05F132
:10497000084008FA05F1884213D10A434FF00008B5
:10498000E2632DB1A5F1080178688B40184208D187
:104990000AEB0610816809B120468847C4F83CB08C
:1049A0000EE0761C36B2B4F86000B042CBDCB8F151
:1049B000000F05D041462046C4F83CB000F090FA04
:1049C000FDF770FC10B1FDF76DFC60602046616F73
:1049D000BDE8F05F0847BDE8F09F00000000FFFF62
:1049E00010B50C460346FFF755FF00280BD0012BEE
:1049F00005D008DD6168BDE8104000F06FBDBDE87E
:104A0000104000F057B910BD70B5002504460029CC
:104A100018DDB4F95820A2F10100A4F85800B4F848
:104A20005410B4F85600814201D90B4600E0034609
:104A30005B429A4212DC814200D908464042A4F807
:104A400058000BE009DAB4F85800401C00B2A4F892
:104A50005800002802DDA4F8585070BD2046FFF72A
:104A60008BFCB4F95800C0B1B4F8561008440521C5
:104A7000401D90FBF1F201FB120004EB8000016C81
:104A8000606900F00DFC20820028E6D0608220469C
:104A90006169BDE8704000F0F5BD2582658270BD9A
:104AA00070B500250446A0F85850B0F8540058B12D
:104AB000B4F85600616900B9052004EB8000C06BB2
:104AC000FBF7ECFF00281ED0B4F85600616904EB38
:104AD0008000006C00F0E4FB20B1B4F85600401CEC
:104AE000A4F85600B4F85400401C80B2A4F8540056
:104AF000052802D90520A4F85400B4F8560005286A
:104B000001D3A4F8565070BD10B504460020208291
:104B100060820B46206094F8641041F0010184F833
:104B200064100621B2FBF1F163612187A4F85800FB
:104B3000A4F85400A4F85600228F411C02FB013255
:104B400004EB8000026408B20528F5DB1148124925
:104B5000E065081A0009A4F860001049002051F827
:104B600020209AB1401C00B20528F8DB00230CA1DC
:104B70002046E26D00F063FA0146204600F094FA08
:104B80002046BDE81040012100F00EBD41F8204054
:104B9000ECE7000050740008C0750008244D0020A8
:104BA0007368656C6C000000F8B50446008A228FBB
:104BB000521E90420EDB31484168204600F062FDF3
:104BC0000121204600F0F0FC20466169BDE8F84074
:104BD00000F058BD628A0025824213D1636900F15A
:104BE000010222821954228A60698554608A00F188
:104BF000010060828DF80010E26E4FF001016846FE
:104C00009047F8BDFDD2A0EB020000B207E0638A36
:104C100062691344A0F101029E5CC65410B20028E0
:104C2000F5DC608A6369421C62821954208A6169DA
:104C3000401C80B220820D54608A401E05B209E0FB
:104C400060690121405D8DF80000E26E6846904782
:104C50006D1C2DB2208AA842F2DC618A80B2401A13
:104C600005B2082607E08DF80060E26E0121684673
:104C700090476D1E2DB2002DF5DCF8BDA800002078
:104C800010B5FFF707FE002803D0BDE8104000F084
:104C9000B1B810BD38B50446408A002809D00820B4
:104CA0008DF80000E26E012168469047608A401E40
:104CB000608238BD2DE9F0410646C76D0F48816816
:104CC000304600F0DFFC002411E007EB04156878A3
:104CD00000F00F00012808D829463046FFF725FBD1
:104CE00018B92946304600F00BF8641C24B2B6F817
:104CF0006000A042E9DCBDE8F0810000A8000020CF
:104D0000F8B505460E460846FFF7A8FD01462846B9
:104D100000F0B8FCC0F1160004B2002C00DC042442
:104D200020278DF80070EA6E012168469047641EC6
:104D300024B2002CF5D170782A4900F00F00012828
:104D400001D8096C0CE0072801D8496C08E0082854
:104D500001D8896C04E0092801D8C96C00E0096D0C
:104D6000284600F08FFC20A1284600F08BFC072489
:104D70000127307807FA04F1084201D0782000E0DA
:104D80002D208DF80000EA6E012168469047641ED0
:104D900064B2002CEDDA14A1284600F073FC304612
:104DA000FFF759FDEC6E03460021ACB102E0491C4F
:104DB00089B2401C02781AB10D2A01D00A2AF6D114
:104DC000242907D924211846A047EA6E032107A009
:104DD000904701E01846A0472846BDE8F84004A1E6
:104DE00000F050BCA8000020202000002E2E2E0035
:104DF0000D0A00002DE9F0410646C76D10484169D3
:104E0000304600F03FFC002413E007EB04156878FF
:104E100000F00F0008280AD9092808D8294630468A
:104E2000FFF783FA18B929463046FFF769FF641C7B
:104E300024B2B6F86000A042E7DCBDE8F0810000D3
:104E4000A80000202DE9F0410646C76D1048016911
:104E5000304600F017FC002413E007EB04156878D7
:104E600000F00F0007280AD9082808D8294630463C
:104E7000FFF75BFA18B929463046FFF741FF641C7B
:104E800024B2B6F86000A042E7DCBDE8F081000083
:104E9000A80000202DE9F0410646C76D0F48C16803
:104EA000304600F0EFFB002412E007EB04156878B1
:104EB00000F00F00801E052808D829463046FFF76D
:104EC00034FA18B929463046FFF71AFF641C24B299
:104ED000B6F86000A042E8DCBDE8F081A800002040
:104EE00090F8642022F0040280F86420FFF75CBE92
:104EF00070B5002201231146164600EB8104491CBF
:104F000009B2A6610829F8DB4687002127E022B90B
:104F10004469655C202D1ED0EDB14469655C222D8D
:104F200001D11AB10022012B02D00BE00122FAE7D5
:104F3000438F082B05D200EB83055B1C0C44438791
:104F4000AC61002345696C5C5C2C06D14C1C2D5D6A
:104F50001DB1A1B201E066540123491C89B2048A43
:104F60008C42D4D870BD08B5418A028A914209D2D8
:104F700043694A1C4282595C8DF80010C26E0121BF
:104F80006846904708BD2DE9F047064690F8640052
:104F90000F4640F0020086F864004878002406F1CD
:104FA0001801020789460BD000F00F00012829D014
:104FB000811E052935D83946304600F007F936E01C
:104FC0000025A84616E006EB8504A0690178222991
:104FD00004D180F80080A069401CA061FBF780FC30
:104FE00080B2A169401E0A5C222A01D101F800802A
:104FF0006D1CADB2708FA842E5D8BA68708F494673
:10500000904705E00B46728F39463046FFF7BEFBEE
:105010000446787880060AD42146304600F0F2FA39
:1050200005E0082803D13946304600F03DF816F86F
:10503000640F20F0020030702046BDE8F0872DE9B3
:10504000F0478A468146B0F86010C06D9846101A45
:10505000A1EB1010164687B2002419E006EB0415E8
:10506000687800F00F00092810D029464846FFF75D
:105070005CF958B92846FFF7F1FB0146B8F100008A
:105080000BD002465046FBF74AFC50B1641CA4B258
:10509000BC42E3D30020BDE8F0875046FBF7FEFC9E
:1050A000F3E706EB0410F6E770B504460160886884
:1050B0000D46F8B1FBF714FCE0B1608F022804D371
:1050C000E169A868FBF7EAFCA0B194F8640020F05D
:1050D00001000B4D84F864002046A96B00F0D2FA61
:1050E00094F86400C0070AD020462968BDE87040E3
:1050F00000F0C8BA94F8640040F00100E9E770BD20
:10510000A80000202DE9F0410E460746FFF7C2FB3C
:10511000041E16D000233946E26DFFF790FF0E4DB6
:10512000010010D0487800F00F00801E06280CD334
:105130003946204600F0A6FA696A204600F0A2FA35
:105140000020BDE8F081A96AF7E732462046BDE8B5
:10515000F04100F003B80000A800002070B505463B
:105160000C4648781849430601D5096A18E000F052
:105170000F00801E062821D2DFE800F00306090C8C
:105180001116A068026019E0A068028016E0A0680D
:10519000027013E01146A06800F082F80EE0C969C1
:1051A000284600F06FFA09E0A068836833B1006810
:1051B00010B11146984701E010469847214628460D
:1051C000BDE8704000F002B8A8000020FEB505461A
:1051D00022A00C4607C88DE8070021462846FFF7A5
:1051E0006DFB06462846616800F04CFA1EA1284671
:1051F00000F048FA607800F00F00052823D06946D7
:10520000304600F019F9C0F10B006C460119284630
:1052100000F038FA15A1284600F034FA00203021B9
:105220002154401C00B20B28FADB6946304600F0DE
:1052300028F96946284600F025FA0EA1284600F014
:1052400021FA3046FEBD0CA1284600F01BFA31467B
:10525000284600F017FA08A1ECE7000030303030A3
:105260003030303030303000203D20002C2030787D
:10527000000000000D0A00002200000030B50546C5
:105280000020024605E09C4209D1401C521C80B21D
:1052900092B2AC5C002C02D08B5C002BF3D130BD01
:1052A0000346002002E01A54401C80B20A5C002A27
:1052B000F9D10021195470472DE9F05F0446078F9A
:1052C0004FF00009008A4D4638B16269CB465E4610
:1052D00002F800B0D4F85CA039E02046FFF7EAFC01
:1052E0000121204600F060F95BE00AEB06118846D8
:1052F0002046FFF71AF840BB4046FFF7AFFA0146D9
:105300006069FFF7BBFF218A88421ED1CDB1012D14
:1053100003D13FA1204600F0B5F90AEB091949462F
:105320002046FFF7EDFC4046FFF798FA80464846D6
:10533000FFF794FA4146FFF7A1FF874200D83846AD
:1053400007466D1C1FFA86F9ADB2761C36B2B4F86A
:105350006000B042C9DC002D57D0012D02D120469B
:10536000FFF70AF80AEB09100646FFF777FA01463D
:105370006069FFF795FF2082012D08D9314620464C
:10538000FFF7BEFC0121204600F00EF92782228A99
:10539000616901F802B0208A60822046616900F0EC
:1053A00071F9FCF77FFF00282FD0012D28D194F848
:1053B0006400400724D5FCF775FF6168401AC828CF
:1053C0001ED22046FEF7D8FFB4F9100005E061694F
:1053D000421D0B5C401E8B5400B20028F7DA0DA171
:1053E0006069FFF75DFF616920200871208A401D18
:1053F0002082608220466169BDE8F05F00F042B91A
:1054000014F8640F40F004002070BDE8F09F000025
:105410000D0A000068656C7000000000054C4FF03C
:10542000FF3529462068FEF797F90020FDF75EFF5B
:10543000F7E700009800002030B50B23021E00DAC9
:1054400042420024CC720A2409E092FBF4F504FBEA
:10545000152592FBF4F25B1EDBB23035CD54002AE9
:10546000F3D1002802DA4FF02D0002E005D14FF011
:105470003000A3F10103DBB2C854C3F10B0040B20A
:1054800030BD082300220A720AE000F00F02092A48
:1054900001D9573200E030325B1EDBB20009CA543A
:1054A0000028F2D1C3F1080040B270470121FFF794
:1054B000ABBA10B5FFF7EEF9002803D0BDE81040F5
:1054C000FFF7C0BC10BD10B5FFF7E4F9002803D00A
:1054D000BDE81040FFF7DEBC10BD000070B505460A
:1054E0000023C26DFFF7ABFD0400104817D0C16A5E
:1054F000284600F0C7F82046FFF7B0F901462846D5
:1055000000F0C0F80AA1284600F0BCF82046FFF7DA
:10551000A2F90146284600F0B5F805A100E081692E
:105520002846BDE8704000F0ADB80000A80000209B
:105530000D0A0000F8B5036F16460D46044698475D
:1055400094F86400800704D41648C16B204600F02C
:1055500099F8E26EB1B22846904794F8640080074B
:1055600019D40021204600F01FF8208A98B1204667
:10557000616900F087F80025082607E08DF80060D3
:10558000E26E0121684690476D1C2DB2208A618A27
:10559000401AA842F2DC616F01B02046BDE8F0403D
:1055A00008470000A800002010B5044690F86400E9
:1055B000C00719D019B10EA1204600F063F8206889
:1055C0004168204600F05EF80AA1204600F05AF833
:1055D000A16801B908A1204600F054F807A12046AF
:1055E000BDE8104000F04EB80548016BF7E7000039
:1055F0000D0A00003A0000002F00000024200000E7
:10560000A8000020FEB5064615A00D4607C88DE887
:10561000070016A1304600F035F869462846FFF726
:105620000BFFC0F10B006C460119304600F02AF860
:1056300011A1304600F026F800223020A054521C60
:1056400012B20B2AFADB69462846FFF71AFF6946B1
:10565000304600F017F80AA1304600F013F8FEBDFE
:10566000303030303030303030303000526574758A
:10567000726E3A20000000002C20307800000000FC
:105680000D0A000010B5C36E0C4600221BB90020A5
:1056900010BD521C92B211F8010B0028F9D111462D
:1056A0002046984780B210BDB0F90210B0F904202E
:1056B000914204D08268808911FB0020704700204D
:1056C000704702800022428082808381816070471F
:1056D000B0F90210B0F90400814201D101207047F5
:1056E00000207047B0F90210B0F90420914206D0B2
:1056F000B0F90020491C8A4200DC0021418070473B
:1057000070B50446B0F90400B4F90020451CAA4263
:1057100000DC0025B4F90220AA4202D14FF0FF308C
:1057200070BDB4F90C20A36810FB0230FBF742F9FE
:10573000A580002070BD0000012220210148FCF757
:10574000ABBD0000001002400346044880680028FA
:1057500003D00A461946FFF7EDBE70479C000020B3
:105760007CB5012000F007FC1F4C20494FF400726B
:1057700020601F48C1661F4981661F4901671F4994
:10578000416700F17801FFF7BFF9FDF76BFF0022D9
:1057900011460120FEF70EF8194D4FF0FF366060FC
:1057A00030B9002317A2012130460095FDF718FFFC
:1057B000214B224A00206168FDF778FF0021052077
:1057C000CDE900010A4B4FF480721DA11E4800F084
:1057D000F3FF012806D000231CA2012130460095CA
:1057E000FDF7FEFE7CBD000094000020AD580008CF
:1057F000AC4A0020955800087D58000899580008C8
:10580000606D00081B5B33316D4528256429202518
:10581000733A1B5B33396D2070635F756172745F1F
:1058200073656D6170686F72652063726561746520
:10583000640A0D0A00000000D9390008ED3900089B
:105840007368656C6C0000001D5400081B5B3331ED
:105850006D45282564292025733A1B5B33396D205B
:105860007368656C6C207461736B2063726561741E
:10587000206661696C65640D0A000000044810B57B
:105880004FF0FF31006800F03DFF002010BD000028
:105890009400002000207047034810B5006800F015
:1058A0006CFD002010BD00009400002010B50C46D7
:1058B0000A4601464FF0FF330248FDF721FA20B2B5
:1058C00010BD00004C010020D0E9013201699A604E
:1058D000D0E901235A604A68824201D182684A6055
:1058E000002202610868401E0860086870470000D6
:1058F000034B036003F15C00086080201060704778
:10590000F4070020044B036003F15C0008604FF4CF
:105910008070106070470000500A002000F10801FC
:105920004FF0FF32C0E90112C16001610021016046
:10593000704700210161704730B50C68621C02D0CD
:1059400000F1080202E0026904E01A4653681D688B
:10595000A542FAD953684B6099608A60516008612A
:105960000168491C016030BD42684A6093688B60E1
:1059700093685960916008610168491C0160704733
:10598000502080F31188BFF34F8FBFF36F8F0A4908
:105990004868401C486001280CD10848006810F095
:1059A000FF0F07D0502080F31188BFF34F8FBFF354
:1059B0006F8FFEE7704700008800002004ED00E0D4
:1059C0000849486828B1401E486001D180F3118819
:1059D0007047502080F31188BFF34F8FBFF36F8F54
:1059E000FEE700008800002070B500282AD0164D80
:1059F000A0F1080460686969084207D1502080F36B
:105A00001188BFF34F8FBFF36F8FFEE722683AB163
:105A1000502080F31188BFF34F8FBFF36F8FFEE7E5
:105A20008843606000F0A0F96068696808446860B5
:105A30002046FEF7EFF92869401C2861BDE8704058
:105A400001F046B870BD0000680000204FF0E02073
:105A500000210161816105494FF47A720968B1FB47
:105A6000F2F1491E416107210161704710000020D9
:105A700010B5FAF7ABFC114910280ED300F1E02065
:105A800090F8F0030A78904207D2502080F31188F2
:105A9000BFF34F8FBFF36F8FFEE709480068896837
:105AA00000F4E060884207D9502080F31188BFF3EA
:105AB0004F8FBFF36F8FFEE710BD000088000020FE
:105AC0000CED00E010B5074B002253F832401CB13A
:105AD000521C082AF9D310BD43F8321003EBC2015F
