:020000040800F2
:1000000010640020DD0300084F3D0008293B000874
:100010004D3D00088D2300082D420008000000001F
:100020000000000000000000000000001D030008A8
:100030008F2300080000000079030008F13E00084B
:10004000F7030008F7030008F7030008F7030008A8
:10005000F7030008F7030008F7030008F703000898
:10006000F7030008F7030008F7030008F703000888
:10007000F7030008F7030008F7030008F703000878
:10008000F7030008F7030008F7030008F703000868
:10009000F7030008F7030008F7030008F703000858
:1000A000F7030008B13F0008F7030008F703000852
:1000B000F7030008F7030008F7030008F703000838
:1000C000F7030008F7030008F7030008F703000828
:1000D000F703000821420008F7030008F7030008AF
:1000E000F7030008F7030008F7030008F703000808
:1000F000F7030008F7030008F7030008F7030008F8
:10010000F7030008F7030008F7030008F7030008E7
:10011000F7030008F7030008F7030008F7030008D7
:10012000F7030008F7030008F7030008F7030008C7
:10013000F7030008F7030008F7030008F7030008B7
:10014000F7030008F7030008F7030008F7030008A7
:10015000F7030008F7030008F7030008F703000897
:10016000F7030008F7030008F7030008F703000887
:10017000F7030008F7030008F70300080000000079
:10018000F7030008F703000800F002F800F0B6F8E3
:100190000AA090E8000C82448344AAF10107DA45E2
:1001A00001D100F0ABF8AFF2090EBAE80F0013F07E
:1001B000010F18BFFB1A43F001031847D4FE0000DB
:1001C000F4FE00000A444FF0000C10F8013B13F05D
:1001D000070408BF10F8014B1D1108BF10F8015BA0
:1001E000641E05D010F8016B641E01F8016BF9D193
:1001F00013F0080F1EBF10F8014BAD1C0C1B09D1EA
:100200006D1E58BF01F801CBFAD505E014F8016B5B
:1002100001F8016B6D1EF9D59142D6D370470000ED
:100220000023002400250026103A28BF78C1FBD8FF
:10023000520728BF30C148BF0B6070476E2900F0DD
:10024000D086702900F0478366290EF04483652923
:100250000EF0418367290EF03E8361290EF03D8345
:1002600003681B0A28BF41F08001692900F07A82E7
:10027000642900F07782752900F074826F2900F0FC
:100280009287782900F01383E92900F0A782E429F6
:1002900000F0A482F52900F0A182EF2900F08F87F9
:1002A000F82900F012830368DB0928BF41F08001C0
:1002B000632900F0DA86732900F0DF86E32901F074
:1002C0003F83F32901F04483002070471FB50EF0EF
:1002D000FDFA9DE8030000F093FD00F071FD0400BD
:1002E000002000210DF004FF401C60600020002170
:1002F0000DF014FFE0601FBD10B510BD01F05CFBF8
:100300001146FFF7E3FF08F089F901F02DFC03B473
:10031000FFF7F2FF03BC04F070FB00002C4B1968E0
:100320000868B0E8F04F80F30988BFF36F8F4FF093
:10033000000080F311887047000000000848006842
:10034000006880F308884FF0000080F3148862B6DC
:1003500061B6BFF34F8FBFF36F8F00DF00BF00BFE9
:1003600008ED00E0DFF80C00016841F47001016065
:10037000704700BF88ED00E0EFF30980BFF36F8F97
:10038000134B1A681EF0100F08BF20ED108A20E9E9
:10039000F04F106009B44FF0500080F31188BFF3A4
:1003A0004F8FBFF36F8F0CF023FE4FF0000080F3F0
:1003B000118809BC19680868B0E8F04F1EF0100FEA
:1003C00008BFB0EC108A80F30988BFF36F8F7047C5
:1003D00014000020EFF305807047000009488047B3
:1003E00009480047FEE7FEE7FEE7FEE7FEE7FEE717
:1003F000FEE7FEE7FEE7FEE704480549054A064B2F
:1004000070470000A13F000889010008105E00202D
:100410001064002010600020106000207047000071
:1004200010B500F0CDFC001D10BD00BFC5DC000004
:1004300070B5064600F0C0FC056806F10B0020F020
:100440000704B4429CBF002070BD2B466A68BAB155
:100450001068A04210D304F1080188423CBF5068E4
:10046000586007D35168101941601168091B016079
:1004700058601460101D70BD13465268002AE7D101
:100480002146284600F0A8FC0028DED170BD70B5DA
:100490000446051F00F090FC0068002C14BF44685F
:1004A00070BD002C18BFAC423CBF20466468F8D336
:1004B00001680A18AA4218BF456003D12A68054698
:1004C0001144016028684119A1421CBF6C6070BDD5
:1004D0006168696021680844286070BD53EA020CB5
:1004E00000F069802DE9F04B4FF00006002B1FBF94
:1004F000B3FA83F503FA05F424FA05F65E4012BF59
:100500001643B2FA82F502FA05F4C5F120051EBFC2
:1005100022FA05FC44EA0C04203556EA044C4FEA62
:10052000144418BF641C4FF000084FF000099042BB
:1005300071EB030C39D3002919BFB1FA81F701FA25
:1005400007F6B0FA80F700FA07F6C7F120071EBFDA
:1005500020FA07FC46EA0C062037B6FBF4FCA7EBB2
:100560000507103F07F01F0BCBF120060CFA0BFB21
:100570002CFA06F644BFB3460026202FA4BF5E46E1
:100580004FF0000B5BEA060C08BF4FF0010B19EBB4
:100590000B09ABFB027C48EB0608C01B06FB02CC38
:1005A0000BFB03CC71EB0C01C1E70B460246414645
:1005B0004846BDE8F08B13B54FF000004FF0000146
:1005C000AFF30080BDE81C40704710B54C1084EAC2
:1005D000530404D54042C1F1000138BF491E1B42FB
:1005E00004D55242C3F1000338BF5B1EFFF776FF0C
:1005F00014F0804F04D04042C1F1000138BF491EC1
:1006000014F0004F04D05242C3F1000338BF5B1E08
:1006100010BD00007CB51D4616460C00009001D0B0
:100620002044401E074B7B442A46694601903046D1
:1006300000F0F1FC05461CB10020694600F0FEFC0C
:1006400028467CBD1D0A00000FB4044910B503AA5A
:10065000029800F017FD10BC5DF814FB500100205B
:100660000FB41CB5084B06AA7B4469460090059858
:1006700000F0D1FC04460020694600F0DFFC204673
:100680001CBC5DF814FB0000D10900000FB47CB560
:100690000C0009AA009001D02044401E084B7B4466
:1006A00069460190089800F0B6FC05461CB1002090
:1006B000694600F0C3FC28467CBC5DF814FB0000D2
:1006C000A509000070B5044685690068C10601D51A
:1006D000302600E02026C00707D070BDD4E90121F4
:1006E00030469047206A401C20626D1EF6D570BDD2
:1006F00070B5044685690078C00707D170BDD4E99C
:10070000012120209047206A401C20626D1EF6D5F2
:1007100070BD70B50C460546012A05D028788006C4
:1007200000D5EA69002302E0012305E05B1C934247
:1007300002D2E05C0028F9D1A869E618C01AA861C5
:10074000286A184428622846FFF7BCFF04E0D5E970
:10075000012114F8010B9047B442F8D32846FFF763
:10076000C7FF70BD2DE9F0410646002410687529C9
:10077000314616A510D000F0C9FB002802DA40422D
:1007800013A507E031688A0701D512A502E04907E1
:1007900004D511A5012401E000F0C1FB00210A22CB
:1007A00006F1240709E0B0FBF2FCB0FBF2F302FB18
:1007B0001C00303078541846491C0028F3D12346D9
:1007C0002A463046BDE8F04100F0B2BB0000000010
:1007D0002D0000002B000000200000002DE9F0415A
:1007E0008046D21D22F007020025D2E90002F52939
:1007F00015A614D0011E72F1000106DA0023D0EB19
:10080000030063EB020211A608E0D8F800108B0782
:1008100001D50FA602E0490701D50EA60125114614
:10082000002408F1240704E000F020FB30323A55A0
:10083000641C50EA0102F7D12B463246214640465D
:10084000BDE8F04100F074BB000000002D00000086
:100850002B00000020000000F0B40D4601880905BF
:1008600002D5214C7C4402E01F4C7C440E34002114
:1008700000F1240608E002F00F071209E75D42EAE2
:1008800003721B097754491C52EA0307F3D102781B
:100890000023120704D5702D06D009B102231134AC
:1008A0002246F0BC00F044BB01231034F8E770B5D9
:1008B00004460D462146106800F031FB02462946E9
:1008C0002046BDE870400023C6E7D21D22F0070392
:1008D000D3E90023C0E70368126843F020030360F4
:1008E0000823C3610023B7E75EEC00002DE9F05F49
:1008F000894604464FF0000ADFF874B1FB44C0F8A3
:1009000020A02046E1688847002874D0252806D01A
:10091000D4E901219047206A401C2062F1E70026BB
:100920005F462046E16888472028054607DB312DD1
:1009300005D2781910F8200C08B10643F1E7B0078A
:1009400001D526F00406C4F81CA00027C4F818A09E
:100950002A2D09D0284604F049F838B304EB87085B
:10096000303DC8F8185019E059F8041B204604EB34
:1009700087029161E1688847012F054618D1E06937
:10098000002820DA26F020061DE0D8F8180000EB39
:10099000800005EB40003038C8F818002046E168B8
:1009A0008847054604F022F80028EED1012F0AD02E
:1009B0002E2D08D12046E16888477F1C0546022F6E
:1009C00046F02006C4DBA069002803DA404246F066
:1009D0000106A061F00701D026F010066C2D0BD0A7
:1009E000682D09D04C2D39D06A2D35D0742D35D0D5
:1009F0007A2D33D016E038E0E1682F46204688474C
:100A0000B842054609D16C2F26D04FF48060E168CA
:100A1000064320468847054604E06C2F1AD04FF461
:100A2000807006430DB3A5F14100192802D8203586
:100A300046F400664A462946204626604E46FFF7A1
:100A4000FDFB80B101280BD0F61D26F0070000F158
:100A5000080956E74020E4E78020D8E70020D6E7E1
:100A600006F104094DE7284652E7206ABDE8F09FE9
:100A7000EEEB000010B5431C02E010F8011B71B151
:100A80008107FAD14FF0013202C88C1A8C4314EA64
:100A9000C211F9D0C01A0A0603D0C01E10BDC01A78
:100AA00010BD0A0401D0801E10BD0902FCD0401EFA
:100AB00010BD40EA010370B59B072ED14FF00136FF
:100AC000042A2AD308C810C99D1B9D43121F15EA8A
:100AD000C61517D0D8B2E1B2401A50EA056110D15C
:100AE00098B2A1B2401A50EA05410AD123F07F40E2
:100AF00024F07F41401A50EA052102D1180EA0EBE4
:100B0000146070BDA342DBD018BA21BA884201D963
:100B1000012070BD4FF0FF3070BD0AB9002070BDDC
:100B200010F8013B11F8014B63B1A3420AD1521EE8
:100B300008D010F8013B11F8014B1BB1A34201D1C1
:100B4000521EEDD1181B70BD032A40F2308010F008
:100B5000030C00F0158011F8013BBCF1020F624458
:100B600098BF11F801CB00F8013B38BF11F8013BE9
:100B7000A2F1040298BF00F801CB38BF00F8013B96
:100B800011F0030300F02580083AC0F0088051F806
:100B9000043B083A51F804CBA0E80810F5E7121D11
:100BA0005CBF51F8043B40F8043BAFF30080D20730
:100BB00024BF11F8013B11F801CB48BF11F8012BFC
:100BC00024BF00F8013B00F801CB48BF00F8012B1F
:100BD000704710B5203AC0F00B80B1E81850203AA9
:100BE000A0E81850B1E81850A0E81850BFF4F5AFCD
:100BF0005FEA027C24BFB1E81850A0E8185044BF57
:100C000018C918C0BDE810405FEA827C24BF51F8C3
:100C1000043B40F8043B08BF7047D20728BF31F8B7
:100C2000023B48BF11F8012B28BF20F8023B48BF08
:100C300000F8012B704702F0FF0343EA032242EA67
:100C4000024200F002B84FF000020429C0F0128006
:100C500010F0030C00F01B80CCF1040CBCF1020F6F
:100C600018BF00F8012BA8BF20F8022BA1EB0C0144
:100C700000F00DB85FEAC17C24BF00F8012B00F83A
:100C8000012B48BF00F8012B70474FF0000200B560
:100C9000134694469646203922BFA0E80C50A0E89F
:100CA0000C50B1F12001BFF4F7AF090728BFA0E84D
:100CB0000C5048BF0CC05DF804EB890028BF40F819
:100CC000042B08BF704748BF20F8022B11F0804F5B
:100CD00018BF00F8012B704710B5044610F0030F41
:100CE00008BF11F0030F40F015804FF0013E121FB6
:100CF000C0F20E8051F8043BA3EB0E0C2CEA030C5F
:100D00001CEACE1C08BF40F8043BF0D0A1F104015E
:100D100002F10402521E08DB11F8013B002B00F81F
:100D2000013BF7D11146FFF78EFF204610BD0000B2
:100D30004FF0013C50F8042B51F8043B9A4221D16A
:100D4000A2EB0C03934313EACC1317D150F8042BF6
:100D500051F8043B9A4215D1A2EB0C03934313EADA
:100D6000CC130BD150F8042B51F8043B9A4209D113
:100D7000A2EB0C03934313EACC13DBD04FF000003B
:100D8000704700BFD01A01BAB1FA81F101F0180121
:100D900022FA01F0CB40C1F12001DBB2C0B2C01A8F
:100DA0002CFA01F3D11A914311EAC311E6D170472D
:100DB000704770477047704700487047B45D002027
:100DC00000487047CC5D002000487047AC5D0020B3
:100DD000704770477047704738B504460A46002090
:100DE0006946AFF30080002808BF38BD024600996D
:100DF000204600F0F3F9012038BD012000F0D5BDF8
:100E0000F8B5AFF30080054600200C46102000BF67
:100E10000646A819A0420DD9324669460020AFF314
:100E20000080070008BF00F0C0FD0098A04218BF76
:100E30000546C419FFF7C0FF05600746F01D20F006
:100E400007004619284600F00AF8B44208BFF8BD6A
:100E5000A21B31463868BDE8F84000F0BFB9002158
:100E60000160C0E9011070471020704730B5B0F143
:100E70000A024FEA900E71F100034EEA817EB0EB58
:100E80000E0061EB91014FEA101E4EEA017E10EB5D
:100E90000E0041EB11114FEA102E4EEA016E10EBDD
:100EA0000E0041EB11214FEA104E4EEA014E10EBBD
:100EB0000E0041EB1141401841F100014FEAD00012
:100EC00040EA41704FEAD10110EB80054FEA8104FE
:100ED00044EA907444EB01046D1944EB0404521B82
:100EE000A3414FF0000348BF0A3200D530BD401C7B
:100EF00041F1000130BD10B5FFF766FF006810BD7D
:100F000010B50446FFF760FF046010BD09684A058C
:100F100001D540B27047C905FCD500B270470968D9
:100F20004A0501D5C0B27047C905FCD580B27047EB
:100F30002DE9F0470D4699469246044600F12408F3
:100F40000168880604D5E06921F01001216000E005
:100F50000120A84201DD471B00E00027A1697A19A2
:100F600002EB0900081AA0612078C00602D42046CE
:100F7000FFF7A8FB002608E0D4E901211AF80600D3
:100F80009047206A401C761C20624E45F4DB207896
:100F9000C0060AD52046FFF795FB06E0D4E90121FB
:100FA00030209047206A401C2062381EA7F10107BC
:100FB000F4DC07E0D4E9012118F805009047206A25
:100FC000401C2062281EA5F10105F3DC2046FFF736
:100FD0008FFB2078000602D50220BDE8F0870120B3
:100FE000FBE711680268006A530501D508700AE042
:100FF000D30501D5088006E0130603D5C217C1E961
:10100000000200E0086001207047000001694A1CEE
:1010100002610878704700B58FB0CDE90131002139
:10102000059105497944CDE9031011466846FFF75B
:101030005DFC0FB000BD0000E5FFFFFF0A6802F88D
:10104000010B0A607047D1E900239A4202D2531C77
:101050000B601070704710B5436913B1AFF3008097
:1010600001E0FFF756FB012010BD127800F12401CA
:101070000A7000224A700122EDE711684FF0FF323A
:10108000E9E70000074B70B50D467B44FFF7C3FF4F
:101090000446284600F060FC10B14FF0FF3070BDF0
:1010A000204670BD176500002DE9FF5F15468A4692
:1010B0000446DFF8AC80F8440027D8E900103E462B
:1010C000CDE9001010E03AF816106A4602A800F0C8
:1010D00047FC411C07D02178890603D5E2693918FD
:1010E00091420DD80744761C2078800602D5E0692D
:1010F000B84205DDAE42E6DB3AF816000028E2D140
:10110000A069C01BA0612046FFF7DCFAD8E90010F7
:10111000CDE90010002017E03AF818106A4602A83E
:1011200000F01EFCB0F1FF3F81460BD000250DF111
:10113000080B05E0D4E901211BF8050090476D1C60
:101140004D45F7D308F10100B0428046E4DB206A48
:10115000384420622046FFF7CBFABDE8FF9F00002D
:1011600046E4000030B4002100F1240408E002F05D
:101170000705D208303542EA4372DB086554491C42
:1011800052EA0305F3D10468002310A2250707D50E
:10119000A40600D421B1C46901230DA2641EC46158
:1011A00030BCFFF7C5BE10B5044621461068FFF7F6
:1011B000B6FE02462046BDE810400023D2E7D21D0D
:1011C00022F00701D1E90023CCE700000000000075
:1011D0003000000000487047AC5D002003464068C6
:1011E0008C46002818BF88423CBF03464068F8D3AD
:1011F00018681844884207D00CF1030020F007005B
:10120000001D411A521A0146081D0A60FFF73FB936
:1012100070472DE9FF4F0C461E464FF0FF378BB04D
:10122000D2E90001DDF860800A908A46C1F30A55D0
:1012300005B93D46002108464FF00000BAF1000F05
:1012400000F4400005DA00EB80004FF4400101EAB1
:1012500050004FEA9059B9F1010F00DDB9460A98E4
:1012600050EA4A000ED044F61050A5F2FF3545432F
:101270002F14B8F1000F1ED07542291E1EDDC9F1D2
:1012800000021CE0B8F1010F4FF0000001D0302146
:1012900003E0F24305E02154401CB042FBDB304642
:1012A0000022002121540B99C1F80880C1E90020D7
:1012B0000FB0BDE8F08FBD1B6D1CDEE74A4600DABB
:1012C000694206A800F0DEFB06AB93E8070003AB1B
:1012D00083E8070050460A9900F090FC8DE807006B
:1012E000A0F500501F3800900398002D0ADD42F24F
:1012F0001F014A460844002303A90390684600F0F2
:10130000F9FE09E0A0F500504A461F38002303A962
:101310000390684600F003FF8DE807000004000C0E
:1013200003D04FF0FF30410800E01046B8F1000F45
:1013300003D00022009215461EE0751E05D4FFF76B
:1013400095FD303262556D1EF9D5B3460122084332
:1013500002D000227F1C04E02078302801D1002236
:101360007F1E002A099784D01DE0112D07DAFFF7B0
:101370007DFD303262556D1C50EA0102F5D1084303
:1013800002D00098C8B10EE00021681E05E0235C81
:10139000625C63542254401E491C8142F7DBAB4619
:1013A000A81B401E0990002004F80B000B98099A16
:1013B000C0F80880C0E9002B7AE711264FF000083A
:1013C00057E72DE9F04F88460446D21D22F0070169
:1013D00091B0D1E90001CDE90A0102F028FF0246EF
:1013E0000B98C00F01D02D2007E02068810701D5A0
:1013F0002B2002E0202101EAC000032A099001D03D
:10140000072A05DB03464146204600F0FBFA0BE1C4
:101410002078800601D5E06900E00620B8F1650F6C
:10142000814606D0B8F1660F18D0B8F1670F70D1B9
:1014300031E00020B9F1110F009001DB112301E030
:1014400009F101030AAA01A90CA8FFF7E2FEDDE9F0
:101450000C70002609F10105834647E001204B4648
:1014600000904FF000470AAA01A90CA8FFF7D1FE8F
:10147000DDE90DB00C995D46002610B909F10100B7
:101480000D18B9EB050003D4C0F1FF3609F10105D1
:10149000A5EB09002BE0B9F1010F01DA4FF00109CA
:1014A0000020B9F1110F0090484601DD112300E042
:1014B00003460AAA01A90CA8FFF7ABFEDDE90C70F0
:1014C0004D4600268346207800070AD4AB4500DA53
:1014D0005D4601A8012D04DD411911F8011C3029D8
:1014E00007D04F4502DA17F1040F04DA01208246D3
:1014F0000FE06D1EEEE7002F02DCED1B3E4403E023
:10150000781CA84200DD7D1CB81B00F1010A4FF0D9
:1015100000472078000703D4AA4501DB4FF0FF3ACB
:101520000021B7F1004F0DF143088DF8431024D08E
:1015300002202B23002F01DA7F422D230A21021ED5
:10154000A0F1010000DC5FB197FBF1FC97FBF1F229
:1015500001FB1C7C17460CF1300C08F801CDEEE7BE
:10156000A8F1010003702188090501D5452100E09B
:101570006521A0F1010800F8011C09980FA9A1EB51
:101580000807FF1D00B10120411901EBEA70A169B4
:101590003844081A401EA0612078C00602D42046B4
:1015A000FFF790F8099828B1D4E901219047206A03
:1015B000401C20622078C00622D52046FFF782F822
:1015C0001EE0002E04DBB34502DD01A8805D00E0D3
:1015D0003020D4E901219047206A401C2062761C0B
:1015E000AAF101005FEA000A0AD1FFF7E9FBC0682F
:1015F0000168405CD4E901219047206A401C2062C8
:10160000281EA5F10105DCDC07E0D4E9012118F86A
:10161000010B9047206A401C2062381EA7F1010789
:10162000F3DC2046FFF764F8032011B041E6000028
:101630002DE9F04F04460D46D21D22F0070089B077
:10164000D0E900974846394602F0F1FD0246F80F0E
:1016500001D02D2307E02068810701D52B2302E06C
:10166000202101EAC0038DF820300BB1012000E0F9
:101670000020032A824601D0072A04DB294620469F
:1016800000F0C0F93FE12078800601D40D2500E08C
:10169000E569C7F30A560D2D49DA00214FEA175BB9
:1016A00008464FF00000002F00F4400007DA00EB7E
:1016B00080004FF4400100EBD07001EA600081151A
:1016C000012901DD4FF0FF3100224FEA850CBCF10A
:1016D000180F06D31346ACF118004FF08052C240E9
:1016E00003E04FF4801323FA0CF30CF10C0CBCF163
:1016F000200F04D3ACF1200C09FA0CF001E007FA3A
:101700000CF000294FF0004801DD18B90FE00ED1B0
:1017100040450CD319EB02095F4121B9404502D184
:101720009F4329EA0209BBEB175F00D0761C208893
:10173000000502D57B48784402E07A48784419389D
:1017400008AA302302F80A30037C0AF10101002EB6
:101750000AF1020A53546A4602DC4FF0300101E0FC
:101760004FF031014FF001088DF8001002D0A6F2C1
:10177000FF3603E059EA470100D06B4E002D02DC32
:101780002178090704D54FF002082E218DF80110A9
:10179000C44600210BE0C7F303433F01C35C491C6F
:1017A0006D1E02F80830052908F1010801DA002D44
:1017B000F1DC00210CE000EB1973491C1B786D1E55
:1017C000082902F808304FEA091908F1010801DA7E
:1017D000002DF0DC21688B0602D516E0A8F1010887
:1017E000E04505DD02EB080313F8013C302BF5D092
:1017F000B8F1000F09DD02EB080313F8013C2E2BB2
:1018000003D1090701D4A8F10108002D05DD3E210F
:1018100002F808106D1E08F10108407C002E02F845
:10182000080008F1010804DA2D20764202F80800C9
:1018300002E02B2002F808000A214FF47A70864259
:1018400008F101080BDB96FBF0F3303302F80830A7
:1018500096FBF0F308F1010800FB136601E0642E2B
:101860000CDB642096FBF0F3303302F8083096FB73
:10187000F0F308F1010800FB136601E00A2E06DB15
:1018800096FBF1F0303002F8080008F1010896FBF1
:10189000F1F001FB1060303002F80800A16908F196
:1018A000010808EB050202EB0A00081AA061207883
:1018B000C00602D42046FEF705FF216A08AE01EB00
:1018C0000A00206204E0D4E9012116F8010B9047D8
:1018D000BAF1010AF7D22078C00602D52046FEF7F9
:1018E000F1FE6E4609E016F8010B3E280FD0D4E950
:1018F00001219047206A401C2062B8F10108F2D211
:101900002046FEF7F5FE09B00320BDE8F08F206AFF
:101910002844206203E0D4E90121302090476D1E65
:10192000EBD3F8E7E1DD000002FCFFFF10B54369EF
:1019300013B1AFF3008001E0FFF7B6FB012010BD4B
:10194000128800F1240182840022C2840122EDE782
:1019500011684FF0FF32E9E7007B00F0800070472C
:1019600070B516460C460546FEF75AFD036893F817
:101970000101012806D0FF2C0FD8185D68B10120A5
:101980002C7070BDD3F807013246214603F20713CD
:1019900003442846BDE8704018474FF0FF3070BD43
:1019A000002801D003F029B8704710B500F0FEF808
:1019B000BDE81040FFF7F4BF7546FFF70BFCAE46DD
:1019C00005006946534620F00700854618B020B54B
:1019D000FEF712FDBDE820404FF000064FF0000773
:1019E0004FF000084FF0000B21F00701AC46ACE8C7
:1019F000C009ACE8C009ACE8C009ACE8C0098D4634
:101A0000704700002DE9F0411F4604460326016897
:101A1000072A01F4006004DB08B116A505E016A54D
:101A200003E008B115A500E015A521F01000206025
:101A3000A069C01EA0610FB1401EA0612046FEF744
:101A400041FE4FB1D4E9012138469047206A401C3D
:101A50002062C01C206206E0206AFAE7D4E9012176
:101A600015F8010B9047761EF8D22046FEF740FE8F
:101A7000BDE8F0814E414E006E616E00494E460059
:101A8000696E66002DE9F047814616468AB03548F2
:101A900078440DC88DE80D0032487844801C03ACB2
:101AA0000DC884E80D0041F69B300844372190FBB7
:101AB000F1F290FBF1F5A5F1800501FB12041B3C4E
:101AC00002D56442012000E00020DFF898A08046A3
:101AD0000027FA44AAF1BE0A0EE0E0070AD0324617
:101AE000684607EB470101230AEB810100F017FB71
:101AF0008DE8070064107F1C002CEED1194F7F4445
:101B0000AE3F19E0E80715D007EB04100DF1180AF5
:101B100090E80E008AE80E00C068F04201D19819E2
:101B200008903246012306A903A800F0F8FA03AB97
:101B300083E807006D10641C002DE3D14FF0010312
:101B400032466946B8F1000F03A802D000F0D2FA7D
:101B500001E000F0E4FAC9E90001C9F808200AB080
:101B6000BDE8F08718DB000010B50446AFF3008035
:101B70002046BDE81040FEF7CABB70B505460C46CE
:101B80000A2000E06D1C02F039FF35B128780028EA
:101B9000F8D102E0641C02F031FF14B12078002873
:101BA000F8D1BDE870400A2002F028BF10B5012826
:101BB00005D0002103A0FFF7E0FF012010BD09A11F
:101BC000F8E7000053494752544D454D3A204F75B0
:101BD00074206F662068656170206D656D6F727925
:101BE000000000003A2048656170206D656D6F72DD
:101BF0007920636F72727570746564005FEA400CDF
:101C000008BF91F0000F4FEA8C234FEAC12243EA4C
:101C100051514FEA1C5018BF00F5F0404FEA300018
:101C200018BF41F000415FEA6C5C00F02980BCF114
:101C3000FF3F08BF40F080407047130C06BF1204FE
:101C40004FF0100C4FF0000C130E04BF12020CF1F9
:101C5000080C130F04BF12010CF1040C930F04BF06
:101C600092000CF1020CD30F04BF52000CF1010CD6
:101C700011464FF00002A0F11F00A0EB0C007047CE
:101C800011F0004F08BF704731F000413FF4D5AF6D
:101C90000B0C06BF09044FF0100C4FF0000C0B0E9C
:101CA00004BF09020CF1080C0B0F04BF09010CF171
:101CB000040C8B0F04BF89000CF1020CCB0F04BF86
:101CC00049000CF1010CCCF12003A0EB0C0022FA2E
:101CD00003F302FA0CF241EA030100F1010070473C
:101CE00020F07F4C80EA030023F07F47ACEB070332
:101CF00003F57C5300F0004003F1FF032DE9804918
:101D00004FEA154B09B44FEA144325EA0B4E24EA77
:101D100003480FF2042606EB132749083E785FEAD2
:101D2000320203FB0667C7F5000707FB06F64FEA1A
:101D300054374FEAD64606F1020607FB066CCCF193
:101D4000005C4FEA1C472CEA074C07FB06F40CFB2F
:101D500006F504EB15464FEA961634BF00204FF007
:101D600000404FEAD13706FB07FC4FEA1C4C0CFB46
:101D70000BF7D21B03FB0CF761EB07010CFB0EF713
:101D8000B0EB074072EB17420CFB08F734BFA2EB35
:101D90000742B2EB074261EB17414FEA0C444FEAAE
:101DA000910706FB07FC4FEA1C4C0CFB0BF7B0EB52
:101DB000C74072EB573203FB0CF734BFA2EBC742AC
:101DC000B2EBC74261EB57310CFB0EF7B0EBC7002B
:101DD00072EB57720CFB08F734BFA2EBC702B2EBF1
:101DE000C70261EB5771039F4FEA816141EA92118B
:101DF00004EBCC044FEAD1374FEA826206FB07FCC2
:101E000042EA90124FEA80604FEA1C4C0CFB0BF741
:101E1000D21B03FB0CF761EB07010CFB0EF7B0EBD9
:101E2000074072EB17420CFB08F734BFA2EB0742E6
:101E3000B2EB074261EB17414FEA8C554FEA91072D
:101E400004EB9C2406FB07FC4FEA1C4C0CFB0BF735
:101E5000B0EBC74072EB573203FB0CF734BFA2EB79
:101E6000C742B2EBC74261EB57310CFB0EF7B0EB48
:101E7000C70072EB57720CFB08F734BFA2EBC70226
:101E8000B2EBC70261EB577115EB4C254FEA81614C
:101E900041EA92114FEA82624FEAD13742EA901248
:101EA00006FB07FC44F100044FEA80604FEA1C4C3B
:101EB0000CFB0BF7D21B03FB0CF761EB07010CFBD0
:101EC0000EF7B0EB074072EB17420CFB08F734BF7C
:101ED000A2EB0742B2EB074261EB174115EB1C1571
:101EE0004FEA813141EA92414FEA823242EA90421E
:101EF0004FEA80304FEA0C7644F1000448EA03438D
:101F00004EEA0B484FF0000EB2EB080C71EB0307E2
:101F100024BF624639464EEB0E0E4FF0000B001800
:101F2000524149414BEB0B0BB2EB080C71EB030731
:101F30007BF1000B24BF624639464EEB0E0E4FF08C
:101F4000000B0018524149414BEB0B0BB2EB080C54
:101F500071EB03077BF1000B24BF624639464EEB61
:101F60000E0E51EA020718BF46F0010616EB0E7678
:101F700055F1000254F1000103D5BDE88901BDE827
:101F80000088BDE88901BDE80048B619524141EB1F
:101F90000101A3F10103704780807F7E7D7C7B7A05
:101FA0007978777676757473727171706F6E6E6D05
:101FB0006C6C6B6A6A6968686766666564646363AB
:101FC00062616160605F5F5E5E5D5D5C5C5B5B5A31
:101FD0005A5959585857575656555555545453539E
:101FE00052525251515050504F4F4F4E4E4D4D4DF9
:101FF0004C4C4C4B4B4B4A4A4A4949494848484744
:102000004747474646464545454444444443434381
:102010004342424242414141002B9C4630D477002A
:102020002BD01CB54FEA370703B44FF010004FF028
:102030001001BAF1000F06D0BCF1000FDCBF40F078
:10204000080040F008014FF000000FBCBDE8104050
:102050000BF1010BBBF1010F08BF5FEA170722BFAD
:1020600012F1010211F101014FF0004143F10003AF
:1020700000F0004043EA00007047F9D35708D0E76A
:1020800046EA064613F1400F4FEA16461FDD13F1EC
:10209000200FDFBF16430A46002120335B42BED02B
:1020A000C3F1200746EA064602FA07F74FEA16464A
:1020B00046EA0706C3F1200722FA03F201FA07F7FE
:1020C00021FA03F14FF0000342EA0702A7E746EACC
:1020D000020646EA06464FEA164646EA0106BCBF35
:1020E00046EA0646360C4FF000034FF000024FF070
:1020F000000194E72DE9804C9A46934670B491E82C
:10210000380007C831EA400C48BF34EA430C03D515
:10211000FFF7E6FDFFF780FFF0BCBDE8008C2DE97E
:10212000804C9A46934670B491E8380007C810F086
:10213000804F08BF13F0804F03D100F005F8FFF780
:102140006BFFF0BCBDE8008C20F07F4780EA030005
:1021500023F07F4C07EB0C03A3F57C5300F0004009
:10216000A3F1FE0392F0000F00F0B38095F0000F92
:1021700000F077802DE901494FEA11404FEA1446FB
:1021800021EA004800FB06FC24EA064708FB06F6A5
:1021900007FB08F800FB07F718EB06484CEB164C5A
:1021A0004FEA124B18EB07484FEA15464CEB174025
:1021B00022EA0B4E0BFB06FC25EA06470EFB06F651
:1021C00007FB0EFE0BFB07F71EEB064E4CEB164C07
:1021D0004FF000061EEB074E4CEB174B18EB0B08AD
:1021E00040F1000018EB0E0B58EB000840F1000026
:1021F0008F1A4FF000013CBFC943661B14BFB5EBFB
:10220000040C00213CBFC943F61B4FEA17444EEAB9
:102210008E0E27EA04454FEA1C4704FB07622CEAAE
:10222000074C05FB07F70CFB05F604FB0CFC16EB53
:10223000074642EB174216EB0C4642EB1C421BEBE7
:10224000060658EB0202414146EA9E0601D5BDE86A
:102250000189B619524141EB0101A3F10103BDE827
:1022600001894FEA14454FEA114724EA054621EA5D
:10227000074C05FB07F406FB07F70CFB06F105FB13
:102280000CFC11EB074144EB17444FEA124711EBEA
:102290000C4144EB1C4422EA074C05FB07F206FB09
:1022A00007F70CFB06F605FB0CFC16EB074642EBAA
:1022B000174216EB0C4642EB1C456A1854F100011C
:1022C00048BF7047B619524141EB0101A3F1010328
:1022D000704795F0000F37D04FEA11424FEA14478C
:1022E00021EA024624EA074C02FB07F106FB07F746
:1022F0000CFB06F402FB0CFC14EB074441EB17410A
:102300004FEA154714EB0C4441EB1C4125EA074CFE
:1023100002FB07F506FB07F70CFB06F602FB0CFCBD
:1023200016EB074645EB174516EB0C4645EB1C42F2
:10233000121951F1000148BF7047B619524141EBE3
:102340000101A3F1010370474FEA14454FEA114719
:1023500024EA054621EA074C05FB07F106FB07F7CF
:102360000CFB06F24FF0000605FB0CFC12EB0742DB
:1023700041EB174112EB0C4251EB1C4148BF704737
:10238000921841EB0101A3F101037047FEE770478A
:1023900072B6FEE7002229B101291AD002291BD00A
:1023A0004FF440720E490B6823F440730B600B68C6
:1023B00013430B600A6822F0F8020A600A680223DD
:1023C00003EBC00002430A60086840F480300860F4
:1023D00070474FF48072E5E74FF40072E2E70000C7
:1023E000103C02401348016889050FD5016821F4AB
:1023F00000710160016841F400610160016821F42D
:1024000000610160016841F40071016001684905E3
:102410000FD5016821F480610160016841F48051A9
:102420000160016821F480510160016841F480611C
:1024300001607047003C024008490A6822F440727B
:102440000A600A6842F004020A600A684FF48033A6
:1024500043EA002002430A6070470000103C02403B
:10246000064A136823F440731360136813601368FB
:1024700043F001031360017070470000103C0240FC
:10248000094910B50C6824F440740C600C6844F4DD
:1024900040740C600C6844F001040C600260BFF3EF
:1024A0006F8F436010BD0000103C0240074A136864
:1024B00023F440731360136843F48073136013684C
:1024C00043F001031360018070470000103C02409C
:1024D000074A136823F440731360136843F40073CE
:1024E0001360136843F0010313600160704700003C
:1024F000103C024017490868C206174805D5C26952
:1025000042F01002C26110220A600A68920605D5E4
:10251000C26942F00802C26120220A600A685206BB
:1025200005D5C26942F00402C26140220A600A680D
:10253000120605D5C26942F00202C26180220A6019
:102540000A68920705D5C26942F02002C2610220E2
:10255000086070470C3C02408403002070B51149AC
:1025600004460020C86100F075FA05460E4E09E0E9
:10257000601C07D024B100F06DFA401BA04201D9C5
:10258000032070BD3068C003F2D43068C00701D0AA
:1025900001203060306810F0F200F2D0FFF7AAFF9F
:1025A000012070BD840300200C3C024070B54379CB
:1025B000012B1CD0012545710223037103681E689D
:1025C00002F0100240F6FE749440A643D1E90041A7
:1025D0000C43944034431C6001680B68C024944051
:1025E000A3430B60057100214171084670BD0220B4
:1025F00070BD70B5040003D02079002510B105E04E
:10260000012070BD6571204600F008F8022020719D
:10261000256101202071002070BD000010B586B03A
:10262000044614216846FEF730FB114920688842B1
:102630001CD110480021026842F00052026000687C
:1026400000F0005005900B481038026842F001027B
:102650000260006800F00100059010200090032047
:10266000CDE901016946044800F0FAF806B010BD52
:1026700000740040403802400000024018B5046871
:1026800000940068104421B11430009003600020D1
:1026900018BD0830F9E770B54279012A1ED001242F
:1026A00044710222027103681D6801F0100204FAED
:1026B00002F635431D600029016811D00B6803F450
:1026C00070153C2393409D4203D14A6842F00202B8
:1026D0004A60047100214171084670BD022070BD3E
:1026E0000A68C2F383020F2AF3D14A6842F001025A
:1026F000EEE730B50268136801F01004012505FA11
:1027000004F18B4313600571002030BD2DE9F047C3
:10271000044622480E46017E01290AD00121804646
:1027200001764CF250394846FFF718FF020003D0FB
:102730002FE00220BDE8F0874FF0FF3030602068C6
:10274000174F012801D0A5681CE0207C6168FFF7C5
:1027500073FE4846FFF702FF0246386820F0040087
:10276000386014E0217C2846FFF714FE4846FFF746
:10277000F5FE0200386820F0FA00386001D03560BC
:1027800005E06D1CD4E902100844A842EAD8FFF71E
:1027900029FE002188F818101046CBE7840300209A
:1027A000103C02400348016841F0004101600020F4
:1027B00070470000103C02402DE9F0471B4E0546D3
:1027C0001446307E1F468946012808D00120307605
:1027D0004CF250384046FFF7C1FE18B114E0022019
:1027E000BDE8F0879DB1012D16D0022D19D02246EB
:1027F0003B464846FFF744FE4046FFF7AFFE0C4914
:102800000A6822F001020A6000213176E8E7E1B2AD
:102810004846FFF725FEEFE7A1B24846FFF746FE20
:10282000EAE721464846FFF753FEE5E78403002028
:10283000103C0240074900200A68002A09DA054ACC
:10284000054B0C3A1360054B13600968002900DA48
:1028500001207047103C024023016745AB89EFCD52
:102860002DE9F84FDFF89C910022A9F1040B032712
:102870004FF00F0C09F1040AABF1040E01250B68AF
:1028800095402B40AB426ED10C7904F00304012C2F
:1028900001D0022C15D18668540007FA04F826EA04
:1028A0000806D1F80C8008FA04F848EA0608C0F8CF
:1028B00008804468AC430D79C5F300159540254365
:1028C00045600C79E443A40708D0C568540007FAB2
:1028D00004F6B5438E68A6402E43C6600C7904F01A
:1028E0000304022C11D1D40800EB8406356A540786
:1028F000E40E0CFA04F825EA0805D1F8108008FA6D
:1029000004F848EA0508C6F820800568540007FA6C
:1029100004F6B5430E7906F00306A6402E43066082
:102920004C6814F4403F66D0374C256845F4804528
:102930002560246822F0030504F480440094334C9D
:1029400005EB0408D8F808589407260F0CFA06F48B
:10295000A5432F4CA04201D1002424E02D4CA042DD
:1029600002D101241FE046E02B4CA04201D10224F9
:1029700019E02A4CA04201D1032414E0284CA042C3
:1029800001D104240FE0274CA04201D105240AE024
:10299000254CA04201D1062405E0244CA04201D1DF
:1029A000072400E00824B4402C43C8F80848D9F8AC
:1029B00000404D464E689C43F60200D51C432C60F7
:1029C000DAF8004055464E689C43B60200D51C43D9
:1029D0002C60DBF800405D464E689C43B60300D592
:1029E0001C432C60DEF8004075464E689C43F6039D
:1029F00000D51C432C60521C102AFFF43FAFBDE8E9
:102A0000F88F0000083C014044380240003001408B
:102A1000000002400004024000080240000C024096
:102A2000001002400014024000180240001C024046
:102A30000069084000D001207047426921EA020382
:102A40000A4043EA0241816170470AB181617047DF
:102A50000904FBE70148806870470000040000207B
:102A600002488168027811448160704704000020A8
:102A70000B4810B5016841F400710160016841F430
:102A800080610160016841F480710160032000F001
:102A90008DF80F2000F006F800F03EF8002010BD81
:102AA000003C024010B5014688B00022192000F019
:102AB0005DF8192000F04CF813480024016841F437
:102AC00000310160006805A900F4003006906846F6
:102AD00000F018F900F04CF90C494000B0FBF1F19E
:102AE0000C480B4A491E026040F2E732C0E9032459
:102AF000C0E9011400F008FE10B1012008B010BDBB
:102B0000044800F02FFEF9E74438024040420F002D
:102B1000004401403C0300200C4882B0016841F4AD
:102B200080410160006800F4804000900748001F69
:102B3000016841F0805101600068002200F080507F
:102B400000900F21901E02B000F010B844380240EF
:102B5000002809DB00F01F0201219140400980009C
:102B600000F1E020C0F8001170470000F0B40E4BF7
:102B70001B68C3F30223C3F10704042C00D9042407
:102B80001D1D072D01D2002300E0DB1E012606FAE1
:102B900004F56D1E0D409D409E40761E164045EA90
:102BA0000601F0BC01F05BBB0CED00E0064A00F052
:102BB000070110684FF6FF03184040EA012003495F
:102BC00008431060704700000CED00E00000FA05BB
:102BD0002DE9F0470D46040065D0DFF81491D9F8CF
:102BE0000000EFB200F00700A84207D289F8007099
:102BF000D9F8000000F00700A84254D120683D4EEB
:102C0000810712D5400703D5306840F4E0503060AA
:102C10002078000703D5306840F4604030603068A9
:102C2000A16820F0F000084330602078C0072DD064
:102C3000304960680839012812D0022813D00328CF
:102C400011D00968890700292DDA316821F00301C4
:102C500001433160FFF7FEFE804641F2883A0EE004
:102C600009688903EFE709688901ECE7FFF7F2FEDD
:102C7000A0EB0801514502D90320BDE8F087306878
:102C8000616800F00C00B0EB810FEFD1D9F80010B3
:102C9000484601F00701A94207D90770006800F013
:102CA0000700A84201D00120E7E72078400705D5BA
:102CB0003068E16820F4E050084330602078000775
:102CC00006D53068216920F4604040EAC1003060D8
:102CD00000F05EF83168084AC1F30311515CC84046
:102CE0000649086006480068FFF7DCFE0020C4E7DC
:102CF000003C02400838024069E90008100000204A
:102D0000080000200F2202600C4A136803F003033E
:102D10004360136803F0F0038360136803F4E05327
:102D2000C36012684FF4E05303EAD2020261044820
:102D3000006800F007000860704700000838024093
:102D4000003C02400148006870470000100000206D
:102D50000448054900680968044AC1F38221515CAE
:102D6000C8407047100000200838024079E9000888
:102D70000448054900680968044AC1F34231515CBE
:102D8000C8407047100000200838024079E9000868
:102D9000154810B5006810F00C01144813D043100A
:102DA00004290FD008290ED10F4C241F216801F0EF
:102DB0003F022168490207D52068C0F38810A0FBB4
:102DC000030106E0184610BD2168C1F38811A1FB7C
:102DD00000010023FDF782FB2168C1F30141491C7A
:102DE0004900B0FBF1F010BD083802400024F400A7
:102DF0002DE9F84F040075D02078DFF838A3C0071C
:102E0000AAF1040548D00AF104000168C1F3810168
:102E1000012908D00068C0F3810002280AD1DAF83D
:102E20000000400206D52868800335D56068002878
:102E3000E1D031E06068B0F5803F10D0B0F5A02F50
:102E4000286810D020F480302860286820F4802082
:102E500028606068A0B1FFF7FDFD06460CE0286819
:102E600040F48030F4E740F480202860F7E7FFF773
:102E7000F1FD801B642871D828688003F7D50BE02A
:102E8000FFF7E8FD064604E0FFF7E4FD801B642839
:102E9000F1D828688003F7D42078DFF89C92800767
:102EA0004FF0000B3DD5A348001D016811F00C0F39
:102EB00008D00068C0F3810002280AD1DAF80000C7
:102EC000400206D42868800715D5E068012809D19A
:102ED00011E0E068B8B10120C9F80000FFF7BAFDC1
:102EE000064605E022E1FFF7B5FD801B0228C2D8A7
:102EF00028688007F7D52868216920F0F80040EAA3
:102F0000C10028600DE0C9F800B0FFF7A3FD064638
:102F100004E0FFF79FFD801B02281FD82868800768
:102F2000F7D42078000722D5824F84486169703732
:102F300071B101210160FFF78DFD064604E0FFF746
:102F400089FD801B022809D838688007F7D50EE074
:102F5000C0F800B0FFF77EFD064605E082E0FFF70F
:102F600079FD801B02287DD838688007F7D4207847
:102F7000400765D56F484FF000083C300068C0003E
:102F80000BD46C483C30016841F08051016000680E
:102F90004FF0010800F080500090694F3868C0057C
:102FA0000FD4386840F480703860FFF753FD064650
:102FB00004E0FFF74FFD801B022853D83868C00596
:102FC000F7D55C4FA0686C3701280FD0052838680A
:102FD00010D020F001003860386820F0040038601C
:102FE000A068B0B1FFF736FD06460EE0386840F045
:102FF0000100F4E740F004003860F7E7FFF72AFD2E
:10300000811B41F28830814263D838688007F5D54A
:103010000DE0FFF71FFD064606E0FFF71BFD811BD5
:1030200041F28830814254D838688007F5D4B8F12D
:10303000000F05D03F483C30016821F0805101600D
:10304000A069B8B33B49091D0968C1F38101022990
:1030500046D00228584606D0C9F86000FFF7FAFCAF
:10306000044639E035E04F46C9F86000FFF7F2FC4E
:10307000064604E0FFF7EEFC801B022829D82868EA
:103080008001F7D4D4E907010843A16A2D4A490811
:1030900002EB0141626A41EA8211084394F82C1064
:1030A00040EA0161CAF8001001203866FFF7D2FC3F
:1030B000044605E03CE0FFF7CDFC001B022808D8E1
:1030C00028688001F7D533E0FFF7C4FC001B022815
:1030D00002D90320BDE8F88F28688001F4D427E0E6
:1030E0000128F7D0DAF80000E26900F4800191428B
:1030F0001CD1226A00F03F01914217D147F6C071FE
:10310000626A0140B1EB821F10D1A26A4FF0FF3317
:1031100000F4403103EB5202B1EB024F06D194F8B8
:103120002C1000F07060B0EB016F01D00120D1E7EE
:103130000020CFE70438024000004742800E47429B
:10314000007000400000FFFF70B5040009D0606A05
:10315000002540B125616561A56294F8510040B138
:103160000CE0012070BD6068B0F5827FF4D0E561AD
:10317000F2E784F85050204600F044F8022084F82A
:1031800051002068016821F040010160A088218978
:1031900000F4827001F404410843A18901F4006144
:1031A0000843217C01F002010843217D01F0010167
:1031B0000843218B01F400710843217F01F038019D
:1031C000084394F8201001F080010843218D01F498
:1031D0000051084321680860A069042101EA1040F9
:1031E00094F8241001F01001084321684860206819
:1031F000C16921F40061C1616565012084F8510055
:10320000002070BD10B586B0044614216846FDF755
:103210003CFD13492068884220D1124800210268F1
:1032200042F480520260006800F4805005900D481E
:103230001438026842F002020260006800F00200E6
:103240000590382000900220CDE901010320039071
:103250000520049069460448FFF702FB06B010BD44
:103260000030014044380240000402402DE9F84F8C
:103270000446406800261D46904689464FF0040BE0
:10328000B0F5827F01D1A06888B194F85000012880
:1032900017D0012084F85000FFF7DCFB074694F8B4
:1032A00051004FF0000A01280DD002267EE084F87C
:1032B00051B0009313460A46204600F036F9BDE8A7
:1032C000F88F0220FBE7B9F1000F6ED0B8F1000FC4
:1032D0006BD084F851B0C4F854A0C4F83890A4F866
:1032E0003C80A4F83E80C4F830A0A4F834A0A4F830
:1032F00036A0C4F840A0C4F844A0A068B0F5004FC0
:1033000009D12068016821F040010160206801684E
:1033100021F48041016020680168490603D40168F6
:1033200041F040010160E068B8B131E02068816897
:10333000C90709D0007BA16B0870A06B401CA0637B
:10334000E08F401EE08708E0FFF784FBC01BA84227
:1033500002D3681C01D031E07DB3E08F0028E5D1B5
:1033600019E020688168C90709D0C068A16B08808E
:10337000A06B801CA063E08F401EE08708E0FFF791
:1033800069FBC01BA84202D3681C01D016E0A5B19E
:10339000E08F0028E5D13A462946204600F0D8FCC7
:1033A00008B120206065606D00B10126012084F81D
:1033B000510084F850A0304681E7FFE70326F5E787
:1033C0002DE9F84F044690F8500000261D4690461F
:1033D000894601280ED04FF0010B84F850B0FFF75A
:1033E00039FB074694F851004146B246012804D003
:1033F000022694E00220BDE8F88FB9F1000F74D0E6
:10340000B8F1000F71D0032084F85100C4F854A023
:10341000C4F83090A4F83480A4F83680C4F838A0FA
:10342000A4F83CA0A4F83EA0C4F844A0C4F840A06E
:10343000A068B0F5004F09D12068026822F0400270
:1034400002602068026842F48042026020680268DC
:10345000520603D4026842F040020260E068B0F510
:10346000006F606803D028B3012923D03FE008B182
:1034700001291BD1206B21680088C86006E0206804
:103480008168890709D5216B0988C160206B801C80
:103490002063E08E401EE08608E0FFF7DBFAC01BE9
:1034A000A84202D3681C01D030E075B3E08E00283A
:1034B000E5D11FE0206B21680078087306E02068E2
:1034C0008168890709D5216B09780173206B401C3D
:1034D0002063E08E401EE08609E0FFF7BBFAC01BC8
:1034E000A84203D3681C02D010E017E06DB1E08E53
:1034F0000028E4D13A462946204600F057FC08B19E
:1035000020206065A06818B106E0FFE7032606E00A
:103510002068C16880680090606D00B1012684F861
:1035200051B084F850A0304665E72DE9F84F0446C5
:1035300090F8500001250A9E1F4692468B464FF098
:10354000000801280ED0012084F85000FFF782FA0D
:10355000814694F85100616801280CD0B1F5827F52
:1035600007D102E00220BDE8F88FA16809B904285C
:1035700001D00220B6E0BBF1000F27D0BAF1000F56
:1035800024D01FB394F85100042802D0052084F8F9
:10359000510000206065C4F838A0E787A787C4F809
:1035A00030B0E786A7862064606420680168490619
:1035B00003D4016841F040010160E068B0F5006F9C
:1035C000606805D0E8B3012F43D079E0012089E09D
:1035D00008B1012F34D1206B21680088C860206BAE
:1035E000801C2063E08E401EE08629E02068816810
:1035F00089070DD5E18E59B1012D09D1216B0988BB
:10360000C160206B801C2063E08E401EE086002598
:1036100020688168C9070BD0E18F49B1C068A16BF0
:103620000880A06B801CA063E08F401EE08701250E
:10363000FFF710FAA0EB0900B04201D3701C50D183
:1036400000E006E0E08E0028D0D1E08F0028CDD148
:103650003CE0206B216800780873206B401C2063DD
:10366000E08E401EE0862BE02068816889070DD53A
:10367000E18E59B1012D09D1216B09780173206BBD
:10368000401C2063E08E401EE08600252068816893
:10369000C9070BD0E18F49B1C068A16B0870A06B5E
:1036A000401CA063E08F401EE0870125FFF7D2F9A0
:1036B000A0EB0900B04202D3701C01D011E086B12A
:1036C000E08E0028D0D1E08F0028CDD14A46314687
:1036D000204600F06BFB38B120204FF001086065F8
:1036E00008E00320804605E0A06818B92068C1689A
:1036F00080680090012084F85100002084F8500078
:10370000404630E77047704710B5040003D094F886
:103710003D0010B107E0012010BD002084F83C00FE
:10372000204600F01EF8022084F83D00211D20688C
:1037300000F044FC012084F8460084F83E0084F840
:103740003F0084F8400084F8410084F8420084F887
:10375000430084F8440084F8450084F83D000020CC
:1037600010BD704790F83D10012901D0012070472D
:10377000022180F83D100168CA6842F00102CA6067
:1037800000681149884214D0B0F1804F11D00F4920
:1037900088420ED00E4988420BD00E49884208D08C
:1037A0000D49884205D00D49884202D00C49884213
:1037B00004D1816801F00701062903D0016841F0B6
:1037C000010101600020704700000140000400403A
:1037D00000080040000C004000040140004001408F
:1037E00000180040704770B50446006801694FF04A
:1037F0000005C943890715D4C168C943890711D495
:10380000E91E016101202077206880698007204639
:1038100002D0FFF7E7FF04E000F098F8204600F040
:1038200096F8257720680169C943490717D4C1680C
:10383000C943490713D46FF00401016102202077C6
:103840002068806910F4407F204602D0FFF7CAFF4D
:1038500004E000F07BF8204600F079F82577206836
:103860000169C943090716D4C168C943090712D4BD
:103870006FF008010161042020772068C06980078B
:10388000204602D0FFF7AEFF04E000F05FF82046CC
:1038900000F05DF8257720680169C943C90617D48F
:1038A000C168C943C90613D46FF010010161082033
:1038B00020772068C06910F4407F204602D0FFF7CF
:1038C00091FF04E000F042F8204600F040F8257730
:1038D00020680169C943C90708D1C168C943C9073C
:1038E00004D1891E0161204600F032F82068016988
:1038F000C943090609D4C168C943090605D46FF054
:10390000800101612046FFF7FDFE20680169C9437F
:10391000490609D4C168C943490605D46FF040017E
:103920000161204600F01EF820680169C94389063C
:103930000BD4C168C943890607D46FF02001016127
:103940002046BDE87040FFF7DEBE70BD704770478F
:1039500000680349884201D1FFF782B87047000030
:1039600000440140704770B5040004D094F83D0055
:10397000002510B106E0012070BD84F83C502046BF
:1039800000F022F8242084F83D002068C16821F46A
:103990000051C160204600F081FB2068016921F4DC
:1039A000904101612068416921F02A01416120684C
:1039B000C16841F40051C1602564202084F83D00B5
:1039C00084F83E00002070BD10B586B00446142176
:1039D0006846FDF75AF918492068884229D11748E6
:1039E0000021026842F010020260006800F010003E
:1039F000059012481438026842F001020260006823
:103A000000F0010005904FF4C06000900220CDE965
:103A10000101032003900720049069460848FEF73F
:103A20001FFF002205212520FFF7A0F82520FFF722
:103A30008FF806B010BD000000100140443802406D
:103A40000000024038B50A4988420FD10068016879
:103A500089060BD54068074C8DF8000004F1300052
:103A6000694608F017FC216CA06C884738BD00003F
:103A7000F8020020FC0000202DE9F843044690F8ED
:103A80003D001F4615460E4620284BD1C6B1BDB19C
:103A900094F83C00012845D0012084F83C004FF008
:103AA0000008C4F84080212084F83D00FEF7D2FFD2
:103AB000A5848146E584A068B0F5805F03D004E06A
:103AC0000120BDE8F883206920B13546002684F83E
:103AD0003C800EE00025FAE78021204600F064FBE0
:103AE000A0B9ADB115F8010B21684860E08C401E0B
:103AF000E084E08C4B464FF0000200970028EBD1A9
:103B00004FF04001204600F04FFB30B10320D8E7D2
:103B100036F8020BC0F30800E6E7202084F83D00E9
:103B20000020CEE70220CCE7FEE700001CB5002411
:103B30000C4900940A48019408600846FEF759FDB4
:103B400008B1FEF725FC009400226946054801945F
:103B5000FEF72CFD002801D0FEF71AFC1CBD00006A
:103B6000007400408C02002010B504F045F80023DA
:103B70001A460121104805F021F80A2105F05AF8EB
:103B800000210E4A084604F03FF90D4A00210120A9
:103B900004F03AF90B4A0121022004F035F90A4AEF
:103BA00000210A4804F0C6FF0949086008F012FF26
:103BB000BDE8104003F0C6B93D7E0008E57A000874
:103BC000F17A0008017B0008E0E80008BD3E00082B
:103BD000000000202DE9F04387B014216846FDF76E
:103BE00054F836480024016841F010010160016872
:103BF00001F010010591016841F0040101600168C4
:103C000001F004010591016841F080010160016843
:103C100001F080010591016841F001010160016836
:103C200001F001010591016841F0020101600068A5
:103C3000DFF88C9000F002000590002260214846D9
:103C4000FEF703FF1F4F4FF400560022314638465F
:103C5000FEF7FBFEDFF87080002201214046FEF7F0
:103C6000F4FE602000900125CDE9015469464846E4
:103C70000394FEF7F5FD0096CDE9015469463846F8
:103C80000394FEF7EDFD02200095CDE90140694661
:103C90000E48FEF7E5FD0095CDE901546946404622
:103CA0000394FEF7DDFD03208DE8310069464846A8
:103CB000FEF7D6FD07B0BDE8F083000030380240C3
:103CC00000100240000802400004024000000240D0
:103CD0000F4810B50D4901604FF482714160002119
:103CE0008160C1604FF400720161C0E90512C161D9
:103CF0000162416281620A21C162FFF725FA002850
:103D000003D0BDE81040FEF743BB10BD00300140BA
:103D1000A00200200C4810B50A4901604FF4E131BF
:103D20004160002181600C22C160C0E90412816100
:103D3000C161FFF718FE002803D0BDE81040FEF770
:103D400027BB10BD00100140F8020020FEE7FEE78F
:103D5000F8B5044640684FF48273984221D1A068B8
:103D60004FF48065B0F5004F01D0A8420AD1206819
:103D7000066826F0400606606068984211D1A06887
:103D8000A8420ED000920B4600228021204600F06F
:103D900039F8002804D0606D40F0200060650320F1
:103DA000F8BD00920B4600220121EFE738B504462A
:103DB0001248134D4FF47A730068B0FBF5F0584386
:103DC00000906068B0F5827F0DD10B460092002212
:103DD0008021204600F016F870B1606D40F02000A0
:103DE0006065032038BD009830B1401E0090206807
:103DF0008068C0430006F6D5002038BD10000020C2
:103E000000366E012DE9F8431E4691468846044669
:103E1000089DFEF71FFE401B351AFEF71BFE0746E6
:103E200025480068C0F3CB30684338E0701C37D0B9
:103E3000FEF710FEC01BA84203D215B1009860B374
:103E40002CE02068416821F0E00141606068B0F535
:103E5000827F0BD1A068B0F5004F02D0B0F5806F23
:103E600004D12068016821F040010160A06AB0F52A
:103E7000005F09D12068016821F4005101602068C9
:103E8000016841F400510160012084F851000020D4
:103E900084F850000320BDE8F8830025401E009000
:103EA0002068816838EA010004D000204845BDD16F
:103EB0000020F0E70120F9E71000002000231A4657
:103EC0001946094804F07AFE084E04464FF47A7504
:103ED000284604F04BFD2021304601F0EAFB1E216C
:103EE000204604F0A7FEF3E799C300080010024043
:103EF00010B54FF0E020006909F0DAFE012803D088
:103F0000BDE8104009F000BA10BD000030B593B014
:103F100030216846FCF7B9FE14210CA8FCF7B5FE69
:103F20001D480025016841F080510160006800F0E3
:103F3000805011901948016841F480410160006887
:103F4000022400F4804011900120009000040190B0
:103F50008001CDE9064008200890A020CDE90904A1
:103F600004200B906846FEF743FF08B172B6FEE7E7
:103F70000CA90F2081E831004FF4A0500F904FF4AE
:103F80008050109002210CA8FEF722FE002801D0DC
:103F900072B6FEE713B030BD4038024000700040FA
:103FA0000248016841F470010160704788ED00E04B
:103FB0000148FFF718BC00003C030020F0B5026880
:103FC000254D264E264FDFF89CC0274B4FF0804EE4
:103FD000A84209D0704507D0B04205D0B84203D0FE
:103FE000604501D0984203D122F070044A68224310
:103FF000A8421BD0704519D0B04217D0B84215D096
:10400000604513D0984211D0184CA0420ED0184CE5
:10401000A0420BD0174CA04208D0174CA04205D0AC
:10402000164CA04202D0164CA04203D122F4407498
:10403000CA6822434C6922F08002224302608A68E7
:10404000C2620A688262A84201D0984201D109691D
:10405000016301214161F0BD000001400004004006
:1040600000080040000C00400004014000400140F6
:10407000004401400048014000180040001C00407E
:104080000020004010B505F0B3FB002805D0D0E9B2
:104090000012BDE810401046084710BD70B5044638
:1040A00000680169E26821F4405111430161A1688F
:1040B0002069E26901436069104301432068C268D6
:1040C00049F20C639A430A43C26020684169A269BD
:1040D00021F440711143416131492068884202D086
:1040E0003049884202D1FEF743FE01E0FEF730FE80
:1040F000E2690023192164253226B2F5004F626877
:1041000028D0A0FB0101930F9200FCF7E7F90146CC
:10411000B0FBF5F06FF01802504301EB800006EBA6
:104120000010B0FBF5F000F0F002B1FBF5F002EB8F
:104130000012B1FBF5F06FF01803584301EB80005B
:1041400006EB0010B0FBF5F000F00F002168104402
:10415000886070BDA0FB010192185B41FCF7BEF9BD
:104160000146B0FBF5F00201B1FBF5F06FF018036A
:10417000584301EB800006EBC000B0FBF5F000F007
:10418000F80002EB4002B1FBF5F0584301EB800070
:1041900006EBC000B0FBF5F000F00700D6E700002A
:1041A00000100140001401402DE9F0411E46174661
:1041B00088460446069D26E0681C24D025B1FEF7FB
:1041C00049FC801BA8421ED920680C3050E8001F13
:1041D00021F4D07140E80012002AF5D12068143093
:1041E00050E8001F21F0010140E80012002AF5D13B
:1041F000202084F83D0084F83E00002084F83C0034
:104200000320BDE8F0812068016838EA010004D08D
:104210000020B842D0D00020F3E70120F9E70000E9
:104220000148FFF70FBC0000F8020020FEE703B4CE
:1042300001984100009850EAC12018BF04204A0D9F
:1042400018BF40F0010040F2FF72B2EB515F08BFAF
:1042500040F00200012808BF052002B0704709079E
:10426000090E002804DB00F1E02080F800147047FC
:1042700000F00F0000F1E02080F8141D704700B539
:104280002DED048BB0EE409AF0EE609A83B051ECC5
:10429000190B0AF04FFA41EC180B18EE100A18EE41
:1042A000901A8DED008B002818BF0120084320F0E4
:1042B0000040C0F17F6000F1E040C00F14D019EE63
:1042C000101A19EE900A8DED009B002918BF0121EC
:1042D000084320F00040C0F17F6000F1E040C00FD3
:1042E00004BF0120FCF70CFEB0EE480A03B0F0EE6C
:1042F000680ABDEC048B00BD2DE9F04F89B017466C
:1043000083460C4600258946EA461BE004F1200856
:10431000B84501D2202600E03E1B33466A462146BE
:10432000584600F027F80020514608E0FF2D04D041
:104330000A5CFF2A01D104EB00090D5C401CB0426D
:10434000F4D34446BC42E1D3FF2D03D0384609B034
:10435000BDE8F08F4846FAE710B5437D00240BB165
:10436000012010BD806801F0B1FB002800DA0124B3
:10437000204610BD70B5457D00240DB1022070BDF2
:10438000806801F09FFC002800DA0224204670BDFE
:1043900070B5457D00240DB1022070BD806801F02C
:1043A00049FD002800DA0324204670BD10B5002224
:1043B000491E0C4604E021F06043C35C13B1521C5B
:1043C000491EF8D2A01A10BD70B504000498154615
:1043D00006D0B1B1002D25D0227D002A7ED132E059
:1043E0004FA0FCF731F951A0FCF72EF91A2250A189
:1043F00055A0FCF729F9574A57A158A0FCF724F912
:10440000FEE747A0FCF720F948A0FCF71DF91B22A6
:1044100047A14DA0FCF718F94E4A58A14FA0FCF750
:1044200013F9FEE73EA0FCF70FF940A0FCF70CF9EA
:104430001C223FA144A0FCF707F9464A51A147A01E
:10444000FCF702F9FEE7216023712062607D08B16C
:10445000206935E001F0BCFA284601F0E5FBA060D8
:1044600000281DD01C3001F0DFF9E168006A002946
:1044700022D0B1FBF0F200FB121000281DD028A0C2
:10448000FCF7E2F829A0FCF7DFF8442228A12EA0CF
:10449000FCF7DAF82F4A3DA130A0FCF7D5F8FEE78B
:1044A0001FA0FCF7D1F821A0FCF7CEF829463FA0C9
:1044B000FCF7CAF8042070BDE060A068806B206142
:1044C000E168B0FBF1F201FB120292B114A0FCF71B
:1044D000BBF816A0FCF7B8F84C2200E01EE014A1CF
:1044E00019A0FCF7B1F81B4A39A11CA0FCF7ACF8E5
:1044F000FEE7B0FBF1F0022810D209A0FCF7A4F807
:104500000AA0FCF7A1F84E2209A10FA0FCF79CF825
:10451000104A38A111A0FCF797F8FEE7002070BD03
:104520005B466C61736844425D000000200000003F
:104530002E2E5C466C61736844425C7372635C66E9
:1045400064622E63000000002825733A2564292048
:1045500000000000BCED00086462000028257329FB
:104560002068617320617373657274206661696C81
:1045700065642061742025732E0A00006E616D65EC
:1045800000000000706174680000000064622D3E4D
:104590007365635F73697A65202520626C6F636B56
:1045A0005F73697A65203D3D203000004572726F6F
:1045B000723A20506172746974696F6E2028257395
:1045C00029206E6F7420666F756E642E0A000000DD
:1045D00064622D3E6D61785F73697A652025206481
:1045E000622D3E7365635F73697A65203D3D2030BF
:1045F0000000000064622D3E6D61785F73697A652A
:10460000202F2064622D3E7365635F73697A652095
:104610003E3D20320000000070B50D00044613D06E
:10462000A07D00282AD117A0FCF70EF818A0FCF7EF
:104630000BF820792268002821D016A12B46BDE86E
:10464000704016A0FCF700B81F4C012505752078B6
:10465000002813D10BA0FBF7F7FF0DA0FBF7F4FF29
:104660001AA11CA0FBF7F0FF06A0FBF7EDFF08A0C6
:10467000FBF7EAFF2048FBF7E7FF257070BD1FA19D
:10468000DCE700005B466C61736844425D0000003B
:104690002000000054534442000000004572726F35
:1046A000723A202573202825732920697320696EAA
:1046B000697469616C697A65206661696C20282576
:1046C00064292E0A0000000040020020312E322E04
:1046D00030000000466C6173684442205625732008
:1046E000697320696E697469616C697A6520737594
:1046F00063636573732E0A00B0FB00084B56444297
:1047000000000000F0B5A1B00026044601201F966D
:1047100084F82D0025483746CDE900401FAB3246CE
:1047200019A90296204605F073FFA07D18B11F98C5
:1047300008B1022632E0D4E90310B0FBF1F01F9972
:1047400088420CD11AA0FBF77FFF1DA02168FBF760
:104750007BFF1DA0FBF778FF204601F02FFFA1692A
:1047600009B12046884725482346CDE9007000223C
:1047700019A91846029705F04BFF214D2246002348
:1047800003A91046009503F071FB94F82C0018B1B2
:10479000204602F01BFFF1E784F82D70E16909B1B2
:1047A0002046884721B03046F0BD00003D4F00084C
:1047B0005B466C61736844425D5B6B765D00000034
:1047C0005B25735D20000000416C6C207365637491
:1047D0006F722068656164657220697320696E6319
:1047E0006F72726563742E2053657420697420742F
:1047F0006F2064656661756C742E0A000D4D0008AB
:104800002D4D000870B51C4615000DD04FF0FF323D
:1048100002EBC402D3082A46FFF7ACFD2146284626
:10482000BDE87040FFF7C2BD08A0FBF70DFF0CA06C
:10483000FBF70AFFA4220BA111A0FBF705FF134A07
:1048400013A117A0FBF700FFFEE700005B466C61B9
:10485000736844425D5B7574696C735D00000000B1
:10486000200000002E2E5C466C61736844425C732D
:1048700072635C6664625F7574696C732E630000BA
:104880002825733A256429200000000076F20008EC
:104890007374617475735F7461626C65000000000D
:1048A00028257329206861732061737365727420F1
:1048B0006661696C65642061742025732E0A0000AE
:1048C00070B506464FF0FF3404EBC1001546C10831
:1048D000FF223046FCF7AFF915B16C1E00203055B1
:1048E000204670BDF8B51446DDE906260D4607469C
:1048F0009A4210D319A0FBF7A7FE1DA0FBF7A4FE58
:104900008D221CA122A0FBF79FFE244A24A12BA0EC
:10491000FBF79AFEFEE76CB119462046FFF7D0FF81
:10492000411C18D022182918012338460096FFF799
:104930002FFDF8BD09A0FBF787FE0DA0FBF784FE55
:104940008E220CA112A0FBF77FFE144A23A11BA00C
:10495000FBF77AFEFEE70020F8BD00005B466C61C5
:10496000736844425D5B7574696C735D00000000A0
:10497000200000002E2E5C466C61736844425C731C
:1049800072635C6664625F7574696C732E630000A9
:104990002825733A256429200000000064F20008ED
:1049A0007374617475735F696E646578203C2073FD
:1049B00074617475735F6E756D000000282573292E
:1049C0002068617320617373657274206661696C1D
:1049D00065642061742025732E0A0000737461746D
:1049E00075735F7461626C650000000030380A28DE
:1049F00001D20120704700207047704770470000C7
:104A00002DE9FE4F824600F1200816460F46006948
:104A100031441C464FF00109814205D93CA006F003
:104A2000D1F80520BDE8FE8FD8F80810404601B146
:104A30008847F8070CD02046394601230090641CB3
:104A40007F1C1A46504604F00DF9050054D1761E1D
:104A50000121504605F0DEFE05004DD1AD208DF858
:104A600004000DF1040B34E0B9F1000F13D05D46E2
:104A70006A1C3946504603F0F3FD9AF8350008B138
:104A8000052200E004222078A854A9186078487014
:104A90004FF0000906E020788DF8050060780122CB
:104AA0008DF80600002000900023D8F804504046FE
:104AB00001A9921CA847050003D01FA006F082F8A8
:104AC0001AE0504608F0C6FA050015D1A41CB61E1F
:104AD000BF1C022EC8D20021504605F09BFE0500E7
:104AE0000AD1012E0CD101231A46394650460094B2
:104AF00004F0B8F8050003D00021504605F08AFE06
:104B0000D8F80C10404601B1884728468AE70000D3
:104B10004572726F723A20466C61736820616464FA
:104B200072657373206973206F7574206F662062DD
:104B30006F756E642E0000004572726F723A2046E7
:104B40006C617368207772697465205350492063E3
:104B50006F6D6D756E6963617465206572726F72D9
:104B60002E00000070B50C46054606F009FC6FF0FB
:104B7000010106F0AAF923462A46BDE8704000214B
:104B800003F0D2BB10B5044606F0FAFB6FF001014A
:104B900006F09BF9E1B2BDE8104003F099BC2DE9A5
:104BA000FC4115460E4607461C460121FF2201A87E
:104BB000FCF741F80020009023462A46314638464B
:104BC000FFF7E6FBBDE8FC812DE9F0418AB0044621
:104BD00000254FF0FF300395089008A8CDE9062086
:104BE000CDE904548846214804A9CDE9001003AB5F
:104BF0002A4602954146204605F00AFD1C4F0498BE
:104C0000012640B1CDE9005705AB022241462046BE
:104C1000029605F0FDFC0398002823D00899491C52
:104C200020D1012802D894F82C0048B1CDE90057D2
:104C300005AB012241462046029605F0E9FC11E051
:104C40000CA0FBF701FD0FA02168FBF7FDFC4FF462
:104C500052720EA114A0FBF7F7FC16A0FBF7F4FCB0
:104C600084F82C6008980AB0BDE8F081D3A600084B
:104C7000E14C00085B466C61736844425D5B6B7697
:104C80005D0000005B25735D200000002E2E5C4659
:104C90006C61736844425C7372635C6664625F6BF0
:104CA0007664622E630000002825733A256429206B
:104CB00000000000547269676765722061204743F5
:104CC00020636865636B20616674657220616C6C3B
:104CD0006F63204B56206661696C65642E0A000084
:104CE000027862B102694B689A4208D98278012A37
:104CF00007D0022A03D10A6892F82C200AB10020BA
:104D000070478968406908600120704710B5024605
:104D10000846117839B19178032904D1012180F82E
:104D20002C1002F053FC002010BD00007FB50D4692
:104D30000446417800F11006007809B1032806D036
:104D4000012838D0002949D0022841D046E024A0CB
:104D5000FBF77AFC26A02968FBF776FCA17832469F
:104D60002548FBF771FC2146284603F0A9FC0028E2
:104D70001BA010D0FBF768FC1DA02968FBF764FCA2
:104D800040F2C3521DA124A0FBF75EFC2548A16898
:104D9000FBF75AFC19E0FBF757FC15A02968FBF755
:104DA00053FC40F2C15215A11BA0FBF74DFC1EA005
:104DB000FBF74AFC12E001210520CDE900010623A2
:104DC00002AA2846216DFFF78DFD012004B070BDB9
:104DD000A27831462846236D07F07AFC0020F5E7DB
:104DE0005B466C61736844425D5B6B765D000000FE
:104DF0005B25735D2000000088FC00082E2E5C46B9
:104E00006C61736844425C7372635C6664625F6B7E
:104E10007664622E630000002825733A25642920F9
:104E20000000000020FD00085265636F766572790E
:104E300020746865204B56207375636365737366D1
:104E4000756C2E0A000000002DE9F0478946804667
:104E50000024DFF874A032E008EB841606F11C0091
:104E6000074600F0E1FC050019D0706BE969884243
:104E700022DB9022154916A0FBF7E6FB08EB841015
:104E8000EB69426B311D1948FBF7DEFB18A0FBF7FD
:104E9000DBFB194900208860401EBDE8F0878A22AC
:104EA0000A4916A0FBF7D0FB394619A0FBF7CCFB4B
:104EB00010A0FBF7C9FB01E04AF82450641C4C45E4
:104EC000CAD30020E9E700009C5D0020FCF3000845
:104ED0001B5B33313B32326D5B452F46414C5D20CD
:104EE0002825733A25642920000000005CFF000893
:104EF0001B5B306D0A000000440200205B442F461B
:104F0000414C5D202825733A2564292000000000CB
:104F10005761726E696E673A20446F204E4F54207D
:104F2000666F756E642074686520666C61736820B6
:104F3000646576696365282573292E0070B505467A
:104F400000781446E8B90868401C0860A07D08B1E4
:104F5000012070BD0CA0FBF777FB0FA02168FBF7C9
:104F600073FB40F2A2520EA114A0FBF76DFB164892
:104F70006968FBF769FB4FF0FF322046696802F071
:104F800003FA002070BD00005B466C617368444208
:104F90005D5B6B765D0000005B25735D20000000AB
:104FA0002E2E5C466C61736844425C7372635C666F
:104FB00064625F6B7664622E630000002825733A9A
:104FC0002564292000000000F8FB00082DE9F041CD
:104FD000064600780D680C46012728B17078022833
:104FE0000ED001281DD02DE017A0FBF72DFB1AA035
:104FF0002968FBF729FB1AA07168FBF725FB0CE079
:10500000A86A401C18D010A0FBF71EFB12A029684C
:10501000FBF71AFB1D48FBF717FB27710120BDE8C2
:10502000F081A068401CA0607068E060886801287A
:1050300008D1A86A401C05D12822314605F1240078
:10504000FBF7C7FD0020EAE75B466C6173684442EA
:105050005D5B74736C5D00005B25735D2000000078
:10506000536563746F7220283078253038582920B2
:1050700068656164657220696E666F206973206976
:105080006E636F72726563742E0A0000B8FE0008CA
:1050900070B50B4900EB800001EB001505F1300401
:1050A000204607F0DFF8002809D1204607F0C6F8AF
:1050B000696C00788847204607F0DEF8F0E770BD9D
:1050C000FC0000202DE9FF4F8BB00027189E0446FE
:1050D0008DF824709346894610464D69FBF7CAFC4B
:1050E00040280ED96CA0FBF7AFFA6FA02168FBF740
:1050F000ABFA40216EA0FBF7A7FA05200FB0BDE880
:10510000F08FFF221C2102A8FBF795FD7348049045
:105110005846FBF7AFFCC0B28DF81C0030441C3081
:1051200008960590E168143988420BD95AA0FBF71C
:105130008BFA5DA02168FBF787FA69A0FBF784FA78
:105140000720DBE7681C07D149462046059A03F093
:105150008DFB0546401C7DD009AB49462046059A8B
:1051600007F006FB5FEA000875D1FF208DF82800E4
:10517000082207A9002001F04FF806909DF81C2096
:10518000594601F049F80026069005E001220AA9D7
:10519000069801F041F80690761EF7D2089A0E990B
:1051A000069801F039F80026069005E001220AA9C8
:1051B000069801F031F80690761EF7D24FF0010AFA
:1051C000CDE900A702AE0623324629462046FFF766
:1051D00089FB40B9142306F1080205F108012046B5
:1051E0000097FFF7D5F85FEA000853D105F11C01DD
:1051F0009DF81C305A460E462046FFF7D0FC8046EC
:105200009DF8240048B99DF81C00089908448219AB
:105210002046D9F8041007F0A9FB9DF81C202B4666
:105220005946204607F054FAB8F1000F32D19DF8E4
:105230001C00089B811920460E9AFFF7B0FC5FEA1C
:10524000000827D10220CDE9000A5646062302AA0B
:10525000294601E01CE01DE02046FFF743FB5FEA22
:10526000000817D19DF82400A0B10BA0FBF7ECF9C2
:105270000DA02168FBF7E8F940F2834220A127A0A6
:10528000FBF7E2F928A0FBF7DFF984F82C6001E0D6
:105290004FF00708404631E75B466C617368444253
:1052A0005D5B6B765D0000005B25735D2000000098
:1052B0004572726F723A20546865204B56206E61B9
:1052C0006D65206C656E677468206973206D6F7200
:1052D00065207468616E2025640A00004B563030EA
:1052E0004572726F723A20546865204B562073697C
:1052F0007A6520697320746F6F206269670A000005
:105300002E2E5C466C61736844425C7372635C660B
:1053100064625F6B7664622E630000002825733A36
:1053200025642920000000005472696767657220B7
:105330006120474320636865636B20616674657212
:105340002063726561746564204B562E0A0000006C
:1053500010B509F0A1F89FED0B1B53EC112B09F0D0
:10536000EBF89FED0A1B53EC112B08F0F9FE09F046
:105370004FF803460022BDE8104011460548FDF7EE
:105380007DB900000000000000FEAF4000000000FA
:1053900000C8A9408C02002000210148FDF77BB91C
:1053A0008C02002000210148FDF7A3B98C020020E7
:1053B0002DE9FF5F82B09346DDE9109A0298FBF772
:1053C00059FB06460027FBF733F8002480462546A4
:1053D0000DE0CDE9009A02985A460021005D059B38
:1053E00003F0F0FC08F80400641C45F10005A01B64
:1053F00075EB0700EDDB06B04046BDE8F09F00000E
:105400002DE9F04798B01D4614008A46064604D19F
:105410006A4601F0FBFCA0B16C4601274FF0000882
:10542000002D23D00420CDE90007062316AA30461C
:10543000216DFFF757FA96F8A0100546294322D0B0
:1054400034E028A0FBF700F92AA03168FBF7FCF84C
:1054500040F2623229A130A0FBF7F6F8514631A0A4
:10546000FBF7F2F8052018B0BDE8F0870321CDE97D
:105470000018062316AA3046216DFFF733FA0546B9
:1054800086F8A07014E0BAF100004FF0FF3905D0A3
:10549000FBF7F0FA02464B46514604E034B1A278DD
:1054A0004B4604F11001304607F012F986F8A0804F
:1054B000F068246D401E8443E41C8DB9042316AAB1
:1054C00021463046FFF79EF9012809D10220CDE997
:1054D0000007042316AA21463046FFF703FA0546C3
:1054E0002846C0E75B466C61736844425D5B6B763F
:1054F0005D0000005B25735D200000002E2E5C46E1
:105500006C61736844425C7372635C6664625F6B77
:105510007664622E630000002825733A25642920F2
:10552000000000004E6F7420666F756E64202725A2
:10553000732720696E204B562E0A000010B50521F6
:10554000001DB0FBF1F4FDF7FDFB0349B0FBF1F0EA
:105550004443641EFDD210BD40420F00F0B5044626
:10556000007899B00D46002859D0A078022801D0C3
:10557000032854D101210320CDE9000161680423EF
:1055800018AA2846C91CFFF7ADF9606840F2024727
:10559000143006AE169002A9284604F075FB9DF85B
:1055A000090000281DD09DF80800022801D003281A
:1055B00017D102A9284603F083F8002811D019A0BA
:1055C000FBF742F81BA02968FBF73EF83A461BA1FF
:1055D00021A0FBF739F89DF80A10324621A0FBF70D
:1055E00033F802AA2146284602F0ADF81690401C76
:1055F000D1D1421E2846616801F0C6FE09A0FBF722
:1056000023F80CA02968FBF71FF840F207420BA112
:1056100011A0FBF719F81EA06168FBF715F819B087
:105620000020F0BD5B466C61736844425D5B6B7645
:105630005D0000005B25735D200000002E2E5C469F
:105640006C61736844425C7372635C6664625F6B36
:105650007664622E630000002825733A25642920B1
:10566000000000004572726F723A204D6F766564DB
:1056700020746865204B562028252E2A7329206621
:105680006F72204743206661696C65642E0A0000D2
:10569000436F6C6C656374206120736563746F7213
:1056A00020403078253038580A0000000122FDF7EC
:1056B000CCB90022FDF7C9B9FDF7BFB910B5074A4B
:1056C00002EBC00452F83000A188FDF7B1F9A179CE
:1056D000884201D1012010BD002010BDC4EB00089C
:1056E00070B505460024E0B2FFF7E8FF2855641CBA
:1056F000032CF8DB70BD2DE9FF5F82B09346DDE936
:10570000109A0298FBF7B6F906460027FAF790FEC2
:105710000024804625460DE0CDE9009A02985A46BD
:105720000021005D059B03F04DFB08F80400641C9C
:1057300045F10005A01B75EB0700EDDB06B0404608
:10574000BDE8F09FF0B587B000260F4600F1006479
:105750000596FDF76FF81049F3200860204606F023
:10576000B7FD0546E019401E06F0B2FD401B0221C0
:10577000401C00960295CDE9030105A96846FCF797
:10578000C5FF20B1FDF70EF8701E07B0F0BDFDF7A4
:1057900009F83846F9E700000C3C024010B50C4609
:1057A00001460F48006868B190F8342082B10C4A75
:1057B000121D92691144224605F010F970B14FF0A4
:1057C000FF3010BD074A08A10AA0FAF73DFFFEE727
:1057D000044A10A107A0FAF737FFFEE7204610BDE4
:1057E00050020020C0F40008736675645F6465763B
:1057F00000000000282573292068617320617373FD
:10580000657274206661696C65642061742025731B
:105810002E0A0000736675645F6465762D3E696EBE
:1058200069745F6F6B00000070B506461148007820
:1058300070B1A6B1104D0024182255F8241030463E
:10584000FBF737F990B1641C022CF5D3002070BD32
:10585000094A0AA117320BA0FAF7F6FEFEE7064A3C
:1058600010A1173207A0FAF7EFFEFEE755F8240063
:1058700070BD000042020020CCF20008696E69741D
:105880005F6F6B0028257329206861732061737333
:10589000657274206661696C65642061742025738B
:1058A0002E0A00006E616D6500000000FEB5224EFC
:1058B000307808B10020FEBD204D002455F82400AA
:1058C000816A19B3C16A002927D0016B00292BD046
:1058D000406A00B1804719492F22083118A0FAF711
:1058E000B3FE55F8243003F1180007C88DE807000F
:1058F000182211461748FAF7A7FE17A0FAF7A4FED8
:10590000641C022CDAD301203070D3E70B4A13A1B8
:10591000083219A0FAF798FEFEE7084A1EA10832DD
:1059200015A0FAF791FEFEE7044A22A1083212A060
:10593000FAF78AFEFEE7000042020020CCF20008DF
:105940005B442F46414C5D202825733A256429206D
:105950000000000000FF00080A000000646576698E
:1059600063655F7461626C655B695D2D3E6F70732A
:105970002E72656164000000282573292068617318
:1059800020617373657274206661696C656420615F
:10599000742025732E0A00006465766963655F7460
:1059A00061626C655B695D2D3E6F70732E77726905
:1059B000746500006465766963655F7461626C6537
:1059C0005B695D2D3E6F70732E65726173650000BB
:1059D00070B5FFF76BFF114D04000ED400F05CF9B9
:1059E000041E0ADD2878002815D1012028700CA09B
:1059F000FAF72AFE0FA111A008E00020287030223B
:105A00001B491CA0FAF720FE0AA121A0FAF71CFEF0
:105A10002CA0FAF719FE204670BD000041020020BC
:105A20001B5B33323B32326D5B492F46414C5D206C
:105A300000000000302E352E39390000466C6173AD
:105A400068204162737472616374696F6E204C6187
:105A500079657220285625732920696E69746961F9
:105A60006C697A6520737563636573732E0000003B
:105A7000C0F200081B5B33313B32326D5B452F4671
:105A8000414C5D202825733A256429200000000040
:105A9000466C617368204162737472616374696FEC
:105AA0006E204C6179657220285625732920696E15
:105AB000697469616C697A65206661696C65642ED8
:105AC000000000001B5B306D0A0000002DE9F04172
:105AD00090460E46040010D0A16B06EB08004FF074
